{
  "address": "0x191bB131265246cF7EFc238755cbA14e0607eA7E",
  "abi": [
    {
      "inputs": [
        {
          "internalType": "address",
          "name": "_owner",
          "type": "address"
        }
      ],
      "stateMutability": "nonpayable",
      "type": "constructor"
    },
    {
      "anonymous": false,
      "inputs": [
        {
          "indexed": true,
          "internalType": "address",
          "name": "account",
          "type": "address"
        },
        {
          "indexed": true,
          "internalType": "address",
          "name": "operator",
          "type": "address"
        },
        {
          "indexed": false,
          "internalType": "bool",
          "name": "approved",
          "type": "bool"
        }
      ],
      "name": "ApprovalForAll",
      "type": "event"
    },
    {
      "anonymous": false,
      "inputs": [
        {
          "indexed": false,
          "internalType": "address",
          "name": "userAddress",
          "type": "address"
        },
        {
          "indexed": false,
          "internalType": "address payable",
          "name": "relayerAddress",
          "type": "address"
        },
        {
          "indexed": false,
          "internalType": "bytes",
          "name": "functionSignature",
          "type": "bytes"
        }
      ],
      "name": "MetaTransactionExecuted",
      "type": "event"
    },
    {
      "anonymous": false,
      "inputs": [
        {
          "indexed": true,
          "internalType": "address",
          "name": "previousOwner",
          "type": "address"
        },
        {
          "indexed": true,
          "internalType": "address",
          "name": "newOwner",
          "type": "address"
        }
      ],
      "name": "OwnershipTransferred",
      "type": "event"
    },
    {
      "anonymous": false,
      "inputs": [
        {
          "indexed": true,
          "internalType": "address",
          "name": "operator",
          "type": "address"
        },
        {
          "indexed": true,
          "internalType": "address",
          "name": "from",
          "type": "address"
        },
        {
          "indexed": true,
          "internalType": "address",
          "name": "to",
          "type": "address"
        },
        {
          "indexed": false,
          "internalType": "uint256[]",
          "name": "ids",
          "type": "uint256[]"
        },
        {
          "indexed": false,
          "internalType": "uint256[]",
          "name": "values",
          "type": "uint256[]"
        }
      ],
      "name": "TransferBatch",
      "type": "event"
    },
    {
      "anonymous": false,
      "inputs": [
        {
          "indexed": true,
          "internalType": "address",
          "name": "operator",
          "type": "address"
        },
        {
          "indexed": true,
          "internalType": "address",
          "name": "from",
          "type": "address"
        },
        {
          "indexed": true,
          "internalType": "address",
          "name": "to",
          "type": "address"
        },
        {
          "indexed": false,
          "internalType": "uint256",
          "name": "id",
          "type": "uint256"
        },
        {
          "indexed": false,
          "internalType": "uint256",
          "name": "value",
          "type": "uint256"
        }
      ],
      "name": "TransferSingle",
      "type": "event"
    },
    {
      "anonymous": false,
      "inputs": [
        {
          "indexed": false,
          "internalType": "string",
          "name": "value",
          "type": "string"
        },
        {
          "indexed": true,
          "internalType": "uint256",
          "name": "id",
          "type": "uint256"
        }
      ],
      "name": "URI",
      "type": "event"
    },
    {
      "inputs": [],
      "name": "DEXAddress",
      "outputs": [
        {
          "internalType": "address",
          "name": "",
          "type": "address"
        }
      ],
      "stateMutability": "view",
      "type": "function"
    },
    {
      "inputs": [
        {
          "internalType": "address",
          "name": "account",
          "type": "address"
        },
        {
          "internalType": "uint256",
          "name": "id",
          "type": "uint256"
        }
      ],
      "name": "balanceOf",
      "outputs": [
        {
          "internalType": "uint256",
          "name": "",
          "type": "uint256"
        }
      ],
      "stateMutability": "view",
      "type": "function"
    },
    {
      "inputs": [
        {
          "internalType": "address[]",
          "name": "accounts",
          "type": "address[]"
        },
        {
          "internalType": "uint256[]",
          "name": "ids",
          "type": "uint256[]"
        }
      ],
      "name": "balanceOfBatch",
      "outputs": [
        {
          "internalType": "uint256[]",
          "name": "",
          "type": "uint256[]"
        }
      ],
      "stateMutability": "view",
      "type": "function"
    },
    {
      "inputs": [
        {
          "internalType": "address",
          "name": "account",
          "type": "address"
        },
        {
          "internalType": "uint256",
          "name": "id",
          "type": "uint256"
        },
        {
          "internalType": "uint256",
          "name": "value",
          "type": "uint256"
        }
      ],
      "name": "burn",
      "outputs": [],
      "stateMutability": "nonpayable",
      "type": "function"
    },
    {
      "inputs": [
        {
          "internalType": "address",
          "name": "account",
          "type": "address"
        },
        {
          "internalType": "uint256[]",
          "name": "ids",
          "type": "uint256[]"
        },
        {
          "internalType": "uint256[]",
          "name": "values",
          "type": "uint256[]"
        }
      ],
      "name": "burnBatch",
      "outputs": [],
      "stateMutability": "nonpayable",
      "type": "function"
    },
    {
      "inputs": [],
      "name": "carbonCreditsOwner",
      "outputs": [
        {
          "internalType": "address",
          "name": "",
          "type": "address"
        }
      ],
      "stateMutability": "view",
      "type": "function"
    },
    {
      "inputs": [
        {
          "internalType": "address",
          "name": "userAddress",
          "type": "address"
        },
        {
          "internalType": "bytes",
          "name": "functionSignature",
          "type": "bytes"
        },
        {
          "internalType": "bytes32",
          "name": "sigR",
          "type": "bytes32"
        },
        {
          "internalType": "bytes32",
          "name": "sigS",
          "type": "bytes32"
        },
        {
          "internalType": "uint8",
          "name": "sigV",
          "type": "uint8"
        }
      ],
      "name": "executeMetaTransaction",
      "outputs": [
        {
          "internalType": "bytes",
          "name": "",
          "type": "bytes"
        }
      ],
      "stateMutability": "payable",
      "type": "function"
    },
    {
      "inputs": [
        {
          "internalType": "uint256",
          "name": "id",
          "type": "uint256"
        }
      ],
      "name": "exists",
      "outputs": [
        {
          "internalType": "bool",
          "name": "",
          "type": "bool"
        }
      ],
      "stateMutability": "view",
      "type": "function"
    },
    {
      "inputs": [
        {
          "internalType": "address",
          "name": "user",
          "type": "address"
        }
      ],
      "name": "getNonce",
      "outputs": [
        {
          "internalType": "uint256",
          "name": "nonce",
          "type": "uint256"
        }
      ],
      "stateMutability": "view",
      "type": "function"
    },
    {
      "inputs": [
        {
          "internalType": "address",
          "name": "account",
          "type": "address"
        },
        {
          "internalType": "uint256[]",
          "name": "ids",
          "type": "uint256[]"
        }
      ],
      "name": "getPortfolio",
      "outputs": [
        {
          "internalType": "uint256[]",
          "name": "",
          "type": "uint256[]"
        }
      ],
      "stateMutability": "view",
      "type": "function"
    },
    {
      "inputs": [
        {
          "internalType": "address",
          "name": "account",
          "type": "address"
        },
        {
          "internalType": "address",
          "name": "operator",
          "type": "address"
        }
      ],
      "name": "isApprovedForAll",
      "outputs": [
        {
          "internalType": "bool",
          "name": "",
          "type": "bool"
        }
      ],
      "stateMutability": "view",
      "type": "function"
    },
    {
      "inputs": [
        {
          "internalType": "address",
          "name": "account",
          "type": "address"
        },
        {
          "internalType": "uint256",
          "name": "id",
          "type": "uint256"
        },
        {
          "internalType": "uint256",
          "name": "amount",
          "type": "uint256"
        },
        {
          "internalType": "bytes",
          "name": "data",
          "type": "bytes"
        }
      ],
      "name": "mint",
      "outputs": [],
      "stateMutability": "nonpayable",
      "type": "function"
    },
    {
      "inputs": [
        {
          "internalType": "address",
          "name": "to",
          "type": "address"
        },
        {
          "internalType": "uint256[]",
          "name": "ids",
          "type": "uint256[]"
        },
        {
          "internalType": "uint256[]",
          "name": "amounts",
          "type": "uint256[]"
        },
        {
          "internalType": "bytes",
          "name": "data",
          "type": "bytes"
        }
      ],
      "name": "mintBatch",
      "outputs": [],
      "stateMutability": "nonpayable",
      "type": "function"
    },
    {
      "inputs": [],
      "name": "owner",
      "outputs": [
        {
          "internalType": "address",
          "name": "",
          "type": "address"
        }
      ],
      "stateMutability": "view",
      "type": "function"
    },
    {
      "inputs": [],
      "name": "renounceOwnership",
      "outputs": [],
      "stateMutability": "nonpayable",
      "type": "function"
    },
    {
      "inputs": [
        {
          "internalType": "address",
          "name": "from",
          "type": "address"
        },
        {
          "internalType": "address",
          "name": "to",
          "type": "address"
        },
        {
          "internalType": "uint256[]",
          "name": "ids",
          "type": "uint256[]"
        },
        {
          "internalType": "uint256[]",
          "name": "amounts",
          "type": "uint256[]"
        },
        {
          "internalType": "bytes",
          "name": "data",
          "type": "bytes"
        }
      ],
      "name": "safeBatchTransferFrom",
      "outputs": [],
      "stateMutability": "nonpayable",
      "type": "function"
    },
    {
      "inputs": [
        {
          "internalType": "address",
          "name": "from",
          "type": "address"
        },
        {
          "internalType": "address",
          "name": "to",
          "type": "address"
        },
        {
          "internalType": "uint256",
          "name": "id",
          "type": "uint256"
        },
        {
          "internalType": "uint256",
          "name": "amount",
          "type": "uint256"
        },
        {
          "internalType": "bytes",
          "name": "data",
          "type": "bytes"
        }
      ],
      "name": "safeTransferFrom",
      "outputs": [],
      "stateMutability": "nonpayable",
      "type": "function"
    },
    {
      "inputs": [
        {
          "internalType": "address",
          "name": "operator",
          "type": "address"
        },
        {
          "internalType": "bool",
          "name": "approved",
          "type": "bool"
        }
      ],
      "name": "setApprovalForAll",
      "outputs": [],
      "stateMutability": "nonpayable",
      "type": "function"
    },
    {
      "inputs": [
        {
          "internalType": "address",
          "name": "_DEXAddress",
          "type": "address"
        }
      ],
      "name": "setDEXAddress",
      "outputs": [],
      "stateMutability": "nonpayable",
      "type": "function"
    },
    {
      "inputs": [
        {
          "internalType": "address",
          "name": "newOwner",
          "type": "address"
        }
      ],
      "name": "setOwner",
      "outputs": [],
      "stateMutability": "nonpayable",
      "type": "function"
    },
    {
      "inputs": [
        {
          "internalType": "string",
          "name": "newuri",
          "type": "string"
        }
      ],
      "name": "setURI",
      "outputs": [],
      "stateMutability": "nonpayable",
      "type": "function"
    },
    {
      "inputs": [
        {
          "internalType": "bytes4",
          "name": "interfaceId",
          "type": "bytes4"
        }
      ],
      "name": "supportsInterface",
      "outputs": [
        {
          "internalType": "bool",
          "name": "",
          "type": "bool"
        }
      ],
      "stateMutability": "view",
      "type": "function"
    },
    {
      "inputs": [
        {
          "internalType": "uint256",
          "name": "id",
          "type": "uint256"
        }
      ],
      "name": "totalSupply",
      "outputs": [
        {
          "internalType": "uint256",
          "name": "",
          "type": "uint256"
        }
      ],
      "stateMutability": "view",
      "type": "function"
    },
    {
      "inputs": [
        {
          "internalType": "address",
          "name": "newOwner",
          "type": "address"
        }
      ],
      "name": "transferOwnership",
      "outputs": [],
      "stateMutability": "nonpayable",
      "type": "function"
    },
    {
      "inputs": [
        {
          "internalType": "uint256",
          "name": "",
          "type": "uint256"
        }
      ],
      "name": "uri",
      "outputs": [
        {
          "internalType": "string",
          "name": "",
          "type": "string"
        }
      ],
      "stateMutability": "view",
      "type": "function"
    }
  ],
  "transactionHash": "0x7d07be953fae37bff6a541069371eb83fdb9126b01b3bfe1b77cf25df9b17e5e",
  "args": [
    "0x02AfC92a4f85F568375F77360C4385F12c75858C"
  ],
  "numDeployments": 1,
  "solcInputHash": "6183443cd6cef5d03feef36241b824b7",
  "bytecode": "0x60806040523480156200001157600080fd5b506040516200593d3803806200593d833981810160405281019062000037919062000325565b6040518060400160405280600d81526020017f436172626f6e43726564697473000000000000000000000000000000000000008152506040518060400160405280600181526020017f310000000000000000000000000000000000000000000000000000000000000081525081816040518060400160405280600781526020017f536f6d6555524c00000000000000000000000000000000000000000000000000815250620000ec81620001d060201b60201c565b506200010d62000101620001e560201b60201c565b620001ed60201b60201c565b6040518060800160405280604f8152602001620058ee604f91398051906020012082805190602001208280519060200120306200014f620002b360201b60201c565b60001b6040516020016200016895949392919062000383565b604051602081830303815290604052805190602001206005819055505050505080600760006101000a81548173ffffffffffffffffffffffffffffffffffffffff021916908373ffffffffffffffffffffffffffffffffffffffff1602179055505062000741565b8060029081620001e191906200065a565b5050565b600033905090565b6000600360009054906101000a900473ffffffffffffffffffffffffffffffffffffffff16905081600360006101000a81548173ffffffffffffffffffffffffffffffffffffffff021916908373ffffffffffffffffffffffffffffffffffffffff1602179055508173ffffffffffffffffffffffffffffffffffffffff168173ffffffffffffffffffffffffffffffffffffffff167f8be0079c531659141344cd1fd0a4f28419497f9722a3daafe3b4186f6b6457e060405160405180910390a35050565b600046905090565b600080fd5b600073ffffffffffffffffffffffffffffffffffffffff82169050919050565b6000620002ed82620002c0565b9050919050565b620002ff81620002e0565b81146200030b57600080fd5b50565b6000815190506200031f81620002f4565b92915050565b6000602082840312156200033e576200033d620002bb565b5b60006200034e848285016200030e565b91505092915050565b6000819050919050565b6200036c8162000357565b82525050565b6200037d81620002e0565b82525050565b600060a0820190506200039a600083018862000361565b620003a9602083018762000361565b620003b8604083018662000361565b620003c7606083018562000372565b620003d6608083018462000361565b9695505050505050565b600081519050919050565b7f4e487b7100000000000000000000000000000000000000000000000000000000600052604160045260246000fd5b7f4e487b7100000000000000000000000000000000000000000000000000000000600052602260045260246000fd5b600060028204905060018216806200046257607f821691505b6020821081036200047857620004776200041a565b5b50919050565b60008190508160005260206000209050919050565b60006020601f8301049050919050565b600082821b905092915050565b600060088302620004e27fffffffffffffffffffffffffffffffffffffffffffffffffffffffffffffffff82620004a3565b620004ee8683620004a3565b95508019841693508086168417925050509392505050565b6000819050919050565b6000819050919050565b60006200053b620005356200052f8462000506565b62000510565b62000506565b9050919050565b6000819050919050565b62000557836200051a565b6200056f620005668262000542565b848454620004b0565b825550505050565b600090565b6200058662000577565b620005938184846200054c565b505050565b5b81811015620005bb57620005af6000826200057c565b60018101905062000599565b5050565b601f8211156200060a57620005d4816200047e565b620005df8462000493565b81016020851015620005ef578190505b62000607620005fe8562000493565b83018262000598565b50505b505050565b600082821c905092915050565b60006200062f600019846008026200060f565b1980831691505092915050565b60006200064a83836200061c565b9150826002028217905092915050565b6200066582620003e0565b67ffffffffffffffff811115620006815762000680620003eb565b5b6200068d825462000449565b6200069a828285620005bf565b600060209050601f831160018114620006d25760008415620006bd578287015190505b620006c985826200063c565b86555062000739565b601f198416620006e2866200047e565b60005b828110156200070c57848901518255600182019150602085019450602081019050620006e5565b868310156200072c578489015162000728601f8916826200061c565b8355505b6001600288020188555050505b505050505050565b61519d80620007516000396000f3fe6080604052600436106101655760003560e01c80636b20c454116100d1578063a22cb4651161008a578063e985e9c511610064578063e985e9c514610562578063f242432a1461059f578063f2fde38b146105c8578063f5298aca146105f157610165565b8063a22cb465146104d1578063bd85b039146104fa578063c39b49fb1461053757610165565b80636b20c454146103d7578063715018a614610400578063731133e9146104175780638865bba3146104405780638da5cb5b1461047d5780639a4b448d146104a857610165565b80631f7fdffa116101235780631f7fdffa146102a3578063206faedf146102cc5780632d0335ab146102f75780632eb2c2d6146103345780634e1273f41461035d5780634f558e791461039a57610165565b8062fdd58e1461016a57806301ffc9a7146101a757806302fe5305146101e45780630c53c51c1461020d5780630e89341c1461023d57806313af40351461027a575b600080fd5b34801561017657600080fd5b50610191600480360381019061018c9190612fe4565b61061a565b60405161019e9190613033565b60405180910390f35b3480156101b357600080fd5b506101ce60048036038101906101c991906130a6565b6106e2565b6040516101db91906130ee565b60405180910390f35b3480156101f057600080fd5b5061020b6004803603810190610206919061324f565b6107c4565b005b610227600480360381019061022291906133a8565b6107d8565b60405161023491906134be565b60405180910390f35b34801561024957600080fd5b50610264600480360381019061025f91906134e0565b610afc565b6040516102719190613562565b60405180910390f35b34801561028657600080fd5b506102a1600480360381019061029c9190613584565b610b90565b005b3480156102af57600080fd5b506102ca60048036038101906102c59190613679565b610c64565b005b3480156102d857600080fd5b506102e1610c7e565b6040516102ee9190613743565b60405180910390f35b34801561030357600080fd5b5061031e60048036038101906103199190613584565b610ca4565b60405161032b9190613033565b60405180910390f35b34801561034057600080fd5b5061035b6004803603810190610356919061375e565b610ced565b005b34801561036957600080fd5b50610384600480360381019061037f91906138f0565b610d8e565b6040516103919190613a26565b60405180910390f35b3480156103a657600080fd5b506103c160048036038101906103bc91906134e0565b610ea7565b6040516103ce91906130ee565b60405180910390f35b3480156103e357600080fd5b506103fe60048036038101906103f99190613a48565b610ebb565b005b34801561040c57600080fd5b50610415610f58565b005b34801561042357600080fd5b5061043e60048036038101906104399190613ad3565b610f6c565b005b34801561044c57600080fd5b5061046760048036038101906104629190613b56565b611066565b6040516104749190613a26565b60405180910390f35b34801561048957600080fd5b50610492611121565b60405161049f9190613743565b60405180910390f35b3480156104b457600080fd5b506104cf60048036038101906104ca9190613584565b61114b565b005b3480156104dd57600080fd5b506104f860048036038101906104f39190613bde565b61121f565b005b34801561050657600080fd5b50610521600480360381019061051c91906134e0565b611235565b60405161052e9190613033565b60405180910390f35b34801561054357600080fd5b5061054c611252565b6040516105599190613743565b60405180910390f35b34801561056e57600080fd5b5061058960048036038101906105849190613c1e565b611278565b60405161059691906130ee565b60405180910390f35b3480156105ab57600080fd5b506105c660048036038101906105c19190613c5e565b61130c565b005b3480156105d457600080fd5b506105ef60048036038101906105ea9190613584565b6113ad565b005b3480156105fd57600080fd5b5061061860048036038101906106139190613cf5565b611430565b005b60008073ffffffffffffffffffffffffffffffffffffffff168373ffffffffffffffffffffffffffffffffffffffff160361068a576040517f08c379a000000000000000000000000000000000000000000000000000000000815260040161068190613dba565b60405180910390fd5b60008083815260200190815260200160002060008473ffffffffffffffffffffffffffffffffffffffff1673ffffffffffffffffffffffffffffffffffffffff16815260200190815260200160002054905092915050565b60007fd9b67a26000000000000000000000000000000000000000000000000000000007bffffffffffffffffffffffffffffffffffffffffffffffffffffffff1916827bffffffffffffffffffffffffffffffffffffffffffffffffffffffff191614806107ad57507f0e89341c000000000000000000000000000000000000000000000000000000007bffffffffffffffffffffffffffffffffffffffffffffffffffffffff1916827bffffffffffffffffffffffffffffffffffffffffffffffffffffffff1916145b806107bd57506107bc82611528565b5b9050919050565b6107cc611592565b6107d581611610565b50565b606060006107e586611623565b90506000357fffffffff00000000000000000000000000000000000000000000000000000000167bffffffffffffffffffffffffffffffffffffffffffffffffffffffff1916817bffffffffffffffffffffffffffffffffffffffffffffffffffffffff19160361088b576040517f08c379a000000000000000000000000000000000000000000000000000000000815260040161088290613e4c565b60405180910390fd5b60006040518060600160405280600660008b73ffffffffffffffffffffffffffffffffffffffff1673ffffffffffffffffffffffffffffffffffffffff1681526020019081526020016000205481526020018973ffffffffffffffffffffffffffffffffffffffff16815260200188815250905061090c8882888888611646565b61094b576040517f08c379a000000000000000000000000000000000000000000000000000000000815260040161094290613ede565b60405180910390fd5b61099e6001600660008b73ffffffffffffffffffffffffffffffffffffffff1673ffffffffffffffffffffffffffffffffffffffff1681526020019081526020016000205461175490919063ffffffff16565b600660008a73ffffffffffffffffffffffffffffffffffffffff1673ffffffffffffffffffffffffffffffffffffffff168152602001908152602001600020819055506000803073ffffffffffffffffffffffffffffffffffffffff16898b604051602001610a0e929190613f82565b604051602081830303815290604052604051610a2a9190613faa565b6000604051808303816000865af19150503d8060008114610a67576040519150601f19603f3d011682016040523d82523d6000602084013e610a6c565b606091505b509150915081610ab1576040517f08c379a0000000000000000000000000000000000000000000000000000000008152600401610aa89061400d565b60405180910390fd5b7f5845892132946850460bff5a0083f71031bc5bf9aadcd40f1de79423eac9b10b8a338b604051610ae49392919061404e565b60405180910390a18094505050505095945050505050565b606060028054610b0b906140bb565b80601f0160208091040260200160405190810160405280929190818152602001828054610b37906140bb565b8015610b845780601f10610b5957610100808354040283529160200191610b84565b820191906000526020600020905b815481529060010190602001808311610b6757829003601f168201915b50505050509050919050565b600760009054906101000a900473ffffffffffffffffffffffffffffffffffffffff1673ffffffffffffffffffffffffffffffffffffffff163373ffffffffffffffffffffffffffffffffffffffff1614610c20576040517f08c379a0000000000000000000000000000000000000000000000000000000008152600401610c179061415e565b60405180910390fd5b80600760006101000a81548173ffffffffffffffffffffffffffffffffffffffff021916908373ffffffffffffffffffffffffffffffffffffffff16021790555050565b610c6c611592565b610c788484848461176a565b50505050565b600860009054906101000a900473ffffffffffffffffffffffffffffffffffffffff1681565b6000600660008373ffffffffffffffffffffffffffffffffffffffff1673ffffffffffffffffffffffffffffffffffffffff168152602001908152602001600020549050919050565b610cf5611996565b73ffffffffffffffffffffffffffffffffffffffff168573ffffffffffffffffffffffffffffffffffffffff161480610d3b5750610d3a85610d35611996565b611278565b5b610d7a576040517f08c379a0000000000000000000000000000000000000000000000000000000008152600401610d71906141f0565b60405180910390fd5b610d87858585858561199e565b5050505050565b60608151835114610dd4576040517f08c379a0000000000000000000000000000000000000000000000000000000008152600401610dcb90614282565b60405180910390fd5b6000835167ffffffffffffffff811115610df157610df0613124565b5b604051908082528060200260200182016040528015610e1f5781602001602082028036833780820191505090505b50905060005b8451811015610e9c57610e6c858281518110610e4457610e436142a2565b5b6020026020010151858381518110610e5f57610e5e6142a2565b5b602002602001015161061a565b828281518110610e7f57610e7e6142a2565b5b60200260200101818152505080610e9590614300565b9050610e25565b508091505092915050565b600080610eb383611235565b119050919050565b610ec3611996565b73ffffffffffffffffffffffffffffffffffffffff168373ffffffffffffffffffffffffffffffffffffffff161480610f095750610f0883610f03611996565b611278565b5b610f48576040517f08c379a0000000000000000000000000000000000000000000000000000000008152600401610f3f906141f0565b60405180910390fd5b610f53838383611cbf565b505050565b610f60611592565b610f6a6000611f8d565b565b600860009054906101000a900473ffffffffffffffffffffffffffffffffffffffff1673ffffffffffffffffffffffffffffffffffffffff163373ffffffffffffffffffffffffffffffffffffffff1614806110155750600760009054906101000a900473ffffffffffffffffffffffffffffffffffffffff1673ffffffffffffffffffffffffffffffffffffffff163373ffffffffffffffffffffffffffffffffffffffff16145b611054576040517f08c379a000000000000000000000000000000000000000000000000000000000815260040161104b906143ba565b60405180910390fd5b61106084848484612053565b50505050565b60606000825167ffffffffffffffff81111561108557611084613124565b5b6040519080825280602002602001820160405280156110b35781602001602082028036833780820191505090505b50905060005b8351811015611116576110e6858583815181106110d9576110d86142a2565b5b602002602001015161061a565b8282815181106110f9576110f86142a2565b5b6020026020010181815250508061110f90614300565b90506110b9565b508091505092915050565b6000600360009054906101000a900473ffffffffffffffffffffffffffffffffffffffff16905090565b600760009054906101000a900473ffffffffffffffffffffffffffffffffffffffff1673ffffffffffffffffffffffffffffffffffffffff163373ffffffffffffffffffffffffffffffffffffffff16146111db576040517f08c379a00000000000000000000000000000000000000000000000000000000081526004016111d29061415e565b60405180910390fd5b80600860006101000a81548173ffffffffffffffffffffffffffffffffffffffff021916908373ffffffffffffffffffffffffffffffffffffffff16021790555050565b61123161122a611996565b8383612203565b5050565b600060046000838152602001908152602001600020549050919050565b600760009054906101000a900473ffffffffffffffffffffffffffffffffffffffff1681565b6000600160008473ffffffffffffffffffffffffffffffffffffffff1673ffffffffffffffffffffffffffffffffffffffff16815260200190815260200160002060008373ffffffffffffffffffffffffffffffffffffffff1673ffffffffffffffffffffffffffffffffffffffff16815260200190815260200160002060009054906101000a900460ff16905092915050565b611314611996565b73ffffffffffffffffffffffffffffffffffffffff168573ffffffffffffffffffffffffffffffffffffffff16148061135a575061135985611354611996565b611278565b5b611399576040517f08c379a0000000000000000000000000000000000000000000000000000000008152600401611390906141f0565b60405180910390fd5b6113a6858585858561236f565b5050505050565b6113b5611592565b600073ffffffffffffffffffffffffffffffffffffffff168173ffffffffffffffffffffffffffffffffffffffff1603611424576040517f08c379a000000000000000000000000000000000000000000000000000000000815260040161141b9061444c565b60405180910390fd5b61142d81611f8d565b50565b600860009054906101000a900473ffffffffffffffffffffffffffffffffffffffff1673ffffffffffffffffffffffffffffffffffffffff163373ffffffffffffffffffffffffffffffffffffffff1614806114d95750600760009054906101000a900473ffffffffffffffffffffffffffffffffffffffff1673ffffffffffffffffffffffffffffffffffffffff163373ffffffffffffffffffffffffffffffffffffffff16145b611518576040517f08c379a000000000000000000000000000000000000000000000000000000000815260040161150f906143ba565b60405180910390fd5b61152383838361260a565b505050565b60007f01ffc9a7000000000000000000000000000000000000000000000000000000007bffffffffffffffffffffffffffffffffffffffffffffffffffffffff1916827bffffffffffffffffffffffffffffffffffffffffffffffffffffffff1916149050919050565b61159a611996565b73ffffffffffffffffffffffffffffffffffffffff166115b8611121565b73ffffffffffffffffffffffffffffffffffffffff161461160e576040517f08c379a0000000000000000000000000000000000000000000000000000000008152600401611605906144b8565b60405180910390fd5b565b806002908161161f9190614684565b5050565b60008082510361163957600060e01b9050611641565b602082015190505b919050565b600080600161165c61165788612850565b6128b8565b8487876040516000815260200160405260405161167c9493929190614774565b6020604051602081039080840390855afa15801561169e573d6000803e3d6000fd5b505050602060405103519050600073ffffffffffffffffffffffffffffffffffffffff168173ffffffffffffffffffffffffffffffffffffffff1603611719576040517f08c379a000000000000000000000000000000000000000000000000000000000815260040161171090614805565b60405180910390fd5b8673ffffffffffffffffffffffffffffffffffffffff168173ffffffffffffffffffffffffffffffffffffffff161491505095945050505050565b600081836117629190614825565b905092915050565b600073ffffffffffffffffffffffffffffffffffffffff168473ffffffffffffffffffffffffffffffffffffffff16036117d9576040517f08c379a00000000000000000000000000000000000000000000000000000000081526004016117d0906148cb565b60405180910390fd5b815183511461181d576040517f08c379a00000000000000000000000000000000000000000000000000000000081526004016118149061495d565b60405180910390fd5b6000611827611996565b9050611838816000878787876128f1565b60005b84518110156118f157838181518110611857576118566142a2565b5b6020026020010151600080878481518110611875576118746142a2565b5b6020026020010151815260200190815260200160002060008873ffffffffffffffffffffffffffffffffffffffff1673ffffffffffffffffffffffffffffffffffffffff16815260200190815260200160002060008282546118d79190614825565b9250508190555080806118e990614300565b91505061183b565b508473ffffffffffffffffffffffffffffffffffffffff16600073ffffffffffffffffffffffffffffffffffffffff168273ffffffffffffffffffffffffffffffffffffffff167f4a39dc06d4c0dbc64b70af90fd698a233a518aa5d07e595d983b8c0526c8f7fb878760405161196992919061497d565b60405180910390a461198081600087878787612907565b61198f8160008787878761290f565b5050505050565b600033905090565b81518351146119e2576040517f08c379a00000000000000000000000000000000000000000000000000000000081526004016119d99061495d565b60405180910390fd5b600073ffffffffffffffffffffffffffffffffffffffff168473ffffffffffffffffffffffffffffffffffffffff1603611a51576040517f08c379a0000000000000000000000000000000000000000000000000000000008152600401611a4890614a26565b60405180910390fd5b6000611a5b611996565b9050611a6b8187878787876128f1565b60005b8451811015611c1c576000858281518110611a8c57611a8b6142a2565b5b602002602001015190506000858381518110611aab57611aaa6142a2565b5b60200260200101519050600080600084815260200190815260200160002060008b73ffffffffffffffffffffffffffffffffffffffff1673ffffffffffffffffffffffffffffffffffffffff16815260200190815260200160002054905081811015611b4c576040517f08c379a0000000000000000000000000000000000000000000000000000000008152600401611b4390614ab8565b60405180910390fd5b81810360008085815260200190815260200160002060008c73ffffffffffffffffffffffffffffffffffffffff1673ffffffffffffffffffffffffffffffffffffffff168152602001908152602001600020819055508160008085815260200190815260200160002060008b73ffffffffffffffffffffffffffffffffffffffff1673ffffffffffffffffffffffffffffffffffffffff1681526020019081526020016000206000828254611c019190614825565b9250508190555050505080611c1590614300565b9050611a6e565b508473ffffffffffffffffffffffffffffffffffffffff168673ffffffffffffffffffffffffffffffffffffffff168273ffffffffffffffffffffffffffffffffffffffff167f4a39dc06d4c0dbc64b70af90fd698a233a518aa5d07e595d983b8c0526c8f7fb8787604051611c9392919061497d565b60405180910390a4611ca9818787878787612907565b611cb781878787878761290f565b505050505050565b600073ffffffffffffffffffffffffffffffffffffffff168373ffffffffffffffffffffffffffffffffffffffff1603611d2e576040517f08c379a0000000000000000000000000000000000000000000000000000000008152600401611d2590614b4a565b60405180910390fd5b8051825114611d72576040517f08c379a0000000000000000000000000000000000000000000000000000000008152600401611d699061495d565b60405180910390fd5b6000611d7c611996565b9050611d9c818560008686604051806020016040528060008152506128f1565b60005b8351811015611ee9576000848281518110611dbd57611dbc6142a2565b5b602002602001015190506000848381518110611ddc57611ddb6142a2565b5b60200260200101519050600080600084815260200190815260200160002060008973ffffffffffffffffffffffffffffffffffffffff1673ffffffffffffffffffffffffffffffffffffffff16815260200190815260200160002054905081811015611e7d576040517f08c379a0000000000000000000000000000000000000000000000000000000008152600401611e7490614bdc565b60405180910390fd5b81810360008085815260200190815260200160002060008a73ffffffffffffffffffffffffffffffffffffffff1673ffffffffffffffffffffffffffffffffffffffff168152602001908152602001600020819055505050508080611ee190614300565b915050611d9f565b50600073ffffffffffffffffffffffffffffffffffffffff168473ffffffffffffffffffffffffffffffffffffffff168273ffffffffffffffffffffffffffffffffffffffff167f4a39dc06d4c0dbc64b70af90fd698a233a518aa5d07e595d983b8c0526c8f7fb8686604051611f6192919061497d565b60405180910390a4611f8781856000868660405180602001604052806000815250612907565b50505050565b6000600360009054906101000a900473ffffffffffffffffffffffffffffffffffffffff16905081600360006101000a81548173ffffffffffffffffffffffffffffffffffffffff021916908373ffffffffffffffffffffffffffffffffffffffff1602179055508173ffffffffffffffffffffffffffffffffffffffff168173ffffffffffffffffffffffffffffffffffffffff167f8be0079c531659141344cd1fd0a4f28419497f9722a3daafe3b4186f6b6457e060405160405180910390a35050565b600073ffffffffffffffffffffffffffffffffffffffff168473ffffffffffffffffffffffffffffffffffffffff16036120c2576040517f08c379a00000000000000000000000000000000000000000000000000000000081526004016120b9906148cb565b60405180910390fd5b60006120cc611996565b905060006120d985612ae6565b905060006120e685612ae6565b90506120f7836000898585896128f1565b8460008088815260200190815260200160002060008973ffffffffffffffffffffffffffffffffffffffff1673ffffffffffffffffffffffffffffffffffffffff16815260200190815260200160002060008282546121569190614825565b925050819055508673ffffffffffffffffffffffffffffffffffffffff16600073ffffffffffffffffffffffffffffffffffffffff168473ffffffffffffffffffffffffffffffffffffffff167fc3d58168c5ae7397731d063d5bbf3d657854427343f4c083240f7aacaa2d0f6289896040516121d4929190614bfc565b60405180910390a46121eb83600089858589612907565b6121fa83600089898989612b60565b50505050505050565b8173ffffffffffffffffffffffffffffffffffffffff168373ffffffffffffffffffffffffffffffffffffffff1603612271576040517f08c379a000000000000000000000000000000000000000000000000000000000815260040161226890614c97565b60405180910390fd5b80600160008573ffffffffffffffffffffffffffffffffffffffff1673ffffffffffffffffffffffffffffffffffffffff16815260200190815260200160002060008473ffffffffffffffffffffffffffffffffffffffff1673ffffffffffffffffffffffffffffffffffffffff16815260200190815260200160002060006101000a81548160ff0219169083151502179055508173ffffffffffffffffffffffffffffffffffffffff168373ffffffffffffffffffffffffffffffffffffffff167f17307eab39ab6107e8899845ad3d59bd9653f200f220920489ca2b5937696c318360405161236291906130ee565b60405180910390a3505050565b600073ffffffffffffffffffffffffffffffffffffffff168473ffffffffffffffffffffffffffffffffffffffff16036123de576040517f08c379a00000000000000000000000000000000000000000000000000000000081526004016123d590614a26565b60405180910390fd5b60006123e8611996565b905060006123f585612ae6565b9050600061240285612ae6565b90506124128389898585896128f1565b600080600088815260200190815260200160002060008a73ffffffffffffffffffffffffffffffffffffffff1673ffffffffffffffffffffffffffffffffffffffff168152602001908152602001600020549050858110156124a9576040517f08c379a00000000000000000000000000000000000000000000000000000000081526004016124a090614ab8565b60405180910390fd5b85810360008089815260200190815260200160002060008b73ffffffffffffffffffffffffffffffffffffffff1673ffffffffffffffffffffffffffffffffffffffff168152602001908152602001600020819055508560008089815260200190815260200160002060008a73ffffffffffffffffffffffffffffffffffffffff1673ffffffffffffffffffffffffffffffffffffffff168152602001908152602001600020600082825461255e9190614825565b925050819055508773ffffffffffffffffffffffffffffffffffffffff168973ffffffffffffffffffffffffffffffffffffffff168573ffffffffffffffffffffffffffffffffffffffff167fc3d58168c5ae7397731d063d5bbf3d657854427343f4c083240f7aacaa2d0f628a8a6040516125db929190614bfc565b60405180910390a46125f1848a8a86868a612907565b6125ff848a8a8a8a8a612b60565b505050505050505050565b600073ffffffffffffffffffffffffffffffffffffffff168373ffffffffffffffffffffffffffffffffffffffff1603612679576040517f08c379a000000000000000000000000000000000000000000000000000000000815260040161267090614b4a565b60405180910390fd5b6000612683611996565b9050600061269084612ae6565b9050600061269d84612ae6565b90506126bd838760008585604051806020016040528060008152506128f1565b600080600087815260200190815260200160002060008873ffffffffffffffffffffffffffffffffffffffff1673ffffffffffffffffffffffffffffffffffffffff16815260200190815260200160002054905084811015612754576040517f08c379a000000000000000000000000000000000000000000000000000000000815260040161274b90614bdc565b60405180910390fd5b84810360008088815260200190815260200160002060008973ffffffffffffffffffffffffffffffffffffffff1673ffffffffffffffffffffffffffffffffffffffff16815260200190815260200160002081905550600073ffffffffffffffffffffffffffffffffffffffff168773ffffffffffffffffffffffffffffffffffffffff168573ffffffffffffffffffffffffffffffffffffffff167fc3d58168c5ae7397731d063d5bbf3d657854427343f4c083240f7aacaa2d0f628989604051612821929190614bfc565b60405180910390a461284784886000868660405180602001604052806000815250612907565b50505050505050565b600060405180608001604052806043815260200161512560439139805190602001208260000151836020015184604001518051906020012060405160200161289b9493929190614cb7565b604051602081830303815290604052805190602001209050919050565b60006128c2612d37565b826040516020016128d4929190614d74565b604051602081830303815290604052805190602001209050919050565b6128ff868686868686612d41565b505050505050565b505050505050565b61292e8473ffffffffffffffffffffffffffffffffffffffff16612f11565b15612ade578373ffffffffffffffffffffffffffffffffffffffff1663bc197c8187878686866040518663ffffffff1660e01b8152600401612974959493929190614dab565b6020604051808303816000875af19250505080156129b057506040513d601f19601f820116820180604052508101906129ad9190614e28565b60015b612a55576129bc614e62565b806308c379a003612a1857506129d0614e84565b806129db5750612a1a565b806040517f08c379a0000000000000000000000000000000000000000000000000000000008152600401612a0f9190613562565b60405180910390fd5b505b6040517f08c379a0000000000000000000000000000000000000000000000000000000008152600401612a4c90614f86565b60405180910390fd5b63bc197c8160e01b7bffffffffffffffffffffffffffffffffffffffffffffffffffffffff1916817bffffffffffffffffffffffffffffffffffffffffffffffffffffffff191614612adc576040517f08c379a0000000000000000000000000000000000000000000000000000000008152600401612ad390615018565b60405180910390fd5b505b505050505050565b60606000600167ffffffffffffffff811115612b0557612b04613124565b5b604051908082528060200260200182016040528015612b335781602001602082028036833780820191505090505b5090508281600081518110612b4b57612b4a6142a2565b5b60200260200101818152505080915050919050565b612b7f8473ffffffffffffffffffffffffffffffffffffffff16612f11565b15612d2f578373ffffffffffffffffffffffffffffffffffffffff1663f23a6e6187878686866040518663ffffffff1660e01b8152600401612bc5959493929190615038565b6020604051808303816000875af1925050508015612c0157506040513d601f19601f82011682018060405250810190612bfe9190614e28565b60015b612ca657612c0d614e62565b806308c379a003612c695750612c21614e84565b80612c2c5750612c6b565b806040517f08c379a0000000000000000000000000000000000000000000000000000000008152600401612c609190613562565b60405180910390fd5b505b6040517f08c379a0000000000000000000000000000000000000000000000000000000008152600401612c9d90614f86565b60405180910390fd5b63f23a6e6160e01b7bffffffffffffffffffffffffffffffffffffffffffffffffffffffff1916817bffffffffffffffffffffffffffffffffffffffffffffffffffffffff191614612d2d576040517f08c379a0000000000000000000000000000000000000000000000000000000008152600401612d2490615018565b60405180910390fd5b505b505050505050565b6000600554905090565b612d4f868686868686612f34565b600073ffffffffffffffffffffffffffffffffffffffff168573ffffffffffffffffffffffffffffffffffffffff1603612e005760005b8351811015612dfe57828181518110612da257612da16142a2565b5b602002602001015160046000868481518110612dc157612dc06142a2565b5b602002602001015181526020019081526020016000206000828254612de69190614825565b9250508190555080612df790614300565b9050612d86565b505b600073ffffffffffffffffffffffffffffffffffffffff168473ffffffffffffffffffffffffffffffffffffffff1603612f095760005b8351811015612f07576000848281518110612e5557612e546142a2565b5b602002602001015190506000848381518110612e7457612e736142a2565b5b6020026020010151905060006004600084815260200190815260200160002054905081811015612ed9576040517f08c379a0000000000000000000000000000000000000000000000000000000008152600401612ed090615104565b60405180910390fd5b818103600460008581526020019081526020016000208190555050505080612f0090614300565b9050612e37565b505b505050505050565b6000808273ffffffffffffffffffffffffffffffffffffffff163b119050919050565b505050505050565b6000604051905090565b600080fd5b600080fd5b600073ffffffffffffffffffffffffffffffffffffffff82169050919050565b6000612f7b82612f50565b9050919050565b612f8b81612f70565b8114612f9657600080fd5b50565b600081359050612fa881612f82565b92915050565b6000819050919050565b612fc181612fae565b8114612fcc57600080fd5b50565b600081359050612fde81612fb8565b92915050565b60008060408385031215612ffb57612ffa612f46565b5b600061300985828601612f99565b925050602061301a85828601612fcf565b9150509250929050565b61302d81612fae565b82525050565b60006020820190506130486000830184613024565b92915050565b60007fffffffff0000000000000000000000000000000000000000000000000000000082169050919050565b6130838161304e565b811461308e57600080fd5b50565b6000813590506130a08161307a565b92915050565b6000602082840312156130bc576130bb612f46565b5b60006130ca84828501613091565b91505092915050565b60008115159050919050565b6130e8816130d3565b82525050565b600060208201905061310360008301846130df565b92915050565b600080fd5b600080fd5b6000601f19601f8301169050919050565b7f4e487b7100000000000000000000000000000000000000000000000000000000600052604160045260246000fd5b61315c82613113565b810181811067ffffffffffffffff8211171561317b5761317a613124565b5b80604052505050565b600061318e612f3c565b905061319a8282613153565b919050565b600067ffffffffffffffff8211156131ba576131b9613124565b5b6131c382613113565b9050602081019050919050565b82818337600083830152505050565b60006131f26131ed8461319f565b613184565b90508281526020810184848401111561320e5761320d61310e565b5b6132198482856131d0565b509392505050565b600082601f83011261323657613235613109565b5b81356132468482602086016131df565b91505092915050565b60006020828403121561326557613264612f46565b5b600082013567ffffffffffffffff81111561328357613282612f4b565b5b61328f84828501613221565b91505092915050565b600067ffffffffffffffff8211156132b3576132b2613124565b5b6132bc82613113565b9050602081019050919050565b60006132dc6132d784613298565b613184565b9050828152602081018484840111156132f8576132f761310e565b5b6133038482856131d0565b509392505050565b600082601f8301126133205761331f613109565b5b81356133308482602086016132c9565b91505092915050565b6000819050919050565b61334c81613339565b811461335757600080fd5b50565b60008135905061336981613343565b92915050565b600060ff82169050919050565b6133858161336f565b811461339057600080fd5b50565b6000813590506133a28161337c565b92915050565b600080600080600060a086880312156133c4576133c3612f46565b5b60006133d288828901612f99565b955050602086013567ffffffffffffffff8111156133f3576133f2612f4b565b5b6133ff8882890161330b565b94505060406134108882890161335a565b93505060606134218882890161335a565b925050608061343288828901613393565b9150509295509295909350565b600081519050919050565b600082825260208201905092915050565b60005b8381101561347957808201518184015260208101905061345e565b60008484015250505050565b60006134908261343f565b61349a818561344a565b93506134aa81856020860161345b565b6134b381613113565b840191505092915050565b600060208201905081810360008301526134d88184613485565b905092915050565b6000602082840312156134f6576134f5612f46565b5b600061350484828501612fcf565b91505092915050565b600081519050919050565b600082825260208201905092915050565b60006135348261350d565b61353e8185613518565b935061354e81856020860161345b565b61355781613113565b840191505092915050565b6000602082019050818103600083015261357c8184613529565b905092915050565b60006020828403121561359a57613599612f46565b5b60006135a884828501612f99565b91505092915050565b600067ffffffffffffffff8211156135cc576135cb613124565b5b602082029050602081019050919050565b600080fd5b60006135f56135f0846135b1565b613184565b90508083825260208201905060208402830185811115613618576136176135dd565b5b835b81811015613641578061362d8882612fcf565b84526020840193505060208101905061361a565b5050509392505050565b600082601f8301126136605761365f613109565b5b81356136708482602086016135e2565b91505092915050565b6000806000806080858703121561369357613692612f46565b5b60006136a187828801612f99565b945050602085013567ffffffffffffffff8111156136c2576136c1612f4b565b5b6136ce8782880161364b565b935050604085013567ffffffffffffffff8111156136ef576136ee612f4b565b5b6136fb8782880161364b565b925050606085013567ffffffffffffffff81111561371c5761371b612f4b565b5b6137288782880161330b565b91505092959194509250565b61373d81612f70565b82525050565b60006020820190506137586000830184613734565b92915050565b600080600080600060a0868803121561377a57613779612f46565b5b600061378888828901612f99565b955050602061379988828901612f99565b945050604086013567ffffffffffffffff8111156137ba576137b9612f4b565b5b6137c68882890161364b565b935050606086013567ffffffffffffffff8111156137e7576137e6612f4b565b5b6137f38882890161364b565b925050608086013567ffffffffffffffff81111561381457613813612f4b565b5b6138208882890161330b565b9150509295509295909350565b600067ffffffffffffffff82111561384857613847613124565b5b602082029050602081019050919050565b600061386c6138678461382d565b613184565b9050808382526020820190506020840283018581111561388f5761388e6135dd565b5b835b818110156138b857806138a48882612f99565b845260208401935050602081019050613891565b5050509392505050565b600082601f8301126138d7576138d6613109565b5b81356138e7848260208601613859565b91505092915050565b6000806040838503121561390757613906612f46565b5b600083013567ffffffffffffffff81111561392557613924612f4b565b5b613931858286016138c2565b925050602083013567ffffffffffffffff81111561395257613951612f4b565b5b61395e8582860161364b565b9150509250929050565b600081519050919050565b600082825260208201905092915050565b6000819050602082019050919050565b61399d81612fae565b82525050565b60006139af8383613994565b60208301905092915050565b6000602082019050919050565b60006139d382613968565b6139dd8185613973565b93506139e883613984565b8060005b83811015613a19578151613a0088826139a3565b9750613a0b836139bb565b9250506001810190506139ec565b5085935050505092915050565b60006020820190508181036000830152613a4081846139c8565b905092915050565b600080600060608486031215613a6157613a60612f46565b5b6000613a6f86828701612f99565b935050602084013567ffffffffffffffff811115613a9057613a8f612f4b565b5b613a9c8682870161364b565b925050604084013567ffffffffffffffff811115613abd57613abc612f4b565b5b613ac98682870161364b565b9150509250925092565b60008060008060808587031215613aed57613aec612f46565b5b6000613afb87828801612f99565b9450506020613b0c87828801612fcf565b9350506040613b1d87828801612fcf565b925050606085013567ffffffffffffffff811115613b3e57613b3d612f4b565b5b613b4a8782880161330b565b91505092959194509250565b60008060408385031215613b6d57613b6c612f46565b5b6000613b7b85828601612f99565b925050602083013567ffffffffffffffff811115613b9c57613b9b612f4b565b5b613ba88582860161364b565b9150509250929050565b613bbb816130d3565b8114613bc657600080fd5b50565b600081359050613bd881613bb2565b92915050565b60008060408385031215613bf557613bf4612f46565b5b6000613c0385828601612f99565b9250506020613c1485828601613bc9565b9150509250929050565b60008060408385031215613c3557613c34612f46565b5b6000613c4385828601612f99565b9250506020613c5485828601612f99565b9150509250929050565b600080600080600060a08688031215613c7a57613c79612f46565b5b6000613c8888828901612f99565b9550506020613c9988828901612f99565b9450506040613caa88828901612fcf565b9350506060613cbb88828901612fcf565b925050608086013567ffffffffffffffff811115613cdc57613cdb612f4b565b5b613ce88882890161330b565b9150509295509295909350565b600080600060608486031215613d0e57613d0d612f46565b5b6000613d1c86828701612f99565b9350506020613d2d86828701612fcf565b9250506040613d3e86828701612fcf565b9150509250925092565b7f455243313135353a2061646472657373207a65726f206973206e6f742061207660008201527f616c6964206f776e657200000000000000000000000000000000000000000000602082015250565b6000613da4602a83613518565b9150613daf82613d48565b604082019050919050565b60006020820190508181036000830152613dd381613d97565b9050919050565b7f66756e6374696f6e5369676e61747572652063616e206e6f74206265206f662060008201527f657865637574654d6574615472616e73616374696f6e206d6574686f64000000602082015250565b6000613e36603d83613518565b9150613e4182613dda565b604082019050919050565b60006020820190508181036000830152613e6581613e29565b9050919050565b7f5369676e657220616e64207369676e617475726520646f206e6f74206d61746360008201527f6800000000000000000000000000000000000000000000000000000000000000602082015250565b6000613ec8602183613518565b9150613ed382613e6c565b604082019050919050565b60006020820190508181036000830152613ef781613ebb565b9050919050565b600081905092915050565b6000613f148261343f565b613f1e8185613efe565b9350613f2e81856020860161345b565b80840191505092915050565b60008160601b9050919050565b6000613f5282613f3a565b9050919050565b6000613f6482613f47565b9050919050565b613f7c613f7782612f70565b613f59565b82525050565b6000613f8e8285613f09565b9150613f9a8284613f6b565b6014820191508190509392505050565b6000613fb68284613f09565b915081905092915050565b7f46756e6374696f6e2063616c6c206e6f74207375636365737366756c00000000600082015250565b6000613ff7601c83613518565b915061400282613fc1565b602082019050919050565b6000602082019050818103600083015261402681613fea565b9050919050565b600061403882612f50565b9050919050565b6140488161402d565b82525050565b60006060820190506140636000830186613734565b614070602083018561403f565b81810360408301526140828184613485565b9050949350505050565b7f4e487b7100000000000000000000000000000000000000000000000000000000600052602260045260246000fd5b600060028204905060018216806140d357607f821691505b6020821081036140e6576140e561408c565b5b50919050565b7f4f6e6c79206f776e65722063616e2063616c6c20746869732066756e6374696f60008201527f6e00000000000000000000000000000000000000000000000000000000000000602082015250565b6000614148602183613518565b9150614153826140ec565b604082019050919050565b600060208201905081810360008301526141778161413b565b9050919050565b7f455243313135353a2063616c6c6572206973206e6f7420746f6b656e206f776e60008201527f6572206f7220617070726f766564000000000000000000000000000000000000602082015250565b60006141da602e83613518565b91506141e58261417e565b604082019050919050565b60006020820190508181036000830152614209816141cd565b9050919050565b7f455243313135353a206163636f756e747320616e6420696473206c656e67746860008201527f206d69736d617463680000000000000000000000000000000000000000000000602082015250565b600061426c602983613518565b915061427782614210565b604082019050919050565b6000602082019050818103600083015261429b8161425f565b9050919050565b7f4e487b7100000000000000000000000000000000000000000000000000000000600052603260045260246000fd5b7f4e487b7100000000000000000000000000000000000000000000000000000000600052601160045260246000fd5b600061430b82612fae565b91507fffffffffffffffffffffffffffffffffffffffffffffffffffffffffffffffff820361433d5761433c6142d1565b5b600182019050919050565b7f4f6e6c7920444558206f7220636172626f6e437265646974734f776e6572206360008201527f616e2063616c6c20746869732066756e6374696f6e0000000000000000000000602082015250565b60006143a4603583613518565b91506143af82614348565b604082019050919050565b600060208201905081810360008301526143d381614397565b9050919050565b7f4f776e61626c653a206e6577206f776e657220697320746865207a65726f206160008201527f6464726573730000000000000000000000000000000000000000000000000000602082015250565b6000614436602683613518565b9150614441826143da565b604082019050919050565b6000602082019050818103600083015261446581614429565b9050919050565b7f4f776e61626c653a2063616c6c6572206973206e6f7420746865206f776e6572600082015250565b60006144a2602083613518565b91506144ad8261446c565b602082019050919050565b600060208201905081810360008301526144d181614495565b9050919050565b60008190508160005260206000209050919050565b60006020601f8301049050919050565b600082821b905092915050565b60006008830261453a7fffffffffffffffffffffffffffffffffffffffffffffffffffffffffffffffff826144fd565b61454486836144fd565b95508019841693508086168417925050509392505050565b6000819050919050565b600061458161457c61457784612fae565b61455c565b612fae565b9050919050565b6000819050919050565b61459b83614566565b6145af6145a782614588565b84845461450a565b825550505050565b600090565b6145c46145b7565b6145cf818484614592565b505050565b5b818110156145f3576145e86000826145bc565b6001810190506145d5565b5050565b601f82111561463857614609816144d8565b614612846144ed565b81016020851015614621578190505b61463561462d856144ed565b8301826145d4565b50505b505050565b600082821c905092915050565b600061465b6000198460080261463d565b1980831691505092915050565b6000614674838361464a565b9150826002028217905092915050565b61468d8261350d565b67ffffffffffffffff8111156146a6576146a5613124565b5b6146b082546140bb565b6146bb8282856145f7565b600060209050601f8311600181146146ee57600084156146dc578287015190505b6146e68582614668565b86555061474e565b601f1984166146fc866144d8565b60005b82811015614724578489015182556001820191506020850194506020810190506146ff565b86831015614741578489015161473d601f89168261464a565b8355505b6001600288020188555050505b505050505050565b61475f81613339565b82525050565b61476e8161336f565b82525050565b60006080820190506147896000830187614756565b6147966020830186614765565b6147a36040830185614756565b6147b06060830184614756565b95945050505050565b7f496e76616c6964207369676e6174757265000000000000000000000000000000600082015250565b60006147ef601183613518565b91506147fa826147b9565b602082019050919050565b6000602082019050818103600083015261481e816147e2565b9050919050565b600061483082612fae565b915061483b83612fae565b9250828201905080821115614853576148526142d1565b5b92915050565b7f455243313135353a206d696e7420746f20746865207a65726f2061646472657360008201527f7300000000000000000000000000000000000000000000000000000000000000602082015250565b60006148b5602183613518565b91506148c082614859565b604082019050919050565b600060208201905081810360008301526148e4816148a8565b9050919050565b7f455243313135353a2069647320616e6420616d6f756e7473206c656e6774682060008201527f6d69736d61746368000000000000000000000000000000000000000000000000602082015250565b6000614947602883613518565b9150614952826148eb565b604082019050919050565b600060208201905081810360008301526149768161493a565b9050919050565b6000604082019050818103600083015261499781856139c8565b905081810360208301526149ab81846139c8565b90509392505050565b7f455243313135353a207472616e7366657220746f20746865207a65726f20616460008201527f6472657373000000000000000000000000000000000000000000000000000000602082015250565b6000614a10602583613518565b9150614a1b826149b4565b604082019050919050565b60006020820190508181036000830152614a3f81614a03565b9050919050565b7f455243313135353a20696e73756666696369656e742062616c616e636520666f60008201527f72207472616e7366657200000000000000000000000000000000000000000000602082015250565b6000614aa2602a83613518565b9150614aad82614a46565b604082019050919050565b60006020820190508181036000830152614ad181614a95565b9050919050565b7f455243313135353a206275726e2066726f6d20746865207a65726f206164647260008201527f6573730000000000000000000000000000000000000000000000000000000000602082015250565b6000614b34602383613518565b9150614b3f82614ad8565b604082019050919050565b60006020820190508181036000830152614b6381614b27565b9050919050565b7f455243313135353a206275726e20616d6f756e7420657863656564732062616c60008201527f616e636500000000000000000000000000000000000000000000000000000000602082015250565b6000614bc6602483613518565b9150614bd182614b6a565b604082019050919050565b60006020820190508181036000830152614bf581614bb9565b9050919050565b6000604082019050614c116000830185613024565b614c1e6020830184613024565b9392505050565b7f455243313135353a2073657474696e6720617070726f76616c2073746174757360008201527f20666f722073656c660000000000000000000000000000000000000000000000602082015250565b6000614c81602983613518565b9150614c8c82614c25565b604082019050919050565b60006020820190508181036000830152614cb081614c74565b9050919050565b6000608082019050614ccc6000830187614756565b614cd96020830186613024565b614ce66040830185613734565b614cf36060830184614756565b95945050505050565b600081905092915050565b7f1901000000000000000000000000000000000000000000000000000000000000600082015250565b6000614d3d600283614cfc565b9150614d4882614d07565b600282019050919050565b6000819050919050565b614d6e614d6982613339565b614d53565b82525050565b6000614d7f82614d30565b9150614d8b8285614d5d565b602082019150614d9b8284614d5d565b6020820191508190509392505050565b600060a082019050614dc06000830188613734565b614dcd6020830187613734565b8181036040830152614ddf81866139c8565b90508181036060830152614df381856139c8565b90508181036080830152614e078184613485565b90509695505050505050565b600081519050614e228161307a565b92915050565b600060208284031215614e3e57614e3d612f46565b5b6000614e4c84828501614e13565b91505092915050565b60008160e01c9050919050565b600060033d1115614e815760046000803e614e7e600051614e55565b90505b90565b600060443d10614f1157614e96612f3c565b60043d036004823e80513d602482011167ffffffffffffffff82111715614ebe575050614f11565b808201805167ffffffffffffffff811115614edc5750505050614f11565b80602083010160043d038501811115614ef9575050505050614f11565b614f0882602001850186613153565b82955050505050505b90565b7f455243313135353a207472616e7366657220746f206e6f6e2d4552433131353560008201527f526563656976657220696d706c656d656e746572000000000000000000000000602082015250565b6000614f70603483613518565b9150614f7b82614f14565b604082019050919050565b60006020820190508181036000830152614f9f81614f63565b9050919050565b7f455243313135353a204552433131353552656365697665722072656a6563746560008201527f6420746f6b656e73000000000000000000000000000000000000000000000000602082015250565b6000615002602883613518565b915061500d82614fa6565b604082019050919050565b6000602082019050818103600083015261503181614ff5565b9050919050565b600060a08201905061504d6000830188613734565b61505a6020830187613734565b6150676040830186613024565b6150746060830185613024565b81810360808301526150868184613485565b90509695505050505050565b7f455243313135353a206275726e20616d6f756e74206578636565647320746f7460008201527f616c537570706c79000000000000000000000000000000000000000000000000602082015250565b60006150ee602883613518565b91506150f982615092565b604082019050919050565b6000602082019050818103600083015261511d816150e1565b905091905056fe4d6574615472616e73616374696f6e2875696e74323536206e6f6e63652c616464726573732066726f6d2c62797465732066756e6374696f6e5369676e617475726529a2646970667358221220e75c46c37961cd4a4a81b6876d32def8b5496faf8750cef5de8edd7c12b439bc64736f6c63430008110033454950373132446f6d61696e28737472696e67206e616d652c737472696e672076657273696f6e2c6164647265737320766572696679696e67436f6e74726163742c627974657333322073616c7429",
  "devdoc": {
    "kind": "dev",
    "methods": {
      "balanceOf(address,uint256)": {
        "details": "See {IERC1155-balanceOf}. Requirements: - `account` cannot be the zero address."
      },
      "balanceOfBatch(address[],uint256[])": {
        "details": "See {IERC1155-balanceOfBatch}. Requirements: - `accounts` and `ids` must have the same length."
      },
      "exists(uint256)": {
        "details": "Indicates whether any token exist with a given id, or not."
      },
      "isApprovedForAll(address,address)": {
        "details": "See {IERC1155-isApprovedForAll}."
      },
      "owner()": {
        "details": "Returns the address of the current owner."
      },
      "renounceOwnership()": {
        "details": "Leaves the contract without owner. It will not be possible to call `onlyOwner` functions anymore. Can only be called by the current owner. NOTE: Renouncing ownership will leave the contract without an owner, thereby removing any functionality that is only available to the owner."
      },
      "safeBatchTransferFrom(address,address,uint256[],uint256[],bytes)": {
        "details": "See {IERC1155-safeBatchTransferFrom}."
      },
      "safeTransferFrom(address,address,uint256,uint256,bytes)": {
        "details": "See {IERC1155-safeTransferFrom}."
      },
      "setApprovalForAll(address,bool)": {
        "details": "See {IERC1155-setApprovalForAll}."
      },
      "supportsInterface(bytes4)": {
        "details": "See {IERC165-supportsInterface}."
      },
      "totalSupply(uint256)": {
        "details": "Total amount of tokens in with a given id."
      },
      "transferOwnership(address)": {
        "details": "Transfers ownership of the contract to a new account (`newOwner`). Can only be called by the current owner."
      },
      "uri(uint256)": {
        "details": "See {IERC1155MetadataURI-uri}. This implementation returns the same URI for *all* token types. It relies on the token type ID substitution mechanism https://eips.ethereum.org/EIPS/eip-1155#metadata[defined in the EIP]. Clients calling this function must replace the `\\{id\\}` substring with the actual token type ID."
      }
    },
    "version": 1
  },
  "userdoc": {
    "kind": "user",
    "methods": {},
    "version": 1
  },
  "storageLayout": {
    "storage": [
      {
        "astId": 2097,
        "contract": "contracts/CarbonCredits.sol:CarbonCredits",
        "label": "_balances",
        "offset": 0,
        "slot": "0",
        "type": "t_mapping(t_uint256,t_mapping(t_address,t_uint256))"
      },
      {
        "astId": 2103,
        "contract": "contracts/CarbonCredits.sol:CarbonCredits",
        "label": "_operatorApprovals",
        "offset": 0,
        "slot": "1",
        "type": "t_mapping(t_address,t_mapping(t_address,t_bool))"
      },
      {
        "astId": 2105,
        "contract": "contracts/CarbonCredits.sol:CarbonCredits",
        "label": "_uri",
        "offset": 0,
        "slot": "2",
        "type": "t_string_storage"
      },
      {
        "astId": 1963,
        "contract": "contracts/CarbonCredits.sol:CarbonCredits",
        "label": "_owner",
        "offset": 0,
        "slot": "3",
        "type": "t_address"
      },
      {
        "astId": 3536,
        "contract": "contracts/CarbonCredits.sol:CarbonCredits",
        "label": "_totalSupply",
        "offset": 0,
        "slot": "4",
        "type": "t_mapping(t_uint256,t_uint256)"
      },
      {
        "astId": 10708,
        "contract": "contracts/CarbonCredits.sol:CarbonCredits",
        "label": "domainSeparator",
        "offset": 0,
        "slot": "5",
        "type": "t_bytes32"
      },
      {
        "astId": 10810,
        "contract": "contracts/CarbonCredits.sol:CarbonCredits",
        "label": "nonces",
        "offset": 0,
        "slot": "6",
        "type": "t_mapping(t_address,t_uint256)"
      },
      {
        "astId": 10461,
        "contract": "contracts/CarbonCredits.sol:CarbonCredits",
        "label": "carbonCreditsOwner",
        "offset": 0,
        "slot": "7",
        "type": "t_address"
      },
      {
        "astId": 10463,
        "contract": "contracts/CarbonCredits.sol:CarbonCredits",
        "label": "DEXAddress",
        "offset": 0,
        "slot": "8",
        "type": "t_address"
      }
    ],
    "types": {
      "t_address": {
        "encoding": "inplace",
        "label": "address",
        "numberOfBytes": "20"
      },
      "t_bool": {
        "encoding": "inplace",
        "label": "bool",
        "numberOfBytes": "1"
      },
      "t_bytes32": {
        "encoding": "inplace",
        "label": "bytes32",
        "numberOfBytes": "32"
      },
      "t_mapping(t_address,t_bool)": {
        "encoding": "mapping",
        "key": "t_address",
        "label": "mapping(address => bool)",
        "numberOfBytes": "32",
        "value": "t_bool"
      },
      "t_mapping(t_address,t_mapping(t_address,t_bool))": {
        "encoding": "mapping",
        "key": "t_address",
        "label": "mapping(address => mapping(address => bool))",
        "numberOfBytes": "32",
        "value": "t_mapping(t_address,t_bool)"
      },
      "t_mapping(t_address,t_uint256)": {
        "encoding": "mapping",
        "key": "t_address",
        "label": "mapping(address => uint256)",
        "numberOfBytes": "32",
        "value": "t_uint256"
      },
      "t_mapping(t_uint256,t_mapping(t_address,t_uint256))": {
        "encoding": "mapping",
        "key": "t_uint256",
        "label": "mapping(uint256 => mapping(address => uint256))",
        "numberOfBytes": "32",
        "value": "t_mapping(t_address,t_uint256)"
      },
      "t_mapping(t_uint256,t_uint256)": {
        "encoding": "mapping",
        "key": "t_uint256",
        "label": "mapping(uint256 => uint256)",
        "numberOfBytes": "32",
        "value": "t_uint256"
      },
      "t_string_storage": {
        "encoding": "bytes",
        "label": "string",
        "numberOfBytes": "32"
      },
      "t_uint256": {
        "encoding": "inplace",
        "label": "uint256",
        "numberOfBytes": "32"
      }
    }
  }
}