{
  "address": "0xce890031711cd9A080dA5f4Fde93dF2725C03608",
  "abi": [
    {
      "inputs": [
        {
          "internalType": "address",
          "name": "_carbonCreditsContractAddress",
          "type": "address"
        },
        {
          "internalType": "address",
          "name": "_owner",
          "type": "address"
        },
        {
          "internalType": "address",
          "name": "_sustainabilityCoin",
          "type": "address"
        }
      ],
      "stateMutability": "payable",
      "type": "constructor"
    },
    {
      "anonymous": false,
      "inputs": [
        {
          "indexed": false,
          "internalType": "address",
          "name": "userAddress",
          "type": "address"
        },
        {
          "indexed": false,
          "internalType": "address payable",
          "name": "relayerAddress",
          "type": "address"
        },
        {
          "indexed": false,
          "internalType": "bytes",
          "name": "functionSignature",
          "type": "bytes"
        }
      ],
      "name": "MetaTransactionExecuted",
      "type": "event"
    },
    {
      "inputs": [
        {
          "internalType": "uint256",
          "name": "_supply",
          "type": "uint256"
        },
        {
          "internalType": "uint256",
          "name": "_connectorBalance",
          "type": "uint256"
        },
        {
          "internalType": "uint32",
          "name": "_connectorWeight",
          "type": "uint32"
        },
        {
          "internalType": "uint256",
          "name": "_depositAmount",
          "type": "uint256"
        }
      ],
      "name": "_calculatePurchaseReturn",
      "outputs": [
        {
          "internalType": "uint256",
          "name": "",
          "type": "uint256"
        }
      ],
      "stateMutability": "view",
      "type": "function"
    },
    {
      "inputs": [],
      "name": "amount",
      "outputs": [
        {
          "internalType": "uint256",
          "name": "",
          "type": "uint256"
        }
      ],
      "stateMutability": "view",
      "type": "function"
    },
    {
      "inputs": [
        {
          "internalType": "uint256",
          "name": "id",
          "type": "uint256"
        },
        {
          "internalType": "address",
          "name": "to",
          "type": "address"
        },
        {
          "internalType": "uint256",
          "name": "_depositAmount",
          "type": "uint256"
        },
        {
          "internalType": "bytes",
          "name": "data",
          "type": "bytes"
        }
      ],
      "name": "buy",
      "outputs": [],
      "stateMutability": "nonpayable",
      "type": "function"
    },
    {
      "inputs": [
        {
          "internalType": "uint256",
          "name": "_id",
          "type": "uint256"
        },
        {
          "internalType": "uint256",
          "name": "_depositAmount",
          "type": "uint256"
        }
      ],
      "name": "calculatePurchaseReturn",
      "outputs": [
        {
          "internalType": "uint256",
          "name": "",
          "type": "uint256"
        }
      ],
      "stateMutability": "view",
      "type": "function"
    },
    {
      "inputs": [
        {
          "internalType": "uint256",
          "name": "_id",
          "type": "uint256"
        },
        {
          "internalType": "uint256",
          "name": "_sellNumber",
          "type": "uint256"
        }
      ],
      "name": "calculateSaleReturn",
      "outputs": [
        {
          "internalType": "uint256",
          "name": "",
          "type": "uint256"
        }
      ],
      "stateMutability": "view",
      "type": "function"
    },
    {
      "inputs": [],
      "name": "carbonCredits",
      "outputs": [
        {
          "internalType": "contract CarbonCredits",
          "name": "",
          "type": "address"
        }
      ],
      "stateMutability": "view",
      "type": "function"
    },
    {
      "inputs": [
        {
          "internalType": "uint256",
          "name": "id",
          "type": "uint256"
        },
        {
          "internalType": "uint256",
          "name": "fee",
          "type": "uint256"
        },
        {
          "internalType": "uint256",
          "name": "initialSupply",
          "type": "uint256"
        },
        {
          "internalType": "uint256",
          "name": "initialPrice",
          "type": "uint256"
        },
        {
          "internalType": "uint32",
          "name": "rr",
          "type": "uint32"
        },
        {
          "internalType": "bytes",
          "name": "data",
          "type": "bytes"
        }
      ],
      "name": "createNewIndustry",
      "outputs": [],
      "stateMutability": "nonpayable",
      "type": "function"
    },
    {
      "inputs": [
        {
          "internalType": "address",
          "name": "userAddress",
          "type": "address"
        },
        {
          "internalType": "bytes",
          "name": "functionSignature",
          "type": "bytes"
        },
        {
          "internalType": "bytes32",
          "name": "sigR",
          "type": "bytes32"
        },
        {
          "internalType": "bytes32",
          "name": "sigS",
          "type": "bytes32"
        },
        {
          "internalType": "uint8",
          "name": "sigV",
          "type": "uint8"
        }
      ],
      "name": "executeMetaTransaction",
      "outputs": [
        {
          "internalType": "bytes",
          "name": "",
          "type": "bytes"
        }
      ],
      "stateMutability": "payable",
      "type": "function"
    },
    {
      "inputs": [
        {
          "internalType": "address",
          "name": "user",
          "type": "address"
        }
      ],
      "name": "getNonce",
      "outputs": [
        {
          "internalType": "uint256",
          "name": "nonce",
          "type": "uint256"
        }
      ],
      "stateMutability": "view",
      "type": "function"
    },
    {
      "inputs": [
        {
          "internalType": "uint256",
          "name": "_id",
          "type": "uint256"
        }
      ],
      "name": "getPrice",
      "outputs": [
        {
          "internalType": "uint256",
          "name": "",
          "type": "uint256"
        }
      ],
      "stateMutability": "view",
      "type": "function"
    },
    {
      "inputs": [
        {
          "internalType": "uint256",
          "name": "",
          "type": "uint256"
        }
      ],
      "name": "getRating",
      "outputs": [
        {
          "internalType": "uint256",
          "name": "",
          "type": "uint256"
        }
      ],
      "stateMutability": "pure",
      "type": "function"
    },
    {
      "inputs": [],
      "name": "owner",
      "outputs": [
        {
          "internalType": "address",
          "name": "",
          "type": "address"
        }
      ],
      "stateMutability": "view",
      "type": "function"
    },
    {
      "inputs": [
        {
          "internalType": "uint256",
          "name": "",
          "type": "uint256"
        }
      ],
      "name": "reserveBalances",
      "outputs": [
        {
          "internalType": "uint256",
          "name": "",
          "type": "uint256"
        }
      ],
      "stateMutability": "view",
      "type": "function"
    },
    {
      "inputs": [
        {
          "internalType": "uint256",
          "name": "id",
          "type": "uint256"
        },
        {
          "internalType": "uint256",
          "name": "_sellNumber",
          "type": "uint256"
        }
      ],
      "name": "sell",
      "outputs": [],
      "stateMutability": "nonpayable",
      "type": "function"
    },
    {
      "inputs": [],
      "name": "sustainabilityCoin",
      "outputs": [
        {
          "internalType": "address",
          "name": "",
          "type": "address"
        }
      ],
      "stateMutability": "view",
      "type": "function"
    },
    {
      "inputs": [
        {
          "internalType": "uint256",
          "name": "",
          "type": "uint256"
        }
      ],
      "name": "tokenDetails",
      "outputs": [
        {
          "internalType": "uint32",
          "name": "RESERVE_RATIO",
          "type": "uint32"
        },
        {
          "internalType": "uint256",
          "name": "_fee",
          "type": "uint256"
        },
        {
          "internalType": "uint256",
          "name": "initialSupply",
          "type": "uint256"
        }
      ],
      "stateMutability": "view",
      "type": "function"
    }
  ],
  "transactionHash": "0xe16c3da6beec184b6cdd073dc01f8765712ce5054ed914dcd4dcf70ea9a4d882",
  "args": [
    "0x191bB131265246cF7EFc238755cbA14e0607eA7E",
    "0x02AfC92a4f85F568375F77360C4385F12c75858C",
    "0xa1499Da2f9d87f4b40FEd331f338d29E0c394278"
  ],
  "numDeployments": 2,
  "solcInputHash": "6183443cd6cef5d03feef36241b824b7",
  "bytecode": "0x60c060405260405162005e0538038062005e058339818101604052810190620000299190620013c6565b6040518060400160405280600f81526020017f436172626f6e43726564697444455800000000000000000000000000000000008152506040518060400160405280600181526020017f31000000000000000000000000000000000000000000000000000000000000008152508181701c35fedd14ffffffffffffffffffffffff6000602060808110620000c157620000c062001422565b5b0181905550701b0ce43b323fffffffffffffffffffffff6000602160808110620000f057620000ef62001422565b5b01819055507019f0028ec1ffffffffffffffffffffffff60006022608081106200011f576200011e62001422565b5b01819055507018ded91f0e7fffffffffffffffffffffff60006023608081106200014e576200014d62001422565b5b01819055507017d8ec7f0417ffffffffffffffffffffff60006024608081106200017d576200017c62001422565b5b01819055507016ddc6556cdbffffffffffffffffffffff6000602560808110620001ac57620001ab62001422565b5b01819055507015ecf52776a1ffffffffffffffffffffff6000602660808110620001db57620001da62001422565b5b01819055507015060c256cb2ffffffffffffffffffffff60006027608081106200020a576200020962001422565b5b0181905550701428a2f98d72ffffffffffffffffffffff600060286080811062000239576200023862001422565b5b01819055507013545598e5c23fffffffffffffffffffff600060296080811062000268576200026762001422565b5b0181905550701288c4161ce1dfffffffffffffffffffff6000602a6080811062000297576200029662001422565b5b01819055507011c592761c666fffffffffffffffffffff6000602b60808110620002c657620002c562001422565b5b018190555070110a688680a757ffffffffffffffffffff6000602c60808110620002f557620002f462001422565b5b0181905550701056f1b5bedf77ffffffffffffffffffff6000602d6080811062000324576200032362001422565b5b0181905550700faadceceeff8bffffffffffffffffffff6000602e6080811062000353576200035262001422565b5b0181905550700f05dc6b27edadffffffffffffffffffff6000602f6080811062000382576200038162001422565b5b0181905550700e67a5a25da4107fffffffffffffffffff6000603060808110620003b157620003b062001422565b5b0181905550700dcff115b14eedffffffffffffffffffff6000603160808110620003e057620003df62001422565b5b0181905550700d3e7a392431239fffffffffffffffffff60006032608081106200040f576200040e62001422565b5b0181905550700cb2ff529eb71e4fffffffffffffffffff60006033608081106200043e576200043d62001422565b5b0181905550700c2d415c3db974afffffffffffffffffff60006034608081106200046d576200046c62001422565b5b0181905550700bad03e7d883f69bffffffffffffffffff60006035608081106200049c576200049b62001422565b5b0181905550700b320d03b2c343d5ffffffffffffffffff6000603660808110620004cb57620004ca62001422565b5b0181905550700abc25204e02828dffffffffffffffffff6000603760808110620004fa57620004f962001422565b5b0181905550700a4b16f74ee4bb207fffffffffffffffff600060386080811062000529576200052862001422565b5b01819055507009deaf736ac1f569ffffffffffffffffff600060396080811062000558576200055762001422565b5b0181905550700976bd9952c7aa957fffffffffffffffff6000603a6080811062000587576200058662001422565b5b01819055507009131271922eaa606fffffffffffffffff6000603b60808110620005b657620005b562001422565b5b01819055507008b380f3558668c46fffffffffffffffff6000603c60808110620005e557620005e462001422565b5b0181905550700857ddf0117efa215bffffffffffffffff6000603d6080811062000614576200061362001422565b5b01819055507007ffffffffffffffffffffffffffffffff6000603e6080811062000643576200064262001422565b5b01819055507007abbf6f6abb9d087fffffffffffffffff6000603f6080811062000672576200067162001422565b5b018190555070075af62cbac95f7dfa7fffffffffffffff6000604060808110620006a157620006a062001422565b5b018190555070070d7fb7452e187ac13fffffffffffffff6000604160808110620006d057620006cf62001422565b5b01819055507006c3390ecc8af379295fffffffffffffff6000604260808110620006ff57620006fe62001422565b5b018190555070067c00a3b07ffc01fd6fffffffffffffff60006043608081106200072e576200072d62001422565b5b0181905550700637b647c39cbb9d3d27ffffffffffffff60006044608081106200075d576200075c62001422565b5b01819055507005f63b1fc104dbd39587ffffffffffffff60006045608081106200078c576200078b62001422565b5b01819055507005b771955b36e12f7235ffffffffffffff6000604660808110620007bb57620007ba62001422565b5b018190555070057b3d49dda84556d6f6ffffffffffffff6000604760808110620007ea57620007e962001422565b5b018190555070054183095b2c8ececf30ffffffffffffff600060486080811062000819576200081862001422565b5b018190555070050a28be635ca2b888f77fffffffffffff600060496080811062000848576200084762001422565b5b01819055507004d5156639708c9db33c3fffffffffffff6000604a6080811062000877576200087662001422565b5b01819055507004a23105873875bd52dfdfffffffffffff6000604b60808110620008a657620008a562001422565b5b0181905550700471649d87199aa990756fffffffffffff6000604c60808110620008d557620008d462001422565b5b01819055507004429a21a029d4c1457cfbffffffffffff6000604d6080811062000904576200090362001422565b5b0181905550700415bc6d6fb7dd71af2cb3ffffffffffff6000604e6080811062000933576200093262001422565b5b01819055507003eab73b3bbfe282243ce1ffffffffffff6000604f6080811062000962576200096162001422565b5b01819055507003c1771ac9fb6b4c18e229ffffffffffff600060506080811062000991576200099062001422565b5b0181905550700399e96897690418f785257fffffffffff6000605160808110620009c057620009bf62001422565b5b0181905550700373fc456c53bb779bf0ea9fffffffffff6000605260808110620009ef57620009ee62001422565b5b018190555070034f9e8e490c48e67e6ab8bfffffffffff600060536080811062000a1e5762000a1d62001422565b5b018190555070032cbfd4a7adc790560b3337ffffffffff600060546080811062000a4d5762000a4c62001422565b5b018190555070030b50570f6e5d2acca94613ffffffffff600060556080811062000a7c5762000a7b62001422565b5b01819055507002eb40f9f620fda6b56c2861ffffffffff600060566080811062000aab5762000aaa62001422565b5b01819055507002cc8340ecb0d0f520a6af58ffffffffff600060576080811062000ada5762000ad962001422565b5b01819055507002af09481380a0a35cf1ba02ffffffffff600060586080811062000b095762000b0862001422565b5b0181905550700292c5bdd3b92ec810287b1b3fffffffff600060596080811062000b385762000b3762001422565b5b0181905550700277abdcdab07d5a77ac6d6b9fffffffff6000605a6080811062000b675762000b6662001422565b5b018190555070025daf6654b1eaa55fd64df5efffffffff6000605b6080811062000b965762000b9562001422565b5b0181905550700244c49c648baa98192dce88b7ffffffff6000605c6080811062000bc55762000bc462001422565b5b018190555070022ce03cd5619a311b2471268bffffffff6000605d6080811062000bf45762000bf362001422565b5b0181905550700215f77c045fbe885654a44a0fffffffff6000605e6080811062000c235762000c2262001422565b5b01819055507001ffffffffffffffffffffffffffffffff6000605f6080811062000c525762000c5162001422565b5b01819055507001eaefdbdaaee7421fc4d3ede5ffffffff600060606080811062000c815762000c8062001422565b5b01819055507001d6bd8b2eb257df7e8ca57b09bfffffff600060616080811062000cb05762000caf62001422565b5b01819055507001c35fedd14b861eb0443f7f133fffffff600060626080811062000cdf5762000cde62001422565b5b01819055507001b0ce43b322bcde4a56e8ada5afffffff600060636080811062000d0e5762000d0d62001422565b5b018190555070019f0028ec1fff007f5a195a39dfffffff600060646080811062000d3d5762000d3c62001422565b5b018190555070018ded91f0e72ee74f49b15ba527ffffff600060656080811062000d6c5762000d6b62001422565b5b018190555070017d8ec7f04136f4e5615fd41a63ffffff600060666080811062000d9b5762000d9a62001422565b5b018190555070016ddc6556cdb84bdc8d12d22e6fffffff600060676080811062000dca5762000dc962001422565b5b018190555070015ecf52776a1155b5bd8395814f7fffff600060686080811062000df95762000df862001422565b5b018190555070015060c256cb23b3b3cc3754cf40ffffff600060696080811062000e285762000e2762001422565b5b01819055507001428a2f98d728ae223ddab715be3fffff6000606a6080811062000e575762000e5662001422565b5b018190555070013545598e5c23276ccf0ede68034fffff6000606b6080811062000e865762000e8562001422565b5b01819055507001288c4161ce1d6f54b7f61081194fffff6000606c6080811062000eb55762000eb462001422565b5b018190555070011c592761c666aa641d5a01a40f17ffff6000606d6080811062000ee45762000ee362001422565b5b0181905550700110a688680a7530515f3e6e6cfdcdffff6000606e6080811062000f135762000f1262001422565b5b01819055507001056f1b5bedf75c6bcb2ce8aed428ffff6000606f6080811062000f425762000f4162001422565b5b01819055506ffaadceceeff8a0890f3875f008277fff600060706080811062000f705762000f6f62001422565b5b01819055506ff05dc6b27edad306388a600f6ba0bfff600060716080811062000f9e5762000f9d62001422565b5b01819055506fe67a5a25da41063de1495d5b18cdbfff600060726080811062000fcc5762000fcb62001422565b5b01819055506fdcff115b14eedde6fc3aa5353f2e4fff600060736080811062000ffa5762000ff962001422565b5b01819055506fd3e7a3924312399f9aae2e0f868f8fff600060746080811062001028576200102762001422565b5b01819055506fcb2ff529eb71e41582cccd5a1ee26fff600060756080811062001056576200105562001422565b5b01819055506fc2d415c3db974ab32a51840c0b67edff600060766080811062001084576200108362001422565b5b01819055506fbad03e7d883f69ad5b0a186184e06bff6000607760808110620010b257620010b162001422565b5b01819055506fb320d03b2c343d4829abd6075f0cc5ff6000607860808110620010e057620010df62001422565b5b01819055506fabc25204e02828d73c6e80bcdb1a95bf60006079608081106200110e576200110d62001422565b5b01819055506fa4b16f74ee4bb2040a1ec6c15fbbf2df6000607a608081106200113c576200113b62001422565b5b01819055506f9deaf736ac1f569deb1b5ae3f36c130f6000607b608081106200116a576200116962001422565b5b01819055506f976bd9952c7aa957f5937d790ef650376000607c6080811062001198576200119762001422565b5b01819055506f9131271922eaa6064b73a22d0bd4f2bf6000607d60808110620011c657620011c562001422565b5b01819055506f8b380f3558668c46c91c49a2f8e967b96000607e60808110620011f457620011f362001422565b5b01819055506f857ddf0117efa215952912839f6473e66000607f6080811062001222576200122162001422565b5b01819055506040518060800160405280604f815260200162005db6604f9139805190602001208280519060200120828051906020012030620012696200135460201b60201c565b60001b604051602001620012829594939291906200147d565b60405160208183030381529060405280519060200120608081905550505050508173ffffffffffffffffffffffffffffffffffffffff1660808173ffffffffffffffffffffffffffffffffffffffff168152505082608260006101000a81548173ffffffffffffffffffffffffffffffffffffffff021916908373ffffffffffffffffffffffffffffffffffffffff1602179055508073ffffffffffffffffffffffffffffffffffffffff1660a08173ffffffffffffffffffffffffffffffffffffffff1681525050505050620014da565b600046905090565b600080fd5b600073ffffffffffffffffffffffffffffffffffffffff82169050919050565b60006200138e8262001361565b9050919050565b620013a08162001381565b8114620013ac57600080fd5b50565b600081519050620013c08162001395565b92915050565b600080600060608486031215620013e257620013e16200135c565b5b6000620013f286828701620013af565b93505060206200140586828701620013af565b92505060406200141886828701620013af565b9150509250925092565b7f4e487b7100000000000000000000000000000000000000000000000000000000600052603260045260246000fd5b6000819050919050565b620014668162001451565b82525050565b620014778162001381565b82525050565b600060a0820190506200149460008301886200145b565b620014a360208301876200145b565b620014b260408301866200145b565b620014c160608301856200146c565b620014d060808301846200145b565b9695505050505050565b60805160a05161489362001523600039600081816108d001528181610f660152818161143401526115ec015260008181610e0301528181610e27015261109d01526148936000f3fe6080604052600436106100f35760003560e01c806394ef32511161008a578063d79875eb11610059578063d79875eb14610369578063e757223014610392578063fb5a35ea146103cf578063fc314e31146103fa576100f3565b806394ef32511461029b578063aa8c217c146102c4578063ace4e824146102ef578063b0ee0e9f1461032c576100f3565b8063353f02de116100c6578063353f02de146101cd578063560a28521461020a5780637144878e146102335780638da5cb5b14610270576100f3565b8063071f8521146100f85780630c53c51c1461013557806316f0db5e146101655780632d0335ab14610190575b600080fd5b34801561010457600080fd5b5061011f600480360381019061011a9190613767565b610439565b60405161012c91906137b6565b60405180910390f35b61014f600480360381019061014a91906139e4565b610523565b60405161015c9190613afa565b60405180910390f35b34801561017157600080fd5b5061017a610847565b6040516101879190613b7b565b60405180910390f35b34801561019c57600080fd5b506101b760048036038101906101b29190613b96565b61086d565b6040516101c491906137b6565b60405180910390f35b3480156101d957600080fd5b506101f460048036038101906101ef9190613bc3565b6108b6565b60405161020191906137b6565b60405180910390f35b34801561021657600080fd5b50610231600480360381019061022c9190613bf0565b6108ce565b005b34801561023f57600080fd5b5061025a60048036038101906102559190613caf565b610c88565b60405161026791906137b6565b60405180910390f35b34801561027c57600080fd5b50610285610e01565b6040516102929190613d25565b60405180910390f35b3480156102a757600080fd5b506102c260048036038101906102bd9190613d40565b610e25565b005b3480156102d057600080fd5b506102d961118a565b6040516102e691906137b6565b60405180910390f35b3480156102fb57600080fd5b5061031660048036038101906103119190613767565b611190565b60405161032391906137b6565b60405180910390f35b34801561033857600080fd5b50610353600480360381019061034e9190613bc3565b61127a565b60405161036091906137b6565b60405180910390f35b34801561037557600080fd5b50610390600480360381019061038b9190613767565b611285565b005b34801561039e57600080fd5b506103b960048036038101906103b49190613bc3565b6114dd565b6040516103c691906137b6565b60405180910390f35b3480156103db57600080fd5b506103e46115ea565b6040516103f19190613d25565b60405180910390f35b34801561040657600080fd5b50610421600480360381019061041c9190613bc3565b61160e565b60405161043093929190613df8565b60405180910390f35b600061051b608260009054906101000a900473ffffffffffffffffffffffffffffffffffffffff1673ffffffffffffffffffffffffffffffffffffffff1663bd85b039856040518263ffffffff1660e01b815260040161049991906137b6565b602060405180830381865afa1580156104b6573d6000803e3d6000fd5b505050506040513d601f19601f820116820180604052508101906104da9190613e44565b60836000868152602001908152602001600020546084600087815260200190815260200160002060000160009054906101000a900463ffffffff1685611648565b905092915050565b6060600061053086611769565b90506000357fffffffff00000000000000000000000000000000000000000000000000000000167bffffffffffffffffffffffffffffffffffffffffffffffffffffffff1916817bffffffffffffffffffffffffffffffffffffffffffffffffffffffff1916036105d6576040517f08c379a00000000000000000000000000000000000000000000000000000000081526004016105cd90613ef4565b60405180910390fd5b60006040518060600160405280608160008b73ffffffffffffffffffffffffffffffffffffffff1673ffffffffffffffffffffffffffffffffffffffff1681526020019081526020016000205481526020018973ffffffffffffffffffffffffffffffffffffffff168152602001888152509050610657888288888861178c565b610696576040517f08c379a000000000000000000000000000000000000000000000000000000000815260040161068d90613f86565b60405180910390fd5b6106e96001608160008b73ffffffffffffffffffffffffffffffffffffffff1673ffffffffffffffffffffffffffffffffffffffff1681526020019081526020016000205461189a90919063ffffffff16565b608160008a73ffffffffffffffffffffffffffffffffffffffff1673ffffffffffffffffffffffffffffffffffffffff168152602001908152602001600020819055506000803073ffffffffffffffffffffffffffffffffffffffff16898b60405160200161075992919061402a565b6040516020818303038152906040526040516107759190614052565b6000604051808303816000865af19150503d80600081146107b2576040519150601f19603f3d011682016040523d82523d6000602084013e6107b7565b606091505b5091509150816107fc576040517f08c379a00000000000000000000000000000000000000000000000000000000081526004016107f3906140b5565b60405180910390fd5b7f5845892132946850460bff5a0083f71031bc5bf9aadcd40f1de79423eac9b10b8a338b60405161082f939291906140f6565b60405180910390a18094505050505095945050505050565b608260009054906101000a900473ffffffffffffffffffffffffffffffffffffffff1681565b6000608160008373ffffffffffffffffffffffffffffffffffffffff1673ffffffffffffffffffffffffffffffffffffffff168152602001908152602001600020549050919050565b60836020528060005260406000206000915090505481565b7f000000000000000000000000000000000000000000000000000000000000000073ffffffffffffffffffffffffffffffffffffffff166323b872dd6109126118b0565b30856040518463ffffffff1660e01b815260040161093293929190614134565b6020604051808303816000875af1158015610951573d6000803e3d6000fd5b505050506040513d601f19601f8201168201806040525081019061097591906141a3565b50610a5c608260009054906101000a900473ffffffffffffffffffffffffffffffffffffffff1673ffffffffffffffffffffffffffffffffffffffff1663bd85b039866040518263ffffffff1660e01b81526004016109d491906137b6565b602060405180830381865afa1580156109f1573d6000803e3d6000fd5b505050506040513d601f19601f82011682018060405250810190610a159190613e44565b60836000878152602001908152602001600020546084600088815260200190815260200160002060000160009054906101000a900463ffffffff1663ffffffff1685611960565b6000610b3e608260009054906101000a900473ffffffffffffffffffffffffffffffffffffffff1673ffffffffffffffffffffffffffffffffffffffff1663bd85b039876040518263ffffffff1660e01b8152600401610abc91906137b6565b602060405180830381865afa158015610ad9573d6000803e3d6000fd5b505050506040513d601f19601f82011682018060405250810190610afd9190613e44565b60836000888152602001908152602001600020546084600089815260200190815260200160002060000160009054906101000a900463ffffffff1686610c88565b905082608360008781526020019081526020016000206000828254610b6391906141ff565b92505081905550610ba96040518060400160405280601681526020017f636f6d70757465642072657475726e20616d6f756e740000000000000000000081525082611a02565b608260009054906101000a900473ffffffffffffffffffffffffffffffffffffffff1673ffffffffffffffffffffffffffffffffffffffff1663731133e9858784866040518563ffffffff1660e01b8152600401610c0a9493929190614233565b600060405180830381600087803b158015610c2457600080fd5b505af1158015610c38573d6000803e3d6000fd5b5050505080608581905550610c816040518060400160405280600e81526020017f627579207375636365737366756c000000000000000000000000000000000000815250611a9e565b5050505050565b6000610cc86040518060400160405280601b81526020017f636865636b696e6720696e697469616c20636f6e646974696f6e730000000000815250611a9e565b600085118015610cd85750600084115b8015610cea575060008363ffffffff16115b8015610d055750620f424063ffffffff168363ffffffff1611155b610d0e57600080fd5b610d4c6040518060400160405280601881526020017f496e697469616c20436f6e646974696f6e732056616c69640000000000000000815250611a9e565b60008203610d5d5760009050610df9565b620f424063ffffffff168363ffffffff1603610d985783610d878387611b3790919063ffffffff16565b610d9191906142ae565b9050610df9565b6000806000610db0878661189a90919063ffffffff16565b9050610dc1818888620f4240611b4d565b809350819450505060008260ff16610de2858b611b3790919063ffffffff16565b901c90508881610df291906142df565b9450505050505b949350505050565b7f000000000000000000000000000000000000000000000000000000000000000081565b7f000000000000000000000000000000000000000000000000000000000000000073ffffffffffffffffffffffffffffffffffffffff16610e646118b0565b73ffffffffffffffffffffffffffffffffffffffff1614610eba576040517f08c379a0000000000000000000000000000000000000000000000000000000008152600401610eb19061435f565b60405180910390fd5b610ecb84848463ffffffff16611c61565b670de0b6b3a76400008263ffffffff168486610ee7919061437f565b610ef1919061437f565b610efb91906142ae565b6083600088815260200190815260200160002081905550610f646040518060400160405280601281526020017f726573657276652042616c616e636573203d00000000000000000000000000008152506083600089815260200190815260200160002054611a02565b7f000000000000000000000000000000000000000000000000000000000000000073ffffffffffffffffffffffffffffffffffffffff166323b872dd610fa86118b0565b30608360008b8152602001908152602001600020546040518463ffffffff1660e01b8152600401610fdb93929190614134565b6020604051808303816000875af1158015610ffa573d6000803e3d6000fd5b505050506040513d601f19601f8201168201806040525081019061101e91906141a3565b5061105d6040518060400160405280600a81526020017f7472616e73666572656400000000000000000000000000000000000000000000815250611a9e565b608260009054906101000a900473ffffffffffffffffffffffffffffffffffffffff1673ffffffffffffffffffffffffffffffffffffffff1663731133e97f00000000000000000000000000000000000000000000000000000000000000008887856040518563ffffffff1660e01b81526004016110de9493929190614233565b600060405180830381600087803b1580156110f857600080fd5b505af115801561110c573d6000803e3d6000fd5b5050505060405180606001604052808363ffffffff168152602001868152602001858152506084600088815260200190815260200160002060008201518160000160006101000a81548163ffffffff021916908363ffffffff1602179055506020820151816001015560408201518160020155905050505050505050565b60855481565b6000611272608260009054906101000a900473ffffffffffffffffffffffffffffffffffffffff1673ffffffffffffffffffffffffffffffffffffffff1663bd85b039856040518263ffffffff1660e01b81526004016111f091906137b6565b602060405180830381865afa15801561120d573d6000803e3d6000fd5b505050506040513d601f19601f820116820180604052508101906112319190613e44565b60836000868152602001908152602001600020546084600087815260200190815260200160002060000160009054906101000a900463ffffffff1685610c88565b905092915050565b6000600a9050919050565b6000611367608260009054906101000a900473ffffffffffffffffffffffffffffffffffffffff1673ffffffffffffffffffffffffffffffffffffffff1663bd85b039856040518263ffffffff1660e01b81526004016112e591906137b6565b602060405180830381865afa158015611302573d6000803e3d6000fd5b505050506040513d601f19601f820116820180604052508101906113269190613e44565b60836000868152602001908152602001600020546084600087815260200190815260200160002060000160009054906101000a900463ffffffff1685611648565b9050806085819055508060836000858152602001908152602001600020600082825461139391906142df565b92505081905550608260009054906101000a900473ffffffffffffffffffffffffffffffffffffffff1673ffffffffffffffffffffffffffffffffffffffff1663f5298aca6113e06118b0565b85856040518463ffffffff1660e01b8152600401611400939291906143c1565b600060405180830381600087803b15801561141a57600080fd5b505af115801561142e573d6000803e3d6000fd5b505050507f000000000000000000000000000000000000000000000000000000000000000073ffffffffffffffffffffffffffffffffffffffff1663a9059cbb6114766118b0565b836040518363ffffffff1660e01b81526004016114949291906143f8565b6020604051808303816000875af11580156114b3573d6000803e3d6000fd5b505050506040513d601f19601f820116820180604052508101906114d791906141a3565b50505050565b60006084600083815260200190815260200160002060000160009054906101000a900463ffffffff1663ffffffff16608260009054906101000a900473ffffffffffffffffffffffffffffffffffffffff1673ffffffffffffffffffffffffffffffffffffffff1663bd85b039846040518263ffffffff1660e01b815260040161156791906137b6565b602060405180830381865afa158015611584573d6000803e3d6000fd5b505050506040513d601f19601f820116820180604052508101906115a89190613e44565b6115b2919061437f565b670de0b6b3a764000060836000858152602001908152602001600020546115d9919061437f565b6115e391906142ae565b9050919050565b7f000000000000000000000000000000000000000000000000000000000000000081565b60846020528060005260406000206000915090508060000160009054906101000a900463ffffffff16908060010154908060020154905083565b600080851180156116595750600084115b801561166b575060008363ffffffff16115b80156116865750620f424063ffffffff168363ffffffff1611155b80156116925750848211155b61169b57600080fd5b600082036116ac5760009050611761565b8482036116bb57839050611761565b620f424063ffffffff168363ffffffff16036116f657846116e58386611b3790919063ffffffff16565b6116ef91906142ae565b9050611761565b6000806000848861170791906142df565b90506117188882620f424089611b4d565b809350819450505060006117358489611b3790919063ffffffff16565b905060008360ff1689901b905084818361174f91906142df565b61175991906142ae565b955050505050505b949350505050565b60008082510361177f57600060e01b9050611787565b602082015190505b919050565b60008060016117a261179d88611d00565b611d68565b848787604051600081526020016040526040516117c2949392919061443f565b6020604051602081039080840390855afa1580156117e4573d6000803e3d6000fd5b505050602060405103519050600073ffffffffffffffffffffffffffffffffffffffff168173ffffffffffffffffffffffffffffffffffffffff160361185f576040517f08c379a0000000000000000000000000000000000000000000000000000000008152600401611856906144d0565b60405180910390fd5b8673ffffffffffffffffffffffffffffffffffffffff168173ffffffffffffffffffffffffffffffffffffffff161491505095945050505050565b600081836118a891906141ff565b905092915050565b60003073ffffffffffffffffffffffffffffffffffffffff163373ffffffffffffffffffffffffffffffffffffffff160361195957600080368080601f016020809104026020016040519081016040528093929190818152602001838380828437600081840152601f19601f820116905080830192505050505050509050600080369050905073ffffffffffffffffffffffffffffffffffffffff81830151169250505061195d565b3390505b90565b6119fc8484848460405160240161197a94939291906144f0565b6040516020818303038152906040527f193fb800000000000000000000000000000000000000000000000000000000007bffffffffffffffffffffffffffffffffffffffffffffffffffffffff19166020820180517bffffffffffffffffffffffffffffffffffffffffffffffffffffffff8381831617835250505050611da1565b50505050565b611a9a8282604051602401611a18929190614579565b6040516020818303038152906040527fb60e72cc000000000000000000000000000000000000000000000000000000007bffffffffffffffffffffffffffffffffffffffffffffffffffffffff19166020820180517bffffffffffffffffffffffffffffffffffffffffffffffffffffffff8381831617835250505050611da1565b5050565b611b3481604051602401611ab291906145a9565b6040516020818303038152906040527f41304fac000000000000000000000000000000000000000000000000000000007bffffffffffffffffffffffffffffffffffffffffffffffffffffffff19166020820180517bffffffffffffffffffffffffffffffffffffffffffffffffffffffff8381831617835250505050611da1565b50565b60008183611b45919061437f565b905092915050565b6000807002000000000000000000000000000000008610611b6d57600080fd5b600080866f8000000000000000000000000000000089611b8d919061437f565b611b9791906142ae565b905070015bf0a8b1457695355fb8ac404e7a79e3811015611bc257611bbb81611dca565b9150611bce565b611bcb81612543565b91505b60008563ffffffff168763ffffffff1684611be9919061437f565b611bf391906142ae565b9050700800000000000000000000000000000000811015611c2557611c178161269d565b607f94509450505050611c58565b6000611c3082612ea1565b9050611c4e81607f611c4291906145cb565b60ff1683901c82612f7f565b8195509550505050505b94509492505050565b611cfb838383604051602401611c7993929190614600565b6040516020818303038152906040527fd1ed7a3c000000000000000000000000000000000000000000000000000000007bffffffffffffffffffffffffffffffffffffffffffffffffffffffff19166020820180517bffffffffffffffffffffffffffffffffffffffffffffffffffffffff8381831617835250505050611da1565b505050565b600060405180608001604052806043815260200161481b604391398051906020012082600001518360200151846040015180519060200120604051602001611d4b9493929190614637565b604051602081830303815290604052805190602001209050919050565b6000611d7261368e565b82604051602001611d849291906146f4565b604051602081830303815290604052805190602001209050919050565b60008151905060006a636f6e736f6c652e6c6f679050602083016000808483855afa5050505050565b6000806000905060008060006fd3094c70f034de4b96ff7d5b6f99fcd88610611e45576f4000000000000000000000000000000084611e0991906141ff565b93506fd3094c70f034de4b96ff7d5b6f99fcd86f8000000000000000000000000000000087611e38919061437f565b611e4291906142ae565b95505b6fa45af1e1f40c333b3de1db4dd55f29a78610611eb4576f2000000000000000000000000000000084611e7891906141ff565b93506fa45af1e1f40c333b3de1db4dd55f29a76f8000000000000000000000000000000087611ea7919061437f565b611eb191906142ae565b95505b6f910b022db7ae67ce76b441c27035c6a18610611f23576f1000000000000000000000000000000084611ee791906141ff565b93506f910b022db7ae67ce76b441c27035c6a16f8000000000000000000000000000000087611f16919061437f565b611f2091906142ae565b95505b6f88415abbe9a76bead8d00cf112e4d4a88610611f92576f0800000000000000000000000000000084611f5691906141ff565b93506f88415abbe9a76bead8d00cf112e4d4a86f8000000000000000000000000000000087611f85919061437f565b611f8f91906142ae565b95505b6f84102b00893f64c705e841d5d4064bd38610612001576f0400000000000000000000000000000084611fc591906141ff565b93506f84102b00893f64c705e841d5d4064bd36f8000000000000000000000000000000087611ff4919061437f565b611ffe91906142ae565b95505b6f8204055aaef1c8bd5c3259f4822735a28610612070576f020000000000000000000000000000008461203491906141ff565b93506f8204055aaef1c8bd5c3259f4822735a26f8000000000000000000000000000000087612063919061437f565b61206d91906142ae565b95505b6f810100ab00222d861931c15e39b44e9986106120df576f01000000000000000000000000000000846120a391906141ff565b93506f810100ab00222d861931c15e39b44e996f80000000000000000000000000000000876120d2919061437f565b6120dc91906142ae565b95505b6f808040155aabbbe9451521693554f733861061214d576e8000000000000000000000000000008461211191906141ff565b93506f808040155aabbbe9451521693554f7336f8000000000000000000000000000000087612140919061437f565b61214a91906142ae565b95505b6f800000000000000000000000000000008661216991906142df565b92508291506f80000000000000000000000000000000838461218b919061437f565b61219591906142ae565b9050700100000000000000000000000000000000837001000000000000000000000000000000006121c691906142df565b836121d1919061437f565b6121db91906142ae565b846121e691906141ff565b93506f800000000000000000000000000000008183612205919061437f565b61220f91906142ae565b9150700200000000000000000000000000000000836faaaaaaaaaaaaaaaaaaaaaaaaaaaaaaaa61223f91906142df565b8361224a919061437f565b61225491906142ae565b8461225f91906141ff565b93506f80000000000000000000000000000000818361227e919061437f565b61228891906142ae565b9150700300000000000000000000000000000000836f999999999999999999999999999999996122b891906142df565b836122c3919061437f565b6122cd91906142ae565b846122d891906141ff565b93506f8000000000000000000000000000000081836122f7919061437f565b61230191906142ae565b9150700400000000000000000000000000000000836f9249249249249249249249249249249261233191906142df565b8361233c919061437f565b61234691906142ae565b8461235191906141ff565b93506f800000000000000000000000000000008183612370919061437f565b61237a91906142ae565b9150700500000000000000000000000000000000836f8e38e38e38e38e38e38e38e38e38e38e6123aa91906142df565b836123b5919061437f565b6123bf91906142ae565b846123ca91906141ff565b93506f8000000000000000000000000000000081836123e9919061437f565b6123f391906142ae565b9150700600000000000000000000000000000000836f8ba2e8ba2e8ba2e8ba2e8ba2e8ba2e8b61242391906142df565b8361242e919061437f565b61243891906142ae565b8461244391906141ff565b93506f800000000000000000000000000000008183612462919061437f565b61246c91906142ae565b9150700700000000000000000000000000000000836f89d89d89d89d89d89d89d89d89d89d8961249c91906142df565b836124a7919061437f565b6124b191906142ae565b846124bc91906141ff565b93506f8000000000000000000000000000000081836124db919061437f565b6124e591906142ae565b9150700800000000000000000000000000000000836f8888888888888888888888888888888861251591906142df565b83612520919061437f565b61252a91906142ae565b8461253591906141ff565b935083945050505050919050565b6000806000905070010000000000000000000000000000000083106125b65760006125886f800000000000000000000000000000008561258391906142ae565b613698565b90508060ff1684901c93506f800000000000000000000000000000008160ff166125b2919061437f565b9150505b6f8000000000000000000000000000000083111561265e576000607f90505b60008160ff16111561265c576f8000000000000000000000000000000084856125fe919061437f565b61260891906142ae565b9350700100000000000000000000000000000000841061264b57600184901c935060018161263691906145cb565b60ff166001901b8261264891906141ff565b91505b806126559061472b565b90506125d5565b505b6f05b9de1d10bf4103d647b0955897ba806f03f80fe03f80fe03f80fe03f80fe03f88261268b919061437f565b61269591906142ae565b915050919050565b600080600090506000806f10000000000000000000000000000000856126c39190614754565b91508190506f8000000000000000000000000000000082826126e5919061437f565b6126ef91906142ae565b90506710e1b3be415a000081612705919061437f565b8361271091906141ff565b92506f80000000000000000000000000000000828261272f919061437f565b61273991906142ae565b90506705a0913f6b1e00008161274f919061437f565b8361275a91906141ff565b92506f800000000000000000000000000000008282612779919061437f565b61278391906142ae565b9050670168244fdac7800081612799919061437f565b836127a491906141ff565b92506f8000000000000000000000000000000082826127c3919061437f565b6127cd91906142ae565b9050664807432bc18000816127e2919061437f565b836127ed91906141ff565b92506f80000000000000000000000000000000828261280c919061437f565b61281691906142ae565b9050660c0135dca040008161282b919061437f565b8361283691906141ff565b92506f800000000000000000000000000000008282612855919061437f565b61285f91906142ae565b90506601b707b1cdc00081612874919061437f565b8361287f91906141ff565b92506f80000000000000000000000000000000828261289e919061437f565b6128a891906142ae565b90506536e0f639b800816128bc919061437f565b836128c791906141ff565b92506f8000000000000000000000000000000082826128e6919061437f565b6128f091906142ae565b9050650618fee9f80081612904919061437f565b8361290f91906141ff565b92506f80000000000000000000000000000000828261292e919061437f565b61293891906142ae565b9050649c197dcc008161294b919061437f565b8361295691906141ff565b92506f800000000000000000000000000000008282612975919061437f565b61297f91906142ae565b9050640e30dce40081612992919061437f565b8361299d91906141ff565b92506f8000000000000000000000000000000082826129bc919061437f565b6129c691906142ae565b905064012ebd1300816129d9919061437f565b836129e491906141ff565b92506f800000000000000000000000000000008282612a03919061437f565b612a0d91906142ae565b90506317499f0081612a1f919061437f565b83612a2a91906141ff565b92506f800000000000000000000000000000008282612a49919061437f565b612a5391906142ae565b90506301a9d48081612a65919061437f565b83612a7091906141ff565b92506f800000000000000000000000000000008282612a8f919061437f565b612a9991906142ae565b9050621c638081612aaa919061437f565b83612ab591906141ff565b92506f800000000000000000000000000000008282612ad4919061437f565b612ade91906142ae565b90506201c63881612aef919061437f565b83612afa91906141ff565b92506f800000000000000000000000000000008282612b19919061437f565b612b2391906142ae565b9050611ab881612b33919061437f565b83612b3e91906141ff565b92506f800000000000000000000000000000008282612b5d919061437f565b612b6791906142ae565b905061017c81612b77919061437f565b83612b8291906141ff565b92506f800000000000000000000000000000008282612ba1919061437f565b612bab91906142ae565b9050601481612bba919061437f565b83612bc591906141ff565b92506f800000000000000000000000000000008282612be4919061437f565b612bee91906142ae565b9050600181612bfd919061437f565b83612c0891906141ff565b92506f80000000000000000000000000000000826721c3677c82b4000085612c3091906142ae565b612c3a91906141ff565b612c4491906141ff565b925060006f10000000000000000000000000000000861614612c9c5770018ebef9eac820ae8682b9793ac6d1e7767001c3d6a24ed82218787d624d3e5eba95f984612c8f919061437f565b612c9991906142ae565b92505b60006f20000000000000000000000000000000861614612cf2577001368b2fc6f9609fe7aceb46aa619baed470018ebef9eac820ae8682b9793ac6d1e77884612ce5919061437f565b612cef91906142ae565b92505b60006f40000000000000000000000000000000861614612d47576fbc5ab1b16779be3575bd8f0520a9f21f7001368b2fc6f9609fe7aceb46aa619baed584612d3a919061437f565b612d4491906142ae565b92505b60006f80000000000000000000000000000000861614612d9b576f454aaa8efe072e7f6ddbab84b40a55c96fbc5ab1b16779be3575bd8f0520a9f21e84612d8e919061437f565b612d9891906142ae565b92505b6000700100000000000000000000000000000000861614612df0576f0960aadc109e7a3bf4578099615711ea6f454aaa8efe072e7f6ddbab84b40a55c584612de3919061437f565b612ded91906142ae565b92505b6000700200000000000000000000000000000000861614612e44576e2bf84208204f5977f9a8cf01fdce3d6f0960aadc109e7a3bf4578099615711d784612e37919061437f565b612e4191906142ae565b92505b6000700400000000000000000000000000000000861614612e96576d03c6ab775dd0b95b4cbee7e65d116e2bf84208204f5977f9a8cf01fdc30784612e89919061437f565b612e9391906142ae565b92505b829350505050919050565b600080602090506000607f90505b8060ff16600183612ec09190614785565b60ff161015612f1657600060028284612ed99190614785565b612ee391906147ba565b90508460008260ff1660808110612efd57612efc6147eb565b5b015410612f0c57809250612f10565b8091505b50612eaf565b8360008260ff1660808110612f2e57612f2d6147eb565b5b015410612f3f578092505050612f7a565b8360008360ff1660808110612f5757612f566147eb565b5b015410612f68578192505050612f7a565b6000612f7357600080fd5b6000925050505b919050565b60008083905060008360ff168583612f97919061437f565b901c91506f03442c4e6074a82f1797f72ac000000082612fb7919061437f565b81612fc291906141ff565b90508360ff168583612fd4919061437f565b901c91506f0116b96f757c380fb287fd0e4000000082612ff4919061437f565b81612fff91906141ff565b90508360ff168583613011919061437f565b901c91506e45ae5bdd5f0e03eca1ff439000000082613030919061437f565b8161303b91906141ff565b90508360ff16858361304d919061437f565b901c91506e0defabf91302cd95b9ffda500000008261306c919061437f565b8161307791906141ff565b90508360ff168583613089919061437f565b901c91506e02529ca9832b22439efff9b8000000826130a8919061437f565b816130b391906141ff565b90508360ff1685836130c5919061437f565b901c91506d54f1cf12bd04e516b6da88000000826130e3919061437f565b816130ee91906141ff565b90508360ff168583613100919061437f565b901c91506d0a9e39e257a09ca2d6db510000008261311e919061437f565b8161312991906141ff565b90508360ff16858361313b919061437f565b901c91506d012e066e7b839fa050c30900000082613159919061437f565b8161316491906141ff565b90508360ff168583613176919061437f565b901c91506c1e33d7d926c329a1ad1a80000082613193919061437f565b8161319e91906141ff565b90508360ff1685836131b0919061437f565b901c91506c02bee513bdb4a6b19b5f800000826131cd919061437f565b816131d891906141ff565b90508360ff1685836131ea919061437f565b901c91506b3a9316fa79b88eccf2a0000082613206919061437f565b8161321191906141ff565b90508360ff168583613223919061437f565b901c91506b048177ebe1fa8123752000008261323f919061437f565b8161324a91906141ff565b90508360ff16858361325c919061437f565b901c91506a5263fe90242dcbacf0000082613277919061437f565b8161328291906141ff565b90508360ff168583613294919061437f565b901c91506a057e22099c030d94100000826132af919061437f565b816132ba91906141ff565b90508360ff1685836132cc919061437f565b901c91506957e22099c030d9410000826132e6919061437f565b816132f191906141ff565b90508360ff168583613303919061437f565b901c915069052b6b545699763100008261331d919061437f565b8161332891906141ff565b90508360ff16858361333a919061437f565b901c9150684985f67696bf74800082613353919061437f565b8161335e91906141ff565b90508360ff168583613370919061437f565b901c91506803dea12ea99e49800082613389919061437f565b8161339491906141ff565b90508360ff1685836133a6919061437f565b901c91506731880f2214b6e000826133be919061437f565b816133c991906141ff565b90508360ff1685836133db919061437f565b901c915067025bcff56eb36000826133f3919061437f565b816133fe91906141ff565b90508360ff168583613410919061437f565b901c9150661b722e10ab100082613427919061437f565b8161343291906141ff565b90508360ff168583613444919061437f565b901c91506601317c700770008261345b919061437f565b8161346691906141ff565b90508360ff168583613478919061437f565b901c9150650cba84aafa008261348e919061437f565b8161349991906141ff565b90508360ff1685836134ab919061437f565b901c91506482573a0a00826134c0919061437f565b816134cb91906141ff565b90508360ff1685836134dd919061437f565b901c91506405035ad900826134f2919061437f565b816134fd91906141ff565b90508360ff16858361350f919061437f565b901c9150632f881b0082613523919061437f565b8161352e91906141ff565b90508360ff168583613540919061437f565b901c91506301b2934082613554919061437f565b8161355f91906141ff565b90508360ff168583613571919061437f565b901c9150620efc4082613584919061437f565b8161358f91906141ff565b90508360ff1685836135a1919061437f565b901c9150617fe0826135b3919061437f565b816135be91906141ff565b90508360ff1685836135d0919061437f565b901c9150610420826135e2919061437f565b816135ed91906141ff565b90508360ff1685836135ff919061437f565b901c9150602182613610919061437f565b8161361b91906141ff565b90508360ff16858361362d919061437f565b901c915060018261363e919061437f565b8161364991906141ff565b90508360ff166001901b856f0688589cc0e9505e2f2fee55800000008361367091906142ae565b61367a91906141ff565b61368491906141ff565b9250505092915050565b6000608054905090565b600080600090506101008310156136d3575b60018311156136ce57600183901c92506001816136c79190614785565b90506136aa565b613714565b6000608090505b60008160ff161115613712578060ff166001901b8410613703578060ff1684901c935080821791505b60018160ff16901c90506136da565b505b80915050919050565b6000604051905090565b600080fd5b600080fd5b6000819050919050565b61374481613731565b811461374f57600080fd5b50565b6000813590506137618161373b565b92915050565b6000806040838503121561377e5761377d613727565b5b600061378c85828601613752565b925050602061379d85828601613752565b9150509250929050565b6137b081613731565b82525050565b60006020820190506137cb60008301846137a7565b92915050565b600073ffffffffffffffffffffffffffffffffffffffff82169050919050565b60006137fc826137d1565b9050919050565b61380c816137f1565b811461381757600080fd5b50565b60008135905061382981613803565b92915050565b600080fd5b600080fd5b6000601f19601f8301169050919050565b7f4e487b7100000000000000000000000000000000000000000000000000000000600052604160045260246000fd5b61388282613839565b810181811067ffffffffffffffff821117156138a1576138a061384a565b5b80604052505050565b60006138b461371d565b90506138c08282613879565b919050565b600067ffffffffffffffff8211156138e0576138df61384a565b5b6138e982613839565b9050602081019050919050565b82818337600083830152505050565b6000613918613913846138c5565b6138aa565b90508281526020810184848401111561393457613933613834565b5b61393f8482856138f6565b509392505050565b600082601f83011261395c5761395b61382f565b5b813561396c848260208601613905565b91505092915050565b6000819050919050565b61398881613975565b811461399357600080fd5b50565b6000813590506139a58161397f565b92915050565b600060ff82169050919050565b6139c1816139ab565b81146139cc57600080fd5b50565b6000813590506139de816139b8565b92915050565b600080600080600060a08688031215613a00576139ff613727565b5b6000613a0e8882890161381a565b955050602086013567ffffffffffffffff811115613a2f57613a2e61372c565b5b613a3b88828901613947565b9450506040613a4c88828901613996565b9350506060613a5d88828901613996565b9250506080613a6e888289016139cf565b9150509295509295909350565b600081519050919050565b600082825260208201905092915050565b60005b83811015613ab5578082015181840152602081019050613a9a565b60008484015250505050565b6000613acc82613a7b565b613ad68185613a86565b9350613ae6818560208601613a97565b613aef81613839565b840191505092915050565b60006020820190508181036000830152613b148184613ac1565b905092915050565b6000819050919050565b6000613b41613b3c613b37846137d1565b613b1c565b6137d1565b9050919050565b6000613b5382613b26565b9050919050565b6000613b6582613b48565b9050919050565b613b7581613b5a565b82525050565b6000602082019050613b906000830184613b6c565b92915050565b600060208284031215613bac57613bab613727565b5b6000613bba8482850161381a565b91505092915050565b600060208284031215613bd957613bd8613727565b5b6000613be784828501613752565b91505092915050565b60008060008060808587031215613c0a57613c09613727565b5b6000613c1887828801613752565b9450506020613c298782880161381a565b9350506040613c3a87828801613752565b925050606085013567ffffffffffffffff811115613c5b57613c5a61372c565b5b613c6787828801613947565b91505092959194509250565b600063ffffffff82169050919050565b613c8c81613c73565b8114613c9757600080fd5b50565b600081359050613ca981613c83565b92915050565b60008060008060808587031215613cc957613cc8613727565b5b6000613cd787828801613752565b9450506020613ce887828801613752565b9350506040613cf987828801613c9a565b9250506060613d0a87828801613752565b91505092959194509250565b613d1f816137f1565b82525050565b6000602082019050613d3a6000830184613d16565b92915050565b60008060008060008060c08789031215613d5d57613d5c613727565b5b6000613d6b89828a01613752565b9650506020613d7c89828a01613752565b9550506040613d8d89828a01613752565b9450506060613d9e89828a01613752565b9350506080613daf89828a01613c9a565b92505060a087013567ffffffffffffffff811115613dd057613dcf61372c565b5b613ddc89828a01613947565b9150509295509295509295565b613df281613c73565b82525050565b6000606082019050613e0d6000830186613de9565b613e1a60208301856137a7565b613e2760408301846137a7565b949350505050565b600081519050613e3e8161373b565b92915050565b600060208284031215613e5a57613e59613727565b5b6000613e6884828501613e2f565b91505092915050565b600082825260208201905092915050565b7f66756e6374696f6e5369676e61747572652063616e206e6f74206265206f662060008201527f657865637574654d6574615472616e73616374696f6e206d6574686f64000000602082015250565b6000613ede603d83613e71565b9150613ee982613e82565b604082019050919050565b60006020820190508181036000830152613f0d81613ed1565b9050919050565b7f5369676e657220616e64207369676e617475726520646f206e6f74206d61746360008201527f6800000000000000000000000000000000000000000000000000000000000000602082015250565b6000613f70602183613e71565b9150613f7b82613f14565b604082019050919050565b60006020820190508181036000830152613f9f81613f63565b9050919050565b600081905092915050565b6000613fbc82613a7b565b613fc68185613fa6565b9350613fd6818560208601613a97565b80840191505092915050565b60008160601b9050919050565b6000613ffa82613fe2565b9050919050565b600061400c82613fef565b9050919050565b61402461401f826137f1565b614001565b82525050565b60006140368285613fb1565b91506140428284614013565b6014820191508190509392505050565b600061405e8284613fb1565b915081905092915050565b7f46756e6374696f6e2063616c6c206e6f74207375636365737366756c00000000600082015250565b600061409f601c83613e71565b91506140aa82614069565b602082019050919050565b600060208201905081810360008301526140ce81614092565b9050919050565b60006140e0826137d1565b9050919050565b6140f0816140d5565b82525050565b600060608201905061410b6000830186613d16565b61411860208301856140e7565b818103604083015261412a8184613ac1565b9050949350505050565b60006060820190506141496000830186613d16565b6141566020830185613d16565b61416360408301846137a7565b949350505050565b60008115159050919050565b6141808161416b565b811461418b57600080fd5b50565b60008151905061419d81614177565b92915050565b6000602082840312156141b9576141b8613727565b5b60006141c78482850161418e565b91505092915050565b7f4e487b7100000000000000000000000000000000000000000000000000000000600052601160045260246000fd5b600061420a82613731565b915061421583613731565b925082820190508082111561422d5761422c6141d0565b5b92915050565b60006080820190506142486000830187613d16565b61425560208301866137a7565b61426260408301856137a7565b81810360608301526142748184613ac1565b905095945050505050565b7f4e487b7100000000000000000000000000000000000000000000000000000000600052601260045260246000fd5b60006142b982613731565b91506142c483613731565b9250826142d4576142d361427f565b5b828204905092915050565b60006142ea82613731565b91506142f583613731565b925082820390508181111561430d5761430c6141d0565b5b92915050565b7f4f6e6c79206f776e65722063616e2063616c6c207468652066756e6374696f6e600082015250565b6000614349602083613e71565b915061435482614313565b602082019050919050565b600060208201905081810360008301526143788161433c565b9050919050565b600061438a82613731565b915061439583613731565b92508282026143a381613731565b915082820484148315176143ba576143b96141d0565b5b5092915050565b60006060820190506143d66000830186613d16565b6143e360208301856137a7565b6143f060408301846137a7565b949350505050565b600060408201905061440d6000830185613d16565b61441a60208301846137a7565b9392505050565b61442a81613975565b82525050565b614439816139ab565b82525050565b60006080820190506144546000830187614421565b6144616020830186614430565b61446e6040830185614421565b61447b6060830184614421565b95945050505050565b7f496e76616c6964207369676e6174757265000000000000000000000000000000600082015250565b60006144ba601183613e71565b91506144c582614484565b602082019050919050565b600060208201905081810360008301526144e9816144ad565b9050919050565b600060808201905061450560008301876137a7565b61451260208301866137a7565b61451f60408301856137a7565b61452c60608301846137a7565b95945050505050565b600081519050919050565b600061454b82614535565b6145558185613e71565b9350614565818560208601613a97565b61456e81613839565b840191505092915050565b600060408201905081810360008301526145938185614540565b90506145a260208301846137a7565b9392505050565b600060208201905081810360008301526145c38184614540565b905092915050565b60006145d6826139ab565b91506145e1836139ab565b9250828203905060ff8111156145fa576145f96141d0565b5b92915050565b600060608201905061461560008301866137a7565b61462260208301856137a7565b61462f60408301846137a7565b949350505050565b600060808201905061464c6000830187614421565b61465960208301866137a7565b6146666040830185613d16565b6146736060830184614421565b95945050505050565b600081905092915050565b7f1901000000000000000000000000000000000000000000000000000000000000600082015250565b60006146bd60028361467c565b91506146c882614687565b600282019050919050565b6000819050919050565b6146ee6146e982613975565b6146d3565b82525050565b60006146ff826146b0565b915061470b82856146dd565b60208201915061471b82846146dd565b6020820191508190509392505050565b6000614736826139ab565b915060008203614749576147486141d0565b5b600182039050919050565b600061475f82613731565b915061476a83613731565b92508261477a5761477961427f565b5b828206905092915050565b6000614790826139ab565b915061479b836139ab565b9250828201905060ff8111156147b4576147b36141d0565b5b92915050565b60006147c5826139ab565b91506147d0836139ab565b9250826147e0576147df61427f565b5b828204905092915050565b7f4e487b7100000000000000000000000000000000000000000000000000000000600052603260045260246000fdfe4d6574615472616e73616374696f6e2875696e74323536206e6f6e63652c616464726573732066726f6d2c62797465732066756e6374696f6e5369676e617475726529a2646970667358221220859a831dc74c521c2f5e6e9831e5c01aa384d246e30c9e4452a42df494a88afc64736f6c63430008110033454950373132446f6d61696e28737472696e67206e616d652c737472696e672076657273696f6e2c6164647265737320766572696679696e67436f6e74726163742c627974657333322073616c7429",
  "devdoc": {
    "kind": "dev",
    "methods": {
      "_calculatePurchaseReturn(uint256,uint256,uint32,uint256)": {
        "details": "given a token supply, connector balance, weight and a deposit amount (in the connector token), calculates the return for a given conversion (in the main token) Formula: Return = _supply * ((1 + _depositAmount / _connectorBalance) ^ (_connectorWeight / 1000000) - 1) _depositAmount = [ exp{ log((Number/_supply) + 1) / (_connectorWeight / 1000000) } - 1  ] * _connectorBalance",
        "params": {
          "_connectorBalance": "total connector balance",
          "_connectorWeight": "connector weight, represented in ppm, 1-1000000",
          "_depositAmount": "deposit amount, in connector token",
          "_supply": "token total supply"
        },
        "returns": {
          "_0": "purchase return amount"
        }
      }
    },
    "version": 1
  },
  "userdoc": {
    "kind": "user",
    "methods": {},
    "version": 1
  },
  "storageLayout": {
    "storage": [
      {
        "astId": 7659,
        "contract": "contracts/CarbonCreditDEX.sol:CarbonCreditDEX",
        "label": "maxExpArray",
        "offset": 0,
        "slot": "0",
        "type": "t_array(t_uint256)128_storage"
      },
      {
        "astId": 10708,
        "contract": "contracts/CarbonCreditDEX.sol:CarbonCreditDEX",
        "label": "domainSeparator",
        "offset": 0,
        "slot": "128",
        "type": "t_bytes32"
      },
      {
        "astId": 10810,
        "contract": "contracts/CarbonCreditDEX.sol:CarbonCreditDEX",
        "label": "nonces",
        "offset": 0,
        "slot": "129",
        "type": "t_mapping(t_address,t_uint256)"
      },
      {
        "astId": 10059,
        "contract": "contracts/CarbonCreditDEX.sol:CarbonCreditDEX",
        "label": "carbonCredits",
        "offset": 0,
        "slot": "130",
        "type": "t_contract(CarbonCredits)10687"
      },
      {
        "astId": 10074,
        "contract": "contracts/CarbonCreditDEX.sol:CarbonCreditDEX",
        "label": "reserveBalances",
        "offset": 0,
        "slot": "131",
        "type": "t_mapping(t_uint256,t_uint256)"
      },
      {
        "astId": 10079,
        "contract": "contracts/CarbonCreditDEX.sol:CarbonCreditDEX",
        "label": "tokenDetails",
        "offset": 0,
        "slot": "132",
        "type": "t_mapping(t_uint256,t_struct(TokenDetails)10070_storage)"
      },
      {
        "astId": 10081,
        "contract": "contracts/CarbonCreditDEX.sol:CarbonCreditDEX",
        "label": "amount",
        "offset": 0,
        "slot": "133",
        "type": "t_uint256"
      }
    ],
    "types": {
      "t_address": {
        "encoding": "inplace",
        "label": "address",
        "numberOfBytes": "20"
      },
      "t_array(t_uint256)128_storage": {
        "base": "t_uint256",
        "encoding": "inplace",
        "label": "uint256[128]",
        "numberOfBytes": "4096"
      },
      "t_bytes32": {
        "encoding": "inplace",
        "label": "bytes32",
        "numberOfBytes": "32"
      },
      "t_contract(CarbonCredits)10687": {
        "encoding": "inplace",
        "label": "contract CarbonCredits",
        "numberOfBytes": "20"
      },
      "t_mapping(t_address,t_uint256)": {
        "encoding": "mapping",
        "key": "t_address",
        "label": "mapping(address => uint256)",
        "numberOfBytes": "32",
        "value": "t_uint256"
      },
      "t_mapping(t_uint256,t_struct(TokenDetails)10070_storage)": {
        "encoding": "mapping",
        "key": "t_uint256",
        "label": "mapping(uint256 => struct CarbonCreditDEX.TokenDetails)",
        "numberOfBytes": "32",
        "value": "t_struct(TokenDetails)10070_storage"
      },
      "t_mapping(t_uint256,t_uint256)": {
        "encoding": "mapping",
        "key": "t_uint256",
        "label": "mapping(uint256 => uint256)",
        "numberOfBytes": "32",
        "value": "t_uint256"
      },
      "t_struct(TokenDetails)10070_storage": {
        "encoding": "inplace",
        "label": "struct CarbonCreditDEX.TokenDetails",
        "members": [
          {
            "astId": 10065,
            "contract": "contracts/CarbonCreditDEX.sol:CarbonCreditDEX",
            "label": "RESERVE_RATIO",
            "offset": 0,
            "slot": "0",
            "type": "t_uint32"
          },
          {
            "astId": 10067,
            "contract": "contracts/CarbonCreditDEX.sol:CarbonCreditDEX",
            "label": "_fee",
            "offset": 0,
            "slot": "1",
            "type": "t_uint256"
          },
          {
            "astId": 10069,
            "contract": "contracts/CarbonCreditDEX.sol:CarbonCreditDEX",
            "label": "initialSupply",
            "offset": 0,
            "slot": "2",
            "type": "t_uint256"
          }
        ],
        "numberOfBytes": "96"
      },
      "t_uint256": {
        "encoding": "inplace",
        "label": "uint256",
        "numberOfBytes": "32"
      },
      "t_uint32": {
        "encoding": "inplace",
        "label": "uint32",
        "numberOfBytes": "4"
      }
    }
  }
}