{
  "address": "0x53921a42AF687ea445A773A7137Ef1A692756389",
  "abi": [
    {
      "inputs": [
        {
          "internalType": "address",
          "name": "oracle",
          "type": "address"
        }
      ],
      "stateMutability": "nonpayable",
      "type": "constructor"
    },
    {
      "inputs": [],
      "name": "EmptyArgs",
      "type": "error"
    },
    {
      "inputs": [],
      "name": "EmptySecrets",
      "type": "error"
    },
    {
      "inputs": [],
      "name": "EmptySource",
      "type": "error"
    },
    {
      "inputs": [],
      "name": "RequestIsAlreadyPending",
      "type": "error"
    },
    {
      "inputs": [],
      "name": "RequestIsNotPending",
      "type": "error"
    },
    {
      "inputs": [],
      "name": "SenderIsNotRegistry",
      "type": "error"
    },
    {
      "anonymous": false,
      "inputs": [
        {
          "indexed": true,
          "internalType": "address",
          "name": "owner",
          "type": "address"
        },
        {
          "indexed": true,
          "internalType": "address",
          "name": "approved",
          "type": "address"
        },
        {
          "indexed": true,
          "internalType": "uint256",
          "name": "tokenId",
          "type": "uint256"
        }
      ],
      "name": "Approval",
      "type": "event"
    },
    {
      "anonymous": false,
      "inputs": [
        {
          "indexed": true,
          "internalType": "address",
          "name": "owner",
          "type": "address"
        },
        {
          "indexed": true,
          "internalType": "address",
          "name": "operator",
          "type": "address"
        },
        {
          "indexed": false,
          "internalType": "bool",
          "name": "approved",
          "type": "bool"
        }
      ],
      "name": "ApprovalForAll",
      "type": "event"
    },
    {
      "anonymous": false,
      "inputs": [
        {
          "indexed": true,
          "internalType": "bytes32",
          "name": "requestId",
          "type": "bytes32"
        },
        {
          "indexed": false,
          "internalType": "bytes",
          "name": "result",
          "type": "bytes"
        },
        {
          "indexed": false,
          "internalType": "bytes",
          "name": "err",
          "type": "bytes"
        }
      ],
      "name": "OCRResponse",
      "type": "event"
    },
    {
      "anonymous": false,
      "inputs": [
        {
          "indexed": true,
          "internalType": "address",
          "name": "from",
          "type": "address"
        },
        {
          "indexed": true,
          "internalType": "address",
          "name": "to",
          "type": "address"
        }
      ],
      "name": "OwnershipTransferRequested",
      "type": "event"
    },
    {
      "anonymous": false,
      "inputs": [
        {
          "indexed": true,
          "internalType": "address",
          "name": "from",
          "type": "address"
        },
        {
          "indexed": true,
          "internalType": "address",
          "name": "to",
          "type": "address"
        }
      ],
      "name": "OwnershipTransferred",
      "type": "event"
    },
    {
      "anonymous": false,
      "inputs": [
        {
          "indexed": true,
          "internalType": "bytes32",
          "name": "id",
          "type": "bytes32"
        }
      ],
      "name": "RequestFulfilled",
      "type": "event"
    },
    {
      "anonymous": false,
      "inputs": [
        {
          "indexed": true,
          "internalType": "bytes32",
          "name": "id",
          "type": "bytes32"
        }
      ],
      "name": "RequestSent",
      "type": "event"
    },
    {
      "anonymous": false,
      "inputs": [
        {
          "indexed": false,
          "internalType": "uint256",
          "name": "tokenId",
          "type": "uint256"
        },
        {
          "indexed": false,
          "internalType": "string",
          "name": "tokenURI",
          "type": "string"
        }
      ],
      "name": "SBT_Burnt",
      "type": "event"
    },
    {
      "anonymous": false,
      "inputs": [
        {
          "indexed": true,
          "internalType": "address",
          "name": "from",
          "type": "address"
        },
        {
          "indexed": true,
          "internalType": "address",
          "name": "to",
          "type": "address"
        },
        {
          "indexed": true,
          "internalType": "uint256",
          "name": "tokenId",
          "type": "uint256"
        }
      ],
      "name": "Transfer",
      "type": "event"
    },
    {
      "inputs": [],
      "name": "acceptOwnership",
      "outputs": [],
      "stateMutability": "nonpayable",
      "type": "function"
    },
    {
      "inputs": [
        {
          "internalType": "string",
          "name": "name",
          "type": "string"
        },
        {
          "internalType": "string",
          "name": "description",
          "type": "string"
        },
        {
          "internalType": "address",
          "name": "institute_adress",
          "type": "address"
        }
      ],
      "name": "addInstitute",
      "outputs": [],
      "stateMutability": "nonpayable",
      "type": "function"
    },
    {
      "inputs": [
        {
          "internalType": "address",
          "name": "oracleAddress",
          "type": "address"
        },
        {
          "internalType": "bytes32",
          "name": "requestId",
          "type": "bytes32"
        }
      ],
      "name": "addSimulatedRequestId",
      "outputs": [],
      "stateMutability": "nonpayable",
      "type": "function"
    },
    {
      "inputs": [
        {
          "internalType": "address",
          "name": "_to",
          "type": "address"
        },
        {
          "internalType": "uint256",
          "name": "_tokenId",
          "type": "uint256"
        }
      ],
      "name": "approve",
      "outputs": [],
      "stateMutability": "nonpayable",
      "type": "function"
    },
    {
      "inputs": [
        {
          "internalType": "address",
          "name": "owner",
          "type": "address"
        }
      ],
      "name": "balanceOf",
      "outputs": [
        {
          "internalType": "uint256",
          "name": "",
          "type": "uint256"
        }
      ],
      "stateMutability": "view",
      "type": "function"
    },
    {
      "inputs": [
        {
          "internalType": "uint256",
          "name": "tokenId",
          "type": "uint256"
        }
      ],
      "name": "burn",
      "outputs": [],
      "stateMutability": "nonpayable",
      "type": "function"
    },
    {
      "inputs": [
        {
          "components": [
            {
              "internalType": "enum Functions.Location",
              "name": "codeLocation",
              "type": "uint8"
            },
            {
              "internalType": "enum Functions.Location",
              "name": "secretsLocation",
              "type": "uint8"
            },
            {
              "internalType": "enum Functions.CodeLanguage",
              "name": "language",
              "type": "uint8"
            },
            {
              "internalType": "string",
              "name": "source",
              "type": "string"
            },
            {
              "internalType": "bytes",
              "name": "secrets",
              "type": "bytes"
            },
            {
              "internalType": "string[]",
              "name": "args",
              "type": "string[]"
            }
          ],
          "internalType": "struct Functions.Request",
          "name": "req",
          "type": "tuple"
        },
        {
          "internalType": "uint64",
          "name": "subscriptionId",
          "type": "uint64"
        },
        {
          "internalType": "uint32",
          "name": "gasLimit",
          "type": "uint32"
        },
        {
          "internalType": "uint256",
          "name": "gasPrice",
          "type": "uint256"
        }
      ],
      "name": "estimateCost",
      "outputs": [
        {
          "internalType": "uint96",
          "name": "",
          "type": "uint96"
        }
      ],
      "stateMutability": "view",
      "type": "function"
    },
    {
      "inputs": [
        {
          "internalType": "string",
          "name": "source",
          "type": "string"
        },
        {
          "internalType": "bytes",
          "name": "secrets",
          "type": "bytes"
        },
        {
          "internalType": "string[]",
          "name": "args",
          "type": "string[]"
        },
        {
          "internalType": "uint64",
          "name": "subscriptionId",
          "type": "uint64"
        },
        {
          "internalType": "uint32",
          "name": "gasLimit",
          "type": "uint32"
        }
      ],
      "name": "executeRequest",
      "outputs": [
        {
          "internalType": "bytes32",
          "name": "",
          "type": "bytes32"
        }
      ],
      "stateMutability": "nonpayable",
      "type": "function"
    },
    {
      "inputs": [],
      "name": "gasLimit",
      "outputs": [
        {
          "internalType": "uint32",
          "name": "",
          "type": "uint32"
        }
      ],
      "stateMutability": "view",
      "type": "function"
    },
    {
      "inputs": [
        {
          "internalType": "uint256",
          "name": "_tokenId",
          "type": "uint256"
        }
      ],
      "name": "getApproved",
      "outputs": [
        {
          "internalType": "address",
          "name": "",
          "type": "address"
        }
      ],
      "stateMutability": "view",
      "type": "function"
    },
    {
      "inputs": [],
      "name": "getDONPublicKey",
      "outputs": [
        {
          "internalType": "bytes",
          "name": "",
          "type": "bytes"
        }
      ],
      "stateMutability": "view",
      "type": "function"
    },
    {
      "inputs": [
        {
          "internalType": "bytes32",
          "name": "requestId",
          "type": "bytes32"
        },
        {
          "internalType": "bytes",
          "name": "response",
          "type": "bytes"
        },
        {
          "internalType": "bytes",
          "name": "err",
          "type": "bytes"
        }
      ],
      "name": "handleOracleFulfillment",
      "outputs": [],
      "stateMutability": "nonpayable",
      "type": "function"
    },
    {
      "inputs": [],
      "name": "instituteCount",
      "outputs": [
        {
          "internalType": "uint256",
          "name": "",
          "type": "uint256"
        }
      ],
      "stateMutability": "view",
      "type": "function"
    },
    {
      "inputs": [
        {
          "internalType": "address",
          "name": "owner",
          "type": "address"
        },
        {
          "internalType": "address",
          "name": "operator",
          "type": "address"
        }
      ],
      "name": "isApprovedForAll",
      "outputs": [
        {
          "internalType": "bool",
          "name": "",
          "type": "bool"
        }
      ],
      "stateMutability": "view",
      "type": "function"
    },
    {
      "inputs": [
        {
          "internalType": "address",
          "name": "_admin",
          "type": "address"
        }
      ],
      "name": "is_admin",
      "outputs": [
        {
          "internalType": "bool",
          "name": "",
          "type": "bool"
        }
      ],
      "stateMutability": "view",
      "type": "function"
    },
    {
      "inputs": [
        {
          "internalType": "address",
          "name": "_institute",
          "type": "address"
        }
      ],
      "name": "is_institute",
      "outputs": [
        {
          "internalType": "bool",
          "name": "",
          "type": "bool"
        }
      ],
      "stateMutability": "view",
      "type": "function"
    },
    {
      "inputs": [],
      "name": "latestError",
      "outputs": [
        {
          "internalType": "bytes",
          "name": "",
          "type": "bytes"
        }
      ],
      "stateMutability": "view",
      "type": "function"
    },
    {
      "inputs": [],
      "name": "latestRequestId",
      "outputs": [
        {
          "internalType": "bytes32",
          "name": "",
          "type": "bytes32"
        }
      ],
      "stateMutability": "view",
      "type": "function"
    },
    {
      "inputs": [],
      "name": "latestResponse",
      "outputs": [
        {
          "internalType": "bytes",
          "name": "",
          "type": "bytes"
        }
      ],
      "stateMutability": "view",
      "type": "function"
    },
    {
      "inputs": [
        {
          "internalType": "address",
          "name": "receiver",
          "type": "address"
        },
        {
          "internalType": "string",
          "name": "comp_name",
          "type": "string"
        },
        {
          "internalType": "string",
          "name": "carb_credits",
          "type": "string"
        },
        {
          "internalType": "string",
          "name": "description",
          "type": "string"
        },
        {
          "internalType": "string",
          "name": "issue_date",
          "type": "string"
        },
        {
          "internalType": "string",
          "name": "ind_id",
          "type": "string"
        }
      ],
      "name": "mint",
      "outputs": [
        {
          "internalType": "bool",
          "name": "",
          "type": "bool"
        }
      ],
      "stateMutability": "nonpayable",
      "type": "function"
    },
    {
      "inputs": [],
      "name": "name",
      "outputs": [
        {
          "internalType": "string",
          "name": "",
          "type": "string"
        }
      ],
      "stateMutability": "view",
      "type": "function"
    },
    {
      "inputs": [],
      "name": "owner",
      "outputs": [
        {
          "internalType": "address",
          "name": "",
          "type": "address"
        }
      ],
      "stateMutability": "view",
      "type": "function"
    },
    {
      "inputs": [
        {
          "internalType": "uint256",
          "name": "tokenId",
          "type": "uint256"
        }
      ],
      "name": "ownerOf",
      "outputs": [
        {
          "internalType": "address",
          "name": "",
          "type": "address"
        }
      ],
      "stateMutability": "view",
      "type": "function"
    },
    {
      "inputs": [
        {
          "internalType": "address",
          "name": "institute_adress",
          "type": "address"
        }
      ],
      "name": "removeInstitute",
      "outputs": [],
      "stateMutability": "nonpayable",
      "type": "function"
    },
    {
      "inputs": [
        {
          "internalType": "address",
          "name": "_from",
          "type": "address"
        },
        {
          "internalType": "address",
          "name": "_to",
          "type": "address"
        },
        {
          "internalType": "uint256",
          "name": "_tokenId",
          "type": "uint256"
        }
      ],
      "name": "safeTransferFrom",
      "outputs": [],
      "stateMutability": "nonpayable",
      "type": "function"
    },
    {
      "inputs": [
        {
          "internalType": "address",
          "name": "_from",
          "type": "address"
        },
        {
          "internalType": "address",
          "name": "_to",
          "type": "address"
        },
        {
          "internalType": "uint256",
          "name": "_tokenId",
          "type": "uint256"
        },
        {
          "internalType": "bytes",
          "name": "_data",
          "type": "bytes"
        }
      ],
      "name": "safeTransferFrom",
      "outputs": [],
      "stateMutability": "nonpayable",
      "type": "function"
    },
    {
      "inputs": [
        {
          "internalType": "address",
          "name": "_operator",
          "type": "address"
        },
        {
          "internalType": "bool",
          "name": "_approved",
          "type": "bool"
        }
      ],
      "name": "setApprovalForAll",
      "outputs": [],
      "stateMutability": "nonpayable",
      "type": "function"
    },
    {
      "inputs": [
        {
          "internalType": "uint32",
          "name": "_gasLimit",
          "type": "uint32"
        }
      ],
      "name": "setGasLimit",
      "outputs": [
        {
          "internalType": "bool",
          "name": "",
          "type": "bool"
        }
      ],
      "stateMutability": "nonpayable",
      "type": "function"
    },
    {
      "inputs": [
        {
          "internalType": "uint64",
          "name": "_subscriptionId",
          "type": "uint64"
        }
      ],
      "name": "setSubscriptionId",
      "outputs": [
        {
          "internalType": "bool",
          "name": "",
          "type": "bool"
        }
      ],
      "stateMutability": "nonpayable",
      "type": "function"
    },
    {
      "inputs": [],
      "name": "subscriptionId",
      "outputs": [
        {
          "internalType": "uint64",
          "name": "",
          "type": "uint64"
        }
      ],
      "stateMutability": "view",
      "type": "function"
    },
    {
      "inputs": [
        {
          "internalType": "bytes4",
          "name": "interfaceId",
          "type": "bytes4"
        }
      ],
      "name": "supportsInterface",
      "outputs": [
        {
          "internalType": "bool",
          "name": "",
          "type": "bool"
        }
      ],
      "stateMutability": "view",
      "type": "function"
    },
    {
      "inputs": [],
      "name": "symbol",
      "outputs": [
        {
          "internalType": "string",
          "name": "",
          "type": "string"
        }
      ],
      "stateMutability": "view",
      "type": "function"
    },
    {
      "inputs": [
        {
          "internalType": "uint256",
          "name": "tokenId",
          "type": "uint256"
        }
      ],
      "name": "tokenURI",
      "outputs": [
        {
          "internalType": "string",
          "name": "",
          "type": "string"
        }
      ],
      "stateMutability": "view",
      "type": "function"
    },
    {
      "inputs": [
        {
          "internalType": "address",
          "name": "_from",
          "type": "address"
        },
        {
          "internalType": "address",
          "name": "_to",
          "type": "address"
        },
        {
          "internalType": "uint256",
          "name": "_tokenId",
          "type": "uint256"
        }
      ],
      "name": "transferFrom",
      "outputs": [],
      "stateMutability": "nonpayable",
      "type": "function"
    },
    {
      "inputs": [
        {
          "internalType": "address",
          "name": "to",
          "type": "address"
        }
      ],
      "name": "transferOwnership",
      "outputs": [],
      "stateMutability": "nonpayable",
      "type": "function"
    },
    {
      "inputs": [
        {
          "internalType": "address",
          "name": "oracle",
          "type": "address"
        }
      ],
      "name": "updateOracleAddress",
      "outputs": [],
      "stateMutability": "nonpayable",
      "type": "function"
    }
  ],
  "transactionHash": "0xbb3213b39095db8597a9f7611bcbe8a48954bad386ded613950b60a482a0fa48",
  "args": [
    "0x649a2C205BE7A3d5e99206CEEFF30c794f0E31EC"
  ],
  "numDeployments": 1,
  "solcInputHash": "6183443cd6cef5d03feef36241b824b7",
  "bytecode": "0x60806040526203d090601360006101000a81548163ffffffff021916908363ffffffff1602179055506000601360046101000a81548167ffffffffffffffff021916908367ffffffffffffffff160217905550604051602001620000639062000586565b6040516020818303038152906040526014908162000082919062000831565b503480156200009057600080fd5b5060405162006372380380620063728339818101604052810190620000b6919062000982565b33806000836040518060400160405280601e81526020017f436f6e7665727469626c6520436172626f6e2d437265646974732053425400008152506040518060400160405280600681526020017f4343435342540000000000000000000000000000000000000000000000000000815250816000908162000138919062000831565b5080600190816200014a919062000831565b50505033600760006101000a81548173ffffffffffffffffffffffffffffffffffffffff021916908373ffffffffffffffffffffffffffffffffffffffff1602179055506200019f81620002a460201b60201c565b50600073ffffffffffffffffffffffffffffffffffffffff168273ffffffffffffffffffffffffffffffffffffffff160362000212576040517f08c379a0000000000000000000000000000000000000000000000000000000008152600401620002099062000a15565b60405180910390fd5b81600c60006101000a81548173ffffffffffffffffffffffffffffffffffffffff021916908373ffffffffffffffffffffffffffffffffffffffff160217905550600073ffffffffffffffffffffffffffffffffffffffff168173ffffffffffffffffffffffffffffffffffffffff16146200029a576200029981620002e860201b60201c565b5b5050505062000aa9565b80600a60006101000a81548173ffffffffffffffffffffffffffffffffffffffff021916908373ffffffffffffffffffffffffffffffffffffffff16021790555050565b3373ffffffffffffffffffffffffffffffffffffffff168173ffffffffffffffffffffffffffffffffffffffff160362000359576040517f08c379a0000000000000000000000000000000000000000000000000000000008152600401620003509062000a87565b60405180910390fd5b80600d60006101000a81548173ffffffffffffffffffffffffffffffffffffffff021916908373ffffffffffffffffffffffffffffffffffffffff1602179055508073ffffffffffffffffffffffffffffffffffffffff16600c60009054906101000a900473ffffffffffffffffffffffffffffffffffffffff1673ffffffffffffffffffffffffffffffffffffffff167fed8889f560326eb138920d842192f0eb3dd22b4f139c87a2c57538e05bae127860405160405180910390a350565b600081905092915050565b7f6c6574206a736f6e4f626a656374203d204a534f4e2e7061727365286172677360008201527f5b305d293b000000000000000000000000000000000000000000000000000000602082015250565b60006200048260258362000419565b91506200048f8262000424565b602582019050919050565b7f636f6e7374207072696e636970616c416d6f756e74203d207061727365496e7460008201527f286a736f6e4f626a6563742e636172626f6e5f63726564697473293b00000000602082015250565b6000620004f8603c8362000419565b915062000505826200049a565b603c82019050919050565b7f72657475726e2046756e6374696f6e732e656e636f646555696e74323536284d60008201527f6174682e726f756e64287072696e636970616c416d6f756e7429293b00000000602082015250565b60006200056e603c8362000419565b91506200057b8262000510565b603c82019050919050565b6000620005938262000473565b9150620005a082620004e9565b9150620005ad826200055f565b9150819050919050565b600081519050919050565b7f4e487b7100000000000000000000000000000000000000000000000000000000600052604160045260246000fd5b7f4e487b7100000000000000000000000000000000000000000000000000000000600052602260045260246000fd5b600060028204905060018216806200063957607f821691505b6020821081036200064f576200064e620005f1565b5b50919050565b60008190508160005260206000209050919050565b60006020601f8301049050919050565b600082821b905092915050565b600060088302620006b97fffffffffffffffffffffffffffffffffffffffffffffffffffffffffffffffff826200067a565b620006c586836200067a565b95508019841693508086168417925050509392505050565b6000819050919050565b6000819050919050565b6000620007126200070c6200070684620006dd565b620006e7565b620006dd565b9050919050565b6000819050919050565b6200072e83620006f1565b620007466200073d8262000719565b84845462000687565b825550505050565b600090565b6200075d6200074e565b6200076a81848462000723565b505050565b5b8181101562000792576200078660008262000753565b60018101905062000770565b5050565b601f821115620007e157620007ab8162000655565b620007b6846200066a565b81016020851015620007c6578190505b620007de620007d5856200066a565b8301826200076f565b50505b505050565b600082821c905092915050565b60006200080660001984600802620007e6565b1980831691505092915050565b6000620008218383620007f3565b9150826002028217905092915050565b6200083c82620005b7565b67ffffffffffffffff811115620008585762000857620005c2565b5b62000864825462000620565b6200087182828562000796565b600060209050601f831160018114620008a9576000841562000894578287015190505b620008a0858262000813565b86555062000910565b601f198416620008b98662000655565b60005b82811015620008e357848901518255600182019150602085019450602081019050620008bc565b86831015620009035784890151620008ff601f891682620007f3565b8355505b6001600288020188555050505b505050505050565b600080fd5b600073ffffffffffffffffffffffffffffffffffffffff82169050919050565b60006200094a826200091d565b9050919050565b6200095c816200093d565b81146200096857600080fd5b50565b6000815190506200097c8162000951565b92915050565b6000602082840312156200099b576200099a62000918565b5b6000620009ab848285016200096b565b91505092915050565b600082825260208201905092915050565b7f43616e6e6f7420736574206f776e657220746f207a65726f0000000000000000600082015250565b6000620009fd601883620009b4565b915062000a0a82620009c5565b602082019050919050565b6000602082019050818103600083015262000a3081620009ee565b9050919050565b7f43616e6e6f74207472616e7366657220746f2073656c66000000000000000000600082015250565b600062000a6f601783620009b4565b915062000a7c8262000a37565b602082019050919050565b6000602082019050818103600083015262000aa28162000a60565b9050919050565b6158b98062000ab96000396000f3fe608060405234801561001057600080fd5b506004361061021c5760003560e01c80638f8e94c911610125578063d4b39175116100ad578063f41abb281161007c578063f41abb2814610685578063f68016b7146106a1578063f7023bb6146106bf578063fefb21a4146106db578063fffeb84e146106f95761021c565b8063d4b39175146105d9578063e985e9c514610609578063ea7b4f7714610639578063f2fde38b146106695761021c565b8063aac132de116100f4578063aac132de14610521578063b88d4fde14610551578063bef3a2f01461056d578063c87b56dd1461058b578063d328a91e146105bb5761021c565b80638f8e94c91461049b57806395d89b41146104b7578063a22cb465146104d5578063a673dd4b146104f15761021c565b806327714589116101a857806352d84c621161017757806352d84c62146103e35780636352211e1461041357806370a082311461044357806379ba5097146104735780638da5cb5b1461047d5761021c565b8063277145891461035f57806330bda99d1461038f57806342842e0e146103ab57806342966c68146103c75761021c565b806309c1ba2e116101ef57806309c1ba2e146102bb5780630ca76175146102d95780630d7c43f5146102f55780631aa46f591461032557806323b872dd146103435761021c565b806301ffc9a71461022157806306fdde0314610251578063081812fc1461026f578063095ea7b31461029f575b600080fd5b61023b600480360381019061023691906136b1565b610717565b60405161024891906136f9565b60405180910390f35b6102596107f9565b60405161026691906137a4565b60405180910390f35b610289600480360381019061028491906137fc565b61088b565b604051610296919061386a565b60405180910390f35b6102b960048036038101906102b491906138b1565b610892565b005b6102c36108cd565b6040516102d09190613914565b60405180910390f35b6102f360048036038101906102ee9190613a9a565b6108e7565b005b61030f600480360381019061030a9190613bc6565b6109f4565b60405161031c91906136f9565b60405180910390f35b61032d610bd7565b60405161033a9190613cee565b60405180910390f35b61035d60048036038101906103589190613d09565b610bdd565b005b61037960048036038101906103749190613eaa565b610c18565b6040516103869190613cee565b60405180910390f35b6103a960048036038101906103a49190613f79565b610ca2565b005b6103c560048036038101906103c09190613d09565b610cb8565b005b6103e160048036038101906103dc91906137fc565b610cf3565b005b6103fd60048036038101906103f89190613fb9565b610f1d565b60405161040a91906136f9565b60405180910390f35b61042d600480360381019061042891906137fc565b610fd9565b60405161043a919061386a565b60405180910390f35b61045d60048036038101906104589190613fe6565b61105f565b60405161046a9190614022565b60405180910390f35b61047b611116565b005b6104856112ad565b604051610492919061386a565b60405180910390f35b6104b560048036038101906104b0919061403d565b6112d7565b005b6104bf611436565b6040516104cc91906137a4565b60405180910390f35b6104ef60048036038101906104ea91906140f4565b6114c8565b005b61050b60048036038101906105069190613fe6565b611503565b60405161051891906136f9565b60405180910390f35b61053b60048036038101906105369190613fe6565b61156d565b60405161054891906136f9565b60405180910390f35b61056b60048036038101906105669190614134565b6115d7565b005b610575611612565b604051610582919061420c565b60405180910390f35b6105a560048036038101906105a091906137fc565b6116a0565b6040516105b291906137a4565b60405180910390f35b6105c36117b2565b6040516105d0919061420c565b60405180910390f35b6105f360048036038101906105ee9190614376565b61184f565b6040516106009190614420565b60405180910390f35b610623600480360381019061061e919061443b565b611905565b60405161063091906136f9565b60405180910390f35b610653600480360381019061064e919061447b565b611999565b60405161066091906136f9565b60405180910390f35b610683600480360381019061067e9190613fe6565b611a5d565b005b61069f600480360381019061069a9190613fe6565b611a71565b005b6106a9611b77565b6040516106b691906144b7565b60405180910390f35b6106d960048036038101906106d49190613fe6565b611b8d565b005b6106e3611ba1565b6040516106f09190614022565b60405180910390f35b610701611bab565b60405161070e919061420c565b60405180910390f35b60007f80ac58cd000000000000000000000000000000000000000000000000000000007bffffffffffffffffffffffffffffffffffffffffffffffffffffffff1916827bffffffffffffffffffffffffffffffffffffffffffffffffffffffff191614806107e257507f5b5e139f000000000000000000000000000000000000000000000000000000007bffffffffffffffffffffffffffffffffffffffffffffffffffffffff1916827bffffffffffffffffffffffffffffffffffffffffffffffffffffffff1916145b806107f257506107f182611c39565b5b9050919050565b60606000805461080890614501565b80601f016020809104026020016040519081016040528092919081815260200182805461083490614501565b80156108815780601f1061085657610100808354040283529160200191610881565b820191906000526020600020905b81548152906001019060200180831161086457829003601f168201915b5050505050905090565b6000919050565b6040517f08c379a00000000000000000000000000000000000000000000000000000000081526004016108c4906145a4565b60405180910390fd5b601360049054906101000a900467ffffffffffffffff1681565b82600b600082815260200190815260200160002060009054906101000a900473ffffffffffffffffffffffffffffffffffffffff1673ffffffffffffffffffffffffffffffffffffffff163373ffffffffffffffffffffffffffffffffffffffff1614610980576040517fa0c5ec6300000000000000000000000000000000000000000000000000000000815260040160405180910390fd5b600b600082815260200190815260200160002060006101000a81549073ffffffffffffffffffffffffffffffffffffffff0219169055807f85e1543bf2f84fe80c6badbce3648c8539ad1df4d2b3d822938ca0538be727e660405160405180910390a26109ee848484611ca3565b50505050565b600060011515600960003373ffffffffffffffffffffffffffffffffffffffff1673ffffffffffffffffffffffffffffffffffffffff16815260200190815260200160002060020160009054906101000a900460ff16151514610a8c576040517f08c379a0000000000000000000000000000000000000000000000000000000008152600401610a8390614610565b60405180910390fd5b60003390506000600960008373ffffffffffffffffffffffffffffffffffffffff1673ffffffffffffffffffffffffffffffffffffffff1681526020019081526020016000206000018054610ae090614501565b80601f0160208091040260200160405190810160405280929190818152602001828054610b0c90614501565b8015610b595780601f10610b2e57610100808354040283529160200191610b59565b820191906000526020600020905b815481529060010190602001808311610b3c57829003601f168201915b5050505050905060006040518060c001604052808381526020018a8152602001898152602001878152602001868152602001888152509050610b9b600f611d02565b6000610ba7600f611d18565b9050610bb38b82611d26565b610bc581610bc084611f43565b611f8e565b60019450505050509695505050505050565b60105481565b6040517f08c379a0000000000000000000000000000000000000000000000000000000008152600401610c0f906145a4565b60405180910390fd5b6000610c22611ffb565b610c2a613563565b610c42600080898461208d909392919063ffffffff16565b600086511115610c6057610c5f868261213790919063ffffffff16565b5b600085511115610c7e57610c7d85826121b090919063ffffffff16565b5b6000610c8b8286866121f8565b905080601081905550809250505095945050505050565b610caa611ffb565b610cb482826123c1565b5050565b6040517f08c379a0000000000000000000000000000000000000000000000000000000008152600401610cea906145a4565b60405180910390fd5b610d04610cfe6124b2565b826124ba565b610d43576040517f08c379a0000000000000000000000000000000000000000000000000000000008152600401610d3a906146a2565b60405180910390fd5b6000610d4e826116a0565b90506000600167ffffffffffffffff811115610d6d57610d6c61396f565b5b604051908082528060200260200182016040528015610da057816020015b6060815260200190600190039081610d8b5790505b5090508181600081518110610db857610db76146c2565b5b60200260200101819052506000825111610e07576040517f08c379a0000000000000000000000000000000000000000000000000000000008152600401610dfe9061473d565b60405180910390fd5b610ed560148054610e1790614501565b80601f0160208091040260200160405190810160405280929190818152602001828054610e4390614501565b8015610e905780601f10610e6557610100808354040283529160200191610e90565b820191906000526020600020905b815481529060010190602001808311610e7357829003601f168201915b50505050506040518060200160405280600081525083601360049054906101000a900467ffffffffffffffff16601360009054906101000a900463ffffffff16610c18565b50610edf8361254f565b7faf0d276201be3f234aa87ab604c2279edb9d3e0c799379fa82a6e70845eda1438383604051610f1092919061475d565b60405180910390a1505050565b60003373ffffffffffffffffffffffffffffffffffffffff16600760009054906101000a900473ffffffffffffffffffffffffffffffffffffffff1673ffffffffffffffffffffffffffffffffffffffff1614610faf576040517f08c379a0000000000000000000000000000000000000000000000000000000008152600401610fa6906147d9565b60405180910390fd5b81601360006101000a81548163ffffffff021916908363ffffffff16021790555060019050919050565b600080610fe5836125a2565b9050600073ffffffffffffffffffffffffffffffffffffffff168173ffffffffffffffffffffffffffffffffffffffff1603611056576040517f08c379a000000000000000000000000000000000000000000000000000000000815260040161104d90614845565b60405180910390fd5b80915050919050565b60008073ffffffffffffffffffffffffffffffffffffffff168273ffffffffffffffffffffffffffffffffffffffff16036110cf576040517f08c379a00000000000000000000000000000000000000000000000000000000081526004016110c6906148d7565b60405180910390fd5b600360008373ffffffffffffffffffffffffffffffffffffffff1673ffffffffffffffffffffffffffffffffffffffff168152602001908152602001600020549050919050565b600d60009054906101000a900473ffffffffffffffffffffffffffffffffffffffff1673ffffffffffffffffffffffffffffffffffffffff163373ffffffffffffffffffffffffffffffffffffffff16146111a6576040517f08c379a000000000000000000000000000000000000000000000000000000000815260040161119d90614943565b60405180910390fd5b6000600c60009054906101000a900473ffffffffffffffffffffffffffffffffffffffff16905033600c60006101000a81548173ffffffffffffffffffffffffffffffffffffffff021916908373ffffffffffffffffffffffffffffffffffffffff1602179055506000600d60006101000a81548173ffffffffffffffffffffffffffffffffffffffff021916908373ffffffffffffffffffffffffffffffffffffffff1602179055503373ffffffffffffffffffffffffffffffffffffffff168173ffffffffffffffffffffffffffffffffffffffff167f8be0079c531659141344cd1fd0a4f28419497f9722a3daafe3b4186f6b6457e060405160405180910390a350565b6000600c60009054906101000a900473ffffffffffffffffffffffffffffffffffffffff16905090565b3373ffffffffffffffffffffffffffffffffffffffff16600760009054906101000a900473ffffffffffffffffffffffffffffffffffffffff1673ffffffffffffffffffffffffffffffffffffffff1614611367576040517f08c379a000000000000000000000000000000000000000000000000000000000815260040161135e906149af565b60405180910390fd5b6000604051806060016040528085815260200184815260200160011515815250905080600960008473ffffffffffffffffffffffffffffffffffffffff1673ffffffffffffffffffffffffffffffffffffffff16815260200190815260200160002060008201518160000190816113de9190614b7b565b5060208201518160010190816113f49190614b7b565b5060408201518160020160006101000a81548160ff0219169083151502179055509050506008600081548092919061142b90614c7c565b919050555050505050565b60606001805461144590614501565b80601f016020809104026020016040519081016040528092919081815260200182805461147190614501565b80156114be5780601f10611493576101008083540402835291602001916114be565b820191906000526020600020905b8154815290600101906020018083116114a157829003601f168201915b5050505050905090565b6040517f08c379a00000000000000000000000000000000000000000000000000000000081526004016114fa906145a4565b60405180910390fd5b6000600960008373ffffffffffffffffffffffffffffffffffffffff1673ffffffffffffffffffffffffffffffffffffffff16815260200190815260200160002060020160009054906101000a900460ff16156115635760019050611568565b600090505b919050565b6000600760009054906101000a900473ffffffffffffffffffffffffffffffffffffffff1673ffffffffffffffffffffffffffffffffffffffff168273ffffffffffffffffffffffffffffffffffffffff16036115cd57600190506115d2565b600090505b919050565b6040517f08c379a0000000000000000000000000000000000000000000000000000000008152600401611609906145a4565b60405180910390fd5b6011805461161f90614501565b80601f016020809104026020016040519081016040528092919081815260200182805461164b90614501565b80156116985780601f1061166d57610100808354040283529160200191611698565b820191906000526020600020905b81548152906001019060200180831161167b57829003601f168201915b505050505081565b60606116ab826125df565b60006006600084815260200190815260200160002080546116cb90614501565b80601f01602080910402602001604051908101604052809291908181526020018280546116f790614501565b80156117445780601f1061171957610100808354040283529160200191611744565b820191906000526020600020905b81548152906001019060200180831161172757829003601f168201915b50505050509050600061175561262a565b9050600081510361176a5781925050506117ad565b60008251111561179f578082604051602001611787929190614d00565b604051602081830303815290604052925050506117ad565b6117a884612641565b925050505b919050565b6060600a60009054906101000a900473ffffffffffffffffffffffffffffffffffffffff1673ffffffffffffffffffffffffffffffffffffffff1663d328a91e6040518163ffffffff1660e01b8152600401600060405180830381865afa158015611821573d6000803e3d6000fd5b505050506040513d6000823e3d601f19601f8201168201806040525081019061184a9190614d94565b905090565b6000600a60009054906101000a900473ffffffffffffffffffffffffffffffffffffffff1673ffffffffffffffffffffffffffffffffffffffff1663d227d24585611899886126a9565b86866040518563ffffffff1660e01b81526004016118ba9493929190614ddd565b602060405180830381865afa1580156118d7573d6000803e3d6000fd5b505050506040513d601f19601f820116820180604052508101906118fb9190614e55565b9050949350505050565b6000600560008473ffffffffffffffffffffffffffffffffffffffff1673ffffffffffffffffffffffffffffffffffffffff16815260200190815260200160002060008373ffffffffffffffffffffffffffffffffffffffff1673ffffffffffffffffffffffffffffffffffffffff16815260200190815260200160002060009054906101000a900460ff16905092915050565b60003373ffffffffffffffffffffffffffffffffffffffff16600760009054906101000a900473ffffffffffffffffffffffffffffffffffffffff1673ffffffffffffffffffffffffffffffffffffffff1614611a2b576040517f08c379a0000000000000000000000000000000000000000000000000000000008152600401611a22906147d9565b60405180910390fd5b81601360046101000a81548167ffffffffffffffff021916908367ffffffffffffffff16021790555060019050919050565b611a65611ffb565b611a6e816129ab565b50565b3373ffffffffffffffffffffffffffffffffffffffff16600760009054906101000a900473ffffffffffffffffffffffffffffffffffffffff1673ffffffffffffffffffffffffffffffffffffffff1614611b01576040517f08c379a0000000000000000000000000000000000000000000000000000000008152600401611af8906149af565b60405180910390fd5b6000600960008373ffffffffffffffffffffffffffffffffffffffff1673ffffffffffffffffffffffffffffffffffffffff16815260200190815260200160002060020160006101000a81548160ff02191690831515021790555060086000815480929190611b6f90614e82565b919050555050565b601360009054906101000a900463ffffffff1681565b611b95611ffb565b611b9e81612ad9565b50565b6000600854905090565b60128054611bb890614501565b80601f0160208091040260200160405190810160405280929190818152602001828054611be490614501565b8015611c315780601f10611c0657610100808354040283529160200191611c31565b820191906000526020600020905b815481529060010190602001808311611c1457829003601f168201915b505050505081565b60007f01ffc9a7000000000000000000000000000000000000000000000000000000007bffffffffffffffffffffffffffffffffffffffffffffffffffffffff1916827bffffffffffffffffffffffffffffffffffffffffffffffffffffffff1916149050919050565b8160119081611cb29190614f06565b508060129081611cc29190614f06565b50827f7bab0ec163b5c132c72b8146ac4d6e067e82ed58f8b131150aa71c92589115628383604051611cf5929190614fd8565b60405180910390a2505050565b6001816000016000828254019250508190555050565b600081600001549050919050565b600073ffffffffffffffffffffffffffffffffffffffff168273ffffffffffffffffffffffffffffffffffffffff1603611d95576040517f08c379a0000000000000000000000000000000000000000000000000000000008152600401611d8c9061505b565b60405180910390fd5b611d9e81612b1d565b15611dde576040517f08c379a0000000000000000000000000000000000000000000000000000000008152600401611dd5906150c7565b60405180910390fd5b611dec600083836001612b5e565b611df581612b1d565b15611e35576040517f08c379a0000000000000000000000000000000000000000000000000000000008152600401611e2c906150c7565b60405180910390fd5b6001600360008473ffffffffffffffffffffffffffffffffffffffff1673ffffffffffffffffffffffffffffffffffffffff16815260200190815260200160002060008282540192505081905550816002600083815260200190815260200160002060006101000a81548173ffffffffffffffffffffffffffffffffffffffff021916908373ffffffffffffffffffffffffffffffffffffffff160217905550808273ffffffffffffffffffffffffffffffffffffffff16600073ffffffffffffffffffffffffffffffffffffffff167fddf252ad1be2c89b69c2b068fc378daa952ba7f163c4a11628f55a4df523b3ef60405160405180910390a4611f3f600083836001612c84565b5050565b6060816000015182602001518360400151846060015185608001518660a00151604051602001611f78969594939291906152fb565b6040516020818303038152906040529050919050565b611f9782612b1d565b611fd6576040517f08c379a0000000000000000000000000000000000000000000000000000000008152600401611fcd90615412565b60405180910390fd5b80600660008481526020019081526020016000209081611ff69190614b7b565b505050565b600c60009054906101000a900473ffffffffffffffffffffffffffffffffffffffff1673ffffffffffffffffffffffffffffffffffffffff163373ffffffffffffffffffffffffffffffffffffffff161461208b576040517f08c379a00000000000000000000000000000000000000000000000000000000081526004016120829061547e565b60405180910390fd5b565b60008151036120c8576040517f22ce3edd00000000000000000000000000000000000000000000000000000000815260040160405180910390fd5b82846000019060018111156120e0576120df61549e565b5b908160018111156120f4576120f361549e565b5b8152505081846040019060008111156121105761210f61549e565b5b908160008111156121245761212361549e565b5b8152505080846060018190525050505050565b6000815103612172576040517fe889636f00000000000000000000000000000000000000000000000000000000815260040160405180910390fd5b60018260200190600181111561218b5761218a61549e565b5b9081600181111561219f5761219e61549e565b5b815250508082608001819052505050565b60008151036121eb576040517ffe936cb700000000000000000000000000000000000000000000000000000000815260040160405180910390fd5b808260a001819052505050565b600080600a60009054906101000a900473ffffffffffffffffffffffffffffffffffffffff1673ffffffffffffffffffffffffffffffffffffffff166328242b0485612243886126a9565b866040518463ffffffff1660e01b8152600401612262939291906154cd565b6020604051808303816000875af1158015612281573d6000803e3d6000fd5b505050506040513d601f19601f820116820180604052508101906122a59190615520565b9050600a60009054906101000a900473ffffffffffffffffffffffffffffffffffffffff1673ffffffffffffffffffffffffffffffffffffffff16635ab1bd536040518163ffffffff1660e01b8152600401602060405180830381865afa158015612314573d6000803e3d6000fd5b505050506040513d601f19601f820116820180604052508101906123389190615562565b600b600083815260200190815260200160002060006101000a81548173ffffffffffffffffffffffffffffffffffffffff021916908373ffffffffffffffffffffffffffffffffffffffff160217905550807f1131472297a800fee664d1d89cfa8f7676ff07189ecc53f80bbb5f4969099db860405160405180910390a2809150509392505050565b80600073ffffffffffffffffffffffffffffffffffffffff16600b600083815260200190815260200160002060009054906101000a900473ffffffffffffffffffffffffffffffffffffffff1673ffffffffffffffffffffffffffffffffffffffff161461245b576040517f8b457ad200000000000000000000000000000000000000000000000000000000815260040160405180910390fd5b82600b600084815260200190815260200160002060006101000a81548173ffffffffffffffffffffffffffffffffffffffff021916908373ffffffffffffffffffffffffffffffffffffffff160217905550505050565b600033905090565b6000806124c683610fd9565b90508073ffffffffffffffffffffffffffffffffffffffff168473ffffffffffffffffffffffffffffffffffffffff16148061250857506125078185611905565b5b8061254657508373ffffffffffffffffffffffffffffffffffffffff1661252e8461088b565b73ffffffffffffffffffffffffffffffffffffffff16145b91505092915050565b61255881612c8a565b600060066000838152602001908152602001600020805461257890614501565b90501461259f5760066000828152602001908152602001600020600061259e91906135ce565b5b50565b60006002600083815260200190815260200160002060009054906101000a900473ffffffffffffffffffffffffffffffffffffffff169050919050565b6125e881612b1d565b612627576040517f08c379a000000000000000000000000000000000000000000000000000000000815260040161261e90614845565b60405180910390fd5b50565b606060405180602001604052806000815250905090565b606061264c826125df565b600061265661262a565b9050600081511161267657604051806020016040528060008152506126a1565b8061268084612dd8565b604051602001612691929190614d00565b6040516020818303038152906040525b915050919050565b60606126b361360e565b6126bf81610100612ea6565b506127086040518060400160405280600c81526020017f636f64654c6f636174696f6e000000000000000000000000000000000000000081525082612f1090919063ffffffff16565b612731836000015160018111156127225761272161549e565b5b82612f3590919063ffffffff16565b6127796040518060400160405280600881526020017f6c616e677561676500000000000000000000000000000000000000000000000081525082612f1090919063ffffffff16565b6127a2836040015160008111156127935761279261549e565b5b82612f3590919063ffffffff16565b6127ea6040518060400160405280600681526020017f736f75726365000000000000000000000000000000000000000000000000000081525082612f1090919063ffffffff16565b612801836060015182612f1090919063ffffffff16565b60008360a001515111156128bf576128576040518060400160405280600481526020017f617267730000000000000000000000000000000000000000000000000000000081525082612f1090919063ffffffff16565b61286081612f65565b60005b8360a00151518110156128b4576128a18460a00151828151811061288a576128896146c2565b5b602002602001015183612f1090919063ffffffff16565b80806128ac90614c7c565b915050612863565b506128be81612f73565b5b6000836080015151111561299e576129156040518060400160405280600f81526020017f736563726574734c6f636174696f6e000000000000000000000000000000000081525082612f1090919063ffffffff16565b61293e8360200151600181111561292f5761292e61549e565b5b82612f3590919063ffffffff16565b6129866040518060400160405280600781526020017f736563726574730000000000000000000000000000000000000000000000000081525082612f1090919063ffffffff16565b61299d836080015182612f8190919063ffffffff16565b5b8060000151915050919050565b3373ffffffffffffffffffffffffffffffffffffffff168173ffffffffffffffffffffffffffffffffffffffff1603612a19576040517f08c379a0000000000000000000000000000000000000000000000000000000008152600401612a10906155db565b60405180910390fd5b80600d60006101000a81548173ffffffffffffffffffffffffffffffffffffffff021916908373ffffffffffffffffffffffffffffffffffffffff1602179055508073ffffffffffffffffffffffffffffffffffffffff16600c60009054906101000a900473ffffffffffffffffffffffffffffffffffffffff1673ffffffffffffffffffffffffffffffffffffffff167fed8889f560326eb138920d842192f0eb3dd22b4f139c87a2c57538e05bae127860405160405180910390a350565b80600a60006101000a81548173ffffffffffffffffffffffffffffffffffffffff021916908373ffffffffffffffffffffffffffffffffffffffff16021790555050565b60008073ffffffffffffffffffffffffffffffffffffffff16612b3f836125a2565b73ffffffffffffffffffffffffffffffffffffffff1614159050919050565b6001811115612c7e57600073ffffffffffffffffffffffffffffffffffffffff168473ffffffffffffffffffffffffffffffffffffffff1614612bf25780600360008673ffffffffffffffffffffffffffffffffffffffff1673ffffffffffffffffffffffffffffffffffffffff1681526020019081526020016000206000828254612bea91906155fb565b925050819055505b600073ffffffffffffffffffffffffffffffffffffffff168373ffffffffffffffffffffffffffffffffffffffff1614612c7d5780600360008573ffffffffffffffffffffffffffffffffffffffff1673ffffffffffffffffffffffffffffffffffffffff1681526020019081526020016000206000828254612c75919061562f565b925050819055505b5b50505050565b50505050565b6000612c9582610fd9565b9050612ca5816000846001612b5e565b612cae82610fd9565b90506004600083815260200190815260200160002060006101000a81549073ffffffffffffffffffffffffffffffffffffffff02191690556001600360008373ffffffffffffffffffffffffffffffffffffffff1673ffffffffffffffffffffffffffffffffffffffff168152602001908152602001600020600082825403925050819055506002600083815260200190815260200160002060006101000a81549073ffffffffffffffffffffffffffffffffffffffff021916905581600073ffffffffffffffffffffffffffffffffffffffff168273ffffffffffffffffffffffffffffffffffffffff167fddf252ad1be2c89b69c2b068fc378daa952ba7f163c4a11628f55a4df523b3ef60405160405180910390a4612dd4816000846001612c84565b5050565b606060006001612de784612fa6565b01905060008167ffffffffffffffff811115612e0657612e0561396f565b5b6040519080825280601f01601f191660200182016040528015612e385781602001600182028036833780820191505090505b509050600082602001820190505b600115612e9b578080600190039150507f3031323334353637383961626364656600000000000000000000000000000000600a86061a8153600a8581612e8f57612e8e615663565b5b04945060008503612e46575b819350505050919050565b612eae61360e565b6000602083612ebd9190615692565b14612ee957602082612ecf9190615692565b6020612edb91906155fb565b82612ee6919061562f565b91505b81836020018181525050604051808452600081528281016020016040525082905092915050565b612f1d82600383516130f9565b612f30818361327e90919063ffffffff16565b505050565b67ffffffffffffffff811115612f5457612f4f82826132a0565b612f61565b612f60826000836130f9565b5b5050565b612f708160046132ec565b50565b612f7e8160076132ec565b50565b612f8e82600283516130f9565b612fa1818361327e90919063ffffffff16565b505050565b600080600090507a184f03e93ff9f4daa797ed6e38ed64bf6a1f0100000000000000008310613004577a184f03e93ff9f4daa797ed6e38ed64bf6a1f0100000000000000008381612ffa57612ff9615663565b5b0492506040810190505b6d04ee2d6d415b85acef81000000008310613041576d04ee2d6d415b85acef8100000000838161303757613036615663565b5b0492506020810190505b662386f26fc10000831061307057662386f26fc10000838161306657613065615663565b5b0492506010810190505b6305f5e1008310613099576305f5e100838161308f5761308e615663565b5b0492506008810190505b61271083106130be5761271083816130b4576130b3615663565b5b0492506004810190505b606483106130e157606483816130d7576130d6615663565b5b0492506002810190505b600a83106130f0576001810190505b80915050919050565b60178167ffffffffffffffff16116131305761312a8160058460ff16901b60ff16178461330e90919063ffffffff16565b50613279565b60ff8167ffffffffffffffff16116131865761315f601860058460ff16901b178461330e90919063ffffffff16565b506131808167ffffffffffffffff1660018561332e9092919063ffffffff16565b50613278565b61ffff8167ffffffffffffffff16116131dd576131b6601960058460ff16901b178461330e90919063ffffffff16565b506131d78167ffffffffffffffff1660028561332e9092919063ffffffff16565b50613277565b63ffffffff8167ffffffffffffffff16116132365761320f601a60058460ff16901b178461330e90919063ffffffff16565b506132308167ffffffffffffffff1660048561332e9092919063ffffffff16565b50613276565b613253601b60058460ff16901b178461330e90919063ffffffff16565b506132748167ffffffffffffffff1660088561332e9092919063ffffffff16565b505b5b5b5b505050565b61328661360e565b61329883846000015151848551613350565b905092915050565b6132be60026005600660ff16901b178361330e90919063ffffffff16565b506132e882826040516020016132d49190614022565b604051602081830303815290604052612f81565b5050565b613309601f60058360ff16901b178361330e90919063ffffffff16565b505050565b61331661360e565b613326838460000151518461343f565b905092915050565b61333661360e565b613347848560000151518585613495565b90509392505050565b61335861360e565b825182111561336657600080fd5b84602001518285613377919061562f565b11156133ac576133ab85600261339c88602001518887613397919061562f565b613523565b6133a691906156c3565b61353f565b5b6000808651805187602083010193508088870111156133cb5787860182525b60208701925050505b6020841061341257805182526020826133ed919061562f565b91506020816133fc919061562f565b905060208461340b91906155fb565b93506133d4565b60006001856020036101000a03905080198251168184511681811785525050508692505050949350505050565b61344761360e565b8360200151831061346d5761346c846002866020015161346791906156c3565b61353f565b5b83518051602085830101848153818603613488576001820183525b5050508390509392505050565b61349d61360e565b846020015184836134ae919061562f565b11156134d6576134d585600286856134c6919061562f565b6134d091906156c3565b61353f565b5b60006001836101006134e89190615838565b6134f291906155fb565b905085518386820101858319825116178152815185880111156135155784870182525b505085915050949350505050565b60008183111561353557829050613539565b8190505b92915050565b6000826000015190506135528383612ea6565b5061355d838261327e565b50505050565b6040518060c00160405280600060018111156135825761358161549e565b5b81526020016000600181111561359b5761359a61549e565b5b81526020016000808111156135b3576135b261549e565b5b81526020016060815260200160608152602001606081525090565b5080546135da90614501565b6000825580601f106135ec575061360b565b601f01602090049060005260206000209081019061360a9190613628565b5b50565b604051806040016040528060608152602001600081525090565b5b80821115613641576000816000905550600101613629565b5090565b6000604051905090565b600080fd5b600080fd5b60007fffffffff0000000000000000000000000000000000000000000000000000000082169050919050565b61368e81613659565b811461369957600080fd5b50565b6000813590506136ab81613685565b92915050565b6000602082840312156136c7576136c661364f565b5b60006136d58482850161369c565b91505092915050565b60008115159050919050565b6136f3816136de565b82525050565b600060208201905061370e60008301846136ea565b92915050565b600081519050919050565b600082825260208201905092915050565b60005b8381101561374e578082015181840152602081019050613733565b60008484015250505050565b6000601f19601f8301169050919050565b600061377682613714565b613780818561371f565b9350613790818560208601613730565b6137998161375a565b840191505092915050565b600060208201905081810360008301526137be818461376b565b905092915050565b6000819050919050565b6137d9816137c6565b81146137e457600080fd5b50565b6000813590506137f6816137d0565b92915050565b6000602082840312156138125761381161364f565b5b6000613820848285016137e7565b91505092915050565b600073ffffffffffffffffffffffffffffffffffffffff82169050919050565b600061385482613829565b9050919050565b61386481613849565b82525050565b600060208201905061387f600083018461385b565b92915050565b61388e81613849565b811461389957600080fd5b50565b6000813590506138ab81613885565b92915050565b600080604083850312156138c8576138c761364f565b5b60006138d68582860161389c565b92505060206138e7858286016137e7565b9150509250929050565b600067ffffffffffffffff82169050919050565b61390e816138f1565b82525050565b60006020820190506139296000830184613905565b92915050565b6000819050919050565b6139428161392f565b811461394d57600080fd5b50565b60008135905061395f81613939565b92915050565b600080fd5b600080fd5b7f4e487b7100000000000000000000000000000000000000000000000000000000600052604160045260246000fd5b6139a78261375a565b810181811067ffffffffffffffff821117156139c6576139c561396f565b5b80604052505050565b60006139d9613645565b90506139e5828261399e565b919050565b600067ffffffffffffffff821115613a0557613a0461396f565b5b613a0e8261375a565b9050602081019050919050565b82818337600083830152505050565b6000613a3d613a38846139ea565b6139cf565b905082815260208101848484011115613a5957613a5861396a565b5b613a64848285613a1b565b509392505050565b600082601f830112613a8157613a80613965565b5b8135613a91848260208601613a2a565b91505092915050565b600080600060608486031215613ab357613ab261364f565b5b6000613ac186828701613950565b935050602084013567ffffffffffffffff811115613ae257613ae1613654565b5b613aee86828701613a6c565b925050604084013567ffffffffffffffff811115613b0f57613b0e613654565b5b613b1b86828701613a6c565b9150509250925092565b600067ffffffffffffffff821115613b4057613b3f61396f565b5b613b498261375a565b9050602081019050919050565b6000613b69613b6484613b25565b6139cf565b905082815260208101848484011115613b8557613b8461396a565b5b613b90848285613a1b565b509392505050565b600082601f830112613bad57613bac613965565b5b8135613bbd848260208601613b56565b91505092915050565b60008060008060008060c08789031215613be357613be261364f565b5b6000613bf189828a0161389c565b965050602087013567ffffffffffffffff811115613c1257613c11613654565b5b613c1e89828a01613b98565b955050604087013567ffffffffffffffff811115613c3f57613c3e613654565b5b613c4b89828a01613b98565b945050606087013567ffffffffffffffff811115613c6c57613c6b613654565b5b613c7889828a01613b98565b935050608087013567ffffffffffffffff811115613c9957613c98613654565b5b613ca589828a01613b98565b92505060a087013567ffffffffffffffff811115613cc657613cc5613654565b5b613cd289828a01613b98565b9150509295509295509295565b613ce88161392f565b82525050565b6000602082019050613d036000830184613cdf565b92915050565b600080600060608486031215613d2257613d2161364f565b5b6000613d308682870161389c565b9350506020613d418682870161389c565b9250506040613d52868287016137e7565b9150509250925092565b600067ffffffffffffffff821115613d7757613d7661396f565b5b602082029050602081019050919050565b600080fd5b6000613da0613d9b84613d5c565b6139cf565b90508083825260208201905060208402830185811115613dc357613dc2613d88565b5b835b81811015613e0a57803567ffffffffffffffff811115613de857613de7613965565b5b808601613df58982613b98565b85526020850194505050602081019050613dc5565b5050509392505050565b600082601f830112613e2957613e28613965565b5b8135613e39848260208601613d8d565b91505092915050565b613e4b816138f1565b8114613e5657600080fd5b50565b600081359050613e6881613e42565b92915050565b600063ffffffff82169050919050565b613e8781613e6e565b8114613e9257600080fd5b50565b600081359050613ea481613e7e565b92915050565b600080600080600060a08688031215613ec657613ec561364f565b5b600086013567ffffffffffffffff811115613ee457613ee3613654565b5b613ef088828901613b98565b955050602086013567ffffffffffffffff811115613f1157613f10613654565b5b613f1d88828901613a6c565b945050604086013567ffffffffffffffff811115613f3e57613f3d613654565b5b613f4a88828901613e14565b9350506060613f5b88828901613e59565b9250506080613f6c88828901613e95565b9150509295509295909350565b60008060408385031215613f9057613f8f61364f565b5b6000613f9e8582860161389c565b9250506020613faf85828601613950565b9150509250929050565b600060208284031215613fcf57613fce61364f565b5b6000613fdd84828501613e95565b91505092915050565b600060208284031215613ffc57613ffb61364f565b5b600061400a8482850161389c565b91505092915050565b61401c816137c6565b82525050565b60006020820190506140376000830184614013565b92915050565b6000806000606084860312156140565761405561364f565b5b600084013567ffffffffffffffff81111561407457614073613654565b5b61408086828701613b98565b935050602084013567ffffffffffffffff8111156140a1576140a0613654565b5b6140ad86828701613b98565b92505060406140be8682870161389c565b9150509250925092565b6140d1816136de565b81146140dc57600080fd5b50565b6000813590506140ee816140c8565b92915050565b6000806040838503121561410b5761410a61364f565b5b60006141198582860161389c565b925050602061412a858286016140df565b9150509250929050565b6000806000806080858703121561414e5761414d61364f565b5b600061415c8782880161389c565b945050602061416d8782880161389c565b935050604061417e878288016137e7565b925050606085013567ffffffffffffffff81111561419f5761419e613654565b5b6141ab87828801613a6c565b91505092959194509250565b600081519050919050565b600082825260208201905092915050565b60006141de826141b7565b6141e881856141c2565b93506141f8818560208601613730565b6142018161375a565b840191505092915050565b6000602082019050818103600083015261422681846141d3565b905092915050565b600080fd5b600080fd5b6002811061424557600080fd5b50565b60008135905061425781614238565b92915050565b6001811061426a57600080fd5b50565b60008135905061427c8161425d565b92915050565b600060c082840312156142985761429761422e565b5b6142a260c06139cf565b905060006142b284828501614248565b60008301525060206142c684828501614248565b60208301525060406142da8482850161426d565b604083015250606082013567ffffffffffffffff8111156142fe576142fd614233565b5b61430a84828501613b98565b606083015250608082013567ffffffffffffffff81111561432e5761432d614233565b5b61433a84828501613a6c565b60808301525060a082013567ffffffffffffffff81111561435e5761435d614233565b5b61436a84828501613e14565b60a08301525092915050565b600080600080608085870312156143905761438f61364f565b5b600085013567ffffffffffffffff8111156143ae576143ad613654565b5b6143ba87828801614282565b94505060206143cb87828801613e59565b93505060406143dc87828801613e95565b92505060606143ed878288016137e7565b91505092959194509250565b60006bffffffffffffffffffffffff82169050919050565b61441a816143f9565b82525050565b60006020820190506144356000830184614411565b92915050565b600080604083850312156144525761445161364f565b5b60006144608582860161389c565b92505060206144718582860161389c565b9150509250929050565b6000602082840312156144915761449061364f565b5b600061449f84828501613e59565b91505092915050565b6144b181613e6e565b82525050565b60006020820190506144cc60008301846144a8565b92915050565b7f4e487b7100000000000000000000000000000000000000000000000000000000600052602260045260246000fd5b6000600282049050600182168061451957607f821691505b60208210810361452c5761452b6144d2565b5b50919050565b7f5472616e73666572206e6f7420737570706f7274656420666f7220736f756c2060008201527f626f756e6420746f6b656e2e0000000000000000000000000000000000000000602082015250565b600061458e602c8361371f565b915061459982614532565b604082019050919050565b600060208201905081810360008301526145bd81614581565b9050919050565b7f4e6565647320746f2062652076616c696420696e737469747574650000000000600082015250565b60006145fa601b8361371f565b9150614605826145c4565b602082019050919050565b60006020820190508181036000830152614629816145ed565b9050919050565b7f4552433732314275726e61626c653a2063616c6c6572206973206e6f74206f7760008201527f6e6572206e6f7220617070726f76656400000000000000000000000000000000602082015250565b600061468c60308361371f565b915061469782614630565b604082019050919050565b600060208201905081810360008301526146bb8161467f565b9050919050565b7f4e487b7100000000000000000000000000000000000000000000000000000000600052603260045260246000fd5b7f546f6b656e20616c7265616479206275726e6564000000000000000000000000600082015250565b600061472760148361371f565b9150614732826146f1565b602082019050919050565b600060208201905081810360008301526147568161471a565b9050919050565b60006040820190506147726000830185614013565b8181036020830152614784818461376b565b90509392505050565b7f4e6f2073756666696369656e74207269676874206173206f776e657200000000600082015250565b60006147c3601c8361371f565b91506147ce8261478d565b602082019050919050565b600060208201905081810360008301526147f2816147b6565b9050919050565b7f4552433732313a20696e76616c696420746f6b656e2049440000000000000000600082015250565b600061482f60188361371f565b915061483a826147f9565b602082019050919050565b6000602082019050818103600083015261485e81614822565b9050919050565b7f4552433732313a2061646472657373207a65726f206973206e6f74206120766160008201527f6c6964206f776e65720000000000000000000000000000000000000000000000602082015250565b60006148c160298361371f565b91506148cc82614865565b604082019050919050565b600060208201905081810360008301526148f0816148b4565b9050919050565b7f4d7573742062652070726f706f736564206f776e657200000000000000000000600082015250565b600061492d60168361371f565b9150614938826148f7565b602082019050919050565b6000602082019050818103600083015261495c81614920565b9050919050565b7f4e6f2073756666696369656e7420726967687400000000000000000000000000600082015250565b600061499960138361371f565b91506149a482614963565b602082019050919050565b600060208201905081810360008301526149c88161498c565b9050919050565b60008190508160005260206000209050919050565b60006020601f8301049050919050565b600082821b905092915050565b600060088302614a317fffffffffffffffffffffffffffffffffffffffffffffffffffffffffffffffff826149f4565b614a3b86836149f4565b95508019841693508086168417925050509392505050565b6000819050919050565b6000614a78614a73614a6e846137c6565b614a53565b6137c6565b9050919050565b6000819050919050565b614a9283614a5d565b614aa6614a9e82614a7f565b848454614a01565b825550505050565b600090565b614abb614aae565b614ac6818484614a89565b505050565b5b81811015614aea57614adf600082614ab3565b600181019050614acc565b5050565b601f821115614b2f57614b00816149cf565b614b09846149e4565b81016020851015614b18578190505b614b2c614b24856149e4565b830182614acb565b50505b505050565b600082821c905092915050565b6000614b5260001984600802614b34565b1980831691505092915050565b6000614b6b8383614b41565b9150826002028217905092915050565b614b8482613714565b67ffffffffffffffff811115614b9d57614b9c61396f565b5b614ba78254614501565b614bb2828285614aee565b600060209050601f831160018114614be55760008415614bd3578287015190505b614bdd8582614b5f565b865550614c45565b601f198416614bf3866149cf565b60005b82811015614c1b57848901518255600182019150602085019450602081019050614bf6565b86831015614c385784890151614c34601f891682614b41565b8355505b6001600288020188555050505b505050505050565b7f4e487b7100000000000000000000000000000000000000000000000000000000600052601160045260246000fd5b6000614c87826137c6565b91507fffffffffffffffffffffffffffffffffffffffffffffffffffffffffffffffff8203614cb957614cb8614c4d565b5b600182019050919050565b600081905092915050565b6000614cda82613714565b614ce48185614cc4565b9350614cf4818560208601613730565b80840191505092915050565b6000614d0c8285614ccf565b9150614d188284614ccf565b91508190509392505050565b6000614d37614d32846139ea565b6139cf565b905082815260208101848484011115614d5357614d5261396a565b5b614d5e848285613730565b509392505050565b600082601f830112614d7b57614d7a613965565b5b8151614d8b848260208601614d24565b91505092915050565b600060208284031215614daa57614da961364f565b5b600082015167ffffffffffffffff811115614dc857614dc7613654565b5b614dd484828501614d66565b91505092915050565b6000608082019050614df26000830187613905565b8181036020830152614e0481866141d3565b9050614e1360408301856144a8565b614e206060830184614013565b95945050505050565b614e32816143f9565b8114614e3d57600080fd5b50565b600081519050614e4f81614e29565b92915050565b600060208284031215614e6b57614e6a61364f565b5b6000614e7984828501614e40565b91505092915050565b6000614e8d826137c6565b915060008203614ea057614e9f614c4d565b5b600182039050919050565b60008190508160005260206000209050919050565b601f821115614f0157614ed281614eab565b614edb846149e4565b81016020851015614eea578190505b614efe614ef6856149e4565b830182614acb565b50505b505050565b614f0f826141b7565b67ffffffffffffffff811115614f2857614f2761396f565b5b614f328254614501565b614f3d828285614ec0565b600060209050601f831160018114614f705760008415614f5e578287015190505b614f688582614b5f565b865550614fd0565b601f198416614f7e86614eab565b60005b82811015614fa657848901518255600182019150602085019450602081019050614f81565b86831015614fc35784890151614fbf601f891682614b41565b8355505b6001600288020188555050505b505050505050565b60006040820190508181036000830152614ff281856141d3565b9050818103602083015261500681846141d3565b90509392505050565b7f4552433732313a206d696e7420746f20746865207a65726f2061646472657373600082015250565b600061504560208361371f565b91506150508261500f565b602082019050919050565b6000602082019050818103600083015261507481615038565b9050919050565b7f4552433732313a20746f6b656e20616c7265616479206d696e74656400000000600082015250565b60006150b1601c8361371f565b91506150bc8261507b565b602082019050919050565b600060208201905081810360008301526150e0816150a4565b9050919050565b7f7b22696e737469747574655f6e616d65223a0000000000000000000000000000600082015250565b600061511d601283614cc4565b9150615128826150e7565b601282019050919050565b7f22636f6d70616e795f6e616d65223a0000000000000000000000000000000000600082015250565b6000615169600f83614cc4565b915061517482615133565b600f82019050919050565b7f2c2022636172626f6e5f63726564697473223a00000000000000000000000000600082015250565b60006151b5601383614cc4565b91506151c08261517f565b601382019050919050565b7f2c202269737375655f64617465223a0000000000000000000000000000000000600082015250565b6000615201600f83614cc4565b915061520c826151cb565b600f82019050919050565b7f2c2022696e6475737472795f6964223a00000000000000000000000000000000600082015250565b600061524d601083614cc4565b915061525882615217565b601082019050919050565b7f2c20226465736372697074696f6e223a00000000000000000000000000000000600082015250565b6000615299601083614cc4565b91506152a482615263565b601082019050919050565b7f7d00000000000000000000000000000000000000000000000000000000000000600082015250565b60006152e5600183614cc4565b91506152f0826152af565b600182019050919050565b600061530682615110565b91506153128289614ccf565b915061531d8261515c565b91506153298288614ccf565b9150615334826151a8565b91506153408287614ccf565b915061534b826151f4565b91506153578286614ccf565b915061536282615240565b915061536e8285614ccf565b91506153798261528c565b91506153858284614ccf565b9150615390826152d8565b9150819050979650505050505050565b7f45524337323155524953746f726167653a2055524920736574206f66206e6f6e60008201527f6578697374656e7420746f6b656e000000000000000000000000000000000000602082015250565b60006153fc602e8361371f565b9150615407826153a0565b604082019050919050565b6000602082019050818103600083015261542b816153ef565b9050919050565b7f4f6e6c792063616c6c61626c65206279206f776e657200000000000000000000600082015250565b600061546860168361371f565b915061547382615432565b602082019050919050565b600060208201905081810360008301526154978161545b565b9050919050565b7f4e487b7100000000000000000000000000000000000000000000000000000000600052602160045260246000fd5b60006060820190506154e26000830186613905565b81810360208301526154f481856141d3565b905061550360408301846144a8565b949350505050565b60008151905061551a81613939565b92915050565b6000602082840312156155365761553561364f565b5b60006155448482850161550b565b91505092915050565b60008151905061555c81613885565b92915050565b6000602082840312156155785761557761364f565b5b60006155868482850161554d565b91505092915050565b7f43616e6e6f74207472616e7366657220746f2073656c66000000000000000000600082015250565b60006155c560178361371f565b91506155d08261558f565b602082019050919050565b600060208201905081810360008301526155f4816155b8565b9050919050565b6000615606826137c6565b9150615611836137c6565b925082820390508181111561562957615628614c4d565b5b92915050565b600061563a826137c6565b9150615645836137c6565b925082820190508082111561565d5761565c614c4d565b5b92915050565b7f4e487b7100000000000000000000000000000000000000000000000000000000600052601260045260246000fd5b600061569d826137c6565b91506156a8836137c6565b9250826156b8576156b7615663565b5b828206905092915050565b60006156ce826137c6565b91506156d9836137c6565b92508282026156e7816137c6565b915082820484148315176156fe576156fd614c4d565b5b5092915050565b60008160011c9050919050565b6000808291508390505b600185111561575c5780860481111561573857615737614c4d565b5b60018516156157475780820291505b808102905061575585615705565b945061571c565b94509492505050565b6000826157755760019050615831565b816157835760009050615831565b816001811461579957600281146157a3576157d2565b6001915050615831565b60ff8411156157b5576157b4614c4d565b5b8360020a9150848211156157cc576157cb614c4d565b5b50615831565b5060208310610133831016604e8410600b84101617156158075782820a90508381111561580257615801614c4d565b5b615831565b6158148484846001615712565b9250905081840481111561582b5761582a614c4d565b5b81810290505b9392505050565b6000615843826137c6565b915061584e836137c6565b925061587b7fffffffffffffffffffffffffffffffffffffffffffffffffffffffffffffffff8484615765565b90509291505056fea2646970667358221220bb7f19aaed041e10b29aed0c1c3330fd5d0c9e04fe235f4157d52c8055963bcd64736f6c63430008110033",
  "devdoc": {
    "kind": "dev",
    "methods": {
      "balanceOf(address)": {
        "details": "See {IERC721-balanceOf}."
      },
      "estimateCost((uint8,uint8,uint8,string,bytes,string[]),uint64,uint32,uint256)": {
        "params": {
          "gasLimit": "gas limit for the fulfillment callback",
          "req": "The initialized Functions.Request",
          "subscriptionId": "The subscription ID"
        },
        "returns": {
          "_0": "billedCost Cost in Juels (1e18) of LINK"
        }
      },
      "getDONPublicKey()": {
        "details": "All Oracles nodes have the corresponding private key needed to decrypt the secrets encrypted with the public key",
        "returns": {
          "_0": "publicKey DON's public key"
        }
      },
      "handleOracleFulfillment(bytes32,bytes,bytes)": {
        "params": {
          "err": "Aggregated error either from the user code or from the execution pipeline. Either response or error parameter will be set, but never both.",
          "requestId": "The requestId returned by FunctionsClient.sendRequest().",
          "response": "Aggregated response from the user code."
        }
      },
      "isApprovedForAll(address,address)": {
        "details": "See {IERC721-isApprovedForAll}."
      },
      "name()": {
        "details": "See {IERC721Metadata-name}."
      },
      "ownerOf(uint256)": {
        "details": "See {IERC721-ownerOf}."
      },
      "supportsInterface(bytes4)": {
        "details": "See {IERC165-supportsInterface}."
      },
      "symbol()": {
        "details": "See {IERC721Metadata-symbol}."
      },
      "tokenURI(uint256)": {
        "details": "See {IERC721Metadata-tokenURI}."
      },
      "updateOracleAddress(address)": {
        "params": {
          "oracle": "New oracle address"
        }
      }
    },
    "version": 1
  },
  "userdoc": {
    "kind": "user",
    "methods": {
      "acceptOwnership()": {
        "notice": "Allows an ownership transfer to be completed by the recipient."
      },
      "estimateCost((uint8,uint8,uint8,string,bytes,string[]),uint64,uint32,uint256)": {
        "notice": "Estimate the total cost that will be charged to a subscription to make a request: gas re-imbursement, plus DON fee, plus Registry fee"
      },
      "getDONPublicKey()": {
        "notice": "Returns the DON's secp256k1 public key used to encrypt secrets"
      },
      "handleOracleFulfillment(bytes32,bytes,bytes)": {
        "notice": "Chainlink Functions response handler called by the designated transmitter node in an OCR round."
      },
      "owner()": {
        "notice": "Get the current owner"
      },
      "transferOwnership(address)": {
        "notice": "Allows an owner to begin transferring ownership to a new address, pending."
      },
      "updateOracleAddress(address)": {
        "notice": "Allows the Functions oracle address to be updated"
      }
    },
    "version": 1
  },
  "storageLayout": {
    "storage": [
      {
        "astId": 4543,
        "contract": "contracts/SbtConvertible.sol:SbtConvertible",
        "label": "_name",
        "offset": 0,
        "slot": "0",
        "type": "t_string_storage"
      },
      {
        "astId": 4545,
        "contract": "contracts/SbtConvertible.sol:SbtConvertible",
        "label": "_symbol",
        "offset": 0,
        "slot": "1",
        "type": "t_string_storage"
      },
      {
        "astId": 4549,
        "contract": "contracts/SbtConvertible.sol:SbtConvertible",
        "label": "_owners",
        "offset": 0,
        "slot": "2",
        "type": "t_mapping(t_uint256,t_address)"
      },
      {
        "astId": 4553,
        "contract": "contracts/SbtConvertible.sol:SbtConvertible",
        "label": "_balances",
        "offset": 0,
        "slot": "3",
        "type": "t_mapping(t_address,t_uint256)"
      },
      {
        "astId": 4557,
        "contract": "contracts/SbtConvertible.sol:SbtConvertible",
        "label": "_tokenApprovals",
        "offset": 0,
        "slot": "4",
        "type": "t_mapping(t_uint256,t_address)"
      },
      {
        "astId": 4563,
        "contract": "contracts/SbtConvertible.sol:SbtConvertible",
        "label": "_operatorApprovals",
        "offset": 0,
        "slot": "5",
        "type": "t_mapping(t_address,t_mapping(t_address,t_bool))"
      },
      {
        "astId": 5609,
        "contract": "contracts/SbtConvertible.sol:SbtConvertible",
        "label": "_tokenURIs",
        "offset": 0,
        "slot": "6",
        "type": "t_mapping(t_uint256,t_string_storage)"
      },
      {
        "astId": 11071,
        "contract": "contracts/SbtConvertible.sol:SbtConvertible",
        "label": "owner",
        "offset": 0,
        "slot": "7",
        "type": "t_address"
      },
      {
        "astId": 11073,
        "contract": "contracts/SbtConvertible.sol:SbtConvertible",
        "label": "institutes_count",
        "offset": 0,
        "slot": "8",
        "type": "t_uint256"
      },
      {
        "astId": 11078,
        "contract": "contracts/SbtConvertible.sol:SbtConvertible",
        "label": "institutes",
        "offset": 0,
        "slot": "9",
        "type": "t_mapping(t_address,t_struct(Institute)11069_storage)"
      },
      {
        "astId": 541,
        "contract": "contracts/SbtConvertible.sol:SbtConvertible",
        "label": "s_oracle",
        "offset": 0,
        "slot": "10",
        "type": "t_contract(FunctionsOracleInterface)970"
      },
      {
        "astId": 545,
        "contract": "contracts/SbtConvertible.sol:SbtConvertible",
        "label": "s_pendingRequests",
        "offset": 0,
        "slot": "11",
        "type": "t_mapping(t_bytes32,t_address)"
      },
      {
        "astId": 27,
        "contract": "contracts/SbtConvertible.sol:SbtConvertible",
        "label": "s_owner",
        "offset": 0,
        "slot": "12",
        "type": "t_address"
      },
      {
        "astId": 29,
        "contract": "contracts/SbtConvertible.sol:SbtConvertible",
        "label": "s_pendingOwner",
        "offset": 0,
        "slot": "13",
        "type": "t_address"
      },
      {
        "astId": 11238,
        "contract": "contracts/SbtConvertible.sol:SbtConvertible",
        "label": "_owner",
        "offset": 0,
        "slot": "14",
        "type": "t_address"
      },
      {
        "astId": 11245,
        "contract": "contracts/SbtConvertible.sol:SbtConvertible",
        "label": "_tokenIds",
        "offset": 0,
        "slot": "15",
        "type": "t_struct(Counter)6153_storage"
      },
      {
        "astId": 11257,
        "contract": "contracts/SbtConvertible.sol:SbtConvertible",
        "label": "latestRequestId",
        "offset": 0,
        "slot": "16",
        "type": "t_bytes32"
      },
      {
        "astId": 11259,
        "contract": "contracts/SbtConvertible.sol:SbtConvertible",
        "label": "latestResponse",
        "offset": 0,
        "slot": "17",
        "type": "t_bytes_storage"
      },
      {
        "astId": 11261,
        "contract": "contracts/SbtConvertible.sol:SbtConvertible",
        "label": "latestError",
        "offset": 0,
        "slot": "18",
        "type": "t_bytes_storage"
      },
      {
        "astId": 11264,
        "contract": "contracts/SbtConvertible.sol:SbtConvertible",
        "label": "gasLimit",
        "offset": 0,
        "slot": "19",
        "type": "t_uint32"
      },
      {
        "astId": 11267,
        "contract": "contracts/SbtConvertible.sol:SbtConvertible",
        "label": "subscriptionId",
        "offset": 4,
        "slot": "19",
        "type": "t_uint64"
      },
      {
        "astId": 11278,
        "contract": "contracts/SbtConvertible.sol:SbtConvertible",
        "label": "source",
        "offset": 0,
        "slot": "20",
        "type": "t_string_storage"
      }
    ],
    "types": {
      "t_address": {
        "encoding": "inplace",
        "label": "address",
        "numberOfBytes": "20"
      },
      "t_bool": {
        "encoding": "inplace",
        "label": "bool",
        "numberOfBytes": "1"
      },
      "t_bytes32": {
        "encoding": "inplace",
        "label": "bytes32",
        "numberOfBytes": "32"
      },
      "t_bytes_storage": {
        "encoding": "bytes",
        "label": "bytes",
        "numberOfBytes": "32"
      },
      "t_contract(FunctionsOracleInterface)970": {
        "encoding": "inplace",
        "label": "contract FunctionsOracleInterface",
        "numberOfBytes": "20"
      },
      "t_mapping(t_address,t_bool)": {
        "encoding": "mapping",
        "key": "t_address",
        "label": "mapping(address => bool)",
        "numberOfBytes": "32",
        "value": "t_bool"
      },
      "t_mapping(t_address,t_mapping(t_address,t_bool))": {
        "encoding": "mapping",
        "key": "t_address",
        "label": "mapping(address => mapping(address => bool))",
        "numberOfBytes": "32",
        "value": "t_mapping(t_address,t_bool)"
      },
      "t_mapping(t_address,t_struct(Institute)11069_storage)": {
        "encoding": "mapping",
        "key": "t_address",
        "label": "mapping(address => struct Institutes.Institute)",
        "numberOfBytes": "32",
        "value": "t_struct(Institute)11069_storage"
      },
      "t_mapping(t_address,t_uint256)": {
        "encoding": "mapping",
        "key": "t_address",
        "label": "mapping(address => uint256)",
        "numberOfBytes": "32",
        "value": "t_uint256"
      },
      "t_mapping(t_bytes32,t_address)": {
        "encoding": "mapping",
        "key": "t_bytes32",
        "label": "mapping(bytes32 => address)",
        "numberOfBytes": "32",
        "value": "t_address"
      },
      "t_mapping(t_uint256,t_address)": {
        "encoding": "mapping",
        "key": "t_uint256",
        "label": "mapping(uint256 => address)",
        "numberOfBytes": "32",
        "value": "t_address"
      },
      "t_mapping(t_uint256,t_string_storage)": {
        "encoding": "mapping",
        "key": "t_uint256",
        "label": "mapping(uint256 => string)",
        "numberOfBytes": "32",
        "value": "t_string_storage"
      },
      "t_string_storage": {
        "encoding": "bytes",
        "label": "string",
        "numberOfBytes": "32"
      },
      "t_struct(Counter)6153_storage": {
        "encoding": "inplace",
        "label": "struct Counters.Counter",
        "members": [
          {
            "astId": 6152,
            "contract": "contracts/SbtConvertible.sol:SbtConvertible",
            "label": "_value",
            "offset": 0,
            "slot": "0",
            "type": "t_uint256"
          }
        ],
        "numberOfBytes": "32"
      },
      "t_struct(Institute)11069_storage": {
        "encoding": "inplace",
        "label": "struct Institutes.Institute",
        "members": [
          {
            "astId": 11064,
            "contract": "contracts/SbtConvertible.sol:SbtConvertible",
            "label": "name",
            "offset": 0,
            "slot": "0",
            "type": "t_string_storage"
          },
          {
            "astId": 11066,
            "contract": "contracts/SbtConvertible.sol:SbtConvertible",
            "label": "description",
            "offset": 0,
            "slot": "1",
            "type": "t_string_storage"
          },
          {
            "astId": 11068,
            "contract": "contracts/SbtConvertible.sol:SbtConvertible",
            "label": "active",
            "offset": 0,
            "slot": "2",
            "type": "t_bool"
          }
        ],
        "numberOfBytes": "96"
      },
      "t_uint256": {
        "encoding": "inplace",
        "label": "uint256",
        "numberOfBytes": "32"
      },
      "t_uint32": {
        "encoding": "inplace",
        "label": "uint32",
        "numberOfBytes": "4"
      },
      "t_uint64": {
        "encoding": "inplace",
        "label": "uint64",
        "numberOfBytes": "8"
      }
    }
  }
}