{
  "address": "0x82203672018331d07Bf200e13105d3A09bCc4fA2",
  "abi": [
    {
      "inputs": [
        {
          "internalType": "address",
          "name": "carbonCreditsAddress",
          "type": "address"
        }
      ],
      "stateMutability": "nonpayable",
      "type": "constructor"
    },
    {
      "anonymous": false,
      "inputs": [
        {
          "indexed": true,
          "internalType": "address",
          "name": "owner",
          "type": "address"
        },
        {
          "indexed": true,
          "internalType": "address",
          "name": "approved",
          "type": "address"
        },
        {
          "indexed": true,
          "internalType": "uint256",
          "name": "tokenId",
          "type": "uint256"
        }
      ],
      "name": "Approval",
      "type": "event"
    },
    {
      "anonymous": false,
      "inputs": [
        {
          "indexed": true,
          "internalType": "address",
          "name": "owner",
          "type": "address"
        },
        {
          "indexed": true,
          "internalType": "address",
          "name": "operator",
          "type": "address"
        },
        {
          "indexed": false,
          "internalType": "bool",
          "name": "approved",
          "type": "bool"
        }
      ],
      "name": "ApprovalForAll",
      "type": "event"
    },
    {
      "anonymous": false,
      "inputs": [
        {
          "indexed": true,
          "internalType": "address",
          "name": "from",
          "type": "address"
        },
        {
          "indexed": true,
          "internalType": "address",
          "name": "to",
          "type": "address"
        },
        {
          "indexed": true,
          "internalType": "uint256",
          "name": "tokenId",
          "type": "uint256"
        }
      ],
      "name": "Transfer",
      "type": "event"
    },
    {
      "inputs": [
        {
          "internalType": "string",
          "name": "name",
          "type": "string"
        },
        {
          "internalType": "string",
          "name": "description",
          "type": "string"
        },
        {
          "internalType": "address",
          "name": "institute_adress",
          "type": "address"
        }
      ],
      "name": "addInstitute",
      "outputs": [],
      "stateMutability": "nonpayable",
      "type": "function"
    },
    {
      "inputs": [
        {
          "internalType": "address",
          "name": "_to",
          "type": "address"
        },
        {
          "internalType": "uint256",
          "name": "_tokenId",
          "type": "uint256"
        }
      ],
      "name": "approve",
      "outputs": [],
      "stateMutability": "nonpayable",
      "type": "function"
    },
    {
      "inputs": [
        {
          "internalType": "address",
          "name": "owner",
          "type": "address"
        }
      ],
      "name": "balanceOf",
      "outputs": [
        {
          "internalType": "uint256",
          "name": "",
          "type": "uint256"
        }
      ],
      "stateMutability": "view",
      "type": "function"
    },
    {
      "inputs": [
        {
          "internalType": "uint256",
          "name": "_tokenId",
          "type": "uint256"
        }
      ],
      "name": "getApproved",
      "outputs": [
        {
          "internalType": "address",
          "name": "",
          "type": "address"
        }
      ],
      "stateMutability": "view",
      "type": "function"
    },
    {
      "inputs": [],
      "name": "instituteCount",
      "outputs": [
        {
          "internalType": "uint256",
          "name": "",
          "type": "uint256"
        }
      ],
      "stateMutability": "view",
      "type": "function"
    },
    {
      "inputs": [
        {
          "internalType": "address",
          "name": "owner",
          "type": "address"
        },
        {
          "internalType": "address",
          "name": "operator",
          "type": "address"
        }
      ],
      "name": "isApprovedForAll",
      "outputs": [
        {
          "internalType": "bool",
          "name": "",
          "type": "bool"
        }
      ],
      "stateMutability": "view",
      "type": "function"
    },
    {
      "inputs": [
        {
          "internalType": "address",
          "name": "_admin",
          "type": "address"
        }
      ],
      "name": "is_admin",
      "outputs": [
        {
          "internalType": "bool",
          "name": "",
          "type": "bool"
        }
      ],
      "stateMutability": "view",
      "type": "function"
    },
    {
      "inputs": [
        {
          "internalType": "address",
          "name": "_institute",
          "type": "address"
        }
      ],
      "name": "is_institute",
      "outputs": [
        {
          "internalType": "bool",
          "name": "",
          "type": "bool"
        }
      ],
      "stateMutability": "view",
      "type": "function"
    },
    {
      "inputs": [
        {
          "internalType": "address",
          "name": "receiver",
          "type": "address"
        },
        {
          "internalType": "string",
          "name": "comp_name",
          "type": "string"
        },
        {
          "internalType": "string",
          "name": "carb_credits",
          "type": "string"
        },
        {
          "internalType": "string",
          "name": "description",
          "type": "string"
        },
        {
          "internalType": "string",
          "name": "issue_date",
          "type": "string"
        },
        {
          "internalType": "string",
          "name": "ind_id",
          "type": "string"
        },
        {
          "internalType": "uint256",
          "name": "institute_id",
          "type": "uint256"
        },
        {
          "internalType": "uint256",
          "name": "carbon_credits",
          "type": "uint256"
        }
      ],
      "name": "mintSBT",
      "outputs": [
        {
          "internalType": "bool",
          "name": "",
          "type": "bool"
        }
      ],
      "stateMutability": "nonpayable",
      "type": "function"
    },
    {
      "inputs": [],
      "name": "name",
      "outputs": [
        {
          "internalType": "string",
          "name": "",
          "type": "string"
        }
      ],
      "stateMutability": "view",
      "type": "function"
    },
    {
      "inputs": [
        {
          "internalType": "uint256",
          "name": "tokenId",
          "type": "uint256"
        }
      ],
      "name": "ownerOf",
      "outputs": [
        {
          "internalType": "address",
          "name": "",
          "type": "address"
        }
      ],
      "stateMutability": "view",
      "type": "function"
    },
    {
      "inputs": [
        {
          "internalType": "address",
          "name": "institute_adress",
          "type": "address"
        }
      ],
      "name": "removeInstitute",
      "outputs": [],
      "stateMutability": "nonpayable",
      "type": "function"
    },
    {
      "inputs": [
        {
          "internalType": "address",
          "name": "_from",
          "type": "address"
        },
        {
          "internalType": "address",
          "name": "_to",
          "type": "address"
        },
        {
          "internalType": "uint256",
          "name": "_tokenId",
          "type": "uint256"
        }
      ],
      "name": "safeTransferFrom",
      "outputs": [],
      "stateMutability": "nonpayable",
      "type": "function"
    },
    {
      "inputs": [
        {
          "internalType": "address",
          "name": "_from",
          "type": "address"
        },
        {
          "internalType": "address",
          "name": "_to",
          "type": "address"
        },
        {
          "internalType": "uint256",
          "name": "_tokenId",
          "type": "uint256"
        },
        {
          "internalType": "bytes",
          "name": "_data",
          "type": "bytes"
        }
      ],
      "name": "safeTransferFrom",
      "outputs": [],
      "stateMutability": "nonpayable",
      "type": "function"
    },
    {
      "inputs": [
        {
          "internalType": "address",
          "name": "_operator",
          "type": "address"
        },
        {
          "internalType": "bool",
          "name": "_approved",
          "type": "bool"
        }
      ],
      "name": "setApprovalForAll",
      "outputs": [],
      "stateMutability": "nonpayable",
      "type": "function"
    },
    {
      "inputs": [
        {
          "internalType": "bytes4",
          "name": "interfaceId",
          "type": "bytes4"
        }
      ],
      "name": "supportsInterface",
      "outputs": [
        {
          "internalType": "bool",
          "name": "",
          "type": "bool"
        }
      ],
      "stateMutability": "view",
      "type": "function"
    },
    {
      "inputs": [],
      "name": "symbol",
      "outputs": [
        {
          "internalType": "string",
          "name": "",
          "type": "string"
        }
      ],
      "stateMutability": "view",
      "type": "function"
    },
    {
      "inputs": [
        {
          "internalType": "uint256",
          "name": "tokenId",
          "type": "uint256"
        }
      ],
      "name": "tokenURI",
      "outputs": [
        {
          "internalType": "string",
          "name": "",
          "type": "string"
        }
      ],
      "stateMutability": "view",
      "type": "function"
    },
    {
      "inputs": [
        {
          "internalType": "address",
          "name": "_from",
          "type": "address"
        },
        {
          "internalType": "address",
          "name": "_to",
          "type": "address"
        },
        {
          "internalType": "uint256",
          "name": "_tokenId",
          "type": "uint256"
        }
      ],
      "name": "transferFrom",
      "outputs": [],
      "stateMutability": "nonpayable",
      "type": "function"
    }
  ],
  "transactionHash": "0xca41a7e4f1b1f89bd17b30065c14bf842f71f407d2e35152b6adfaea38979e82",
  "args": [
    "0x191bB131265246cF7EFc238755cbA14e0607eA7E"
  ],
  "numDeployments": 1,
  "solcInputHash": "6183443cd6cef5d03feef36241b824b7",
  "bytecode": "0x60806040523480156200001157600080fd5b5060405162003169380380620031698339818101604052810190620000379190620001bc565b6040518060400160405280601c81526020017f5065726d616e656e7420436172626f6e2d4372656469747320534254000000008152506040518060400160405280600681526020017f50434353425400000000000000000000000000000000000000000000000000008152508160009081620000b4919062000468565b508060019081620000c6919062000468565b50505033600760006101000a81548173ffffffffffffffffffffffffffffffffffffffff021916908373ffffffffffffffffffffffffffffffffffffffff16021790555080600c60006101000a81548173ffffffffffffffffffffffffffffffffffffffff021916908373ffffffffffffffffffffffffffffffffffffffff160217905550506200054f565b600080fd5b600073ffffffffffffffffffffffffffffffffffffffff82169050919050565b6000620001848262000157565b9050919050565b620001968162000177565b8114620001a257600080fd5b50565b600081519050620001b6816200018b565b92915050565b600060208284031215620001d557620001d462000152565b5b6000620001e584828501620001a5565b91505092915050565b600081519050919050565b7f4e487b7100000000000000000000000000000000000000000000000000000000600052604160045260246000fd5b7f4e487b7100000000000000000000000000000000000000000000000000000000600052602260045260246000fd5b600060028204905060018216806200027057607f821691505b60208210810362000286576200028562000228565b5b50919050565b60008190508160005260206000209050919050565b60006020601f8301049050919050565b600082821b905092915050565b600060088302620002f07fffffffffffffffffffffffffffffffffffffffffffffffffffffffffffffffff82620002b1565b620002fc8683620002b1565b95508019841693508086168417925050509392505050565b6000819050919050565b6000819050919050565b600062000349620003436200033d8462000314565b6200031e565b62000314565b9050919050565b6000819050919050565b620003658362000328565b6200037d620003748262000350565b848454620002be565b825550505050565b600090565b6200039462000385565b620003a18184846200035a565b505050565b5b81811015620003c957620003bd6000826200038a565b600181019050620003a7565b5050565b601f8211156200041857620003e2816200028c565b620003ed84620002a1565b81016020851015620003fd578190505b620004156200040c85620002a1565b830182620003a6565b50505b505050565b600082821c905092915050565b60006200043d600019846008026200041d565b1980831691505092915050565b60006200045883836200042a565b9150826002028217905092915050565b6200047382620001ee565b67ffffffffffffffff8111156200048f576200048e620001f9565b5b6200049b825462000257565b620004a8828285620003cd565b600060209050601f831160018114620004e05760008415620004cb578287015190505b620004d785826200044a565b86555062000547565b601f198416620004f0866200028c565b60005b828110156200051a57848901518255600182019150602085019450602081019050620004f3565b868310156200053a578489015162000536601f8916826200042a565b8355505b6001600288020188555050505b505050505050565b612c0a806200055f6000396000f3fe608060405234801561001057600080fd5b50600436106101215760003560e01c80638f8e94c9116100ad578063b88d4fde11610071578063b88d4fde1461033e578063c87b56dd1461035a578063e985e9c51461038a578063f41abb28146103ba578063fefb21a4146103d657610121565b80638f8e94c91461028857806395d89b41146102a4578063a22cb465146102c2578063a673dd4b146102de578063aac132de1461030e57610121565b806323b872dd116100f457806323b872dd146101c057806342842e0e146101dc578063588cbbd2146101f85780636352211e1461022857806370a082311461025857610121565b806301ffc9a71461012657806306fdde0314610156578063081812fc14610174578063095ea7b3146101a4575b600080fd5b610140600480360381019061013b9190611877565b6103f4565b60405161014d91906118bf565b60405180910390f35b61015e6104d6565b60405161016b919061196a565b60405180910390f35b61018e600480360381019061018991906119c2565b610568565b60405161019b9190611a30565b60405180910390f35b6101be60048036038101906101b99190611a77565b61056f565b005b6101da60048036038101906101d59190611ab7565b6105aa565b005b6101f660048036038101906101f19190611ab7565b6105e5565b005b610212600480360381019061020d9190611c3f565b610620565b60405161021f91906118bf565b60405180910390f35b610242600480360381019061023d91906119c2565b6108e5565b60405161024f9190611a30565b60405180910390f35b610272600480360381019061026d9190611d81565b61096b565b60405161027f9190611dbd565b60405180910390f35b6102a2600480360381019061029d9190611dd8565b610a22565b005b6102ac610b81565b6040516102b9919061196a565b60405180910390f35b6102dc60048036038101906102d79190611e8f565b610c13565b005b6102f860048036038101906102f39190611d81565b610c4e565b60405161030591906118bf565b60405180910390f35b61032860048036038101906103239190611d81565b610cb8565b60405161033591906118bf565b60405180910390f35b61035860048036038101906103539190611f70565b610d22565b005b610374600480360381019061036f91906119c2565b610d5d565b604051610381919061196a565b60405180910390f35b6103a4600480360381019061039f9190611ff3565b610e6f565b6040516103b191906118bf565b60405180910390f35b6103d460048036038101906103cf9190611d81565b610f03565b005b6103de611009565b6040516103eb9190611dbd565b60405180910390f35b60007f80ac58cd000000000000000000000000000000000000000000000000000000007bffffffffffffffffffffffffffffffffffffffffffffffffffffffff1916827bffffffffffffffffffffffffffffffffffffffffffffffffffffffff191614806104bf57507f5b5e139f000000000000000000000000000000000000000000000000000000007bffffffffffffffffffffffffffffffffffffffffffffffffffffffff1916827bffffffffffffffffffffffffffffffffffffffffffffffffffffffff1916145b806104cf57506104ce82611013565b5b9050919050565b6060600080546104e590612062565b80601f016020809104026020016040519081016040528092919081815260200182805461051190612062565b801561055e5780601f106105335761010080835404028352916020019161055e565b820191906000526020600020905b81548152906001019060200180831161054157829003601f168201915b5050505050905090565b6000919050565b6040517f08c379a00000000000000000000000000000000000000000000000000000000081526004016105a190612105565b60405180910390fd5b6040517f08c379a00000000000000000000000000000000000000000000000000000000081526004016105dc90612105565b60405180910390fd5b6040517f08c379a000000000000000000000000000000000000000000000000000000000815260040161061790612105565b60405180910390fd5b600060011515600960003373ffffffffffffffffffffffffffffffffffffffff1673ffffffffffffffffffffffffffffffffffffffff16815260200190815260200160002060020160009054906101000a900460ff161515146106b8576040517f08c379a00000000000000000000000000000000000000000000000000000000081526004016106af90612171565b60405180910390fd5b60003390506000600960008373ffffffffffffffffffffffffffffffffffffffff1673ffffffffffffffffffffffffffffffffffffffff168152602001908152602001600020600001805461070c90612062565b80601f016020809104026020016040519081016040528092919081815260200182805461073890612062565b80156107855780601f1061075a57610100808354040283529160200191610785565b820191906000526020600020905b81548152906001019060200180831161076857829003601f168201915b5050505050905060006040518060c001604052808381526020018c81526020018b81526020018981526020018881526020018a8152509050600c60009054906101000a900473ffffffffffffffffffffffffffffffffffffffff1673ffffffffffffffffffffffffffffffffffffffff1663731133e98d8888600067ffffffffffffffff81111561081957610818611b14565b5b6040519080825280601f01601f19166020018201604052801561084b5781602001600182028036833780820191505090505b506040518563ffffffff1660e01b815260040161086b94939291906121e6565b600060405180830381600087803b15801561088557600080fd5b505af1158015610899573d6000803e3d6000fd5b505050506108a7600b61107d565b60006108b3600b611093565b90506108bf8d826110a1565b6108d1816108cc846112be565b611309565b600194505050505098975050505050505050565b6000806108f183611376565b9050600073ffffffffffffffffffffffffffffffffffffffff168173ffffffffffffffffffffffffffffffffffffffff1603610962576040517f08c379a00000000000000000000000000000000000000000000000000000000081526004016109599061227e565b60405180910390fd5b80915050919050565b60008073ffffffffffffffffffffffffffffffffffffffff168273ffffffffffffffffffffffffffffffffffffffff16036109db576040517f08c379a00000000000000000000000000000000000000000000000000000000081526004016109d290612310565b60405180910390fd5b600360008373ffffffffffffffffffffffffffffffffffffffff1673ffffffffffffffffffffffffffffffffffffffff168152602001908152602001600020549050919050565b3373ffffffffffffffffffffffffffffffffffffffff16600760009054906101000a900473ffffffffffffffffffffffffffffffffffffffff1673ffffffffffffffffffffffffffffffffffffffff1614610ab2576040517f08c379a0000000000000000000000000000000000000000000000000000000008152600401610aa99061237c565b60405180910390fd5b6000604051806060016040528085815260200184815260200160011515815250905080600960008473ffffffffffffffffffffffffffffffffffffffff1673ffffffffffffffffffffffffffffffffffffffff1681526020019081526020016000206000820151816000019081610b299190612548565b506020820151816001019081610b3f9190612548565b5060408201518160020160006101000a81548160ff02191690831515021790555090505060086000815480929190610b7690612649565b919050555050505050565b606060018054610b9090612062565b80601f0160208091040260200160405190810160405280929190818152602001828054610bbc90612062565b8015610c095780601f10610bde57610100808354040283529160200191610c09565b820191906000526020600020905b815481529060010190602001808311610bec57829003601f168201915b5050505050905090565b6040517f08c379a0000000000000000000000000000000000000000000000000000000008152600401610c4590612105565b60405180910390fd5b6000600960008373ffffffffffffffffffffffffffffffffffffffff1673ffffffffffffffffffffffffffffffffffffffff16815260200190815260200160002060020160009054906101000a900460ff1615610cae5760019050610cb3565b600090505b919050565b6000600760009054906101000a900473ffffffffffffffffffffffffffffffffffffffff1673ffffffffffffffffffffffffffffffffffffffff168273ffffffffffffffffffffffffffffffffffffffff1603610d185760019050610d1d565b600090505b919050565b6040517f08c379a0000000000000000000000000000000000000000000000000000000008152600401610d5490612105565b60405180910390fd5b6060610d68826113b3565b6000600660008481526020019081526020016000208054610d8890612062565b80601f0160208091040260200160405190810160405280929190818152602001828054610db490612062565b8015610e015780601f10610dd657610100808354040283529160200191610e01565b820191906000526020600020905b815481529060010190602001808311610de457829003601f168201915b505050505090506000610e126113fe565b90506000815103610e27578192505050610e6a565b600082511115610e5c578082604051602001610e449291906126cd565b60405160208183030381529060405292505050610e6a565b610e6584611415565b925050505b919050565b6000600560008473ffffffffffffffffffffffffffffffffffffffff1673ffffffffffffffffffffffffffffffffffffffff16815260200190815260200160002060008373ffffffffffffffffffffffffffffffffffffffff1673ffffffffffffffffffffffffffffffffffffffff16815260200190815260200160002060009054906101000a900460ff16905092915050565b3373ffffffffffffffffffffffffffffffffffffffff16600760009054906101000a900473ffffffffffffffffffffffffffffffffffffffff1673ffffffffffffffffffffffffffffffffffffffff1614610f93576040517f08c379a0000000000000000000000000000000000000000000000000000000008152600401610f8a9061237c565b60405180910390fd5b6000600960008373ffffffffffffffffffffffffffffffffffffffff1673ffffffffffffffffffffffffffffffffffffffff16815260200190815260200160002060020160006101000a81548160ff02191690831515021790555060086000815480929190611001906126f1565b919050555050565b6000600854905090565b60007f01ffc9a7000000000000000000000000000000000000000000000000000000007bffffffffffffffffffffffffffffffffffffffffffffffffffffffff1916827bffffffffffffffffffffffffffffffffffffffffffffffffffffffff1916149050919050565b6001816000016000828254019250508190555050565b600081600001549050919050565b600073ffffffffffffffffffffffffffffffffffffffff168273ffffffffffffffffffffffffffffffffffffffff1603611110576040517f08c379a000000000000000000000000000000000000000000000000000000000815260040161110790612766565b60405180910390fd5b6111198161147d565b15611159576040517f08c379a0000000000000000000000000000000000000000000000000000000008152600401611150906127d2565b60405180910390fd5b6111676000838360016114be565b6111708161147d565b156111b0576040517f08c379a00000000000000000000000000000000000000000000000000000000081526004016111a7906127d2565b60405180910390fd5b6001600360008473ffffffffffffffffffffffffffffffffffffffff1673ffffffffffffffffffffffffffffffffffffffff16815260200190815260200160002060008282540192505081905550816002600083815260200190815260200160002060006101000a81548173ffffffffffffffffffffffffffffffffffffffff021916908373ffffffffffffffffffffffffffffffffffffffff160217905550808273ffffffffffffffffffffffffffffffffffffffff16600073ffffffffffffffffffffffffffffffffffffffff167fddf252ad1be2c89b69c2b068fc378daa952ba7f163c4a11628f55a4df523b3ef60405160405180910390a46112ba6000838360016115e4565b5050565b6060816000015182602001518360400151846060015185608001518660a001516040516020016112f396959493929190612a06565b6040516020818303038152906040529050919050565b6113128261147d565b611351576040517f08c379a000000000000000000000000000000000000000000000000000000000815260040161134890612b1d565b60405180910390fd5b806006600084815260200190815260200160002090816113719190612548565b505050565b60006002600083815260200190815260200160002060009054906101000a900473ffffffffffffffffffffffffffffffffffffffff169050919050565b6113bc8161147d565b6113fb576040517f08c379a00000000000000000000000000000000000000000000000000000000081526004016113f29061227e565b60405180910390fd5b50565b606060405180602001604052806000815250905090565b6060611420826113b3565b600061142a6113fe565b9050600081511161144a5760405180602001604052806000815250611475565b80611454846115ea565b6040516020016114659291906126cd565b6040516020818303038152906040525b915050919050565b60008073ffffffffffffffffffffffffffffffffffffffff1661149f83611376565b73ffffffffffffffffffffffffffffffffffffffff1614159050919050565b60018111156115de57600073ffffffffffffffffffffffffffffffffffffffff168473ffffffffffffffffffffffffffffffffffffffff16146115525780600360008673ffffffffffffffffffffffffffffffffffffffff1673ffffffffffffffffffffffffffffffffffffffff168152602001908152602001600020600082825461154a9190612b3d565b925050819055505b600073ffffffffffffffffffffffffffffffffffffffff168373ffffffffffffffffffffffffffffffffffffffff16146115dd5780600360008573ffffffffffffffffffffffffffffffffffffffff1673ffffffffffffffffffffffffffffffffffffffff16815260200190815260200160002060008282546115d59190612b71565b925050819055505b5b50505050565b50505050565b6060600060016115f9846116b8565b01905060008167ffffffffffffffff81111561161857611617611b14565b5b6040519080825280601f01601f19166020018201604052801561164a5781602001600182028036833780820191505090505b509050600082602001820190505b6001156116ad578080600190039150507f3031323334353637383961626364656600000000000000000000000000000000600a86061a8153600a85816116a1576116a0612ba5565b5b04945060008503611658575b819350505050919050565b600080600090507a184f03e93ff9f4daa797ed6e38ed64bf6a1f0100000000000000008310611716577a184f03e93ff9f4daa797ed6e38ed64bf6a1f010000000000000000838161170c5761170b612ba5565b5b0492506040810190505b6d04ee2d6d415b85acef81000000008310611753576d04ee2d6d415b85acef8100000000838161174957611748612ba5565b5b0492506020810190505b662386f26fc10000831061178257662386f26fc10000838161177857611777612ba5565b5b0492506010810190505b6305f5e10083106117ab576305f5e10083816117a1576117a0612ba5565b5b0492506008810190505b61271083106117d05761271083816117c6576117c5612ba5565b5b0492506004810190505b606483106117f357606483816117e9576117e8612ba5565b5b0492506002810190505b600a8310611802576001810190505b80915050919050565b6000604051905090565b600080fd5b600080fd5b60007fffffffff0000000000000000000000000000000000000000000000000000000082169050919050565b6118548161181f565b811461185f57600080fd5b50565b6000813590506118718161184b565b92915050565b60006020828403121561188d5761188c611815565b5b600061189b84828501611862565b91505092915050565b60008115159050919050565b6118b9816118a4565b82525050565b60006020820190506118d460008301846118b0565b92915050565b600081519050919050565b600082825260208201905092915050565b60005b838110156119145780820151818401526020810190506118f9565b60008484015250505050565b6000601f19601f8301169050919050565b600061193c826118da565b61194681856118e5565b93506119568185602086016118f6565b61195f81611920565b840191505092915050565b600060208201905081810360008301526119848184611931565b905092915050565b6000819050919050565b61199f8161198c565b81146119aa57600080fd5b50565b6000813590506119bc81611996565b92915050565b6000602082840312156119d8576119d7611815565b5b60006119e6848285016119ad565b91505092915050565b600073ffffffffffffffffffffffffffffffffffffffff82169050919050565b6000611a1a826119ef565b9050919050565b611a2a81611a0f565b82525050565b6000602082019050611a456000830184611a21565b92915050565b611a5481611a0f565b8114611a5f57600080fd5b50565b600081359050611a7181611a4b565b92915050565b60008060408385031215611a8e57611a8d611815565b5b6000611a9c85828601611a62565b9250506020611aad858286016119ad565b9150509250929050565b600080600060608486031215611ad057611acf611815565b5b6000611ade86828701611a62565b9350506020611aef86828701611a62565b9250506040611b00868287016119ad565b9150509250925092565b600080fd5b600080fd5b7f4e487b7100000000000000000000000000000000000000000000000000000000600052604160045260246000fd5b611b4c82611920565b810181811067ffffffffffffffff82111715611b6b57611b6a611b14565b5b80604052505050565b6000611b7e61180b565b9050611b8a8282611b43565b919050565b600067ffffffffffffffff821115611baa57611ba9611b14565b5b611bb382611920565b9050602081019050919050565b82818337600083830152505050565b6000611be2611bdd84611b8f565b611b74565b905082815260208101848484011115611bfe57611bfd611b0f565b5b611c09848285611bc0565b509392505050565b600082601f830112611c2657611c25611b0a565b5b8135611c36848260208601611bcf565b91505092915050565b600080600080600080600080610100898b031215611c6057611c5f611815565b5b6000611c6e8b828c01611a62565b985050602089013567ffffffffffffffff811115611c8f57611c8e61181a565b5b611c9b8b828c01611c11565b975050604089013567ffffffffffffffff811115611cbc57611cbb61181a565b5b611cc88b828c01611c11565b965050606089013567ffffffffffffffff811115611ce957611ce861181a565b5b611cf58b828c01611c11565b955050608089013567ffffffffffffffff811115611d1657611d1561181a565b5b611d228b828c01611c11565b94505060a089013567ffffffffffffffff811115611d4357611d4261181a565b5b611d4f8b828c01611c11565b93505060c0611d608b828c016119ad565b92505060e0611d718b828c016119ad565b9150509295985092959890939650565b600060208284031215611d9757611d96611815565b5b6000611da584828501611a62565b91505092915050565b611db78161198c565b82525050565b6000602082019050611dd26000830184611dae565b92915050565b600080600060608486031215611df157611df0611815565b5b600084013567ffffffffffffffff811115611e0f57611e0e61181a565b5b611e1b86828701611c11565b935050602084013567ffffffffffffffff811115611e3c57611e3b61181a565b5b611e4886828701611c11565b9250506040611e5986828701611a62565b9150509250925092565b611e6c816118a4565b8114611e7757600080fd5b50565b600081359050611e8981611e63565b92915050565b60008060408385031215611ea657611ea5611815565b5b6000611eb485828601611a62565b9250506020611ec585828601611e7a565b9150509250929050565b600067ffffffffffffffff821115611eea57611ee9611b14565b5b611ef382611920565b9050602081019050919050565b6000611f13611f0e84611ecf565b611b74565b905082815260208101848484011115611f2f57611f2e611b0f565b5b611f3a848285611bc0565b509392505050565b600082601f830112611f5757611f56611b0a565b5b8135611f67848260208601611f00565b91505092915050565b60008060008060808587031215611f8a57611f89611815565b5b6000611f9887828801611a62565b9450506020611fa987828801611a62565b9350506040611fba878288016119ad565b925050606085013567ffffffffffffffff811115611fdb57611fda61181a565b5b611fe787828801611f42565b91505092959194509250565b6000806040838503121561200a57612009611815565b5b600061201885828601611a62565b925050602061202985828601611a62565b9150509250929050565b7f4e487b7100000000000000000000000000000000000000000000000000000000600052602260045260246000fd5b6000600282049050600182168061207a57607f821691505b60208210810361208d5761208c612033565b5b50919050565b7f5472616e73666572206e6f7420737570706f7274656420666f7220736f756c2060008201527f626f756e6420746f6b656e2e0000000000000000000000000000000000000000602082015250565b60006120ef602c836118e5565b91506120fa82612093565b604082019050919050565b6000602082019050818103600083015261211e816120e2565b9050919050565b7f4e6565647320746f2062652076616c696420696e737469747574650000000000600082015250565b600061215b601b836118e5565b915061216682612125565b602082019050919050565b6000602082019050818103600083015261218a8161214e565b9050919050565b600081519050919050565b600082825260208201905092915050565b60006121b882612191565b6121c2818561219c565b93506121d28185602086016118f6565b6121db81611920565b840191505092915050565b60006080820190506121fb6000830187611a21565b6122086020830186611dae565b6122156040830185611dae565b818103606083015261222781846121ad565b905095945050505050565b7f4552433732313a20696e76616c696420746f6b656e2049440000000000000000600082015250565b60006122686018836118e5565b915061227382612232565b602082019050919050565b600060208201905081810360008301526122978161225b565b9050919050565b7f4552433732313a2061646472657373207a65726f206973206e6f74206120766160008201527f6c6964206f776e65720000000000000000000000000000000000000000000000602082015250565b60006122fa6029836118e5565b91506123058261229e565b604082019050919050565b60006020820190508181036000830152612329816122ed565b9050919050565b7f4e6f2073756666696369656e7420726967687400000000000000000000000000600082015250565b60006123666013836118e5565b915061237182612330565b602082019050919050565b6000602082019050818103600083015261239581612359565b9050919050565b60008190508160005260206000209050919050565b60006020601f8301049050919050565b600082821b905092915050565b6000600883026123fe7fffffffffffffffffffffffffffffffffffffffffffffffffffffffffffffffff826123c1565b61240886836123c1565b95508019841693508086168417925050509392505050565b6000819050919050565b600061244561244061243b8461198c565b612420565b61198c565b9050919050565b6000819050919050565b61245f8361242a565b61247361246b8261244c565b8484546123ce565b825550505050565b600090565b61248861247b565b612493818484612456565b505050565b5b818110156124b7576124ac600082612480565b600181019050612499565b5050565b601f8211156124fc576124cd8161239c565b6124d6846123b1565b810160208510156124e5578190505b6124f96124f1856123b1565b830182612498565b50505b505050565b600082821c905092915050565b600061251f60001984600802612501565b1980831691505092915050565b6000612538838361250e565b9150826002028217905092915050565b612551826118da565b67ffffffffffffffff81111561256a57612569611b14565b5b6125748254612062565b61257f8282856124bb565b600060209050601f8311600181146125b257600084156125a0578287015190505b6125aa858261252c565b865550612612565b601f1984166125c08661239c565b60005b828110156125e8578489015182556001820191506020850194506020810190506125c3565b868310156126055784890151612601601f89168261250e565b8355505b6001600288020188555050505b505050505050565b7f4e487b7100000000000000000000000000000000000000000000000000000000600052601160045260246000fd5b60006126548261198c565b91507fffffffffffffffffffffffffffffffffffffffffffffffffffffffffffffffff82036126865761268561261a565b5b600182019050919050565b600081905092915050565b60006126a7826118da565b6126b18185612691565b93506126c18185602086016118f6565b80840191505092915050565b60006126d9828561269c565b91506126e5828461269c565b91508190509392505050565b60006126fc8261198c565b91506000820361270f5761270e61261a565b5b600182039050919050565b7f4552433732313a206d696e7420746f20746865207a65726f2061646472657373600082015250565b60006127506020836118e5565b915061275b8261271a565b602082019050919050565b6000602082019050818103600083015261277f81612743565b9050919050565b7f4552433732313a20746f6b656e20616c7265616479206d696e74656400000000600082015250565b60006127bc601c836118e5565b91506127c782612786565b602082019050919050565b600060208201905081810360008301526127eb816127af565b9050919050565b7f7b696e737469747574655f6e616d653a00000000000000000000000000000000600082015250565b6000612828601083612691565b9150612833826127f2565b601082019050919050565b7f636f6d70616e795f6e616d653a00000000000000000000000000000000000000600082015250565b6000612874600d83612691565b915061287f8261283e565b600d82019050919050565b7f2c20636172626f6e5f637265646974733a000000000000000000000000000000600082015250565b60006128c0601183612691565b91506128cb8261288a565b601182019050919050565b7f2c2069737375655f646174653a00000000000000000000000000000000000000600082015250565b600061290c600d83612691565b9150612917826128d6565b600d82019050919050565b7f2c20696e6475737472795f69643a000000000000000000000000000000000000600082015250565b6000612958600e83612691565b915061296382612922565b600e82019050919050565b7f2c206465736372697074696f6e3a000000000000000000000000000000000000600082015250565b60006129a4600e83612691565b91506129af8261296e565b600e82019050919050565b7f7d00000000000000000000000000000000000000000000000000000000000000600082015250565b60006129f0600183612691565b91506129fb826129ba565b600182019050919050565b6000612a118261281b565b9150612a1d828961269c565b9150612a2882612867565b9150612a34828861269c565b9150612a3f826128b3565b9150612a4b828761269c565b9150612a56826128ff565b9150612a62828661269c565b9150612a6d8261294b565b9150612a79828561269c565b9150612a8482612997565b9150612a90828461269c565b9150612a9b826129e3565b9150819050979650505050505050565b7f45524337323155524953746f726167653a2055524920736574206f66206e6f6e60008201527f6578697374656e7420746f6b656e000000000000000000000000000000000000602082015250565b6000612b07602e836118e5565b9150612b1282612aab565b604082019050919050565b60006020820190508181036000830152612b3681612afa565b9050919050565b6000612b488261198c565b9150612b538361198c565b9250828203905081811115612b6b57612b6a61261a565b5b92915050565b6000612b7c8261198c565b9150612b878361198c565b9250828201905080821115612b9f57612b9e61261a565b5b92915050565b7f4e487b7100000000000000000000000000000000000000000000000000000000600052601260045260246000fdfea2646970667358221220efc06a884457f1b16331e64297ec9c8b3b26f9c78f243f102104229ddc91d3c764736f6c63430008110033",
  "devdoc": {
    "kind": "dev",
    "methods": {
      "balanceOf(address)": {
        "details": "See {IERC721-balanceOf}."
      },
      "isApprovedForAll(address,address)": {
        "details": "See {IERC721-isApprovedForAll}."
      },
      "name()": {
        "details": "See {IERC721Metadata-name}."
      },
      "ownerOf(uint256)": {
        "details": "See {IERC721-ownerOf}."
      },
      "supportsInterface(bytes4)": {
        "details": "See {IERC165-supportsInterface}."
      },
      "symbol()": {
        "details": "See {IERC721Metadata-symbol}."
      },
      "tokenURI(uint256)": {
        "details": "See {IERC721Metadata-tokenURI}."
      }
    },
    "version": 1
  },
  "userdoc": {
    "kind": "user",
    "methods": {},
    "version": 1
  },
  "storageLayout": {
    "storage": [
      {
        "astId": 4543,
        "contract": "contracts/SbtPermanent.sol:SbtPermanent",
        "label": "_name",
        "offset": 0,
        "slot": "0",
        "type": "t_string_storage"
      },
      {
        "astId": 4545,
        "contract": "contracts/SbtPermanent.sol:SbtPermanent",
        "label": "_symbol",
        "offset": 0,
        "slot": "1",
        "type": "t_string_storage"
      },
      {
        "astId": 4549,
        "contract": "contracts/SbtPermanent.sol:SbtPermanent",
        "label": "_owners",
        "offset": 0,
        "slot": "2",
        "type": "t_mapping(t_uint256,t_address)"
      },
      {
        "astId": 4553,
        "contract": "contracts/SbtPermanent.sol:SbtPermanent",
        "label": "_balances",
        "offset": 0,
        "slot": "3",
        "type": "t_mapping(t_address,t_uint256)"
      },
      {
        "astId": 4557,
        "contract": "contracts/SbtPermanent.sol:SbtPermanent",
        "label": "_tokenApprovals",
        "offset": 0,
        "slot": "4",
        "type": "t_mapping(t_uint256,t_address)"
      },
      {
        "astId": 4563,
        "contract": "contracts/SbtPermanent.sol:SbtPermanent",
        "label": "_operatorApprovals",
        "offset": 0,
        "slot": "5",
        "type": "t_mapping(t_address,t_mapping(t_address,t_bool))"
      },
      {
        "astId": 5609,
        "contract": "contracts/SbtPermanent.sol:SbtPermanent",
        "label": "_tokenURIs",
        "offset": 0,
        "slot": "6",
        "type": "t_mapping(t_uint256,t_string_storage)"
      },
      {
        "astId": 11071,
        "contract": "contracts/SbtPermanent.sol:SbtPermanent",
        "label": "owner",
        "offset": 0,
        "slot": "7",
        "type": "t_address"
      },
      {
        "astId": 11073,
        "contract": "contracts/SbtPermanent.sol:SbtPermanent",
        "label": "institutes_count",
        "offset": 0,
        "slot": "8",
        "type": "t_uint256"
      },
      {
        "astId": 11078,
        "contract": "contracts/SbtPermanent.sol:SbtPermanent",
        "label": "institutes",
        "offset": 0,
        "slot": "9",
        "type": "t_mapping(t_address,t_struct(Institute)11069_storage)"
      },
      {
        "astId": 12029,
        "contract": "contracts/SbtPermanent.sol:SbtPermanent",
        "label": "_owner",
        "offset": 0,
        "slot": "10",
        "type": "t_address"
      },
      {
        "astId": 12036,
        "contract": "contracts/SbtPermanent.sol:SbtPermanent",
        "label": "_tokenIds",
        "offset": 0,
        "slot": "11",
        "type": "t_struct(Counter)6153_storage"
      },
      {
        "astId": 12039,
        "contract": "contracts/SbtPermanent.sol:SbtPermanent",
        "label": "_carbonCredits",
        "offset": 0,
        "slot": "12",
        "type": "t_contract(CarbonCredits)10687"
      }
    ],
    "types": {
      "t_address": {
        "encoding": "inplace",
        "label": "address",
        "numberOfBytes": "20"
      },
      "t_bool": {
        "encoding": "inplace",
        "label": "bool",
        "numberOfBytes": "1"
      },
      "t_contract(CarbonCredits)10687": {
        "encoding": "inplace",
        "label": "contract CarbonCredits",
        "numberOfBytes": "20"
      },
      "t_mapping(t_address,t_bool)": {
        "encoding": "mapping",
        "key": "t_address",
        "label": "mapping(address => bool)",
        "numberOfBytes": "32",
        "value": "t_bool"
      },
      "t_mapping(t_address,t_mapping(t_address,t_bool))": {
        "encoding": "mapping",
        "key": "t_address",
        "label": "mapping(address => mapping(address => bool))",
        "numberOfBytes": "32",
        "value": "t_mapping(t_address,t_bool)"
      },
      "t_mapping(t_address,t_struct(Institute)11069_storage)": {
        "encoding": "mapping",
        "key": "t_address",
        "label": "mapping(address => struct Institutes.Institute)",
        "numberOfBytes": "32",
        "value": "t_struct(Institute)11069_storage"
      },
      "t_mapping(t_address,t_uint256)": {
        "encoding": "mapping",
        "key": "t_address",
        "label": "mapping(address => uint256)",
        "numberOfBytes": "32",
        "value": "t_uint256"
      },
      "t_mapping(t_uint256,t_address)": {
        "encoding": "mapping",
        "key": "t_uint256",
        "label": "mapping(uint256 => address)",
        "numberOfBytes": "32",
        "value": "t_address"
      },
      "t_mapping(t_uint256,t_string_storage)": {
        "encoding": "mapping",
        "key": "t_uint256",
        "label": "mapping(uint256 => string)",
        "numberOfBytes": "32",
        "value": "t_string_storage"
      },
      "t_string_storage": {
        "encoding": "bytes",
        "label": "string",
        "numberOfBytes": "32"
      },
      "t_struct(Counter)6153_storage": {
        "encoding": "inplace",
        "label": "struct Counters.Counter",
        "members": [
          {
            "astId": 6152,
            "contract": "contracts/SbtPermanent.sol:SbtPermanent",
            "label": "_value",
            "offset": 0,
            "slot": "0",
            "type": "t_uint256"
          }
        ],
        "numberOfBytes": "32"
      },
      "t_struct(Institute)11069_storage": {
        "encoding": "inplace",
        "label": "struct Institutes.Institute",
        "members": [
          {
            "astId": 11064,
            "contract": "contracts/SbtPermanent.sol:SbtPermanent",
            "label": "name",
            "offset": 0,
            "slot": "0",
            "type": "t_string_storage"
          },
          {
            "astId": 11066,
            "contract": "contracts/SbtPermanent.sol:SbtPermanent",
            "label": "description",
            "offset": 0,
            "slot": "1",
            "type": "t_string_storage"
          },
          {
            "astId": 11068,
            "contract": "contracts/SbtPermanent.sol:SbtPermanent",
            "label": "active",
            "offset": 0,
            "slot": "2",
            "type": "t_bool"
          }
        ],
        "numberOfBytes": "96"
      },
      "t_uint256": {
        "encoding": "inplace",
        "label": "uint256",
        "numberOfBytes": "32"
      }
    }
  }
}