{
  "address": "0xa1499Da2f9d87f4b40FEd331f338d29E0c394278",
  "abi": [
    {
      "inputs": [],
      "stateMutability": "nonpayable",
      "type": "constructor"
    },
    {
      "anonymous": false,
      "inputs": [
        {
          "indexed": true,
          "internalType": "address",
          "name": "owner",
          "type": "address"
        },
        {
          "indexed": true,
          "internalType": "address",
          "name": "spender",
          "type": "address"
        },
        {
          "indexed": false,
          "internalType": "uint256",
          "name": "value",
          "type": "uint256"
        }
      ],
      "name": "Approval",
      "type": "event"
    },
    {
      "anonymous": false,
      "inputs": [
        {
          "indexed": false,
          "internalType": "address",
          "name": "userAddress",
          "type": "address"
        },
        {
          "indexed": false,
          "internalType": "address payable",
          "name": "relayerAddress",
          "type": "address"
        },
        {
          "indexed": false,
          "internalType": "bytes",
          "name": "functionSignature",
          "type": "bytes"
        }
      ],
      "name": "MetaTransactionExecuted",
      "type": "event"
    },
    {
      "anonymous": false,
      "inputs": [
        {
          "indexed": true,
          "internalType": "address",
          "name": "previousOwner",
          "type": "address"
        },
        {
          "indexed": true,
          "internalType": "address",
          "name": "newOwner",
          "type": "address"
        }
      ],
      "name": "OwnershipTransferred",
      "type": "event"
    },
    {
      "anonymous": false,
      "inputs": [
        {
          "indexed": true,
          "internalType": "address",
          "name": "from",
          "type": "address"
        },
        {
          "indexed": true,
          "internalType": "address",
          "name": "to",
          "type": "address"
        },
        {
          "indexed": false,
          "internalType": "uint256",
          "name": "value",
          "type": "uint256"
        }
      ],
      "name": "Transfer",
      "type": "event"
    },
    {
      "inputs": [
        {
          "internalType": "address",
          "name": "owner",
          "type": "address"
        },
        {
          "internalType": "address",
          "name": "spender",
          "type": "address"
        }
      ],
      "name": "allowance",
      "outputs": [
        {
          "internalType": "uint256",
          "name": "",
          "type": "uint256"
        }
      ],
      "stateMutability": "view",
      "type": "function"
    },
    {
      "inputs": [
        {
          "internalType": "address",
          "name": "spender",
          "type": "address"
        },
        {
          "internalType": "uint256",
          "name": "amount",
          "type": "uint256"
        }
      ],
      "name": "approve",
      "outputs": [
        {
          "internalType": "bool",
          "name": "",
          "type": "bool"
        }
      ],
      "stateMutability": "nonpayable",
      "type": "function"
    },
    {
      "inputs": [
        {
          "internalType": "address",
          "name": "account",
          "type": "address"
        }
      ],
      "name": "balanceOf",
      "outputs": [
        {
          "internalType": "uint256",
          "name": "",
          "type": "uint256"
        }
      ],
      "stateMutability": "view",
      "type": "function"
    },
    {
      "inputs": [
        {
          "internalType": "uint256",
          "name": "amount",
          "type": "uint256"
        }
      ],
      "name": "burn",
      "outputs": [],
      "stateMutability": "nonpayable",
      "type": "function"
    },
    {
      "inputs": [
        {
          "internalType": "address",
          "name": "account",
          "type": "address"
        },
        {
          "internalType": "uint256",
          "name": "amount",
          "type": "uint256"
        }
      ],
      "name": "burnFrom",
      "outputs": [],
      "stateMutability": "nonpayable",
      "type": "function"
    },
    {
      "inputs": [],
      "name": "decimals",
      "outputs": [
        {
          "internalType": "uint8",
          "name": "",
          "type": "uint8"
        }
      ],
      "stateMutability": "view",
      "type": "function"
    },
    {
      "inputs": [
        {
          "internalType": "address",
          "name": "spender",
          "type": "address"
        },
        {
          "internalType": "uint256",
          "name": "subtractedValue",
          "type": "uint256"
        }
      ],
      "name": "decreaseAllowance",
      "outputs": [
        {
          "internalType": "bool",
          "name": "",
          "type": "bool"
        }
      ],
      "stateMutability": "nonpayable",
      "type": "function"
    },
    {
      "inputs": [
        {
          "internalType": "address",
          "name": "userAddress",
          "type": "address"
        },
        {
          "internalType": "bytes",
          "name": "functionSignature",
          "type": "bytes"
        },
        {
          "internalType": "bytes32",
          "name": "sigR",
          "type": "bytes32"
        },
        {
          "internalType": "bytes32",
          "name": "sigS",
          "type": "bytes32"
        },
        {
          "internalType": "uint8",
          "name": "sigV",
          "type": "uint8"
        }
      ],
      "name": "executeMetaTransaction",
      "outputs": [
        {
          "internalType": "bytes",
          "name": "",
          "type": "bytes"
        }
      ],
      "stateMutability": "payable",
      "type": "function"
    },
    {
      "inputs": [
        {
          "internalType": "address",
          "name": "user",
          "type": "address"
        }
      ],
      "name": "getNonce",
      "outputs": [
        {
          "internalType": "uint256",
          "name": "nonce",
          "type": "uint256"
        }
      ],
      "stateMutability": "view",
      "type": "function"
    },
    {
      "inputs": [
        {
          "internalType": "address",
          "name": "spender",
          "type": "address"
        },
        {
          "internalType": "uint256",
          "name": "addedValue",
          "type": "uint256"
        }
      ],
      "name": "increaseAllowance",
      "outputs": [
        {
          "internalType": "bool",
          "name": "",
          "type": "bool"
        }
      ],
      "stateMutability": "nonpayable",
      "type": "function"
    },
    {
      "inputs": [],
      "name": "name",
      "outputs": [
        {
          "internalType": "string",
          "name": "",
          "type": "string"
        }
      ],
      "stateMutability": "view",
      "type": "function"
    },
    {
      "inputs": [],
      "name": "owner",
      "outputs": [
        {
          "internalType": "address",
          "name": "",
          "type": "address"
        }
      ],
      "stateMutability": "view",
      "type": "function"
    },
    {
      "inputs": [],
      "name": "renounceOwnership",
      "outputs": [],
      "stateMutability": "nonpayable",
      "type": "function"
    },
    {
      "inputs": [],
      "name": "symbol",
      "outputs": [
        {
          "internalType": "string",
          "name": "",
          "type": "string"
        }
      ],
      "stateMutability": "view",
      "type": "function"
    },
    {
      "inputs": [],
      "name": "totalSupply",
      "outputs": [
        {
          "internalType": "uint256",
          "name": "",
          "type": "uint256"
        }
      ],
      "stateMutability": "view",
      "type": "function"
    },
    {
      "inputs": [
        {
          "internalType": "address",
          "name": "to",
          "type": "address"
        },
        {
          "internalType": "uint256",
          "name": "amount",
          "type": "uint256"
        }
      ],
      "name": "transfer",
      "outputs": [
        {
          "internalType": "bool",
          "name": "",
          "type": "bool"
        }
      ],
      "stateMutability": "nonpayable",
      "type": "function"
    },
    {
      "inputs": [
        {
          "internalType": "address",
          "name": "from",
          "type": "address"
        },
        {
          "internalType": "address",
          "name": "to",
          "type": "address"
        },
        {
          "internalType": "uint256",
          "name": "amount",
          "type": "uint256"
        }
      ],
      "name": "transferFrom",
      "outputs": [
        {
          "internalType": "bool",
          "name": "",
          "type": "bool"
        }
      ],
      "stateMutability": "nonpayable",
      "type": "function"
    },
    {
      "inputs": [
        {
          "internalType": "address",
          "name": "newOwner",
          "type": "address"
        }
      ],
      "name": "transferOwnership",
      "outputs": [],
      "stateMutability": "nonpayable",
      "type": "function"
    }
  ],
  "transactionHash": "0xfa6cf50dafa0d7364c2dd704655461df1065fd842a035d0670c549919750c4dc",
  "args": [],
  "numDeployments": 2,
  "solcInputHash": "c6b1abd30bb7373f675a374533bd1ae5",
  "bytecode": "0x60806040523480156200001157600080fd5b506040518060400160405280601281526020017f5375737461696e6162696c697479436f696e00000000000000000000000000008152506040518060400160405280600181526020017f310000000000000000000000000000000000000000000000000000000000000081525081816040518060400160405280601281526020017f5375737461696e6162696c697479436f696e00000000000000000000000000008152506040518060400160405280600781526020017f5355535441494e000000000000000000000000000000000000000000000000008152508160039081620000fd919062000784565b5080600490816200010f919062000784565b50505062000132620001266200020260201b60201c565b6200020a60201b60201c565b6040518060800160405280604f8152602001620033d3604f913980519060200120828051906020012082805190602001203062000174620002d060201b60201c565b60001b6040516020016200018d959493929190620008cb565b6040516020818303038152906040528051906020012060068190555050505050620001fc620001c1620002d860201b60201c565b620001d16200038a60201b60201c565b600a620001df919062000ab8565b6301406f40620001f0919062000b09565b6200039360201b60201c565b62000c40565b600033905090565b6000600560009054906101000a900473ffffffffffffffffffffffffffffffffffffffff16905081600560006101000a81548173ffffffffffffffffffffffffffffffffffffffff021916908373ffffffffffffffffffffffffffffffffffffffff1602179055508173ffffffffffffffffffffffffffffffffffffffff168173ffffffffffffffffffffffffffffffffffffffff167f8be0079c531659141344cd1fd0a4f28419497f9722a3daafe3b4186f6b6457e060405160405180910390a35050565b600046905090565b60003073ffffffffffffffffffffffffffffffffffffffff163373ffffffffffffffffffffffffffffffffffffffff16036200038357600080368080601f016020809104026020016040519081016040528093929190818152602001838380828437600081840152601f19601f820116905080830192505050505050509050600080369050905073ffffffffffffffffffffffffffffffffffffffff81830151169250505062000387565b3390505b90565b60006012905090565b600073ffffffffffffffffffffffffffffffffffffffff168273ffffffffffffffffffffffffffffffffffffffff160362000405576040517f08c379a0000000000000000000000000000000000000000000000000000000008152600401620003fc9062000bb5565b60405180910390fd5b62000419600083836200050060201b60201c565b80600260008282546200042d919062000bd7565b92505081905550806000808473ffffffffffffffffffffffffffffffffffffffff1673ffffffffffffffffffffffffffffffffffffffff168152602001908152602001600020600082825401925050819055508173ffffffffffffffffffffffffffffffffffffffff16600073ffffffffffffffffffffffffffffffffffffffff167fddf252ad1be2c89b69c2b068fc378daa952ba7f163c4a11628f55a4df523b3ef83604051620004e0919062000c23565b60405180910390a3620004fc600083836200050560201b60201c565b5050565b505050565b505050565b600081519050919050565b7f4e487b7100000000000000000000000000000000000000000000000000000000600052604160045260246000fd5b7f4e487b7100000000000000000000000000000000000000000000000000000000600052602260045260246000fd5b600060028204905060018216806200058c57607f821691505b602082108103620005a257620005a162000544565b5b50919050565b60008190508160005260206000209050919050565b60006020601f8301049050919050565b600082821b905092915050565b6000600883026200060c7fffffffffffffffffffffffffffffffffffffffffffffffffffffffffffffffff82620005cd565b620006188683620005cd565b95508019841693508086168417925050509392505050565b6000819050919050565b6000819050919050565b6000620006656200065f620006598462000630565b6200063a565b62000630565b9050919050565b6000819050919050565b620006818362000644565b6200069962000690826200066c565b848454620005da565b825550505050565b600090565b620006b0620006a1565b620006bd81848462000676565b505050565b5b81811015620006e557620006d9600082620006a6565b600181019050620006c3565b5050565b601f8211156200073457620006fe81620005a8565b6200070984620005bd565b8101602085101562000719578190505b620007316200072885620005bd565b830182620006c2565b50505b505050565b600082821c905092915050565b6000620007596000198460080262000739565b1980831691505092915050565b600062000774838362000746565b9150826002028217905092915050565b6200078f826200050a565b67ffffffffffffffff811115620007ab57620007aa62000515565b5b620007b7825462000573565b620007c4828285620006e9565b600060209050601f831160018114620007fc5760008415620007e7578287015190505b620007f3858262000766565b86555062000863565b601f1984166200080c86620005a8565b60005b8281101562000836578489015182556001820191506020850194506020810190506200080f565b8683101562000856578489015162000852601f89168262000746565b8355505b6001600288020188555050505b505050505050565b6000819050919050565b62000880816200086b565b82525050565b600073ffffffffffffffffffffffffffffffffffffffff82169050919050565b6000620008b38262000886565b9050919050565b620008c581620008a6565b82525050565b600060a082019050620008e2600083018862000875565b620008f1602083018762000875565b62000900604083018662000875565b6200090f6060830185620008ba565b6200091e608083018462000875565b9695505050505050565b7f4e487b7100000000000000000000000000000000000000000000000000000000600052601160045260246000fd5b60008160011c9050919050565b6000808291508390505b6001851115620009b6578086048111156200098e576200098d62000928565b5b60018516156200099e5780820291505b8081029050620009ae8562000957565b94506200096e565b94509492505050565b600082620009d1576001905062000aa4565b81620009e1576000905062000aa4565b8160018114620009fa576002811462000a055762000a3b565b600191505062000aa4565b60ff84111562000a1a5762000a1962000928565b5b8360020a91508482111562000a345762000a3362000928565b5b5062000aa4565b5060208310610133831016604e8410600b841016171562000a755782820a90508381111562000a6f5762000a6e62000928565b5b62000aa4565b62000a84848484600162000964565b9250905081840481111562000a9e5762000a9d62000928565b5b81810290505b9392505050565b600060ff82169050919050565b600062000ac58262000630565b915062000ad28362000aab565b925062000b017fffffffffffffffffffffffffffffffffffffffffffffffffffffffffffffffff8484620009bf565b905092915050565b600062000b168262000630565b915062000b238362000630565b925082820262000b338162000630565b9150828204841483151762000b4d5762000b4c62000928565b5b5092915050565b600082825260208201905092915050565b7f45524332303a206d696e7420746f20746865207a65726f206164647265737300600082015250565b600062000b9d601f8362000b54565b915062000baa8262000b65565b602082019050919050565b6000602082019050818103600083015262000bd08162000b8e565b9050919050565b600062000be48262000630565b915062000bf18362000630565b925082820190508082111562000c0c5762000c0b62000928565b5b92915050565b62000c1d8162000630565b82525050565b600060208201905062000c3a600083018462000c12565b92915050565b6127838062000c506000396000f3fe6080604052600436106101095760003560e01c806370a082311161009557806395d89b411161006457806395d89b4114610384578063a457c2d7146103af578063a9059cbb146103ec578063dd62ed3e14610429578063f2fde38b1461046657610109565b806370a08231146102dc578063715018a61461031957806379cc6790146103305780638da5cb5b1461035957610109565b806323b872dd116100dc57806323b872dd146101d15780632d0335ab1461020e578063313ce5671461024b578063395093511461027657806342966c68146102b357610109565b806306fdde031461010e578063095ea7b3146101395780630c53c51c1461017657806318160ddd146101a6575b600080fd5b34801561011a57600080fd5b5061012361048f565b604051610130919061168a565b60405180910390f35b34801561014557600080fd5b50610160600480360381019061015b9190611754565b610521565b60405161016d91906117af565b60405180910390f35b610190600480360381019061018b919061196e565b610544565b60405161019d9190611a5a565b60405180910390f35b3480156101b257600080fd5b506101bb610868565b6040516101c89190611a8b565b60405180910390f35b3480156101dd57600080fd5b506101f860048036038101906101f39190611aa6565b610872565b60405161020591906117af565b60405180910390f35b34801561021a57600080fd5b5061023560048036038101906102309190611af9565b6108a1565b6040516102429190611a8b565b60405180910390f35b34801561025757600080fd5b506102606108ea565b60405161026d9190611b35565b60405180910390f35b34801561028257600080fd5b5061029d60048036038101906102989190611754565b6108f3565b6040516102aa91906117af565b60405180910390f35b3480156102bf57600080fd5b506102da60048036038101906102d59190611b50565b61092a565b005b3480156102e857600080fd5b5061030360048036038101906102fe9190611af9565b61093e565b6040516103109190611a8b565b60405180910390f35b34801561032557600080fd5b5061032e610986565b005b34801561033c57600080fd5b5061035760048036038101906103529190611754565b61099a565b005b34801561036557600080fd5b5061036e6109ba565b60405161037b9190611b8c565b60405180910390f35b34801561039057600080fd5b506103996109e4565b6040516103a6919061168a565b60405180910390f35b3480156103bb57600080fd5b506103d660048036038101906103d19190611754565b610a76565b6040516103e391906117af565b60405180910390f35b3480156103f857600080fd5b50610413600480360381019061040e9190611754565b610aed565b60405161042091906117af565b60405180910390f35b34801561043557600080fd5b50610450600480360381019061044b9190611ba7565b610b10565b60405161045d9190611a8b565b60405180910390f35b34801561047257600080fd5b5061048d60048036038101906104889190611af9565b610b97565b005b60606003805461049e90611c16565b80601f01602080910402602001604051908101604052809291908181526020018280546104ca90611c16565b80156105175780601f106104ec57610100808354040283529160200191610517565b820191906000526020600020905b8154815290600101906020018083116104fa57829003601f168201915b5050505050905090565b60008061052c610c1a565b9050610539818585610c22565b600191505092915050565b6060600061055186610deb565b90506000357fffffffff00000000000000000000000000000000000000000000000000000000167bffffffffffffffffffffffffffffffffffffffffffffffffffffffff1916817bffffffffffffffffffffffffffffffffffffffffffffffffffffffff1916036105f7576040517f08c379a00000000000000000000000000000000000000000000000000000000081526004016105ee90611cb9565b60405180910390fd5b60006040518060600160405280600760008b73ffffffffffffffffffffffffffffffffffffffff1673ffffffffffffffffffffffffffffffffffffffff1681526020019081526020016000205481526020018973ffffffffffffffffffffffffffffffffffffffff1681526020018881525090506106788882888888610e0e565b6106b7576040517f08c379a00000000000000000000000000000000000000000000000000000000081526004016106ae90611d4b565b60405180910390fd5b61070a6001600760008b73ffffffffffffffffffffffffffffffffffffffff1673ffffffffffffffffffffffffffffffffffffffff16815260200190815260200160002054610f1c90919063ffffffff16565b600760008a73ffffffffffffffffffffffffffffffffffffffff1673ffffffffffffffffffffffffffffffffffffffff168152602001908152602001600020819055506000803073ffffffffffffffffffffffffffffffffffffffff16898b60405160200161077a929190611def565b6040516020818303038152906040526040516107969190611e17565b6000604051808303816000865af19150503d80600081146107d3576040519150601f19603f3d011682016040523d82523d6000602084013e6107d8565b606091505b50915091508161081d576040517f08c379a000000000000000000000000000000000000000000000000000000000815260040161081490611e7a565b60405180910390fd5b7f5845892132946850460bff5a0083f71031bc5bf9aadcd40f1de79423eac9b10b8a338b60405161085093929190611ebb565b60405180910390a18094505050505095945050505050565b6000600254905090565b60008061087d610c1a565b905061088a858285610f32565b610895858585610fbe565b60019150509392505050565b6000600760008373ffffffffffffffffffffffffffffffffffffffff1673ffffffffffffffffffffffffffffffffffffffff168152602001908152602001600020549050919050565b60006012905090565b6000806108fe610c1a565b905061091f8185856109108589610b10565b61091a9190611f28565b610c22565b600191505092915050565b61093b610935610c1a565b82611234565b50565b60008060008373ffffffffffffffffffffffffffffffffffffffff1673ffffffffffffffffffffffffffffffffffffffff168152602001908152602001600020549050919050565b61098e611401565b610998600061147f565b565b6109ac826109a6610c1a565b83610f32565b6109b68282611234565b5050565b6000600560009054906101000a900473ffffffffffffffffffffffffffffffffffffffff16905090565b6060600480546109f390611c16565b80601f0160208091040260200160405190810160405280929190818152602001828054610a1f90611c16565b8015610a6c5780601f10610a4157610100808354040283529160200191610a6c565b820191906000526020600020905b815481529060010190602001808311610a4f57829003601f168201915b5050505050905090565b600080610a81610c1a565b90506000610a8f8286610b10565b905083811015610ad4576040517f08c379a0000000000000000000000000000000000000000000000000000000008152600401610acb90611fce565b60405180910390fd5b610ae18286868403610c22565b60019250505092915050565b600080610af8610c1a565b9050610b05818585610fbe565b600191505092915050565b6000600160008473ffffffffffffffffffffffffffffffffffffffff1673ffffffffffffffffffffffffffffffffffffffff16815260200190815260200160002060008373ffffffffffffffffffffffffffffffffffffffff1673ffffffffffffffffffffffffffffffffffffffff16815260200190815260200160002054905092915050565b610b9f611401565b600073ffffffffffffffffffffffffffffffffffffffff168173ffffffffffffffffffffffffffffffffffffffff1603610c0e576040517f08c379a0000000000000000000000000000000000000000000000000000000008152600401610c0590612060565b60405180910390fd5b610c178161147f565b50565b600033905090565b600073ffffffffffffffffffffffffffffffffffffffff168373ffffffffffffffffffffffffffffffffffffffff1603610c91576040517f08c379a0000000000000000000000000000000000000000000000000000000008152600401610c88906120f2565b60405180910390fd5b600073ffffffffffffffffffffffffffffffffffffffff168273ffffffffffffffffffffffffffffffffffffffff1603610d00576040517f08c379a0000000000000000000000000000000000000000000000000000000008152600401610cf790612184565b60405180910390fd5b80600160008573ffffffffffffffffffffffffffffffffffffffff1673ffffffffffffffffffffffffffffffffffffffff16815260200190815260200160002060008473ffffffffffffffffffffffffffffffffffffffff1673ffffffffffffffffffffffffffffffffffffffff168152602001908152602001600020819055508173ffffffffffffffffffffffffffffffffffffffff168373ffffffffffffffffffffffffffffffffffffffff167f8c5be1e5ebec7d5bd14f71427d1e84f3dd0314c0f7b2291e5b200ac8c7c3b92583604051610dde9190611a8b565b60405180910390a3505050565b600080825103610e0157600060e01b9050610e09565b602082015190505b919050565b6000806001610e24610e1f88611545565b6115ad565b84878760405160008152602001604052604051610e4494939291906121b3565b6020604051602081039080840390855afa158015610e66573d6000803e3d6000fd5b505050602060405103519050600073ffffffffffffffffffffffffffffffffffffffff168173ffffffffffffffffffffffffffffffffffffffff1603610ee1576040517f08c379a0000000000000000000000000000000000000000000000000000000008152600401610ed890612244565b60405180910390fd5b8673ffffffffffffffffffffffffffffffffffffffff168173ffffffffffffffffffffffffffffffffffffffff161491505095945050505050565b60008183610f2a9190611f28565b905092915050565b6000610f3e8484610b10565b90507fffffffffffffffffffffffffffffffffffffffffffffffffffffffffffffffff8114610fb85781811015610faa576040517f08c379a0000000000000000000000000000000000000000000000000000000008152600401610fa1906122b0565b60405180910390fd5b610fb78484848403610c22565b5b50505050565b600073ffffffffffffffffffffffffffffffffffffffff168373ffffffffffffffffffffffffffffffffffffffff160361102d576040517f08c379a000000000000000000000000000000000000000000000000000000000815260040161102490612342565b60405180910390fd5b600073ffffffffffffffffffffffffffffffffffffffff168273ffffffffffffffffffffffffffffffffffffffff160361109c576040517f08c379a0000000000000000000000000000000000000000000000000000000008152600401611093906123d4565b60405180910390fd5b6110a78383836115e6565b60008060008573ffffffffffffffffffffffffffffffffffffffff1673ffffffffffffffffffffffffffffffffffffffff1681526020019081526020016000205490508181101561112d576040517f08c379a000000000000000000000000000000000000000000000000000000000815260040161112490612466565b60405180910390fd5b8181036000808673ffffffffffffffffffffffffffffffffffffffff1673ffffffffffffffffffffffffffffffffffffffff16815260200190815260200160002081905550816000808573ffffffffffffffffffffffffffffffffffffffff1673ffffffffffffffffffffffffffffffffffffffff168152602001908152602001600020600082825401925050819055508273ffffffffffffffffffffffffffffffffffffffff168473ffffffffffffffffffffffffffffffffffffffff167fddf252ad1be2c89b69c2b068fc378daa952ba7f163c4a11628f55a4df523b3ef8460405161121b9190611a8b565b60405180910390a361122e8484846115eb565b50505050565b600073ffffffffffffffffffffffffffffffffffffffff168273ffffffffffffffffffffffffffffffffffffffff16036112a3576040517f08c379a000000000000000000000000000000000000000000000000000000000815260040161129a906124f8565b60405180910390fd5b6112af826000836115e6565b60008060008473ffffffffffffffffffffffffffffffffffffffff1673ffffffffffffffffffffffffffffffffffffffff16815260200190815260200160002054905081811015611335576040517f08c379a000000000000000000000000000000000000000000000000000000000815260040161132c9061258a565b60405180910390fd5b8181036000808573ffffffffffffffffffffffffffffffffffffffff1673ffffffffffffffffffffffffffffffffffffffff1681526020019081526020016000208190555081600260008282540392505081905550600073ffffffffffffffffffffffffffffffffffffffff168373ffffffffffffffffffffffffffffffffffffffff167fddf252ad1be2c89b69c2b068fc378daa952ba7f163c4a11628f55a4df523b3ef846040516113e89190611a8b565b60405180910390a36113fc836000846115eb565b505050565b611409610c1a565b73ffffffffffffffffffffffffffffffffffffffff166114276109ba565b73ffffffffffffffffffffffffffffffffffffffff161461147d576040517f08c379a0000000000000000000000000000000000000000000000000000000008152600401611474906125f6565b60405180910390fd5b565b6000600560009054906101000a900473ffffffffffffffffffffffffffffffffffffffff16905081600560006101000a81548173ffffffffffffffffffffffffffffffffffffffff021916908373ffffffffffffffffffffffffffffffffffffffff1602179055508173ffffffffffffffffffffffffffffffffffffffff168173ffffffffffffffffffffffffffffffffffffffff167f8be0079c531659141344cd1fd0a4f28419497f9722a3daafe3b4186f6b6457e060405160405180910390a35050565b600060405180608001604052806043815260200161270b6043913980519060200120826000015183602001518460400151805190602001206040516020016115909493929190612616565b604051602081830303815290604052805190602001209050919050565b60006115b76115f0565b826040516020016115c99291906126d3565b604051602081830303815290604052805190602001209050919050565b505050565b505050565b6000600654905090565b600081519050919050565b600082825260208201905092915050565b60005b83811015611634578082015181840152602081019050611619565b60008484015250505050565b6000601f19601f8301169050919050565b600061165c826115fa565b6116668185611605565b9350611676818560208601611616565b61167f81611640565b840191505092915050565b600060208201905081810360008301526116a48184611651565b905092915050565b6000604051905090565b600080fd5b600080fd5b600073ffffffffffffffffffffffffffffffffffffffff82169050919050565b60006116eb826116c0565b9050919050565b6116fb816116e0565b811461170657600080fd5b50565b600081359050611718816116f2565b92915050565b6000819050919050565b6117318161171e565b811461173c57600080fd5b50565b60008135905061174e81611728565b92915050565b6000806040838503121561176b5761176a6116b6565b5b600061177985828601611709565b925050602061178a8582860161173f565b9150509250929050565b60008115159050919050565b6117a981611794565b82525050565b60006020820190506117c460008301846117a0565b92915050565b600080fd5b600080fd5b7f4e487b7100000000000000000000000000000000000000000000000000000000600052604160045260246000fd5b61180c82611640565b810181811067ffffffffffffffff8211171561182b5761182a6117d4565b5b80604052505050565b600061183e6116ac565b905061184a8282611803565b919050565b600067ffffffffffffffff82111561186a576118696117d4565b5b61187382611640565b9050602081019050919050565b82818337600083830152505050565b60006118a261189d8461184f565b611834565b9050828152602081018484840111156118be576118bd6117cf565b5b6118c9848285611880565b509392505050565b600082601f8301126118e6576118e56117ca565b5b81356118f684826020860161188f565b91505092915050565b6000819050919050565b611912816118ff565b811461191d57600080fd5b50565b60008135905061192f81611909565b92915050565b600060ff82169050919050565b61194b81611935565b811461195657600080fd5b50565b60008135905061196881611942565b92915050565b600080600080600060a0868803121561198a576119896116b6565b5b600061199888828901611709565b955050602086013567ffffffffffffffff8111156119b9576119b86116bb565b5b6119c5888289016118d1565b94505060406119d688828901611920565b93505060606119e788828901611920565b92505060806119f888828901611959565b9150509295509295909350565b600081519050919050565b600082825260208201905092915050565b6000611a2c82611a05565b611a368185611a10565b9350611a46818560208601611616565b611a4f81611640565b840191505092915050565b60006020820190508181036000830152611a748184611a21565b905092915050565b611a858161171e565b82525050565b6000602082019050611aa06000830184611a7c565b92915050565b600080600060608486031215611abf57611abe6116b6565b5b6000611acd86828701611709565b9350506020611ade86828701611709565b9250506040611aef8682870161173f565b9150509250925092565b600060208284031215611b0f57611b0e6116b6565b5b6000611b1d84828501611709565b91505092915050565b611b2f81611935565b82525050565b6000602082019050611b4a6000830184611b26565b92915050565b600060208284031215611b6657611b656116b6565b5b6000611b748482850161173f565b91505092915050565b611b86816116e0565b82525050565b6000602082019050611ba16000830184611b7d565b92915050565b60008060408385031215611bbe57611bbd6116b6565b5b6000611bcc85828601611709565b9250506020611bdd85828601611709565b9150509250929050565b7f4e487b7100000000000000000000000000000000000000000000000000000000600052602260045260246000fd5b60006002820490506001821680611c2e57607f821691505b602082108103611c4157611c40611be7565b5b50919050565b7f66756e6374696f6e5369676e61747572652063616e206e6f74206265206f662060008201527f657865637574654d6574615472616e73616374696f6e206d6574686f64000000602082015250565b6000611ca3603d83611605565b9150611cae82611c47565b604082019050919050565b60006020820190508181036000830152611cd281611c96565b9050919050565b7f5369676e657220616e64207369676e617475726520646f206e6f74206d61746360008201527f6800000000000000000000000000000000000000000000000000000000000000602082015250565b6000611d35602183611605565b9150611d4082611cd9565b604082019050919050565b60006020820190508181036000830152611d6481611d28565b9050919050565b600081905092915050565b6000611d8182611a05565b611d8b8185611d6b565b9350611d9b818560208601611616565b80840191505092915050565b60008160601b9050919050565b6000611dbf82611da7565b9050919050565b6000611dd182611db4565b9050919050565b611de9611de4826116e0565b611dc6565b82525050565b6000611dfb8285611d76565b9150611e078284611dd8565b6014820191508190509392505050565b6000611e238284611d76565b915081905092915050565b7f46756e6374696f6e2063616c6c206e6f74207375636365737366756c00000000600082015250565b6000611e64601c83611605565b9150611e6f82611e2e565b602082019050919050565b60006020820190508181036000830152611e9381611e57565b9050919050565b6000611ea5826116c0565b9050919050565b611eb581611e9a565b82525050565b6000606082019050611ed06000830186611b7d565b611edd6020830185611eac565b8181036040830152611eef8184611a21565b9050949350505050565b7f4e487b7100000000000000000000000000000000000000000000000000000000600052601160045260246000fd5b6000611f338261171e565b9150611f3e8361171e565b9250828201905080821115611f5657611f55611ef9565b5b92915050565b7f45524332303a2064656372656173656420616c6c6f77616e63652062656c6f7760008201527f207a65726f000000000000000000000000000000000000000000000000000000602082015250565b6000611fb8602583611605565b9150611fc382611f5c565b604082019050919050565b60006020820190508181036000830152611fe781611fab565b9050919050565b7f4f776e61626c653a206e6577206f776e657220697320746865207a65726f206160008201527f6464726573730000000000000000000000000000000000000000000000000000602082015250565b600061204a602683611605565b915061205582611fee565b604082019050919050565b600060208201905081810360008301526120798161203d565b9050919050565b7f45524332303a20617070726f76652066726f6d20746865207a65726f2061646460008201527f7265737300000000000000000000000000000000000000000000000000000000602082015250565b60006120dc602483611605565b91506120e782612080565b604082019050919050565b6000602082019050818103600083015261210b816120cf565b9050919050565b7f45524332303a20617070726f766520746f20746865207a65726f20616464726560008201527f7373000000000000000000000000000000000000000000000000000000000000602082015250565b600061216e602283611605565b915061217982612112565b604082019050919050565b6000602082019050818103600083015261219d81612161565b9050919050565b6121ad816118ff565b82525050565b60006080820190506121c860008301876121a4565b6121d56020830186611b26565b6121e260408301856121a4565b6121ef60608301846121a4565b95945050505050565b7f496e76616c6964207369676e6174757265000000000000000000000000000000600082015250565b600061222e601183611605565b9150612239826121f8565b602082019050919050565b6000602082019050818103600083015261225d81612221565b9050919050565b7f45524332303a20696e73756666696369656e7420616c6c6f77616e6365000000600082015250565b600061229a601d83611605565b91506122a582612264565b602082019050919050565b600060208201905081810360008301526122c98161228d565b9050919050565b7f45524332303a207472616e736665722066726f6d20746865207a65726f20616460008201527f6472657373000000000000000000000000000000000000000000000000000000602082015250565b600061232c602583611605565b9150612337826122d0565b604082019050919050565b6000602082019050818103600083015261235b8161231f565b9050919050565b7f45524332303a207472616e7366657220746f20746865207a65726f206164647260008201527f6573730000000000000000000000000000000000000000000000000000000000602082015250565b60006123be602383611605565b91506123c982612362565b604082019050919050565b600060208201905081810360008301526123ed816123b1565b9050919050565b7f45524332303a207472616e7366657220616d6f756e742065786365656473206260008201527f616c616e63650000000000000000000000000000000000000000000000000000602082015250565b6000612450602683611605565b915061245b826123f4565b604082019050919050565b6000602082019050818103600083015261247f81612443565b9050919050565b7f45524332303a206275726e2066726f6d20746865207a65726f2061646472657360008201527f7300000000000000000000000000000000000000000000000000000000000000602082015250565b60006124e2602183611605565b91506124ed82612486565b604082019050919050565b60006020820190508181036000830152612511816124d5565b9050919050565b7f45524332303a206275726e20616d6f756e7420657863656564732062616c616e60008201527f6365000000000000000000000000000000000000000000000000000000000000602082015250565b6000612574602283611605565b915061257f82612518565b604082019050919050565b600060208201905081810360008301526125a381612567565b9050919050565b7f4f776e61626c653a2063616c6c6572206973206e6f7420746865206f776e6572600082015250565b60006125e0602083611605565b91506125eb826125aa565b602082019050919050565b6000602082019050818103600083015261260f816125d3565b9050919050565b600060808201905061262b60008301876121a4565b6126386020830186611a7c565b6126456040830185611b7d565b61265260608301846121a4565b95945050505050565b600081905092915050565b7f1901000000000000000000000000000000000000000000000000000000000000600082015250565b600061269c60028361265b565b91506126a782612666565b600282019050919050565b6000819050919050565b6126cd6126c8826118ff565b6126b2565b82525050565b60006126de8261268f565b91506126ea82856126bc565b6020820191506126fa82846126bc565b602082019150819050939250505056fe4d6574615472616e73616374696f6e2875696e74323536206e6f6e63652c616464726573732066726f6d2c62797465732066756e6374696f6e5369676e617475726529a2646970667358221220bb0f878c89932f51bdb3d4d47d7231927ba6d34ad1c07fb9041198ba1a502c6164736f6c63430008110033454950373132446f6d61696e28737472696e67206e616d652c737472696e672076657273696f6e2c6164647265737320766572696679696e67436f6e74726163742c627974657333322073616c7429",
  "devdoc": {
    "kind": "dev",
    "methods": {
      "allowance(address,address)": {
        "details": "See {IERC20-allowance}."
      },
      "approve(address,uint256)": {
        "details": "See {IERC20-approve}. NOTE: If `amount` is the maximum `uint256`, the allowance is not updated on `transferFrom`. This is semantically equivalent to an infinite approval. Requirements: - `spender` cannot be the zero address."
      },
      "balanceOf(address)": {
        "details": "See {IERC20-balanceOf}."
      },
      "burn(uint256)": {
        "details": "Destroys `amount` tokens from the caller. See {ERC20-_burn}."
      },
      "burnFrom(address,uint256)": {
        "details": "Destroys `amount` tokens from `account`, deducting from the caller's allowance. See {ERC20-_burn} and {ERC20-allowance}. Requirements: - the caller must have allowance for ``accounts``'s tokens of at least `amount`."
      },
      "decimals()": {
        "details": "Returns the number of decimals used to get its user representation. For example, if `decimals` equals `2`, a balance of `505` tokens should be displayed to a user as `5.05` (`505 / 10 ** 2`). Tokens usually opt for a value of 18, imitating the relationship between Ether and Wei. This is the value {ERC20} uses, unless this function is overridden; NOTE: This information is only used for _display_ purposes: it in no way affects any of the arithmetic of the contract, including {IERC20-balanceOf} and {IERC20-transfer}."
      },
      "decreaseAllowance(address,uint256)": {
        "details": "Atomically decreases the allowance granted to `spender` by the caller. This is an alternative to {approve} that can be used as a mitigation for problems described in {IERC20-approve}. Emits an {Approval} event indicating the updated allowance. Requirements: - `spender` cannot be the zero address. - `spender` must have allowance for the caller of at least `subtractedValue`."
      },
      "increaseAllowance(address,uint256)": {
        "details": "Atomically increases the allowance granted to `spender` by the caller. This is an alternative to {approve} that can be used as a mitigation for problems described in {IERC20-approve}. Emits an {Approval} event indicating the updated allowance. Requirements: - `spender` cannot be the zero address."
      },
      "name()": {
        "details": "Returns the name of the token."
      },
      "owner()": {
        "details": "Returns the address of the current owner."
      },
      "renounceOwnership()": {
        "details": "Leaves the contract without owner. It will not be possible to call `onlyOwner` functions anymore. Can only be called by the current owner. NOTE: Renouncing ownership will leave the contract without an owner, thereby removing any functionality that is only available to the owner."
      },
      "symbol()": {
        "details": "Returns the symbol of the token, usually a shorter version of the name."
      },
      "totalSupply()": {
        "details": "See {IERC20-totalSupply}."
      },
      "transfer(address,uint256)": {
        "details": "See {IERC20-transfer}. Requirements: - `to` cannot be the zero address. - the caller must have a balance of at least `amount`."
      },
      "transferFrom(address,address,uint256)": {
        "details": "See {IERC20-transferFrom}. Emits an {Approval} event indicating the updated allowance. This is not required by the EIP. See the note at the beginning of {ERC20}. NOTE: Does not update the allowance if the current allowance is the maximum `uint256`. Requirements: - `from` and `to` cannot be the zero address. - `from` must have a balance of at least `amount`. - the caller must have allowance for ``from``'s tokens of at least `amount`."
      },
      "transferOwnership(address)": {
        "details": "Transfers ownership of the contract to a new account (`newOwner`). Can only be called by the current owner."
      }
    },
    "version": 1
  },
  "userdoc": {
    "kind": "user",
    "methods": {},
    "version": 1
  },
  "storageLayout": {
    "storage": [
      {
        "astId": 128,
        "contract": "contracts/SustainabilityCoin.sol:SustainabilityCoin",
        "label": "_balances",
        "offset": 0,
        "slot": "0",
        "type": "t_mapping(t_address,t_uint256)"
      },
      {
        "astId": 134,
        "contract": "contracts/SustainabilityCoin.sol:SustainabilityCoin",
        "label": "_allowances",
        "offset": 0,
        "slot": "1",
        "type": "t_mapping(t_address,t_mapping(t_address,t_uint256))"
      },
      {
        "astId": 136,
        "contract": "contracts/SustainabilityCoin.sol:SustainabilityCoin",
        "label": "_totalSupply",
        "offset": 0,
        "slot": "2",
        "type": "t_uint256"
      },
      {
        "astId": 138,
        "contract": "contracts/SustainabilityCoin.sol:SustainabilityCoin",
        "label": "_name",
        "offset": 0,
        "slot": "3",
        "type": "t_string_storage"
      },
      {
        "astId": 140,
        "contract": "contracts/SustainabilityCoin.sol:SustainabilityCoin",
        "label": "_symbol",
        "offset": 0,
        "slot": "4",
        "type": "t_string_storage"
      },
      {
        "astId": 7,
        "contract": "contracts/SustainabilityCoin.sol:SustainabilityCoin",
        "label": "_owner",
        "offset": 0,
        "slot": "5",
        "type": "t_address"
      },
      {
        "astId": 1201,
        "contract": "contracts/SustainabilityCoin.sol:SustainabilityCoin",
        "label": "domainSeparator",
        "offset": 0,
        "slot": "6",
        "type": "t_bytes32"
      },
      {
        "astId": 1303,
        "contract": "contracts/SustainabilityCoin.sol:SustainabilityCoin",
        "label": "nonces",
        "offset": 0,
        "slot": "7",
        "type": "t_mapping(t_address,t_uint256)"
      }
    ],
    "types": {
      "t_address": {
        "encoding": "inplace",
        "label": "address",
        "numberOfBytes": "20"
      },
      "t_bytes32": {
        "encoding": "inplace",
        "label": "bytes32",
        "numberOfBytes": "32"
      },
      "t_mapping(t_address,t_mapping(t_address,t_uint256))": {
        "encoding": "mapping",
        "key": "t_address",
        "label": "mapping(address => mapping(address => uint256))",
        "numberOfBytes": "32",
        "value": "t_mapping(t_address,t_uint256)"
      },
      "t_mapping(t_address,t_uint256)": {
        "encoding": "mapping",
        "key": "t_address",
        "label": "mapping(address => uint256)",
        "numberOfBytes": "32",
        "value": "t_uint256"
      },
      "t_string_storage": {
        "encoding": "bytes",
        "label": "string",
        "numberOfBytes": "32"
      },
      "t_uint256": {
        "encoding": "inplace",
        "label": "uint256",
        "numberOfBytes": "32"
      }
    }
  }
}