{
  "address": "0x236Ab6c4F3572Dce32738AFB1b582617EA87310c",
  "abi": [
    {
      "inputs": [
        {
          "internalType": "address",
          "name": "_carbonCreditsContractAddress",
          "type": "address"
        },
        {
          "internalType": "address",
          "name": "_owner",
          "type": "address"
        },
        {
          "internalType": "address",
          "name": "_sustainabilityCoin",
          "type": "address"
        }
      ],
      "stateMutability": "payable",
      "type": "constructor"
    },
    {
      "anonymous": false,
      "inputs": [
        {
          "indexed": false,
          "internalType": "address",
          "name": "userAddress",
          "type": "address"
        },
        {
          "indexed": false,
          "internalType": "address payable",
          "name": "relayerAddress",
          "type": "address"
        },
        {
          "indexed": false,
          "internalType": "bytes",
          "name": "functionSignature",
          "type": "bytes"
        }
      ],
      "name": "MetaTransactionExecuted",
      "type": "event"
    },
    {
      "inputs": [
        {
          "internalType": "uint256",
          "name": "_supply",
          "type": "uint256"
        },
        {
          "internalType": "uint256",
          "name": "_connectorBalance",
          "type": "uint256"
        },
        {
          "internalType": "uint32",
          "name": "_connectorWeight",
          "type": "uint32"
        },
        {
          "internalType": "uint256",
          "name": "_depositAmount",
          "type": "uint256"
        }
      ],
      "name": "_calculatePurchaseReturn",
      "outputs": [
        {
          "internalType": "uint256",
          "name": "",
          "type": "uint256"
        }
      ],
      "stateMutability": "view",
      "type": "function"
    },
    {
      "inputs": [],
      "name": "amount",
      "outputs": [
        {
          "internalType": "uint256",
          "name": "",
          "type": "uint256"
        }
      ],
      "stateMutability": "view",
      "type": "function"
    },
    {
      "inputs": [
        {
          "internalType": "uint256",
          "name": "id",
          "type": "uint256"
        },
        {
          "internalType": "address",
          "name": "to",
          "type": "address"
        },
        {
          "internalType": "uint256",
          "name": "_depositAmount",
          "type": "uint256"
        },
        {
          "internalType": "bytes",
          "name": "data",
          "type": "bytes"
        }
      ],
      "name": "buy",
      "outputs": [],
      "stateMutability": "nonpayable",
      "type": "function"
    },
    {
      "inputs": [
        {
          "internalType": "uint256",
          "name": "_id",
          "type": "uint256"
        },
        {
          "internalType": "uint256",
          "name": "_depositAmount",
          "type": "uint256"
        }
      ],
      "name": "calculatePurchaseReturn",
      "outputs": [
        {
          "internalType": "uint256",
          "name": "",
          "type": "uint256"
        }
      ],
      "stateMutability": "view",
      "type": "function"
    },
    {
      "inputs": [
        {
          "internalType": "uint256",
          "name": "_id",
          "type": "uint256"
        },
        {
          "internalType": "uint256",
          "name": "_sellNumber",
          "type": "uint256"
        }
      ],
      "name": "calculateSaleReturn",
      "outputs": [
        {
          "internalType": "uint256",
          "name": "",
          "type": "uint256"
        }
      ],
      "stateMutability": "view",
      "type": "function"
    },
    {
      "inputs": [],
      "name": "carbonCredits",
      "outputs": [
        {
          "internalType": "contract CarbonCredits",
          "name": "",
          "type": "address"
        }
      ],
      "stateMutability": "view",
      "type": "function"
    },
    {
      "inputs": [
        {
          "internalType": "uint256",
          "name": "id",
          "type": "uint256"
        },
        {
          "internalType": "uint256",
          "name": "fee",
          "type": "uint256"
        },
        {
          "internalType": "uint256",
          "name": "initialSupply",
          "type": "uint256"
        },
        {
          "internalType": "uint256",
          "name": "initialPrice",
          "type": "uint256"
        },
        {
          "internalType": "uint32",
          "name": "rr",
          "type": "uint32"
        },
        {
          "internalType": "bytes",
          "name": "data",
          "type": "bytes"
        }
      ],
      "name": "createNewIndustry",
      "outputs": [],
      "stateMutability": "nonpayable",
      "type": "function"
    },
    {
      "inputs": [
        {
          "internalType": "address",
          "name": "userAddress",
          "type": "address"
        },
        {
          "internalType": "bytes",
          "name": "functionSignature",
          "type": "bytes"
        },
        {
          "internalType": "bytes32",
          "name": "sigR",
          "type": "bytes32"
        },
        {
          "internalType": "bytes32",
          "name": "sigS",
          "type": "bytes32"
        },
        {
          "internalType": "uint8",
          "name": "sigV",
          "type": "uint8"
        }
      ],
      "name": "executeMetaTransaction",
      "outputs": [
        {
          "internalType": "bytes",
          "name": "",
          "type": "bytes"
        }
      ],
      "stateMutability": "payable",
      "type": "function"
    },
    {
      "inputs": [
        {
          "internalType": "address",
          "name": "user",
          "type": "address"
        }
      ],
      "name": "getNonce",
      "outputs": [
        {
          "internalType": "uint256",
          "name": "nonce",
          "type": "uint256"
        }
      ],
      "stateMutability": "view",
      "type": "function"
    },
    {
      "inputs": [
        {
          "internalType": "uint256",
          "name": "_id",
          "type": "uint256"
        }
      ],
      "name": "getPrice",
      "outputs": [
        {
          "internalType": "uint256",
          "name": "",
          "type": "uint256"
        }
      ],
      "stateMutability": "view",
      "type": "function"
    },
    {
      "inputs": [
        {
          "internalType": "uint256",
          "name": "",
          "type": "uint256"
        }
      ],
      "name": "getRating",
      "outputs": [
        {
          "internalType": "uint256",
          "name": "",
          "type": "uint256"
        }
      ],
      "stateMutability": "pure",
      "type": "function"
    },
    {
      "inputs": [],
      "name": "owner",
      "outputs": [
        {
          "internalType": "address",
          "name": "",
          "type": "address"
        }
      ],
      "stateMutability": "view",
      "type": "function"
    },
    {
      "inputs": [
        {
          "internalType": "uint256",
          "name": "",
          "type": "uint256"
        }
      ],
      "name": "reserveBalances",
      "outputs": [
        {
          "internalType": "uint256",
          "name": "",
          "type": "uint256"
        }
      ],
      "stateMutability": "view",
      "type": "function"
    },
    {
      "inputs": [
        {
          "internalType": "uint256",
          "name": "id",
          "type": "uint256"
        },
        {
          "internalType": "uint256",
          "name": "_sellNumber",
          "type": "uint256"
        }
      ],
      "name": "sell",
      "outputs": [],
      "stateMutability": "nonpayable",
      "type": "function"
    },
    {
      "inputs": [],
      "name": "sustainabilityCoin",
      "outputs": [
        {
          "internalType": "address",
          "name": "",
          "type": "address"
        }
      ],
      "stateMutability": "view",
      "type": "function"
    },
    {
      "inputs": [
        {
          "internalType": "uint256",
          "name": "",
          "type": "uint256"
        }
      ],
      "name": "tokenDetails",
      "outputs": [
        {
          "internalType": "uint32",
          "name": "RESERVE_RATIO",
          "type": "uint32"
        },
        {
          "internalType": "uint256",
          "name": "_fee",
          "type": "uint256"
        },
        {
          "internalType": "uint256",
          "name": "initialSupply",
          "type": "uint256"
        }
      ],
      "stateMutability": "view",
      "type": "function"
    }
  ],
  "transactionHash": "0x2a792706907e2d00d15c0196b12e107a6cec32e2e61b98fe0d0330227496c072",
  "args": [
    "0x191bB131265246cF7EFc238755cbA14e0607eA7E",
    "0x02AfC92a4f85F568375F77360C4385F12c75858C",
    "0xCba06A6E69FA5C68385B268631f68C179eDAD6c9"
  ],
  "numDeployments": 1,
  "solcInputHash": "6aefd7d2be27cff8df57372421ef2828",
  "bytecode": "0x60c060405260405162005931380380620059318339818101604052810190620000299190620013c6565b6040518060400160405280600f81526020017f436172626f6e43726564697444455800000000000000000000000000000000008152506040518060400160405280600181526020017f31000000000000000000000000000000000000000000000000000000000000008152508181701c35fedd14ffffffffffffffffffffffff6000602060808110620000c157620000c062001422565b5b0181905550701b0ce43b323fffffffffffffffffffffff6000602160808110620000f057620000ef62001422565b5b01819055507019f0028ec1ffffffffffffffffffffffff60006022608081106200011f576200011e62001422565b5b01819055507018ded91f0e7fffffffffffffffffffffff60006023608081106200014e576200014d62001422565b5b01819055507017d8ec7f0417ffffffffffffffffffffff60006024608081106200017d576200017c62001422565b5b01819055507016ddc6556cdbffffffffffffffffffffff6000602560808110620001ac57620001ab62001422565b5b01819055507015ecf52776a1ffffffffffffffffffffff6000602660808110620001db57620001da62001422565b5b01819055507015060c256cb2ffffffffffffffffffffff60006027608081106200020a576200020962001422565b5b0181905550701428a2f98d72ffffffffffffffffffffff600060286080811062000239576200023862001422565b5b01819055507013545598e5c23fffffffffffffffffffff600060296080811062000268576200026762001422565b5b0181905550701288c4161ce1dfffffffffffffffffffff6000602a6080811062000297576200029662001422565b5b01819055507011c592761c666fffffffffffffffffffff6000602b60808110620002c657620002c562001422565b5b018190555070110a688680a757ffffffffffffffffffff6000602c60808110620002f557620002f462001422565b5b0181905550701056f1b5bedf77ffffffffffffffffffff6000602d6080811062000324576200032362001422565b5b0181905550700faadceceeff8bffffffffffffffffffff6000602e6080811062000353576200035262001422565b5b0181905550700f05dc6b27edadffffffffffffffffffff6000602f6080811062000382576200038162001422565b5b0181905550700e67a5a25da4107fffffffffffffffffff6000603060808110620003b157620003b062001422565b5b0181905550700dcff115b14eedffffffffffffffffffff6000603160808110620003e057620003df62001422565b5b0181905550700d3e7a392431239fffffffffffffffffff60006032608081106200040f576200040e62001422565b5b0181905550700cb2ff529eb71e4fffffffffffffffffff60006033608081106200043e576200043d62001422565b5b0181905550700c2d415c3db974afffffffffffffffffff60006034608081106200046d576200046c62001422565b5b0181905550700bad03e7d883f69bffffffffffffffffff60006035608081106200049c576200049b62001422565b5b0181905550700b320d03b2c343d5ffffffffffffffffff6000603660808110620004cb57620004ca62001422565b5b0181905550700abc25204e02828dffffffffffffffffff6000603760808110620004fa57620004f962001422565b5b0181905550700a4b16f74ee4bb207fffffffffffffffff600060386080811062000529576200052862001422565b5b01819055507009deaf736ac1f569ffffffffffffffffff600060396080811062000558576200055762001422565b5b0181905550700976bd9952c7aa957fffffffffffffffff6000603a6080811062000587576200058662001422565b5b01819055507009131271922eaa606fffffffffffffffff6000603b60808110620005b657620005b562001422565b5b01819055507008b380f3558668c46fffffffffffffffff6000603c60808110620005e557620005e462001422565b5b0181905550700857ddf0117efa215bffffffffffffffff6000603d6080811062000614576200061362001422565b5b01819055507007ffffffffffffffffffffffffffffffff6000603e6080811062000643576200064262001422565b5b01819055507007abbf6f6abb9d087fffffffffffffffff6000603f6080811062000672576200067162001422565b5b018190555070075af62cbac95f7dfa7fffffffffffffff6000604060808110620006a157620006a062001422565b5b018190555070070d7fb7452e187ac13fffffffffffffff6000604160808110620006d057620006cf62001422565b5b01819055507006c3390ecc8af379295fffffffffffffff6000604260808110620006ff57620006fe62001422565b5b018190555070067c00a3b07ffc01fd6fffffffffffffff60006043608081106200072e576200072d62001422565b5b0181905550700637b647c39cbb9d3d27ffffffffffffff60006044608081106200075d576200075c62001422565b5b01819055507005f63b1fc104dbd39587ffffffffffffff60006045608081106200078c576200078b62001422565b5b01819055507005b771955b36e12f7235ffffffffffffff6000604660808110620007bb57620007ba62001422565b5b018190555070057b3d49dda84556d6f6ffffffffffffff6000604760808110620007ea57620007e962001422565b5b018190555070054183095b2c8ececf30ffffffffffffff600060486080811062000819576200081862001422565b5b018190555070050a28be635ca2b888f77fffffffffffff600060496080811062000848576200084762001422565b5b01819055507004d5156639708c9db33c3fffffffffffff6000604a6080811062000877576200087662001422565b5b01819055507004a23105873875bd52dfdfffffffffffff6000604b60808110620008a657620008a562001422565b5b0181905550700471649d87199aa990756fffffffffffff6000604c60808110620008d557620008d462001422565b5b01819055507004429a21a029d4c1457cfbffffffffffff6000604d6080811062000904576200090362001422565b5b0181905550700415bc6d6fb7dd71af2cb3ffffffffffff6000604e6080811062000933576200093262001422565b5b01819055507003eab73b3bbfe282243ce1ffffffffffff6000604f6080811062000962576200096162001422565b5b01819055507003c1771ac9fb6b4c18e229ffffffffffff600060506080811062000991576200099062001422565b5b0181905550700399e96897690418f785257fffffffffff6000605160808110620009c057620009bf62001422565b5b0181905550700373fc456c53bb779bf0ea9fffffffffff6000605260808110620009ef57620009ee62001422565b5b018190555070034f9e8e490c48e67e6ab8bfffffffffff600060536080811062000a1e5762000a1d62001422565b5b018190555070032cbfd4a7adc790560b3337ffffffffff600060546080811062000a4d5762000a4c62001422565b5b018190555070030b50570f6e5d2acca94613ffffffffff600060556080811062000a7c5762000a7b62001422565b5b01819055507002eb40f9f620fda6b56c2861ffffffffff600060566080811062000aab5762000aaa62001422565b5b01819055507002cc8340ecb0d0f520a6af58ffffffffff600060576080811062000ada5762000ad962001422565b5b01819055507002af09481380a0a35cf1ba02ffffffffff600060586080811062000b095762000b0862001422565b5b0181905550700292c5bdd3b92ec810287b1b3fffffffff600060596080811062000b385762000b3762001422565b5b0181905550700277abdcdab07d5a77ac6d6b9fffffffff6000605a6080811062000b675762000b6662001422565b5b018190555070025daf6654b1eaa55fd64df5efffffffff6000605b6080811062000b965762000b9562001422565b5b0181905550700244c49c648baa98192dce88b7ffffffff6000605c6080811062000bc55762000bc462001422565b5b018190555070022ce03cd5619a311b2471268bffffffff6000605d6080811062000bf45762000bf362001422565b5b0181905550700215f77c045fbe885654a44a0fffffffff6000605e6080811062000c235762000c2262001422565b5b01819055507001ffffffffffffffffffffffffffffffff6000605f6080811062000c525762000c5162001422565b5b01819055507001eaefdbdaaee7421fc4d3ede5ffffffff600060606080811062000c815762000c8062001422565b5b01819055507001d6bd8b2eb257df7e8ca57b09bfffffff600060616080811062000cb05762000caf62001422565b5b01819055507001c35fedd14b861eb0443f7f133fffffff600060626080811062000cdf5762000cde62001422565b5b01819055507001b0ce43b322bcde4a56e8ada5afffffff600060636080811062000d0e5762000d0d62001422565b5b018190555070019f0028ec1fff007f5a195a39dfffffff600060646080811062000d3d5762000d3c62001422565b5b018190555070018ded91f0e72ee74f49b15ba527ffffff600060656080811062000d6c5762000d6b62001422565b5b018190555070017d8ec7f04136f4e5615fd41a63ffffff600060666080811062000d9b5762000d9a62001422565b5b018190555070016ddc6556cdb84bdc8d12d22e6fffffff600060676080811062000dca5762000dc962001422565b5b018190555070015ecf52776a1155b5bd8395814f7fffff600060686080811062000df95762000df862001422565b5b018190555070015060c256cb23b3b3cc3754cf40ffffff600060696080811062000e285762000e2762001422565b5b01819055507001428a2f98d728ae223ddab715be3fffff6000606a6080811062000e575762000e5662001422565b5b018190555070013545598e5c23276ccf0ede68034fffff6000606b6080811062000e865762000e8562001422565b5b01819055507001288c4161ce1d6f54b7f61081194fffff6000606c6080811062000eb55762000eb462001422565b5b018190555070011c592761c666aa641d5a01a40f17ffff6000606d6080811062000ee45762000ee362001422565b5b0181905550700110a688680a7530515f3e6e6cfdcdffff6000606e6080811062000f135762000f1262001422565b5b01819055507001056f1b5bedf75c6bcb2ce8aed428ffff6000606f6080811062000f425762000f4162001422565b5b01819055506ffaadceceeff8a0890f3875f008277fff600060706080811062000f705762000f6f62001422565b5b01819055506ff05dc6b27edad306388a600f6ba0bfff600060716080811062000f9e5762000f9d62001422565b5b01819055506fe67a5a25da41063de1495d5b18cdbfff600060726080811062000fcc5762000fcb62001422565b5b01819055506fdcff115b14eedde6fc3aa5353f2e4fff600060736080811062000ffa5762000ff962001422565b5b01819055506fd3e7a3924312399f9aae2e0f868f8fff600060746080811062001028576200102762001422565b5b01819055506fcb2ff529eb71e41582cccd5a1ee26fff600060756080811062001056576200105562001422565b5b01819055506fc2d415c3db974ab32a51840c0b67edff600060766080811062001084576200108362001422565b5b01819055506fbad03e7d883f69ad5b0a186184e06bff6000607760808110620010b257620010b162001422565b5b01819055506fb320d03b2c343d4829abd6075f0cc5ff6000607860808110620010e057620010df62001422565b5b01819055506fabc25204e02828d73c6e80bcdb1a95bf60006079608081106200110e576200110d62001422565b5b01819055506fa4b16f74ee4bb2040a1ec6c15fbbf2df6000607a608081106200113c576200113b62001422565b5b01819055506f9deaf736ac1f569deb1b5ae3f36c130f6000607b608081106200116a576200116962001422565b5b01819055506f976bd9952c7aa957f5937d790ef650376000607c6080811062001198576200119762001422565b5b01819055506f9131271922eaa6064b73a22d0bd4f2bf6000607d60808110620011c657620011c562001422565b5b01819055506f8b380f3558668c46c91c49a2f8e967b96000607e60808110620011f457620011f362001422565b5b01819055506f857ddf0117efa215952912839f6473e66000607f6080811062001222576200122162001422565b5b01819055506040518060800160405280604f8152602001620058e2604f9139805190602001208280519060200120828051906020012030620012696200135460201b60201c565b60001b604051602001620012829594939291906200147d565b60405160208183030381529060405280519060200120608081905550505050508173ffffffffffffffffffffffffffffffffffffffff1660808173ffffffffffffffffffffffffffffffffffffffff168152505082608260006101000a81548173ffffffffffffffffffffffffffffffffffffffff021916908373ffffffffffffffffffffffffffffffffffffffff1602179055508073ffffffffffffffffffffffffffffffffffffffff1660a08173ffffffffffffffffffffffffffffffffffffffff1681525050505050620014da565b600046905090565b600080fd5b600073ffffffffffffffffffffffffffffffffffffffff82169050919050565b60006200138e8262001361565b9050919050565b620013a08162001381565b8114620013ac57600080fd5b50565b600081519050620013c08162001395565b92915050565b600080600060608486031215620013e257620013e16200135c565b5b6000620013f286828701620013af565b93505060206200140586828701620013af565b92505060406200141886828701620013af565b9150509250925092565b7f4e487b7100000000000000000000000000000000000000000000000000000000600052603260045260246000fd5b6000819050919050565b620014668162001451565b82525050565b620014778162001381565b82525050565b600060a0820190506200149460008301886200145b565b620014a360208301876200145b565b620014b260408301866200145b565b620014c160608301856200146c565b620014d060808301846200145b565b9695505050505050565b60805160a0516143bf62001523600039600081816108d001528181610d61015281816111f101526113a9015260008181610c6101528181610c850152610e5a01526143bf6000f3fe6080604052600436106100f35760003560e01c806394ef32511161008a578063d79875eb11610059578063d79875eb14610369578063e757223014610392578063fb5a35ea146103cf578063fc314e31146103fa576100f3565b806394ef32511461029b578063aa8c217c146102c4578063ace4e824146102ef578063b0ee0e9f1461032c576100f3565b8063353f02de116100c6578063353f02de146101cd578063560a28521461020a5780637144878e146102335780638da5cb5b14610270576100f3565b8063071f8521146100f85780630c53c51c1461013557806316f0db5e146101655780632d0335ab14610190575b600080fd5b34801561010457600080fd5b5061011f600480360381019061011a919061333f565b610439565b60405161012c919061338e565b60405180910390f35b61014f600480360381019061014a91906135bc565b610523565b60405161015c91906136d2565b60405180910390f35b34801561017157600080fd5b5061017a610847565b6040516101879190613753565b60405180910390f35b34801561019c57600080fd5b506101b760048036038101906101b2919061376e565b61086d565b6040516101c4919061338e565b60405180910390f35b3480156101d957600080fd5b506101f460048036038101906101ef919061379b565b6108b6565b604051610201919061338e565b60405180910390f35b34801561021657600080fd5b50610231600480360381019061022c91906137c8565b6108ce565b005b34801561023f57600080fd5b5061025a60048036038101906102559190613887565b610b25565b604051610267919061338e565b60405180910390f35b34801561027c57600080fd5b50610285610c5f565b60405161029291906138fd565b60405180910390f35b3480156102a757600080fd5b506102c260048036038101906102bd9190613918565b610c83565b005b3480156102d057600080fd5b506102d9610f47565b6040516102e6919061338e565b60405180910390f35b3480156102fb57600080fd5b506103166004803603810190610311919061333f565b610f4d565b604051610323919061338e565b60405180910390f35b34801561033857600080fd5b50610353600480360381019061034e919061379b565b611037565b604051610360919061338e565b60405180910390f35b34801561037557600080fd5b50610390600480360381019061038b919061333f565b611042565b005b34801561039e57600080fd5b506103b960048036038101906103b4919061379b565b61129a565b6040516103c6919061338e565b60405180910390f35b3480156103db57600080fd5b506103e46113a7565b6040516103f191906138fd565b60405180910390f35b34801561040657600080fd5b50610421600480360381019061041c919061379b565b6113cb565b604051610430939291906139d0565b60405180910390f35b600061051b608260009054906101000a900473ffffffffffffffffffffffffffffffffffffffff1673ffffffffffffffffffffffffffffffffffffffff1663bd85b039856040518263ffffffff1660e01b8152600401610499919061338e565b602060405180830381865afa1580156104b6573d6000803e3d6000fd5b505050506040513d601f19601f820116820180604052508101906104da9190613a1c565b60836000868152602001908152602001600020546084600087815260200190815260200160002060000160009054906101000a900463ffffffff1685611405565b905092915050565b6060600061053086611526565b90506000357fffffffff00000000000000000000000000000000000000000000000000000000167bffffffffffffffffffffffffffffffffffffffffffffffffffffffff1916817bffffffffffffffffffffffffffffffffffffffffffffffffffffffff1916036105d6576040517f08c379a00000000000000000000000000000000000000000000000000000000081526004016105cd90613acc565b60405180910390fd5b60006040518060600160405280608160008b73ffffffffffffffffffffffffffffffffffffffff1673ffffffffffffffffffffffffffffffffffffffff1681526020019081526020016000205481526020018973ffffffffffffffffffffffffffffffffffffffff1681526020018881525090506106578882888888611549565b610696576040517f08c379a000000000000000000000000000000000000000000000000000000000815260040161068d90613b5e565b60405180910390fd5b6106e96001608160008b73ffffffffffffffffffffffffffffffffffffffff1673ffffffffffffffffffffffffffffffffffffffff1681526020019081526020016000205461165790919063ffffffff16565b608160008a73ffffffffffffffffffffffffffffffffffffffff1673ffffffffffffffffffffffffffffffffffffffff168152602001908152602001600020819055506000803073ffffffffffffffffffffffffffffffffffffffff16898b604051602001610759929190613c02565b6040516020818303038152906040526040516107759190613c2a565b6000604051808303816000865af19150503d80600081146107b2576040519150601f19603f3d011682016040523d82523d6000602084013e6107b7565b606091505b5091509150816107fc576040517f08c379a00000000000000000000000000000000000000000000000000000000081526004016107f390613c8d565b60405180910390fd5b7f5845892132946850460bff5a0083f71031bc5bf9aadcd40f1de79423eac9b10b8a338b60405161082f93929190613cce565b60405180910390a18094505050505095945050505050565b608260009054906101000a900473ffffffffffffffffffffffffffffffffffffffff1681565b6000608160008373ffffffffffffffffffffffffffffffffffffffff1673ffffffffffffffffffffffffffffffffffffffff168152602001908152602001600020549050919050565b60836020528060005260406000206000915090505481565b7f000000000000000000000000000000000000000000000000000000000000000073ffffffffffffffffffffffffffffffffffffffff166323b872dd61091261166d565b30856040518463ffffffff1660e01b815260040161093293929190613d0c565b6020604051808303816000875af1158015610951573d6000803e3d6000fd5b505050506040513d601f19601f820116820180604052508101906109759190613d7b565b506000610a58608260009054906101000a900473ffffffffffffffffffffffffffffffffffffffff1673ffffffffffffffffffffffffffffffffffffffff1663bd85b039876040518263ffffffff1660e01b81526004016109d6919061338e565b602060405180830381865afa1580156109f3573d6000803e3d6000fd5b505050506040513d601f19601f82011682018060405250810190610a179190613a1c565b60836000888152602001908152602001600020546084600089815260200190815260200160002060000160009054906101000a900463ffffffff1686610b25565b905082608360008781526020019081526020016000206000828254610a7d9190613dd7565b92505081905550608260009054906101000a900473ffffffffffffffffffffffffffffffffffffffff1673ffffffffffffffffffffffffffffffffffffffff1663731133e9858784866040518563ffffffff1660e01b8152600401610ae59493929190613e0b565b600060405180830381600087803b158015610aff57600080fd5b505af1158015610b13573d6000803e3d6000fd5b50505050806085819055505050505050565b60008085118015610b365750600084115b8015610b48575060008363ffffffff16115b8015610b635750620f424063ffffffff168363ffffffff1611155b610b6c57600080fd5b610baa6040518060400160405280601881526020017f496e697469616c20436f6e646974696f6e732056616c6964000000000000000081525061171d565b60008203610bbb5760009050610c57565b620f424063ffffffff168363ffffffff1603610bf65783610be583876117b690919063ffffffff16565b610bef9190613e86565b9050610c57565b6000806000610c0e878661165790919063ffffffff16565b9050610c1f818888620f42406117cc565b809350819450505060008260ff16610c40858b6117b690919063ffffffff16565b901c90508881610c509190613eb7565b9450505050505b949350505050565b7f000000000000000000000000000000000000000000000000000000000000000081565b7f000000000000000000000000000000000000000000000000000000000000000073ffffffffffffffffffffffffffffffffffffffff16610cc261166d565b73ffffffffffffffffffffffffffffffffffffffff1614610d18576040517f08c379a0000000000000000000000000000000000000000000000000000000008152600401610d0f90613f37565b60405180910390fd5b670de0b6b3a76400008263ffffffff168486610d349190613f57565b610d3e9190613f57565b610d489190613e86565b60836000888152602001908152602001600020819055507f000000000000000000000000000000000000000000000000000000000000000073ffffffffffffffffffffffffffffffffffffffff166323b872dd610da361166d565b30608360008b8152602001908152602001600020546040518463ffffffff1660e01b8152600401610dd693929190613d0c565b6020604051808303816000875af1158015610df5573d6000803e3d6000fd5b505050506040513d601f19601f82011682018060405250810190610e199190613d7b565b50608260009054906101000a900473ffffffffffffffffffffffffffffffffffffffff1673ffffffffffffffffffffffffffffffffffffffff1663731133e97f00000000000000000000000000000000000000000000000000000000000000008887856040518563ffffffff1660e01b8152600401610e9b9493929190613e0b565b600060405180830381600087803b158015610eb557600080fd5b505af1158015610ec9573d6000803e3d6000fd5b5050505060405180606001604052808363ffffffff168152602001868152602001858152506084600088815260200190815260200160002060008201518160000160006101000a81548163ffffffff021916908363ffffffff1602179055506020820151816001015560408201518160020155905050505050505050565b60855481565b600061102f608260009054906101000a900473ffffffffffffffffffffffffffffffffffffffff1673ffffffffffffffffffffffffffffffffffffffff1663bd85b039856040518263ffffffff1660e01b8152600401610fad919061338e565b602060405180830381865afa158015610fca573d6000803e3d6000fd5b505050506040513d601f19601f82011682018060405250810190610fee9190613a1c565b60836000868152602001908152602001600020546084600087815260200190815260200160002060000160009054906101000a900463ffffffff1685610b25565b905092915050565b6000600a9050919050565b6000611124608260009054906101000a900473ffffffffffffffffffffffffffffffffffffffff1673ffffffffffffffffffffffffffffffffffffffff1663bd85b039856040518263ffffffff1660e01b81526004016110a2919061338e565b602060405180830381865afa1580156110bf573d6000803e3d6000fd5b505050506040513d601f19601f820116820180604052508101906110e39190613a1c565b60836000868152602001908152602001600020546084600087815260200190815260200160002060000160009054906101000a900463ffffffff1685611405565b905080608581905550806083600085815260200190815260200160002060008282546111509190613eb7565b92505081905550608260009054906101000a900473ffffffffffffffffffffffffffffffffffffffff1673ffffffffffffffffffffffffffffffffffffffff1663f5298aca61119d61166d565b85856040518463ffffffff1660e01b81526004016111bd93929190613f99565b600060405180830381600087803b1580156111d757600080fd5b505af11580156111eb573d6000803e3d6000fd5b505050507f000000000000000000000000000000000000000000000000000000000000000073ffffffffffffffffffffffffffffffffffffffff1663a9059cbb61123361166d565b836040518363ffffffff1660e01b8152600401611251929190613fd0565b6020604051808303816000875af1158015611270573d6000803e3d6000fd5b505050506040513d601f19601f820116820180604052508101906112949190613d7b565b50505050565b60006084600083815260200190815260200160002060000160009054906101000a900463ffffffff1663ffffffff16608260009054906101000a900473ffffffffffffffffffffffffffffffffffffffff1673ffffffffffffffffffffffffffffffffffffffff1663bd85b039846040518263ffffffff1660e01b8152600401611324919061338e565b602060405180830381865afa158015611341573d6000803e3d6000fd5b505050506040513d601f19601f820116820180604052508101906113659190613a1c565b61136f9190613f57565b670de0b6b3a764000060836000858152602001908152602001600020546113969190613f57565b6113a09190613e86565b9050919050565b7f000000000000000000000000000000000000000000000000000000000000000081565b60846020528060005260406000206000915090508060000160009054906101000a900463ffffffff16908060010154908060020154905083565b600080851180156114165750600084115b8015611428575060008363ffffffff16115b80156114435750620f424063ffffffff168363ffffffff1611155b801561144f5750848211155b61145857600080fd5b60008203611469576000905061151e565b8482036114785783905061151e565b620f424063ffffffff168363ffffffff16036114b357846114a283866117b690919063ffffffff16565b6114ac9190613e86565b905061151e565b600080600084886114c49190613eb7565b90506114d58882620f4240896117cc565b809350819450505060006114f284896117b690919063ffffffff16565b905060008360ff1689901b905084818361150c9190613eb7565b6115169190613e86565b955050505050505b949350505050565b60008082510361153c57600060e01b9050611544565b602082015190505b919050565b600080600161155f61155a886118e0565b611948565b8487876040516000815260200160405260405161157f9493929190614017565b6020604051602081039080840390855afa1580156115a1573d6000803e3d6000fd5b505050602060405103519050600073ffffffffffffffffffffffffffffffffffffffff168173ffffffffffffffffffffffffffffffffffffffff160361161c576040517f08c379a0000000000000000000000000000000000000000000000000000000008152600401611613906140a8565b60405180910390fd5b8673ffffffffffffffffffffffffffffffffffffffff168173ffffffffffffffffffffffffffffffffffffffff161491505095945050505050565b600081836116659190613dd7565b905092915050565b60003073ffffffffffffffffffffffffffffffffffffffff163373ffffffffffffffffffffffffffffffffffffffff160361171657600080368080601f016020809104026020016040519081016040528093929190818152602001838380828437600081840152601f19601f820116905080830192505050505050509050600080369050905073ffffffffffffffffffffffffffffffffffffffff81830151169250505061171a565b3390505b90565b6117b381604051602401611731919061410c565b6040516020818303038152906040527f41304fac000000000000000000000000000000000000000000000000000000007bffffffffffffffffffffffffffffffffffffffffffffffffffffffff19166020820180517bffffffffffffffffffffffffffffffffffffffffffffffffffffffff8381831617835250505050611981565b50565b600081836117c49190613f57565b905092915050565b60008070020000000000000000000000000000000086106117ec57600080fd5b600080866f800000000000000000000000000000008961180c9190613f57565b6118169190613e86565b905070015bf0a8b1457695355fb8ac404e7a79e38110156118415761183a816119a2565b915061184d565b61184a8161211b565b91505b60008563ffffffff168763ffffffff16846118689190613f57565b6118729190613e86565b90507008000000000000000000000000000000008110156118a45761189681612275565b607f945094505050506118d7565b60006118af82612a79565b90506118cd81607f6118c1919061412e565b60ff1683901c82612b57565b8195509550505050505b94509492505050565b600060405180608001604052806043815260200161434760439139805190602001208260000151836020015184604001518051906020012060405160200161192b9493929190614163565b604051602081830303815290604052805190602001209050919050565b6000611952613266565b82604051602001611964929190614220565b604051602081830303815290604052805190602001209050919050565b60006a636f6e736f6c652e6c6f679050600080835160208501845afa505050565b6000806000905060008060006fd3094c70f034de4b96ff7d5b6f99fcd88610611a1d576f40000000000000000000000000000000846119e19190613dd7565b93506fd3094c70f034de4b96ff7d5b6f99fcd86f8000000000000000000000000000000087611a109190613f57565b611a1a9190613e86565b95505b6fa45af1e1f40c333b3de1db4dd55f29a78610611a8c576f2000000000000000000000000000000084611a509190613dd7565b93506fa45af1e1f40c333b3de1db4dd55f29a76f8000000000000000000000000000000087611a7f9190613f57565b611a899190613e86565b95505b6f910b022db7ae67ce76b441c27035c6a18610611afb576f1000000000000000000000000000000084611abf9190613dd7565b93506f910b022db7ae67ce76b441c27035c6a16f8000000000000000000000000000000087611aee9190613f57565b611af89190613e86565b95505b6f88415abbe9a76bead8d00cf112e4d4a88610611b6a576f0800000000000000000000000000000084611b2e9190613dd7565b93506f88415abbe9a76bead8d00cf112e4d4a86f8000000000000000000000000000000087611b5d9190613f57565b611b679190613e86565b95505b6f84102b00893f64c705e841d5d4064bd38610611bd9576f0400000000000000000000000000000084611b9d9190613dd7565b93506f84102b00893f64c705e841d5d4064bd36f8000000000000000000000000000000087611bcc9190613f57565b611bd69190613e86565b95505b6f8204055aaef1c8bd5c3259f4822735a28610611c48576f0200000000000000000000000000000084611c0c9190613dd7565b93506f8204055aaef1c8bd5c3259f4822735a26f8000000000000000000000000000000087611c3b9190613f57565b611c459190613e86565b95505b6f810100ab00222d861931c15e39b44e998610611cb7576f0100000000000000000000000000000084611c7b9190613dd7565b93506f810100ab00222d861931c15e39b44e996f8000000000000000000000000000000087611caa9190613f57565b611cb49190613e86565b95505b6f808040155aabbbe9451521693554f7338610611d25576e80000000000000000000000000000084611ce99190613dd7565b93506f808040155aabbbe9451521693554f7336f8000000000000000000000000000000087611d189190613f57565b611d229190613e86565b95505b6f8000000000000000000000000000000086611d419190613eb7565b92508291506f800000000000000000000000000000008384611d639190613f57565b611d6d9190613e86565b905070010000000000000000000000000000000083700100000000000000000000000000000000611d9e9190613eb7565b83611da99190613f57565b611db39190613e86565b84611dbe9190613dd7565b93506f800000000000000000000000000000008183611ddd9190613f57565b611de79190613e86565b9150700200000000000000000000000000000000836faaaaaaaaaaaaaaaaaaaaaaaaaaaaaaaa611e179190613eb7565b83611e229190613f57565b611e2c9190613e86565b84611e379190613dd7565b93506f800000000000000000000000000000008183611e569190613f57565b611e609190613e86565b9150700300000000000000000000000000000000836f99999999999999999999999999999999611e909190613eb7565b83611e9b9190613f57565b611ea59190613e86565b84611eb09190613dd7565b93506f800000000000000000000000000000008183611ecf9190613f57565b611ed99190613e86565b9150700400000000000000000000000000000000836f92492492492492492492492492492492611f099190613eb7565b83611f149190613f57565b611f1e9190613e86565b84611f299190613dd7565b93506f800000000000000000000000000000008183611f489190613f57565b611f529190613e86565b9150700500000000000000000000000000000000836f8e38e38e38e38e38e38e38e38e38e38e611f829190613eb7565b83611f8d9190613f57565b611f979190613e86565b84611fa29190613dd7565b93506f800000000000000000000000000000008183611fc19190613f57565b611fcb9190613e86565b9150700600000000000000000000000000000000836f8ba2e8ba2e8ba2e8ba2e8ba2e8ba2e8b611ffb9190613eb7565b836120069190613f57565b6120109190613e86565b8461201b9190613dd7565b93506f80000000000000000000000000000000818361203a9190613f57565b6120449190613e86565b9150700700000000000000000000000000000000836f89d89d89d89d89d89d89d89d89d89d896120749190613eb7565b8361207f9190613f57565b6120899190613e86565b846120949190613dd7565b93506f8000000000000000000000000000000081836120b39190613f57565b6120bd9190613e86565b9150700800000000000000000000000000000000836f888888888888888888888888888888886120ed9190613eb7565b836120f89190613f57565b6121029190613e86565b8461210d9190613dd7565b935083945050505050919050565b60008060009050700100000000000000000000000000000000831061218e5760006121606f800000000000000000000000000000008561215b9190613e86565b613270565b90508060ff1684901c93506f800000000000000000000000000000008160ff1661218a9190613f57565b9150505b6f80000000000000000000000000000000831115612236576000607f90505b60008160ff161115612234576f8000000000000000000000000000000084856121d69190613f57565b6121e09190613e86565b9350700100000000000000000000000000000000841061222357600184901c935060018161220e919061412e565b60ff166001901b826122209190613dd7565b91505b8061222d90614257565b90506121ad565b505b6f05b9de1d10bf4103d647b0955897ba806f03f80fe03f80fe03f80fe03f80fe03f8826122639190613f57565b61226d9190613e86565b915050919050565b600080600090506000806f100000000000000000000000000000008561229b9190614280565b91508190506f8000000000000000000000000000000082826122bd9190613f57565b6122c79190613e86565b90506710e1b3be415a0000816122dd9190613f57565b836122e89190613dd7565b92506f8000000000000000000000000000000082826123079190613f57565b6123119190613e86565b90506705a0913f6b1e0000816123279190613f57565b836123329190613dd7565b92506f8000000000000000000000000000000082826123519190613f57565b61235b9190613e86565b9050670168244fdac78000816123719190613f57565b8361237c9190613dd7565b92506f80000000000000000000000000000000828261239b9190613f57565b6123a59190613e86565b9050664807432bc18000816123ba9190613f57565b836123c59190613dd7565b92506f8000000000000000000000000000000082826123e49190613f57565b6123ee9190613e86565b9050660c0135dca04000816124039190613f57565b8361240e9190613dd7565b92506f80000000000000000000000000000000828261242d9190613f57565b6124379190613e86565b90506601b707b1cdc0008161244c9190613f57565b836124579190613dd7565b92506f8000000000000000000000000000000082826124769190613f57565b6124809190613e86565b90506536e0f639b800816124949190613f57565b8361249f9190613dd7565b92506f8000000000000000000000000000000082826124be9190613f57565b6124c89190613e86565b9050650618fee9f800816124dc9190613f57565b836124e79190613dd7565b92506f8000000000000000000000000000000082826125069190613f57565b6125109190613e86565b9050649c197dcc00816125239190613f57565b8361252e9190613dd7565b92506f80000000000000000000000000000000828261254d9190613f57565b6125579190613e86565b9050640e30dce4008161256a9190613f57565b836125759190613dd7565b92506f8000000000000000000000000000000082826125949190613f57565b61259e9190613e86565b905064012ebd1300816125b19190613f57565b836125bc9190613dd7565b92506f8000000000000000000000000000000082826125db9190613f57565b6125e59190613e86565b90506317499f00816125f79190613f57565b836126029190613dd7565b92506f8000000000000000000000000000000082826126219190613f57565b61262b9190613e86565b90506301a9d4808161263d9190613f57565b836126489190613dd7565b92506f8000000000000000000000000000000082826126679190613f57565b6126719190613e86565b9050621c6380816126829190613f57565b8361268d9190613dd7565b92506f8000000000000000000000000000000082826126ac9190613f57565b6126b69190613e86565b90506201c638816126c79190613f57565b836126d29190613dd7565b92506f8000000000000000000000000000000082826126f19190613f57565b6126fb9190613e86565b9050611ab88161270b9190613f57565b836127169190613dd7565b92506f8000000000000000000000000000000082826127359190613f57565b61273f9190613e86565b905061017c8161274f9190613f57565b8361275a9190613dd7565b92506f8000000000000000000000000000000082826127799190613f57565b6127839190613e86565b90506014816127929190613f57565b8361279d9190613dd7565b92506f8000000000000000000000000000000082826127bc9190613f57565b6127c69190613e86565b90506001816127d59190613f57565b836127e09190613dd7565b92506f80000000000000000000000000000000826721c3677c82b40000856128089190613e86565b6128129190613dd7565b61281c9190613dd7565b925060006f100000000000000000000000000000008616146128745770018ebef9eac820ae8682b9793ac6d1e7767001c3d6a24ed82218787d624d3e5eba95f9846128679190613f57565b6128719190613e86565b92505b60006f200000000000000000000000000000008616146128ca577001368b2fc6f9609fe7aceb46aa619baed470018ebef9eac820ae8682b9793ac6d1e778846128bd9190613f57565b6128c79190613e86565b92505b60006f4000000000000000000000000000000086161461291f576fbc5ab1b16779be3575bd8f0520a9f21f7001368b2fc6f9609fe7aceb46aa619baed5846129129190613f57565b61291c9190613e86565b92505b60006f80000000000000000000000000000000861614612973576f454aaa8efe072e7f6ddbab84b40a55c96fbc5ab1b16779be3575bd8f0520a9f21e846129669190613f57565b6129709190613e86565b92505b60007001000000000000000000000000000000008616146129c8576f0960aadc109e7a3bf4578099615711ea6f454aaa8efe072e7f6ddbab84b40a55c5846129bb9190613f57565b6129c59190613e86565b92505b6000700200000000000000000000000000000000861614612a1c576e2bf84208204f5977f9a8cf01fdce3d6f0960aadc109e7a3bf4578099615711d784612a0f9190613f57565b612a199190613e86565b92505b6000700400000000000000000000000000000000861614612a6e576d03c6ab775dd0b95b4cbee7e65d116e2bf84208204f5977f9a8cf01fdc30784612a619190613f57565b612a6b9190613e86565b92505b829350505050919050565b600080602090506000607f90505b8060ff16600183612a9891906142b1565b60ff161015612aee57600060028284612ab191906142b1565b612abb91906142e6565b90508460008260ff1660808110612ad557612ad4614317565b5b015410612ae457809250612ae8565b8091505b50612a87565b8360008260ff1660808110612b0657612b05614317565b5b015410612b17578092505050612b52565b8360008360ff1660808110612b2f57612b2e614317565b5b015410612b40578192505050612b52565b6000612b4b57600080fd5b6000925050505b919050565b60008083905060008360ff168583612b6f9190613f57565b901c91506f03442c4e6074a82f1797f72ac000000082612b8f9190613f57565b81612b9a9190613dd7565b90508360ff168583612bac9190613f57565b901c91506f0116b96f757c380fb287fd0e4000000082612bcc9190613f57565b81612bd79190613dd7565b90508360ff168583612be99190613f57565b901c91506e45ae5bdd5f0e03eca1ff439000000082612c089190613f57565b81612c139190613dd7565b90508360ff168583612c259190613f57565b901c91506e0defabf91302cd95b9ffda5000000082612c449190613f57565b81612c4f9190613dd7565b90508360ff168583612c619190613f57565b901c91506e02529ca9832b22439efff9b800000082612c809190613f57565b81612c8b9190613dd7565b90508360ff168583612c9d9190613f57565b901c91506d54f1cf12bd04e516b6da8800000082612cbb9190613f57565b81612cc69190613dd7565b90508360ff168583612cd89190613f57565b901c91506d0a9e39e257a09ca2d6db5100000082612cf69190613f57565b81612d019190613dd7565b90508360ff168583612d139190613f57565b901c91506d012e066e7b839fa050c30900000082612d319190613f57565b81612d3c9190613dd7565b90508360ff168583612d4e9190613f57565b901c91506c1e33d7d926c329a1ad1a80000082612d6b9190613f57565b81612d769190613dd7565b90508360ff168583612d889190613f57565b901c91506c02bee513bdb4a6b19b5f80000082612da59190613f57565b81612db09190613dd7565b90508360ff168583612dc29190613f57565b901c91506b3a9316fa79b88eccf2a0000082612dde9190613f57565b81612de99190613dd7565b90508360ff168583612dfb9190613f57565b901c91506b048177ebe1fa81237520000082612e179190613f57565b81612e229190613dd7565b90508360ff168583612e349190613f57565b901c91506a5263fe90242dcbacf0000082612e4f9190613f57565b81612e5a9190613dd7565b90508360ff168583612e6c9190613f57565b901c91506a057e22099c030d9410000082612e879190613f57565b81612e929190613dd7565b90508360ff168583612ea49190613f57565b901c91506957e22099c030d941000082612ebe9190613f57565b81612ec99190613dd7565b90508360ff168583612edb9190613f57565b901c915069052b6b5456997631000082612ef59190613f57565b81612f009190613dd7565b90508360ff168583612f129190613f57565b901c9150684985f67696bf74800082612f2b9190613f57565b81612f369190613dd7565b90508360ff168583612f489190613f57565b901c91506803dea12ea99e49800082612f619190613f57565b81612f6c9190613dd7565b90508360ff168583612f7e9190613f57565b901c91506731880f2214b6e00082612f969190613f57565b81612fa19190613dd7565b90508360ff168583612fb39190613f57565b901c915067025bcff56eb3600082612fcb9190613f57565b81612fd69190613dd7565b90508360ff168583612fe89190613f57565b901c9150661b722e10ab100082612fff9190613f57565b8161300a9190613dd7565b90508360ff16858361301c9190613f57565b901c91506601317c70077000826130339190613f57565b8161303e9190613dd7565b90508360ff1685836130509190613f57565b901c9150650cba84aafa00826130669190613f57565b816130719190613dd7565b90508360ff1685836130839190613f57565b901c91506482573a0a00826130989190613f57565b816130a39190613dd7565b90508360ff1685836130b59190613f57565b901c91506405035ad900826130ca9190613f57565b816130d59190613dd7565b90508360ff1685836130e79190613f57565b901c9150632f881b00826130fb9190613f57565b816131069190613dd7565b90508360ff1685836131189190613f57565b901c91506301b293408261312c9190613f57565b816131379190613dd7565b90508360ff1685836131499190613f57565b901c9150620efc408261315c9190613f57565b816131679190613dd7565b90508360ff1685836131799190613f57565b901c9150617fe08261318b9190613f57565b816131969190613dd7565b90508360ff1685836131a89190613f57565b901c9150610420826131ba9190613f57565b816131c59190613dd7565b90508360ff1685836131d79190613f57565b901c91506021826131e89190613f57565b816131f39190613dd7565b90508360ff1685836132059190613f57565b901c91506001826132169190613f57565b816132219190613dd7565b90508360ff166001901b856f0688589cc0e9505e2f2fee5580000000836132489190613e86565b6132529190613dd7565b61325c9190613dd7565b9250505092915050565b6000608054905090565b600080600090506101008310156132ab575b60018311156132a657600183901c925060018161329f91906142b1565b9050613282565b6132ec565b6000608090505b60008160ff1611156132ea578060ff166001901b84106132db578060ff1684901c935080821791505b60018160ff16901c90506132b2565b505b80915050919050565b6000604051905090565b600080fd5b600080fd5b6000819050919050565b61331c81613309565b811461332757600080fd5b50565b60008135905061333981613313565b92915050565b60008060408385031215613356576133556132ff565b5b60006133648582860161332a565b92505060206133758582860161332a565b9150509250929050565b61338881613309565b82525050565b60006020820190506133a3600083018461337f565b92915050565b600073ffffffffffffffffffffffffffffffffffffffff82169050919050565b60006133d4826133a9565b9050919050565b6133e4816133c9565b81146133ef57600080fd5b50565b600081359050613401816133db565b92915050565b600080fd5b600080fd5b6000601f19601f8301169050919050565b7f4e487b7100000000000000000000000000000000000000000000000000000000600052604160045260246000fd5b61345a82613411565b810181811067ffffffffffffffff8211171561347957613478613422565b5b80604052505050565b600061348c6132f5565b90506134988282613451565b919050565b600067ffffffffffffffff8211156134b8576134b7613422565b5b6134c182613411565b9050602081019050919050565b82818337600083830152505050565b60006134f06134eb8461349d565b613482565b90508281526020810184848401111561350c5761350b61340c565b5b6135178482856134ce565b509392505050565b600082601f83011261353457613533613407565b5b81356135448482602086016134dd565b91505092915050565b6000819050919050565b6135608161354d565b811461356b57600080fd5b50565b60008135905061357d81613557565b92915050565b600060ff82169050919050565b61359981613583565b81146135a457600080fd5b50565b6000813590506135b681613590565b92915050565b600080600080600060a086880312156135d8576135d76132ff565b5b60006135e6888289016133f2565b955050602086013567ffffffffffffffff81111561360757613606613304565b5b6136138882890161351f565b94505060406136248882890161356e565b93505060606136358882890161356e565b9250506080613646888289016135a7565b9150509295509295909350565b600081519050919050565b600082825260208201905092915050565b60005b8381101561368d578082015181840152602081019050613672565b60008484015250505050565b60006136a482613653565b6136ae818561365e565b93506136be81856020860161366f565b6136c781613411565b840191505092915050565b600060208201905081810360008301526136ec8184613699565b905092915050565b6000819050919050565b600061371961371461370f846133a9565b6136f4565b6133a9565b9050919050565b600061372b826136fe565b9050919050565b600061373d82613720565b9050919050565b61374d81613732565b82525050565b60006020820190506137686000830184613744565b92915050565b600060208284031215613784576137836132ff565b5b6000613792848285016133f2565b91505092915050565b6000602082840312156137b1576137b06132ff565b5b60006137bf8482850161332a565b91505092915050565b600080600080608085870312156137e2576137e16132ff565b5b60006137f08782880161332a565b9450506020613801878288016133f2565b93505060406138128782880161332a565b925050606085013567ffffffffffffffff81111561383357613832613304565b5b61383f8782880161351f565b91505092959194509250565b600063ffffffff82169050919050565b6138648161384b565b811461386f57600080fd5b50565b6000813590506138818161385b565b92915050565b600080600080608085870312156138a1576138a06132ff565b5b60006138af8782880161332a565b94505060206138c08782880161332a565b93505060406138d187828801613872565b92505060606138e28782880161332a565b91505092959194509250565b6138f7816133c9565b82525050565b600060208201905061391260008301846138ee565b92915050565b60008060008060008060c08789031215613935576139346132ff565b5b600061394389828a0161332a565b965050602061395489828a0161332a565b955050604061396589828a0161332a565b945050606061397689828a0161332a565b935050608061398789828a01613872565b92505060a087013567ffffffffffffffff8111156139a8576139a7613304565b5b6139b489828a0161351f565b9150509295509295509295565b6139ca8161384b565b82525050565b60006060820190506139e560008301866139c1565b6139f2602083018561337f565b6139ff604083018461337f565b949350505050565b600081519050613a1681613313565b92915050565b600060208284031215613a3257613a316132ff565b5b6000613a4084828501613a07565b91505092915050565b600082825260208201905092915050565b7f66756e6374696f6e5369676e61747572652063616e206e6f74206265206f662060008201527f657865637574654d6574615472616e73616374696f6e206d6574686f64000000602082015250565b6000613ab6603d83613a49565b9150613ac182613a5a565b604082019050919050565b60006020820190508181036000830152613ae581613aa9565b9050919050565b7f5369676e657220616e64207369676e617475726520646f206e6f74206d61746360008201527f6800000000000000000000000000000000000000000000000000000000000000602082015250565b6000613b48602183613a49565b9150613b5382613aec565b604082019050919050565b60006020820190508181036000830152613b7781613b3b565b9050919050565b600081905092915050565b6000613b9482613653565b613b9e8185613b7e565b9350613bae81856020860161366f565b80840191505092915050565b60008160601b9050919050565b6000613bd282613bba565b9050919050565b6000613be482613bc7565b9050919050565b613bfc613bf7826133c9565b613bd9565b82525050565b6000613c0e8285613b89565b9150613c1a8284613beb565b6014820191508190509392505050565b6000613c368284613b89565b915081905092915050565b7f46756e6374696f6e2063616c6c206e6f74207375636365737366756c00000000600082015250565b6000613c77601c83613a49565b9150613c8282613c41565b602082019050919050565b60006020820190508181036000830152613ca681613c6a565b9050919050565b6000613cb8826133a9565b9050919050565b613cc881613cad565b82525050565b6000606082019050613ce360008301866138ee565b613cf06020830185613cbf565b8181036040830152613d028184613699565b9050949350505050565b6000606082019050613d2160008301866138ee565b613d2e60208301856138ee565b613d3b604083018461337f565b949350505050565b60008115159050919050565b613d5881613d43565b8114613d6357600080fd5b50565b600081519050613d7581613d4f565b92915050565b600060208284031215613d9157613d906132ff565b5b6000613d9f84828501613d66565b91505092915050565b7f4e487b7100000000000000000000000000000000000000000000000000000000600052601160045260246000fd5b6000613de282613309565b9150613ded83613309565b9250828201905080821115613e0557613e04613da8565b5b92915050565b6000608082019050613e2060008301876138ee565b613e2d602083018661337f565b613e3a604083018561337f565b8181036060830152613e4c8184613699565b905095945050505050565b7f4e487b7100000000000000000000000000000000000000000000000000000000600052601260045260246000fd5b6000613e9182613309565b9150613e9c83613309565b925082613eac57613eab613e57565b5b828204905092915050565b6000613ec282613309565b9150613ecd83613309565b9250828203905081811115613ee557613ee4613da8565b5b92915050565b7f4f6e6c79206f776e65722063616e2063616c6c207468652066756e6374696f6e600082015250565b6000613f21602083613a49565b9150613f2c82613eeb565b602082019050919050565b60006020820190508181036000830152613f5081613f14565b9050919050565b6000613f6282613309565b9150613f6d83613309565b9250828202613f7b81613309565b91508282048414831517613f9257613f91613da8565b5b5092915050565b6000606082019050613fae60008301866138ee565b613fbb602083018561337f565b613fc8604083018461337f565b949350505050565b6000604082019050613fe560008301856138ee565b613ff2602083018461337f565b9392505050565b6140028161354d565b82525050565b61401181613583565b82525050565b600060808201905061402c6000830187613ff9565b6140396020830186614008565b6140466040830185613ff9565b6140536060830184613ff9565b95945050505050565b7f496e76616c6964207369676e6174757265000000000000000000000000000000600082015250565b6000614092601183613a49565b915061409d8261405c565b602082019050919050565b600060208201905081810360008301526140c181614085565b9050919050565b600081519050919050565b60006140de826140c8565b6140e88185613a49565b93506140f881856020860161366f565b61410181613411565b840191505092915050565b6000602082019050818103600083015261412681846140d3565b905092915050565b600061413982613583565b915061414483613583565b9250828203905060ff81111561415d5761415c613da8565b5b92915050565b60006080820190506141786000830187613ff9565b614185602083018661337f565b61419260408301856138ee565b61419f6060830184613ff9565b95945050505050565b600081905092915050565b7f1901000000000000000000000000000000000000000000000000000000000000600082015250565b60006141e96002836141a8565b91506141f4826141b3565b600282019050919050565b6000819050919050565b61421a6142158261354d565b6141ff565b82525050565b600061422b826141dc565b91506142378285614209565b6020820191506142478284614209565b6020820191508190509392505050565b600061426282613583565b91506000820361427557614274613da8565b5b600182039050919050565b600061428b82613309565b915061429683613309565b9250826142a6576142a5613e57565b5b828206905092915050565b60006142bc82613583565b91506142c783613583565b9250828201905060ff8111156142e0576142df613da8565b5b92915050565b60006142f182613583565b91506142fc83613583565b92508261430c5761430b613e57565b5b828204905092915050565b7f4e487b7100000000000000000000000000000000000000000000000000000000600052603260045260246000fdfe4d6574615472616e73616374696f6e2875696e74323536206e6f6e63652c616464726573732066726f6d2c62797465732066756e6374696f6e5369676e617475726529a2646970667358221220dae49800937884efc8537f48bff1ca26be2bd6ff86c19b33479ccc10f44bc88964736f6c63430008110033454950373132446f6d61696e28737472696e67206e616d652c737472696e672076657273696f6e2c6164647265737320766572696679696e67436f6e74726163742c627974657333322073616c7429",
  "devdoc": {
    "kind": "dev",
    "methods": {
      "_calculatePurchaseReturn(uint256,uint256,uint32,uint256)": {
        "details": "given a token supply, connector balance, weight and a deposit amount (in the connector token), calculates the return for a given conversion (in the main token) Formula: Return = _supply * ((1 + _depositAmount / _connectorBalance) ^ (_connectorWeight / 1000000) - 1) _depositAmount = [ exp{ log((Number/_supply) + 1) / (_connectorWeight / 1000000) } - 1  ] * _connectorBalance",
        "params": {
          "_connectorBalance": "total connector balance",
          "_connectorWeight": "connector weight, represented in ppm, 1-1000000",
          "_depositAmount": "deposit amount, in connector token",
          "_supply": "token total supply"
        },
        "returns": {
          "_0": "purchase return amount"
        }
      }
    },
    "version": 1
  },
  "userdoc": {
    "kind": "user",
    "methods": {},
    "version": 1
  },
  "storageLayout": {
    "storage": [
      {
        "astId": 7860,
        "contract": "contracts/CarbonCreditDEX.sol:CarbonCreditDEX",
        "label": "maxExpArray",
        "offset": 0,
        "slot": "0",
        "type": "t_array(t_uint256)128_storage"
      },
      {
        "astId": 10983,
        "contract": "contracts/CarbonCreditDEX.sol:CarbonCreditDEX",
        "label": "domainSeparator",
        "offset": 0,
        "slot": "128",
        "type": "t_bytes32"
      },
      {
        "astId": 11085,
        "contract": "contracts/CarbonCreditDEX.sol:CarbonCreditDEX",
        "label": "nonces",
        "offset": 0,
        "slot": "129",
        "type": "t_mapping(t_address,t_uint256)"
      },
      {
        "astId": 10254,
        "contract": "contracts/CarbonCreditDEX.sol:CarbonCreditDEX",
        "label": "carbonCredits",
        "offset": 0,
        "slot": "130",
        "type": "t_contract(CarbonCredits)10829"
      },
      {
        "astId": 10269,
        "contract": "contracts/CarbonCreditDEX.sol:CarbonCreditDEX",
        "label": "reserveBalances",
        "offset": 0,
        "slot": "131",
        "type": "t_mapping(t_uint256,t_uint256)"
      },
      {
        "astId": 10274,
        "contract": "contracts/CarbonCreditDEX.sol:CarbonCreditDEX",
        "label": "tokenDetails",
        "offset": 0,
        "slot": "132",
        "type": "t_mapping(t_uint256,t_struct(TokenDetails)10265_storage)"
      },
      {
        "astId": 10276,
        "contract": "contracts/CarbonCreditDEX.sol:CarbonCreditDEX",
        "label": "amount",
        "offset": 0,
        "slot": "133",
        "type": "t_uint256"
      }
    ],
    "types": {
      "t_address": {
        "encoding": "inplace",
        "label": "address",
        "numberOfBytes": "20"
      },
      "t_array(t_uint256)128_storage": {
        "base": "t_uint256",
        "encoding": "inplace",
        "label": "uint256[128]",
        "numberOfBytes": "4096"
      },
      "t_bytes32": {
        "encoding": "inplace",
        "label": "bytes32",
        "numberOfBytes": "32"
      },
      "t_contract(CarbonCredits)10829": {
        "encoding": "inplace",
        "label": "contract CarbonCredits",
        "numberOfBytes": "20"
      },
      "t_mapping(t_address,t_uint256)": {
        "encoding": "mapping",
        "key": "t_address",
        "label": "mapping(address => uint256)",
        "numberOfBytes": "32",
        "value": "t_uint256"
      },
      "t_mapping(t_uint256,t_struct(TokenDetails)10265_storage)": {
        "encoding": "mapping",
        "key": "t_uint256",
        "label": "mapping(uint256 => struct CarbonCreditDEX.TokenDetails)",
        "numberOfBytes": "32",
        "value": "t_struct(TokenDetails)10265_storage"
      },
      "t_mapping(t_uint256,t_uint256)": {
        "encoding": "mapping",
        "key": "t_uint256",
        "label": "mapping(uint256 => uint256)",
        "numberOfBytes": "32",
        "value": "t_uint256"
      },
      "t_struct(TokenDetails)10265_storage": {
        "encoding": "inplace",
        "label": "struct CarbonCreditDEX.TokenDetails",
        "members": [
          {
            "astId": 10260,
            "contract": "contracts/CarbonCreditDEX.sol:CarbonCreditDEX",
            "label": "RESERVE_RATIO",
            "offset": 0,
            "slot": "0",
            "type": "t_uint32"
          },
          {
            "astId": 10262,
            "contract": "contracts/CarbonCreditDEX.sol:CarbonCreditDEX",
            "label": "_fee",
            "offset": 0,
            "slot": "1",
            "type": "t_uint256"
          },
          {
            "astId": 10264,
            "contract": "contracts/CarbonCreditDEX.sol:CarbonCreditDEX",
            "label": "initialSupply",
            "offset": 0,
            "slot": "2",
            "type": "t_uint256"
          }
        ],
        "numberOfBytes": "96"
      },
      "t_uint256": {
        "encoding": "inplace",
        "label": "uint256",
        "numberOfBytes": "32"
      },
      "t_uint32": {
        "encoding": "inplace",
        "label": "uint32",
        "numberOfBytes": "4"
      }
    }
  }
}