{
  "address": "0xA6f8ED4ef8B11E5bD0970Ae6bcf7684ba9930b96",
  "abi": [
    {
      "inputs": [
        {
          "internalType": "address",
          "name": "oracle",
          "type": "address"
        }
      ],
      "stateMutability": "nonpayable",
      "type": "constructor"
    },
    {
      "inputs": [],
      "name": "EmptyArgs",
      "type": "error"
    },
    {
      "inputs": [],
      "name": "EmptySecrets",
      "type": "error"
    },
    {
      "inputs": [],
      "name": "EmptySource",
      "type": "error"
    },
    {
      "inputs": [],
      "name": "RequestIsAlreadyPending",
      "type": "error"
    },
    {
      "inputs": [],
      "name": "RequestIsNotPending",
      "type": "error"
    },
    {
      "inputs": [],
      "name": "SenderIsNotRegistry",
      "type": "error"
    },
    {
      "anonymous": false,
      "inputs": [
        {
          "indexed": true,
          "internalType": "address",
          "name": "owner",
          "type": "address"
        },
        {
          "indexed": true,
          "internalType": "address",
          "name": "approved",
          "type": "address"
        },
        {
          "indexed": true,
          "internalType": "uint256",
          "name": "tokenId",
          "type": "uint256"
        }
      ],
      "name": "Approval",
      "type": "event"
    },
    {
      "anonymous": false,
      "inputs": [
        {
          "indexed": true,
          "internalType": "address",
          "name": "owner",
          "type": "address"
        },
        {
          "indexed": true,
          "internalType": "address",
          "name": "operator",
          "type": "address"
        },
        {
          "indexed": false,
          "internalType": "bool",
          "name": "approved",
          "type": "bool"
        }
      ],
      "name": "ApprovalForAll",
      "type": "event"
    },
    {
      "anonymous": false,
      "inputs": [
        {
          "indexed": false,
          "internalType": "uint256",
          "name": "_fromTokenId",
          "type": "uint256"
        },
        {
          "indexed": false,
          "internalType": "uint256",
          "name": "_toTokenId",
          "type": "uint256"
        }
      ],
      "name": "BatchMetadataUpdate",
      "type": "event"
    },
    {
      "anonymous": false,
      "inputs": [
        {
          "indexed": false,
          "internalType": "uint256",
          "name": "_tokenId",
          "type": "uint256"
        }
      ],
      "name": "MetadataUpdate",
      "type": "event"
    },
    {
      "anonymous": false,
      "inputs": [
        {
          "indexed": true,
          "internalType": "bytes32",
          "name": "requestId",
          "type": "bytes32"
        },
        {
          "indexed": false,
          "internalType": "bytes",
          "name": "result",
          "type": "bytes"
        },
        {
          "indexed": false,
          "internalType": "bytes",
          "name": "err",
          "type": "bytes"
        }
      ],
      "name": "OCRResponse",
      "type": "event"
    },
    {
      "anonymous": false,
      "inputs": [
        {
          "indexed": true,
          "internalType": "address",
          "name": "from",
          "type": "address"
        },
        {
          "indexed": true,
          "internalType": "address",
          "name": "to",
          "type": "address"
        }
      ],
      "name": "OwnershipTransferRequested",
      "type": "event"
    },
    {
      "anonymous": false,
      "inputs": [
        {
          "indexed": true,
          "internalType": "address",
          "name": "from",
          "type": "address"
        },
        {
          "indexed": true,
          "internalType": "address",
          "name": "to",
          "type": "address"
        }
      ],
      "name": "OwnershipTransferred",
      "type": "event"
    },
    {
      "anonymous": false,
      "inputs": [
        {
          "indexed": true,
          "internalType": "bytes32",
          "name": "id",
          "type": "bytes32"
        }
      ],
      "name": "RequestFulfilled",
      "type": "event"
    },
    {
      "anonymous": false,
      "inputs": [
        {
          "indexed": true,
          "internalType": "bytes32",
          "name": "id",
          "type": "bytes32"
        }
      ],
      "name": "RequestSent",
      "type": "event"
    },
    {
      "anonymous": false,
      "inputs": [
        {
          "indexed": false,
          "internalType": "uint256",
          "name": "tokenId",
          "type": "uint256"
        },
        {
          "indexed": false,
          "internalType": "string",
          "name": "tokenURI",
          "type": "string"
        }
      ],
      "name": "SBT_Burnt",
      "type": "event"
    },
    {
      "anonymous": false,
      "inputs": [
        {
          "indexed": true,
          "internalType": "address",
          "name": "from",
          "type": "address"
        },
        {
          "indexed": true,
          "internalType": "address",
          "name": "to",
          "type": "address"
        },
        {
          "indexed": true,
          "internalType": "uint256",
          "name": "tokenId",
          "type": "uint256"
        }
      ],
      "name": "Transfer",
      "type": "event"
    },
    {
      "inputs": [],
      "name": "acceptOwnership",
      "outputs": [],
      "stateMutability": "nonpayable",
      "type": "function"
    },
    {
      "inputs": [
        {
          "internalType": "string",
          "name": "name",
          "type": "string"
        },
        {
          "internalType": "string",
          "name": "description",
          "type": "string"
        },
        {
          "internalType": "address",
          "name": "institute_adress",
          "type": "address"
        }
      ],
      "name": "addInstitute",
      "outputs": [],
      "stateMutability": "nonpayable",
      "type": "function"
    },
    {
      "inputs": [
        {
          "internalType": "address",
          "name": "oracleAddress",
          "type": "address"
        },
        {
          "internalType": "bytes32",
          "name": "requestId",
          "type": "bytes32"
        }
      ],
      "name": "addSimulatedRequestId",
      "outputs": [],
      "stateMutability": "nonpayable",
      "type": "function"
    },
    {
      "inputs": [
        {
          "internalType": "address",
          "name": "_to",
          "type": "address"
        },
        {
          "internalType": "uint256",
          "name": "_tokenId",
          "type": "uint256"
        }
      ],
      "name": "approve",
      "outputs": [],
      "stateMutability": "nonpayable",
      "type": "function"
    },
    {
      "inputs": [
        {
          "internalType": "address",
          "name": "owner",
          "type": "address"
        }
      ],
      "name": "balanceOf",
      "outputs": [
        {
          "internalType": "uint256",
          "name": "",
          "type": "uint256"
        }
      ],
      "stateMutability": "view",
      "type": "function"
    },
    {
      "inputs": [
        {
          "internalType": "uint256",
          "name": "tokenId",
          "type": "uint256"
        }
      ],
      "name": "burn",
      "outputs": [],
      "stateMutability": "nonpayable",
      "type": "function"
    },
    {
      "inputs": [
        {
          "components": [
            {
              "internalType": "enum Functions.Location",
              "name": "codeLocation",
              "type": "uint8"
            },
            {
              "internalType": "enum Functions.Location",
              "name": "secretsLocation",
              "type": "uint8"
            },
            {
              "internalType": "enum Functions.CodeLanguage",
              "name": "language",
              "type": "uint8"
            },
            {
              "internalType": "string",
              "name": "source",
              "type": "string"
            },
            {
              "internalType": "bytes",
              "name": "secrets",
              "type": "bytes"
            },
            {
              "internalType": "string[]",
              "name": "args",
              "type": "string[]"
            }
          ],
          "internalType": "struct Functions.Request",
          "name": "req",
          "type": "tuple"
        },
        {
          "internalType": "uint64",
          "name": "subscriptionId",
          "type": "uint64"
        },
        {
          "internalType": "uint32",
          "name": "gasLimit",
          "type": "uint32"
        },
        {
          "internalType": "uint256",
          "name": "gasPrice",
          "type": "uint256"
        }
      ],
      "name": "estimateCost",
      "outputs": [
        {
          "internalType": "uint96",
          "name": "",
          "type": "uint96"
        }
      ],
      "stateMutability": "view",
      "type": "function"
    },
    {
      "inputs": [
        {
          "internalType": "string",
          "name": "source",
          "type": "string"
        },
        {
          "internalType": "bytes",
          "name": "secrets",
          "type": "bytes"
        },
        {
          "internalType": "string[]",
          "name": "args",
          "type": "string[]"
        },
        {
          "internalType": "uint64",
          "name": "subscriptionId",
          "type": "uint64"
        },
        {
          "internalType": "uint32",
          "name": "gasLimit",
          "type": "uint32"
        }
      ],
      "name": "executeRequest",
      "outputs": [
        {
          "internalType": "bytes32",
          "name": "",
          "type": "bytes32"
        }
      ],
      "stateMutability": "nonpayable",
      "type": "function"
    },
    {
      "inputs": [],
      "name": "gasLimit",
      "outputs": [
        {
          "internalType": "uint32",
          "name": "",
          "type": "uint32"
        }
      ],
      "stateMutability": "view",
      "type": "function"
    },
    {
      "inputs": [
        {
          "internalType": "uint256",
          "name": "_tokenId",
          "type": "uint256"
        }
      ],
      "name": "getApproved",
      "outputs": [
        {
          "internalType": "address",
          "name": "",
          "type": "address"
        }
      ],
      "stateMutability": "view",
      "type": "function"
    },
    {
      "inputs": [],
      "name": "getDONPublicKey",
      "outputs": [
        {
          "internalType": "bytes",
          "name": "",
          "type": "bytes"
        }
      ],
      "stateMutability": "view",
      "type": "function"
    },
    {
      "inputs": [
        {
          "internalType": "bytes32",
          "name": "requestId",
          "type": "bytes32"
        },
        {
          "internalType": "bytes",
          "name": "response",
          "type": "bytes"
        },
        {
          "internalType": "bytes",
          "name": "err",
          "type": "bytes"
        }
      ],
      "name": "handleOracleFulfillment",
      "outputs": [],
      "stateMutability": "nonpayable",
      "type": "function"
    },
    {
      "inputs": [],
      "name": "instituteCount",
      "outputs": [
        {
          "internalType": "uint256",
          "name": "",
          "type": "uint256"
        }
      ],
      "stateMutability": "view",
      "type": "function"
    },
    {
      "inputs": [
        {
          "internalType": "address",
          "name": "institute_adress",
          "type": "address"
        }
      ],
      "name": "instituteInfo",
      "outputs": [
        {
          "components": [
            {
              "internalType": "string",
              "name": "name",
              "type": "string"
            },
            {
              "internalType": "string",
              "name": "description",
              "type": "string"
            },
            {
              "internalType": "bool",
              "name": "active",
              "type": "bool"
            }
          ],
          "internalType": "struct Institutes.Institute",
          "name": "",
          "type": "tuple"
        }
      ],
      "stateMutability": "view",
      "type": "function"
    },
    {
      "inputs": [],
      "name": "instituteList",
      "outputs": [
        {
          "internalType": "address[]",
          "name": "",
          "type": "address[]"
        }
      ],
      "stateMutability": "view",
      "type": "function"
    },
    {
      "inputs": [
        {
          "internalType": "address",
          "name": "owner",
          "type": "address"
        },
        {
          "internalType": "address",
          "name": "operator",
          "type": "address"
        }
      ],
      "name": "isApprovedForAll",
      "outputs": [
        {
          "internalType": "bool",
          "name": "",
          "type": "bool"
        }
      ],
      "stateMutability": "view",
      "type": "function"
    },
    {
      "inputs": [
        {
          "internalType": "address",
          "name": "_admin",
          "type": "address"
        }
      ],
      "name": "is_admin",
      "outputs": [
        {
          "internalType": "bool",
          "name": "",
          "type": "bool"
        }
      ],
      "stateMutability": "view",
      "type": "function"
    },
    {
      "inputs": [
        {
          "internalType": "address",
          "name": "_institute",
          "type": "address"
        }
      ],
      "name": "is_institute",
      "outputs": [
        {
          "internalType": "bool",
          "name": "",
          "type": "bool"
        }
      ],
      "stateMutability": "view",
      "type": "function"
    },
    {
      "inputs": [],
      "name": "latestError",
      "outputs": [
        {
          "internalType": "bytes",
          "name": "",
          "type": "bytes"
        }
      ],
      "stateMutability": "view",
      "type": "function"
    },
    {
      "inputs": [],
      "name": "latestRequestId",
      "outputs": [
        {
          "internalType": "bytes32",
          "name": "",
          "type": "bytes32"
        }
      ],
      "stateMutability": "view",
      "type": "function"
    },
    {
      "inputs": [],
      "name": "latestResponse",
      "outputs": [
        {
          "internalType": "bytes",
          "name": "",
          "type": "bytes"
        }
      ],
      "stateMutability": "view",
      "type": "function"
    },
    {
      "inputs": [
        {
          "internalType": "address",
          "name": "receiver",
          "type": "address"
        },
        {
          "internalType": "string",
          "name": "comp_name",
          "type": "string"
        },
        {
          "internalType": "string",
          "name": "carb_credits",
          "type": "string"
        },
        {
          "internalType": "string",
          "name": "description",
          "type": "string"
        },
        {
          "internalType": "string",
          "name": "issue_date",
          "type": "string"
        },
        {
          "internalType": "string",
          "name": "ind_id",
          "type": "string"
        }
      ],
      "name": "mint",
      "outputs": [
        {
          "internalType": "bool",
          "name": "",
          "type": "bool"
        }
      ],
      "stateMutability": "nonpayable",
      "type": "function"
    },
    {
      "inputs": [],
      "name": "name",
      "outputs": [
        {
          "internalType": "string",
          "name": "",
          "type": "string"
        }
      ],
      "stateMutability": "view",
      "type": "function"
    },
    {
      "inputs": [],
      "name": "owner",
      "outputs": [
        {
          "internalType": "address",
          "name": "",
          "type": "address"
        }
      ],
      "stateMutability": "view",
      "type": "function"
    },
    {
      "inputs": [
        {
          "internalType": "uint256",
          "name": "tokenId",
          "type": "uint256"
        }
      ],
      "name": "ownerOf",
      "outputs": [
        {
          "internalType": "address",
          "name": "",
          "type": "address"
        }
      ],
      "stateMutability": "view",
      "type": "function"
    },
    {
      "inputs": [
        {
          "internalType": "address",
          "name": "institute_adress",
          "type": "address"
        }
      ],
      "name": "removeInstitute",
      "outputs": [],
      "stateMutability": "nonpayable",
      "type": "function"
    },
    {
      "inputs": [
        {
          "internalType": "address",
          "name": "_from",
          "type": "address"
        },
        {
          "internalType": "address",
          "name": "_to",
          "type": "address"
        },
        {
          "internalType": "uint256",
          "name": "_tokenId",
          "type": "uint256"
        }
      ],
      "name": "safeTransferFrom",
      "outputs": [],
      "stateMutability": "nonpayable",
      "type": "function"
    },
    {
      "inputs": [
        {
          "internalType": "address",
          "name": "_from",
          "type": "address"
        },
        {
          "internalType": "address",
          "name": "_to",
          "type": "address"
        },
        {
          "internalType": "uint256",
          "name": "_tokenId",
          "type": "uint256"
        },
        {
          "internalType": "bytes",
          "name": "_data",
          "type": "bytes"
        }
      ],
      "name": "safeTransferFrom",
      "outputs": [],
      "stateMutability": "nonpayable",
      "type": "function"
    },
    {
      "inputs": [
        {
          "internalType": "address",
          "name": "_operator",
          "type": "address"
        },
        {
          "internalType": "bool",
          "name": "_approved",
          "type": "bool"
        }
      ],
      "name": "setApprovalForAll",
      "outputs": [],
      "stateMutability": "nonpayable",
      "type": "function"
    },
    {
      "inputs": [
        {
          "internalType": "uint32",
          "name": "_gasLimit",
          "type": "uint32"
        }
      ],
      "name": "setGasLimit",
      "outputs": [
        {
          "internalType": "bool",
          "name": "",
          "type": "bool"
        }
      ],
      "stateMutability": "nonpayable",
      "type": "function"
    },
    {
      "inputs": [
        {
          "internalType": "uint64",
          "name": "_subscriptionId",
          "type": "uint64"
        }
      ],
      "name": "setSubscriptionId",
      "outputs": [
        {
          "internalType": "bool",
          "name": "",
          "type": "bool"
        }
      ],
      "stateMutability": "nonpayable",
      "type": "function"
    },
    {
      "inputs": [],
      "name": "subscriptionId",
      "outputs": [
        {
          "internalType": "uint64",
          "name": "",
          "type": "uint64"
        }
      ],
      "stateMutability": "view",
      "type": "function"
    },
    {
      "inputs": [
        {
          "internalType": "bytes4",
          "name": "interfaceId",
          "type": "bytes4"
        }
      ],
      "name": "supportsInterface",
      "outputs": [
        {
          "internalType": "bool",
          "name": "",
          "type": "bool"
        }
      ],
      "stateMutability": "view",
      "type": "function"
    },
    {
      "inputs": [],
      "name": "symbol",
      "outputs": [
        {
          "internalType": "string",
          "name": "",
          "type": "string"
        }
      ],
      "stateMutability": "view",
      "type": "function"
    },
    {
      "inputs": [
        {
          "internalType": "uint256",
          "name": "tokenId",
          "type": "uint256"
        }
      ],
      "name": "tokenURI",
      "outputs": [
        {
          "internalType": "string",
          "name": "",
          "type": "string"
        }
      ],
      "stateMutability": "view",
      "type": "function"
    },
    {
      "inputs": [
        {
          "internalType": "address",
          "name": "_from",
          "type": "address"
        },
        {
          "internalType": "address",
          "name": "_to",
          "type": "address"
        },
        {
          "internalType": "uint256",
          "name": "_tokenId",
          "type": "uint256"
        }
      ],
      "name": "transferFrom",
      "outputs": [],
      "stateMutability": "nonpayable",
      "type": "function"
    },
    {
      "inputs": [
        {
          "internalType": "address",
          "name": "to",
          "type": "address"
        }
      ],
      "name": "transferOwnership",
      "outputs": [],
      "stateMutability": "nonpayable",
      "type": "function"
    },
    {
      "inputs": [
        {
          "internalType": "address",
          "name": "oracle",
          "type": "address"
        }
      ],
      "name": "updateOracleAddress",
      "outputs": [],
      "stateMutability": "nonpayable",
      "type": "function"
    }
  ],
  "transactionHash": "0xab36c87d70262576566dcc077dade1720d597018430cd46dde3a855ac146f922",
  "args": [
    "0x649a2C205BE7A3d5e99206CEEFF30c794f0E31EC"
  ],
  "numDeployments": 2,
  "solcInputHash": "6aefd7d2be27cff8df57372421ef2828",
  "bytecode": "0x60806040526203d090601460006101000a81548163ffffffff021916908363ffffffff1602179055506000601460046101000a81548167ffffffffffffffff021916908367ffffffffffffffff160217905550604051602001620000639062000586565b6040516020818303038152906040526015908162000082919062000831565b503480156200009057600080fd5b50604051620067ab380380620067ab8339818101604052810190620000b6919062000982565b33806000836040518060400160405280601e81526020017f436f6e7665727469626c6520436172626f6e2d437265646974732053425400008152506040518060400160405280600681526020017f4343435342540000000000000000000000000000000000000000000000000000815250816000908162000138919062000831565b5080600190816200014a919062000831565b50505033600760006101000a81548173ffffffffffffffffffffffffffffffffffffffff021916908373ffffffffffffffffffffffffffffffffffffffff1602179055506200019f81620002a460201b60201c565b50600073ffffffffffffffffffffffffffffffffffffffff168273ffffffffffffffffffffffffffffffffffffffff160362000212576040517f08c379a0000000000000000000000000000000000000000000000000000000008152600401620002099062000a15565b60405180910390fd5b81600d60006101000a81548173ffffffffffffffffffffffffffffffffffffffff021916908373ffffffffffffffffffffffffffffffffffffffff160217905550600073ffffffffffffffffffffffffffffffffffffffff168173ffffffffffffffffffffffffffffffffffffffff16146200029a576200029981620002e860201b60201c565b5b5050505062000aa9565b80600b60006101000a81548173ffffffffffffffffffffffffffffffffffffffff021916908373ffffffffffffffffffffffffffffffffffffffff16021790555050565b3373ffffffffffffffffffffffffffffffffffffffff168173ffffffffffffffffffffffffffffffffffffffff160362000359576040517f08c379a0000000000000000000000000000000000000000000000000000000008152600401620003509062000a87565b60405180910390fd5b80600e60006101000a81548173ffffffffffffffffffffffffffffffffffffffff021916908373ffffffffffffffffffffffffffffffffffffffff1602179055508073ffffffffffffffffffffffffffffffffffffffff16600d60009054906101000a900473ffffffffffffffffffffffffffffffffffffffff1673ffffffffffffffffffffffffffffffffffffffff167fed8889f560326eb138920d842192f0eb3dd22b4f139c87a2c57538e05bae127860405160405180910390a350565b600081905092915050565b7f6c6574206a736f6e4f626a656374203d204a534f4e2e7061727365286172677360008201527f5b305d293b000000000000000000000000000000000000000000000000000000602082015250565b60006200048260258362000419565b91506200048f8262000424565b602582019050919050565b7f636f6e7374207072696e636970616c416d6f756e74203d207061727365496e7460008201527f286a736f6e4f626a6563742e636172626f6e5f63726564697473293b00000000602082015250565b6000620004f8603c8362000419565b915062000505826200049a565b603c82019050919050565b7f72657475726e2046756e6374696f6e732e656e636f646555696e74323536284d60008201527f6174682e726f756e64287072696e636970616c416d6f756e7429293b00000000602082015250565b60006200056e603c8362000419565b91506200057b8262000510565b603c82019050919050565b6000620005938262000473565b9150620005a082620004e9565b9150620005ad826200055f565b9150819050919050565b600081519050919050565b7f4e487b7100000000000000000000000000000000000000000000000000000000600052604160045260246000fd5b7f4e487b7100000000000000000000000000000000000000000000000000000000600052602260045260246000fd5b600060028204905060018216806200063957607f821691505b6020821081036200064f576200064e620005f1565b5b50919050565b60008190508160005260206000209050919050565b60006020601f8301049050919050565b600082821b905092915050565b600060088302620006b97fffffffffffffffffffffffffffffffffffffffffffffffffffffffffffffffff826200067a565b620006c586836200067a565b95508019841693508086168417925050509392505050565b6000819050919050565b6000819050919050565b6000620007126200070c6200070684620006dd565b620006e7565b620006dd565b9050919050565b6000819050919050565b6200072e83620006f1565b620007466200073d8262000719565b84845462000687565b825550505050565b600090565b6200075d6200074e565b6200076a81848462000723565b505050565b5b8181101562000792576200078660008262000753565b60018101905062000770565b5050565b601f821115620007e157620007ab8162000655565b620007b6846200066a565b81016020851015620007c6578190505b620007de620007d5856200066a565b8301826200076f565b50505b505050565b600082821c905092915050565b60006200080660001984600802620007e6565b1980831691505092915050565b6000620008218383620007f3565b9150826002028217905092915050565b6200083c82620005b7565b67ffffffffffffffff811115620008585762000857620005c2565b5b62000864825462000620565b6200087182828562000796565b600060209050601f831160018114620008a9576000841562000894578287015190505b620008a0858262000813565b86555062000910565b601f198416620008b98662000655565b60005b82811015620008e357848901518255600182019150602085019450602081019050620008bc565b86831015620009035784890151620008ff601f891682620007f3565b8355505b6001600288020188555050505b505050505050565b600080fd5b600073ffffffffffffffffffffffffffffffffffffffff82169050919050565b60006200094a826200091d565b9050919050565b6200095c816200093d565b81146200096857600080fd5b50565b6000815190506200097c8162000951565b92915050565b6000602082840312156200099b576200099a62000918565b5b6000620009ab848285016200096b565b91505092915050565b600082825260208201905092915050565b7f43616e6e6f7420736574206f776e657220746f207a65726f0000000000000000600082015250565b6000620009fd601883620009b4565b915062000a0a82620009c5565b602082019050919050565b6000602082019050818103600083015262000a3081620009ee565b9050919050565b7f43616e6e6f74207472616e7366657220746f2073656c66000000000000000000600082015250565b600062000a6f601783620009b4565b915062000a7c8262000a37565b602082019050919050565b6000602082019050818103600083015262000aa28162000a60565b9050919050565b615cf28062000ab96000396000f3fe608060405234801561001057600080fd5b50600436106102315760003560e01c80638da5cb5b11610130578063d328a91e116100b8578063f41abb281161007c578063f41abb28146106e8578063f68016b714610704578063f7023bb614610722578063fefb21a41461073e578063fffeb84e1461075c57610231565b8063d328a91e1461061e578063d4b391751461063c578063e985e9c51461066c578063ea7b4f771461069c578063f2fde38b146106cc57610231565b8063a673dd4b116100ff578063a673dd4b14610554578063aac132de14610584578063b88d4fde146105b4578063bef3a2f0146105d0578063c87b56dd146105ee57610231565b80638da5cb5b146104e05780638f8e94c9146104fe57806395d89b411461051a578063a22cb4651461053857610231565b806323b872dd116101be57806352d84c621161018257806352d84c62146104285780636352211e1461045857806370a082311461048857806379ba5097146104b857806380e8d61a146104c257610231565b806323b872dd1461038857806327714589146103a457806330bda99d146103d457806342842e0e146103f057806342966c681461040c57610231565b8063095ea7b311610205578063095ea7b3146102e457806309c1ba2e146103005780630ca761751461031e5780630d7c43f51461033a5780631aa46f591461036a57610231565b8062c381631461023657806301ffc9a71461026657806306fdde0314610296578063081812fc146102b4575b600080fd5b610250600480360381019061024b919061393e565b61077a565b60405161025d9190613a6d565b60405180910390f35b610280600480360381019061027b9190613ae7565b610912565b60405161028d9190613b23565b60405180910390f35b61029e610973565b6040516102ab9190613b88565b60405180910390f35b6102ce60048036038101906102c99190613be0565b610a05565b6040516102db9190613c1c565b60405180910390f35b6102fe60048036038101906102f99190613c37565b610a0c565b005b610308610a47565b6040516103159190613c9a565b60405180910390f35b61033860048036038101906103339190613e20565b610a61565b005b610354600480360381019061034f9190613f4c565b610b6e565b6040516103619190613b23565b60405180910390f35b610372610d51565b60405161037f9190614074565b60405180910390f35b6103a2600480360381019061039d919061408f565b610d57565b005b6103be60048036038101906103b99190614230565b610d92565b6040516103cb9190614074565b60405180910390f35b6103ee60048036038101906103e991906142ff565b610e1c565b005b61040a6004803603810190610405919061408f565b610e32565b005b61042660048036038101906104219190613be0565b610e6d565b005b610442600480360381019061043d919061433f565b611097565b60405161044f9190613b23565b60405180910390f35b610472600480360381019061046d9190613be0565b611153565b60405161047f9190613c1c565b60405180910390f35b6104a2600480360381019061049d919061393e565b6111d9565b6040516104af919061437b565b60405180910390f35b6104c0611290565b005b6104ca611427565b6040516104d79190614454565b60405180910390f35b6104e86114b5565b6040516104f59190613c1c565b60405180910390f35b61051860048036038101906105139190614476565b6114df565b005b6105226116a1565b60405161052f9190613b88565b60405180910390f35b610552600480360381019061054d919061452d565b611733565b005b61056e6004803603810190610569919061393e565b61176e565b60405161057b9190613b23565b60405180910390f35b61059e6004803603810190610599919061393e565b6117d8565b6040516105ab9190613b23565b60405180910390f35b6105ce60048036038101906105c9919061456d565b611842565b005b6105d861187d565b6040516105e59190614645565b60405180910390f35b61060860048036038101906106039190613be0565b61190b565b6040516106159190613b88565b60405180910390f35b610626611a1d565b6040516106339190614645565b60405180910390f35b610656600480360381019061065191906147af565b611aba565b6040516106639190614859565b60405180910390f35b61068660048036038101906106819190614874565b611b70565b6040516106939190613b23565b60405180910390f35b6106b660048036038101906106b191906148b4565b611c04565b6040516106c39190613b23565b60405180910390f35b6106e660048036038101906106e1919061393e565b611cc8565b005b61070260048036038101906106fd919061393e565b611cdc565b005b61070c611de2565b60405161071991906148f0565b60405180910390f35b61073c6004803603810190610737919061393e565b611df8565b005b610746611e0c565b604051610753919061437b565b60405180910390f35b610764611e16565b6040516107719190614645565b60405180910390f35b6107826137c7565b600960008373ffffffffffffffffffffffffffffffffffffffff1673ffffffffffffffffffffffffffffffffffffffff1681526020019081526020016000206040518060600160405290816000820180546107dc9061493a565b80601f01602080910402602001604051908101604052809291908181526020018280546108089061493a565b80156108555780601f1061082a57610100808354040283529160200191610855565b820191906000526020600020905b81548152906001019060200180831161083857829003601f168201915b5050505050815260200160018201805461086e9061493a565b80601f016020809104026020016040519081016040528092919081815260200182805461089a9061493a565b80156108e75780601f106108bc576101008083540402835291602001916108e7565b820191906000526020600020905b8154815290600101906020018083116108ca57829003601f168201915b505050505081526020016002820160009054906101000a900460ff1615151515815250509050919050565b6000634906490660e01b7bffffffffffffffffffffffffffffffffffffffffffffffffffffffff1916827bffffffffffffffffffffffffffffffffffffffffffffffffffffffff1916148061096c575061096b82611ea4565b5b9050919050565b6060600080546109829061493a565b80601f01602080910402602001604051908101604052809291908181526020018280546109ae9061493a565b80156109fb5780601f106109d0576101008083540402835291602001916109fb565b820191906000526020600020905b8154815290600101906020018083116109de57829003601f168201915b5050505050905090565b6000919050565b6040517f08c379a0000000000000000000000000000000000000000000000000000000008152600401610a3e906149dd565b60405180910390fd5b601460049054906101000a900467ffffffffffffffff1681565b82600c600082815260200190815260200160002060009054906101000a900473ffffffffffffffffffffffffffffffffffffffff1673ffffffffffffffffffffffffffffffffffffffff163373ffffffffffffffffffffffffffffffffffffffff1614610afa576040517fa0c5ec6300000000000000000000000000000000000000000000000000000000815260040160405180910390fd5b600c600082815260200190815260200160002060006101000a81549073ffffffffffffffffffffffffffffffffffffffff0219169055807f85e1543bf2f84fe80c6badbce3648c8539ad1df4d2b3d822938ca0538be727e660405160405180910390a2610b68848484611f86565b50505050565b600060011515600960003373ffffffffffffffffffffffffffffffffffffffff1673ffffffffffffffffffffffffffffffffffffffff16815260200190815260200160002060020160009054906101000a900460ff16151514610c06576040517f08c379a0000000000000000000000000000000000000000000000000000000008152600401610bfd90614a49565b60405180910390fd5b60003390506000600960008373ffffffffffffffffffffffffffffffffffffffff1673ffffffffffffffffffffffffffffffffffffffff1681526020019081526020016000206000018054610c5a9061493a565b80601f0160208091040260200160405190810160405280929190818152602001828054610c869061493a565b8015610cd35780601f10610ca857610100808354040283529160200191610cd3565b820191906000526020600020905b815481529060010190602001808311610cb657829003601f168201915b5050505050905060006040518060c001604052808381526020018a8152602001898152602001878152602001868152602001888152509050610d156010611fe5565b6000610d216010611ffb565b9050610d2d8b82612009565b610d3f81610d3a84612226565b612271565b60019450505050509695505050505050565b60115481565b6040517f08c379a0000000000000000000000000000000000000000000000000000000008152600401610d89906149dd565b60405180910390fd5b6000610d9c612315565b610da46137ea565b610dbc60008089846123a7909392919063ffffffff16565b600086511115610dda57610dd9868261245190919063ffffffff16565b5b600085511115610df857610df785826124ca90919063ffffffff16565b5b6000610e05828686612512565b905080601181905550809250505095945050505050565b610e24612315565b610e2e82826126db565b5050565b6040517f08c379a0000000000000000000000000000000000000000000000000000000008152600401610e64906149dd565b60405180910390fd5b610e7e610e786127cc565b826127d4565b610ebd576040517f08c379a0000000000000000000000000000000000000000000000000000000008152600401610eb490614adb565b60405180910390fd5b6000610ec88261190b565b90506000600167ffffffffffffffff811115610ee757610ee6613cf5565b5b604051908082528060200260200182016040528015610f1a57816020015b6060815260200190600190039081610f055790505b5090508181600081518110610f3257610f31614afb565b5b60200260200101819052506000825111610f81576040517f08c379a0000000000000000000000000000000000000000000000000000000008152600401610f7890614b76565b60405180910390fd5b61104f60158054610f919061493a565b80601f0160208091040260200160405190810160405280929190818152602001828054610fbd9061493a565b801561100a5780601f10610fdf5761010080835404028352916020019161100a565b820191906000526020600020905b815481529060010190602001808311610fed57829003601f168201915b50505050506040518060200160405280600081525083601460049054906101000a900467ffffffffffffffff16601460009054906101000a900463ffffffff16610d92565b5061105983612869565b7faf0d276201be3f234aa87ab604c2279edb9d3e0c799379fa82a6e70845eda143838360405161108a929190614b96565b60405180910390a1505050565b60003373ffffffffffffffffffffffffffffffffffffffff16600760009054906101000a900473ffffffffffffffffffffffffffffffffffffffff1673ffffffffffffffffffffffffffffffffffffffff1614611129576040517f08c379a000000000000000000000000000000000000000000000000000000000815260040161112090614c12565b60405180910390fd5b81601460006101000a81548163ffffffff021916908363ffffffff16021790555060019050919050565b60008061115f836128bc565b9050600073ffffffffffffffffffffffffffffffffffffffff168173ffffffffffffffffffffffffffffffffffffffff16036111d0576040517f08c379a00000000000000000000000000000000000000000000000000000000081526004016111c790614c7e565b60405180910390fd5b80915050919050565b60008073ffffffffffffffffffffffffffffffffffffffff168273ffffffffffffffffffffffffffffffffffffffff1603611249576040517f08c379a000000000000000000000000000000000000000000000000000000000815260040161124090614d10565b60405180910390fd5b600360008373ffffffffffffffffffffffffffffffffffffffff1673ffffffffffffffffffffffffffffffffffffffff168152602001908152602001600020549050919050565b600e60009054906101000a900473ffffffffffffffffffffffffffffffffffffffff1673ffffffffffffffffffffffffffffffffffffffff163373ffffffffffffffffffffffffffffffffffffffff1614611320576040517f08c379a000000000000000000000000000000000000000000000000000000000815260040161131790614d7c565b60405180910390fd5b6000600d60009054906101000a900473ffffffffffffffffffffffffffffffffffffffff16905033600d60006101000a81548173ffffffffffffffffffffffffffffffffffffffff021916908373ffffffffffffffffffffffffffffffffffffffff1602179055506000600e60006101000a81548173ffffffffffffffffffffffffffffffffffffffff021916908373ffffffffffffffffffffffffffffffffffffffff1602179055503373ffffffffffffffffffffffffffffffffffffffff168173ffffffffffffffffffffffffffffffffffffffff167f8be0079c531659141344cd1fd0a4f28419497f9722a3daafe3b4186f6b6457e060405160405180910390a350565b6060600a8054806020026020016040519081016040528092919081815260200182805480156114ab57602002820191906000526020600020905b8160009054906101000a900473ffffffffffffffffffffffffffffffffffffffff1673ffffffffffffffffffffffffffffffffffffffff1681526020019060010190808311611461575b5050505050905090565b6000600d60009054906101000a900473ffffffffffffffffffffffffffffffffffffffff16905090565b3373ffffffffffffffffffffffffffffffffffffffff16600760009054906101000a900473ffffffffffffffffffffffffffffffffffffffff1673ffffffffffffffffffffffffffffffffffffffff161461156f576040517f08c379a000000000000000000000000000000000000000000000000000000000815260040161156690614de8565b60405180910390fd5b6000604051806060016040528085815260200184815260200160011515815250905080600960008473ffffffffffffffffffffffffffffffffffffffff1673ffffffffffffffffffffffffffffffffffffffff16815260200190815260200160002060008201518160000190816115e69190614fb4565b5060208201518160010190816115fc9190614fb4565b5060408201518160020160006101000a81548160ff021916908315150217905550905050600a829080600181540180825580915050600190039060005260206000200160009091909190916101000a81548173ffffffffffffffffffffffffffffffffffffffff021916908373ffffffffffffffffffffffffffffffffffffffff16021790555060086000815480929190611696906150b5565b919050555050505050565b6060600180546116b09061493a565b80601f01602080910402602001604051908101604052809291908181526020018280546116dc9061493a565b80156117295780601f106116fe57610100808354040283529160200191611729565b820191906000526020600020905b81548152906001019060200180831161170c57829003601f168201915b5050505050905090565b6040517f08c379a0000000000000000000000000000000000000000000000000000000008152600401611765906149dd565b60405180910390fd5b6000600960008373ffffffffffffffffffffffffffffffffffffffff1673ffffffffffffffffffffffffffffffffffffffff16815260200190815260200160002060020160009054906101000a900460ff16156117ce57600190506117d3565b600090505b919050565b6000600760009054906101000a900473ffffffffffffffffffffffffffffffffffffffff1673ffffffffffffffffffffffffffffffffffffffff168273ffffffffffffffffffffffffffffffffffffffff1603611838576001905061183d565b600090505b919050565b6040517f08c379a0000000000000000000000000000000000000000000000000000000008152600401611874906149dd565b60405180910390fd5b6012805461188a9061493a565b80601f01602080910402602001604051908101604052809291908181526020018280546118b69061493a565b80156119035780601f106118d857610100808354040283529160200191611903565b820191906000526020600020905b8154815290600101906020018083116118e657829003601f168201915b505050505081565b6060611916826128f9565b60006006600084815260200190815260200160002080546119369061493a565b80601f01602080910402602001604051908101604052809291908181526020018280546119629061493a565b80156119af5780601f10611984576101008083540402835291602001916119af565b820191906000526020600020905b81548152906001019060200180831161199257829003601f168201915b5050505050905060006119c0612944565b905060008151036119d5578192505050611a18565b600082511115611a0a5780826040516020016119f2929190615139565b60405160208183030381529060405292505050611a18565b611a138461295b565b925050505b919050565b6060600b60009054906101000a900473ffffffffffffffffffffffffffffffffffffffff1673ffffffffffffffffffffffffffffffffffffffff1663d328a91e6040518163ffffffff1660e01b8152600401600060405180830381865afa158015611a8c573d6000803e3d6000fd5b505050506040513d6000823e3d601f19601f82011682018060405250810190611ab591906151cd565b905090565b6000600b60009054906101000a900473ffffffffffffffffffffffffffffffffffffffff1673ffffffffffffffffffffffffffffffffffffffff1663d227d24585611b04886129c3565b86866040518563ffffffff1660e01b8152600401611b259493929190615216565b602060405180830381865afa158015611b42573d6000803e3d6000fd5b505050506040513d601f19601f82011682018060405250810190611b66919061528e565b9050949350505050565b6000600560008473ffffffffffffffffffffffffffffffffffffffff1673ffffffffffffffffffffffffffffffffffffffff16815260200190815260200160002060008373ffffffffffffffffffffffffffffffffffffffff1673ffffffffffffffffffffffffffffffffffffffff16815260200190815260200160002060009054906101000a900460ff16905092915050565b60003373ffffffffffffffffffffffffffffffffffffffff16600760009054906101000a900473ffffffffffffffffffffffffffffffffffffffff1673ffffffffffffffffffffffffffffffffffffffff1614611c96576040517f08c379a0000000000000000000000000000000000000000000000000000000008152600401611c8d90614c12565b60405180910390fd5b81601460046101000a81548167ffffffffffffffff021916908367ffffffffffffffff16021790555060019050919050565b611cd0612315565b611cd981612cc5565b50565b3373ffffffffffffffffffffffffffffffffffffffff16600760009054906101000a900473ffffffffffffffffffffffffffffffffffffffff1673ffffffffffffffffffffffffffffffffffffffff1614611d6c576040517f08c379a0000000000000000000000000000000000000000000000000000000008152600401611d6390614de8565b60405180910390fd5b6000600960008373ffffffffffffffffffffffffffffffffffffffff1673ffffffffffffffffffffffffffffffffffffffff16815260200190815260200160002060020160006101000a81548160ff02191690831515021790555060086000815480929190611dda906152bb565b919050555050565b601460009054906101000a900463ffffffff1681565b611e00612315565b611e0981612df3565b50565b6000600854905090565b60138054611e239061493a565b80601f0160208091040260200160405190810160405280929190818152602001828054611e4f9061493a565b8015611e9c5780601f10611e7157610100808354040283529160200191611e9c565b820191906000526020600020905b815481529060010190602001808311611e7f57829003601f168201915b505050505081565b60007f80ac58cd000000000000000000000000000000000000000000000000000000007bffffffffffffffffffffffffffffffffffffffffffffffffffffffff1916827bffffffffffffffffffffffffffffffffffffffffffffffffffffffff19161480611f6f57507f5b5e139f000000000000000000000000000000000000000000000000000000007bffffffffffffffffffffffffffffffffffffffffffffffffffffffff1916827bffffffffffffffffffffffffffffffffffffffffffffffffffffffff1916145b80611f7f5750611f7e82612e37565b5b9050919050565b8160129081611f95919061533f565b508060139081611fa5919061533f565b50827f7bab0ec163b5c132c72b8146ac4d6e067e82ed58f8b131150aa71c92589115628383604051611fd8929190615411565b60405180910390a2505050565b6001816000016000828254019250508190555050565b600081600001549050919050565b600073ffffffffffffffffffffffffffffffffffffffff168273ffffffffffffffffffffffffffffffffffffffff1603612078576040517f08c379a000000000000000000000000000000000000000000000000000000000815260040161206f90615494565b60405180910390fd5b61208181612ea1565b156120c1576040517f08c379a00000000000000000000000000000000000000000000000000000000081526004016120b890615500565b60405180910390fd5b6120cf600083836001612ee2565b6120d881612ea1565b15612118576040517f08c379a000000000000000000000000000000000000000000000000000000000815260040161210f90615500565b60405180910390fd5b6001600360008473ffffffffffffffffffffffffffffffffffffffff1673ffffffffffffffffffffffffffffffffffffffff16815260200190815260200160002060008282540192505081905550816002600083815260200190815260200160002060006101000a81548173ffffffffffffffffffffffffffffffffffffffff021916908373ffffffffffffffffffffffffffffffffffffffff160217905550808273ffffffffffffffffffffffffffffffffffffffff16600073ffffffffffffffffffffffffffffffffffffffff167fddf252ad1be2c89b69c2b068fc378daa952ba7f163c4a11628f55a4df523b3ef60405160405180910390a4612222600083836001612ee8565b5050565b6060816000015182602001518360400151846060015185608001518660a0015160405160200161225b96959493929190615734565b6040516020818303038152906040529050919050565b61227a82612ea1565b6122b9576040517f08c379a00000000000000000000000000000000000000000000000000000000081526004016122b09061584b565b60405180910390fd5b806006600084815260200190815260200160002090816122d99190614fb4565b507ff8e1a15aba9398e019f0b49df1a4fde98ee17ae345cb5f6b5e2c27f5033e8ce782604051612309919061437b565b60405180910390a15050565b600d60009054906101000a900473ffffffffffffffffffffffffffffffffffffffff1673ffffffffffffffffffffffffffffffffffffffff163373ffffffffffffffffffffffffffffffffffffffff16146123a5576040517f08c379a000000000000000000000000000000000000000000000000000000000815260040161239c906158b7565b60405180910390fd5b565b60008151036123e2576040517f22ce3edd00000000000000000000000000000000000000000000000000000000815260040160405180910390fd5b82846000019060018111156123fa576123f96158d7565b5b9081600181111561240e5761240d6158d7565b5b81525050818460400190600081111561242a576124296158d7565b5b9081600081111561243e5761243d6158d7565b5b8152505080846060018190525050505050565b600081510361248c576040517fe889636f00000000000000000000000000000000000000000000000000000000815260040160405180910390fd5b6001826020019060018111156124a5576124a46158d7565b5b908160018111156124b9576124b86158d7565b5b815250508082608001819052505050565b6000815103612505576040517ffe936cb700000000000000000000000000000000000000000000000000000000815260040160405180910390fd5b808260a001819052505050565b600080600b60009054906101000a900473ffffffffffffffffffffffffffffffffffffffff1673ffffffffffffffffffffffffffffffffffffffff166328242b048561255d886129c3565b866040518463ffffffff1660e01b815260040161257c93929190615906565b6020604051808303816000875af115801561259b573d6000803e3d6000fd5b505050506040513d601f19601f820116820180604052508101906125bf9190615959565b9050600b60009054906101000a900473ffffffffffffffffffffffffffffffffffffffff1673ffffffffffffffffffffffffffffffffffffffff16635ab1bd536040518163ffffffff1660e01b8152600401602060405180830381865afa15801561262e573d6000803e3d6000fd5b505050506040513d601f19601f82011682018060405250810190612652919061599b565b600c600083815260200190815260200160002060006101000a81548173ffffffffffffffffffffffffffffffffffffffff021916908373ffffffffffffffffffffffffffffffffffffffff160217905550807f1131472297a800fee664d1d89cfa8f7676ff07189ecc53f80bbb5f4969099db860405160405180910390a2809150509392505050565b80600073ffffffffffffffffffffffffffffffffffffffff16600c600083815260200190815260200160002060009054906101000a900473ffffffffffffffffffffffffffffffffffffffff1673ffffffffffffffffffffffffffffffffffffffff1614612775576040517f8b457ad200000000000000000000000000000000000000000000000000000000815260040160405180910390fd5b82600c600084815260200190815260200160002060006101000a81548173ffffffffffffffffffffffffffffffffffffffff021916908373ffffffffffffffffffffffffffffffffffffffff160217905550505050565b600033905090565b6000806127e083611153565b90508073ffffffffffffffffffffffffffffffffffffffff168473ffffffffffffffffffffffffffffffffffffffff16148061282257506128218185611b70565b5b8061286057508373ffffffffffffffffffffffffffffffffffffffff1661284884610a05565b73ffffffffffffffffffffffffffffffffffffffff16145b91505092915050565b61287281612eee565b60006006600083815260200190815260200160002080546128929061493a565b9050146128b9576006600082815260200190815260200160002060006128b89190613855565b5b50565b60006002600083815260200190815260200160002060009054906101000a900473ffffffffffffffffffffffffffffffffffffffff169050919050565b61290281612ea1565b612941576040517f08c379a000000000000000000000000000000000000000000000000000000000815260040161293890614c7e565b60405180910390fd5b50565b606060405180602001604052806000815250905090565b6060612966826128f9565b6000612970612944565b9050600081511161299057604051806020016040528060008152506129bb565b8061299a8461303c565b6040516020016129ab929190615139565b6040516020818303038152906040525b915050919050565b60606129cd613895565b6129d98161010061310a565b50612a226040518060400160405280600c81526020017f636f64654c6f636174696f6e00000000000000000000000000000000000000008152508261317490919063ffffffff16565b612a4b83600001516001811115612a3c57612a3b6158d7565b5b8261319990919063ffffffff16565b612a936040518060400160405280600881526020017f6c616e67756167650000000000000000000000000000000000000000000000008152508261317490919063ffffffff16565b612abc83604001516000811115612aad57612aac6158d7565b5b8261319990919063ffffffff16565b612b046040518060400160405280600681526020017f736f7572636500000000000000000000000000000000000000000000000000008152508261317490919063ffffffff16565b612b1b83606001518261317490919063ffffffff16565b60008360a00151511115612bd957612b716040518060400160405280600481526020017f61726773000000000000000000000000000000000000000000000000000000008152508261317490919063ffffffff16565b612b7a816131c9565b60005b8360a0015151811015612bce57612bbb8460a001518281518110612ba457612ba3614afb565b5b60200260200101518361317490919063ffffffff16565b8080612bc6906150b5565b915050612b7d565b50612bd8816131d7565b5b60008360800151511115612cb857612c2f6040518060400160405280600f81526020017f736563726574734c6f636174696f6e00000000000000000000000000000000008152508261317490919063ffffffff16565b612c5883602001516001811115612c4957612c486158d7565b5b8261319990919063ffffffff16565b612ca06040518060400160405280600781526020017f73656372657473000000000000000000000000000000000000000000000000008152508261317490919063ffffffff16565b612cb78360800151826131e590919063ffffffff16565b5b8060000151915050919050565b3373ffffffffffffffffffffffffffffffffffffffff168173ffffffffffffffffffffffffffffffffffffffff1603612d33576040517f08c379a0000000000000000000000000000000000000000000000000000000008152600401612d2a90615a14565b60405180910390fd5b80600e60006101000a81548173ffffffffffffffffffffffffffffffffffffffff021916908373ffffffffffffffffffffffffffffffffffffffff1602179055508073ffffffffffffffffffffffffffffffffffffffff16600d60009054906101000a900473ffffffffffffffffffffffffffffffffffffffff1673ffffffffffffffffffffffffffffffffffffffff167fed8889f560326eb138920d842192f0eb3dd22b4f139c87a2c57538e05bae127860405160405180910390a350565b80600b60006101000a81548173ffffffffffffffffffffffffffffffffffffffff021916908373ffffffffffffffffffffffffffffffffffffffff16021790555050565b60007f01ffc9a7000000000000000000000000000000000000000000000000000000007bffffffffffffffffffffffffffffffffffffffffffffffffffffffff1916827bffffffffffffffffffffffffffffffffffffffffffffffffffffffff1916149050919050565b60008073ffffffffffffffffffffffffffffffffffffffff16612ec3836128bc565b73ffffffffffffffffffffffffffffffffffffffff1614159050919050565b50505050565b50505050565b6000612ef982611153565b9050612f09816000846001612ee2565b612f1282611153565b90506004600083815260200190815260200160002060006101000a81549073ffffffffffffffffffffffffffffffffffffffff02191690556001600360008373ffffffffffffffffffffffffffffffffffffffff1673ffffffffffffffffffffffffffffffffffffffff168152602001908152602001600020600082825403925050819055506002600083815260200190815260200160002060006101000a81549073ffffffffffffffffffffffffffffffffffffffff021916905581600073ffffffffffffffffffffffffffffffffffffffff168273ffffffffffffffffffffffffffffffffffffffff167fddf252ad1be2c89b69c2b068fc378daa952ba7f163c4a11628f55a4df523b3ef60405160405180910390a4613038816000846001612ee8565b5050565b60606000600161304b8461320a565b01905060008167ffffffffffffffff81111561306a57613069613cf5565b5b6040519080825280601f01601f19166020018201604052801561309c5781602001600182028036833780820191505090505b509050600082602001820190505b6001156130ff578080600190039150507f3031323334353637383961626364656600000000000000000000000000000000600a86061a8153600a85816130f3576130f2615a34565b5b049450600085036130aa575b819350505050919050565b613112613895565b60006020836131219190615a63565b1461314d576020826131339190615a63565b602061313f9190615a94565b8261314a9190615ac8565b91505b81836020018181525050604051808452600081528281016020016040525082905092915050565b613181826003835161335d565b61319481836134e290919063ffffffff16565b505050565b67ffffffffffffffff8111156131b8576131b38282613504565b6131c5565b6131c48260008361335d565b5b5050565b6131d4816004613550565b50565b6131e2816007613550565b50565b6131f2826002835161335d565b61320581836134e290919063ffffffff16565b505050565b600080600090507a184f03e93ff9f4daa797ed6e38ed64bf6a1f0100000000000000008310613268577a184f03e93ff9f4daa797ed6e38ed64bf6a1f010000000000000000838161325e5761325d615a34565b5b0492506040810190505b6d04ee2d6d415b85acef810000000083106132a5576d04ee2d6d415b85acef8100000000838161329b5761329a615a34565b5b0492506020810190505b662386f26fc1000083106132d457662386f26fc1000083816132ca576132c9615a34565b5b0492506010810190505b6305f5e10083106132fd576305f5e10083816132f3576132f2615a34565b5b0492506008810190505b612710831061332257612710838161331857613317615a34565b5b0492506004810190505b60648310613345576064838161333b5761333a615a34565b5b0492506002810190505b600a8310613354576001810190505b80915050919050565b60178167ffffffffffffffff16116133945761338e8160058460ff16901b60ff16178461357290919063ffffffff16565b506134dd565b60ff8167ffffffffffffffff16116133ea576133c3601860058460ff16901b178461357290919063ffffffff16565b506133e48167ffffffffffffffff166001856135929092919063ffffffff16565b506134dc565b61ffff8167ffffffffffffffff16116134415761341a601960058460ff16901b178461357290919063ffffffff16565b5061343b8167ffffffffffffffff166002856135929092919063ffffffff16565b506134db565b63ffffffff8167ffffffffffffffff161161349a57613473601a60058460ff16901b178461357290919063ffffffff16565b506134948167ffffffffffffffff166004856135929092919063ffffffff16565b506134da565b6134b7601b60058460ff16901b178461357290919063ffffffff16565b506134d88167ffffffffffffffff166008856135929092919063ffffffff16565b505b5b5b5b505050565b6134ea613895565b6134fc838460000151518485516135b4565b905092915050565b61352260026005600660ff16901b178361357290919063ffffffff16565b5061354c8282604051602001613538919061437b565b6040516020818303038152906040526131e5565b5050565b61356d601f60058360ff16901b178361357290919063ffffffff16565b505050565b61357a613895565b61358a83846000015151846136a3565b905092915050565b61359a613895565b6135ab8485600001515185856136f9565b90509392505050565b6135bc613895565b82518211156135ca57600080fd5b846020015182856135db9190615ac8565b11156136105761360f856002613600886020015188876135fb9190615ac8565b613787565b61360a9190615afc565b6137a3565b5b60008086518051876020830101935080888701111561362f5787860182525b60208701925050505b6020841061367657805182526020826136519190615ac8565b91506020816136609190615ac8565b905060208461366f9190615a94565b9350613638565b60006001856020036101000a03905080198251168184511681811785525050508692505050949350505050565b6136ab613895565b836020015183106136d1576136d084600286602001516136cb9190615afc565b6137a3565b5b835180516020858301018481538186036136ec576001820183525b5050508390509392505050565b613701613895565b846020015184836137129190615ac8565b111561373a57613739856002868561372a9190615ac8565b6137349190615afc565b6137a3565b5b600060018361010061374c9190615c71565b6137569190615a94565b905085518386820101858319825116178152815185880111156137795784870182525b505085915050949350505050565b6000818311156137995782905061379d565b8190505b92915050565b6000826000015190506137b6838361310a565b506137c183826134e2565b50505050565b604051806060016040528060608152602001606081526020016000151581525090565b6040518060c0016040528060006001811115613809576138086158d7565b5b815260200160006001811115613822576138216158d7565b5b815260200160008081111561383a576138396158d7565b5b81526020016060815260200160608152602001606081525090565b5080546138619061493a565b6000825580601f106138735750613892565b601f01602090049060005260206000209081019061389191906138af565b5b50565b604051806040016040528060608152602001600081525090565b5b808211156138c85760008160009055506001016138b0565b5090565b6000604051905090565b600080fd5b600080fd5b600073ffffffffffffffffffffffffffffffffffffffff82169050919050565b600061390b826138e0565b9050919050565b61391b81613900565b811461392657600080fd5b50565b60008135905061393881613912565b92915050565b600060208284031215613954576139536138d6565b5b600061396284828501613929565b91505092915050565b600081519050919050565b600082825260208201905092915050565b60005b838110156139a557808201518184015260208101905061398a565b60008484015250505050565b6000601f19601f8301169050919050565b60006139cd8261396b565b6139d78185613976565b93506139e7818560208601613987565b6139f0816139b1565b840191505092915050565b60008115159050919050565b613a10816139fb565b82525050565b60006060830160008301518482036000860152613a3382826139c2565b91505060208301518482036020860152613a4d82826139c2565b9150506040830151613a626040860182613a07565b508091505092915050565b60006020820190508181036000830152613a878184613a16565b905092915050565b60007fffffffff0000000000000000000000000000000000000000000000000000000082169050919050565b613ac481613a8f565b8114613acf57600080fd5b50565b600081359050613ae181613abb565b92915050565b600060208284031215613afd57613afc6138d6565b5b6000613b0b84828501613ad2565b91505092915050565b613b1d816139fb565b82525050565b6000602082019050613b386000830184613b14565b92915050565b600082825260208201905092915050565b6000613b5a8261396b565b613b648185613b3e565b9350613b74818560208601613987565b613b7d816139b1565b840191505092915050565b60006020820190508181036000830152613ba28184613b4f565b905092915050565b6000819050919050565b613bbd81613baa565b8114613bc857600080fd5b50565b600081359050613bda81613bb4565b92915050565b600060208284031215613bf657613bf56138d6565b5b6000613c0484828501613bcb565b91505092915050565b613c1681613900565b82525050565b6000602082019050613c316000830184613c0d565b92915050565b60008060408385031215613c4e57613c4d6138d6565b5b6000613c5c85828601613929565b9250506020613c6d85828601613bcb565b9150509250929050565b600067ffffffffffffffff82169050919050565b613c9481613c77565b82525050565b6000602082019050613caf6000830184613c8b565b92915050565b6000819050919050565b613cc881613cb5565b8114613cd357600080fd5b50565b600081359050613ce581613cbf565b92915050565b600080fd5b600080fd5b7f4e487b7100000000000000000000000000000000000000000000000000000000600052604160045260246000fd5b613d2d826139b1565b810181811067ffffffffffffffff82111715613d4c57613d4b613cf5565b5b80604052505050565b6000613d5f6138cc565b9050613d6b8282613d24565b919050565b600067ffffffffffffffff821115613d8b57613d8a613cf5565b5b613d94826139b1565b9050602081019050919050565b82818337600083830152505050565b6000613dc3613dbe84613d70565b613d55565b905082815260208101848484011115613ddf57613dde613cf0565b5b613dea848285613da1565b509392505050565b600082601f830112613e0757613e06613ceb565b5b8135613e17848260208601613db0565b91505092915050565b600080600060608486031215613e3957613e386138d6565b5b6000613e4786828701613cd6565b935050602084013567ffffffffffffffff811115613e6857613e676138db565b5b613e7486828701613df2565b925050604084013567ffffffffffffffff811115613e9557613e946138db565b5b613ea186828701613df2565b9150509250925092565b600067ffffffffffffffff821115613ec657613ec5613cf5565b5b613ecf826139b1565b9050602081019050919050565b6000613eef613eea84613eab565b613d55565b905082815260208101848484011115613f0b57613f0a613cf0565b5b613f16848285613da1565b509392505050565b600082601f830112613f3357613f32613ceb565b5b8135613f43848260208601613edc565b91505092915050565b60008060008060008060c08789031215613f6957613f686138d6565b5b6000613f7789828a01613929565b965050602087013567ffffffffffffffff811115613f9857613f976138db565b5b613fa489828a01613f1e565b955050604087013567ffffffffffffffff811115613fc557613fc46138db565b5b613fd189828a01613f1e565b945050606087013567ffffffffffffffff811115613ff257613ff16138db565b5b613ffe89828a01613f1e565b935050608087013567ffffffffffffffff81111561401f5761401e6138db565b5b61402b89828a01613f1e565b92505060a087013567ffffffffffffffff81111561404c5761404b6138db565b5b61405889828a01613f1e565b9150509295509295509295565b61406e81613cb5565b82525050565b60006020820190506140896000830184614065565b92915050565b6000806000606084860312156140a8576140a76138d6565b5b60006140b686828701613929565b93505060206140c786828701613929565b92505060406140d886828701613bcb565b9150509250925092565b600067ffffffffffffffff8211156140fd576140fc613cf5565b5b602082029050602081019050919050565b600080fd5b6000614126614121846140e2565b613d55565b905080838252602082019050602084028301858111156141495761414861410e565b5b835b8181101561419057803567ffffffffffffffff81111561416e5761416d613ceb565b5b80860161417b8982613f1e565b8552602085019450505060208101905061414b565b5050509392505050565b600082601f8301126141af576141ae613ceb565b5b81356141bf848260208601614113565b91505092915050565b6141d181613c77565b81146141dc57600080fd5b50565b6000813590506141ee816141c8565b92915050565b600063ffffffff82169050919050565b61420d816141f4565b811461421857600080fd5b50565b60008135905061422a81614204565b92915050565b600080600080600060a0868803121561424c5761424b6138d6565b5b600086013567ffffffffffffffff81111561426a576142696138db565b5b61427688828901613f1e565b955050602086013567ffffffffffffffff811115614297576142966138db565b5b6142a388828901613df2565b945050604086013567ffffffffffffffff8111156142c4576142c36138db565b5b6142d08882890161419a565b93505060606142e1888289016141df565b92505060806142f28882890161421b565b9150509295509295909350565b60008060408385031215614316576143156138d6565b5b600061432485828601613929565b925050602061433585828601613cd6565b9150509250929050565b600060208284031215614355576143546138d6565b5b60006143638482850161421b565b91505092915050565b61437581613baa565b82525050565b6000602082019050614390600083018461436c565b92915050565b600081519050919050565b600082825260208201905092915050565b6000819050602082019050919050565b6143cb81613900565b82525050565b60006143dd83836143c2565b60208301905092915050565b6000602082019050919050565b600061440182614396565b61440b81856143a1565b9350614416836143b2565b8060005b8381101561444757815161442e88826143d1565b9750614439836143e9565b92505060018101905061441a565b5085935050505092915050565b6000602082019050818103600083015261446e81846143f6565b905092915050565b60008060006060848603121561448f5761448e6138d6565b5b600084013567ffffffffffffffff8111156144ad576144ac6138db565b5b6144b986828701613f1e565b935050602084013567ffffffffffffffff8111156144da576144d96138db565b5b6144e686828701613f1e565b92505060406144f786828701613929565b9150509250925092565b61450a816139fb565b811461451557600080fd5b50565b60008135905061452781614501565b92915050565b60008060408385031215614544576145436138d6565b5b600061455285828601613929565b925050602061456385828601614518565b9150509250929050565b60008060008060808587031215614587576145866138d6565b5b600061459587828801613929565b94505060206145a687828801613929565b93505060406145b787828801613bcb565b925050606085013567ffffffffffffffff8111156145d8576145d76138db565b5b6145e487828801613df2565b91505092959194509250565b600081519050919050565b600082825260208201905092915050565b6000614617826145f0565b61462181856145fb565b9350614631818560208601613987565b61463a816139b1565b840191505092915050565b6000602082019050818103600083015261465f818461460c565b905092915050565b600080fd5b600080fd5b6002811061467e57600080fd5b50565b60008135905061469081614671565b92915050565b600181106146a357600080fd5b50565b6000813590506146b581614696565b92915050565b600060c082840312156146d1576146d0614667565b5b6146db60c0613d55565b905060006146eb84828501614681565b60008301525060206146ff84828501614681565b6020830152506040614713848285016146a6565b604083015250606082013567ffffffffffffffff8111156147375761473661466c565b5b61474384828501613f1e565b606083015250608082013567ffffffffffffffff8111156147675761476661466c565b5b61477384828501613df2565b60808301525060a082013567ffffffffffffffff8111156147975761479661466c565b5b6147a38482850161419a565b60a08301525092915050565b600080600080608085870312156147c9576147c86138d6565b5b600085013567ffffffffffffffff8111156147e7576147e66138db565b5b6147f3878288016146bb565b9450506020614804878288016141df565b93505060406148158782880161421b565b925050606061482687828801613bcb565b91505092959194509250565b60006bffffffffffffffffffffffff82169050919050565b61485381614832565b82525050565b600060208201905061486e600083018461484a565b92915050565b6000806040838503121561488b5761488a6138d6565b5b600061489985828601613929565b92505060206148aa85828601613929565b9150509250929050565b6000602082840312156148ca576148c96138d6565b5b60006148d8848285016141df565b91505092915050565b6148ea816141f4565b82525050565b600060208201905061490560008301846148e1565b92915050565b7f4e487b7100000000000000000000000000000000000000000000000000000000600052602260045260246000fd5b6000600282049050600182168061495257607f821691505b6020821081036149655761496461490b565b5b50919050565b7f5472616e73666572206e6f7420737570706f7274656420666f7220736f756c2060008201527f626f756e6420746f6b656e2e0000000000000000000000000000000000000000602082015250565b60006149c7602c83613b3e565b91506149d28261496b565b604082019050919050565b600060208201905081810360008301526149f6816149ba565b9050919050565b7f4e6565647320746f2062652076616c696420696e737469747574650000000000600082015250565b6000614a33601b83613b3e565b9150614a3e826149fd565b602082019050919050565b60006020820190508181036000830152614a6281614a26565b9050919050565b7f4552433732314275726e61626c653a2063616c6c6572206973206e6f74206f7760008201527f6e6572206e6f7220617070726f76656400000000000000000000000000000000602082015250565b6000614ac5603083613b3e565b9150614ad082614a69565b604082019050919050565b60006020820190508181036000830152614af481614ab8565b9050919050565b7f4e487b7100000000000000000000000000000000000000000000000000000000600052603260045260246000fd5b7f546f6b656e20616c7265616479206275726e6564000000000000000000000000600082015250565b6000614b60601483613b3e565b9150614b6b82614b2a565b602082019050919050565b60006020820190508181036000830152614b8f81614b53565b9050919050565b6000604082019050614bab600083018561436c565b8181036020830152614bbd8184613b4f565b90509392505050565b7f4e6f2073756666696369656e74207269676874206173206f776e657200000000600082015250565b6000614bfc601c83613b3e565b9150614c0782614bc6565b602082019050919050565b60006020820190508181036000830152614c2b81614bef565b9050919050565b7f4552433732313a20696e76616c696420746f6b656e2049440000000000000000600082015250565b6000614c68601883613b3e565b9150614c7382614c32565b602082019050919050565b60006020820190508181036000830152614c9781614c5b565b9050919050565b7f4552433732313a2061646472657373207a65726f206973206e6f74206120766160008201527f6c6964206f776e65720000000000000000000000000000000000000000000000602082015250565b6000614cfa602983613b3e565b9150614d0582614c9e565b604082019050919050565b60006020820190508181036000830152614d2981614ced565b9050919050565b7f4d7573742062652070726f706f736564206f776e657200000000000000000000600082015250565b6000614d66601683613b3e565b9150614d7182614d30565b602082019050919050565b60006020820190508181036000830152614d9581614d59565b9050919050565b7f4e6f2073756666696369656e7420726967687400000000000000000000000000600082015250565b6000614dd2601383613b3e565b9150614ddd82614d9c565b602082019050919050565b60006020820190508181036000830152614e0181614dc5565b9050919050565b60008190508160005260206000209050919050565b60006020601f8301049050919050565b600082821b905092915050565b600060088302614e6a7fffffffffffffffffffffffffffffffffffffffffffffffffffffffffffffffff82614e2d565b614e748683614e2d565b95508019841693508086168417925050509392505050565b6000819050919050565b6000614eb1614eac614ea784613baa565b614e8c565b613baa565b9050919050565b6000819050919050565b614ecb83614e96565b614edf614ed782614eb8565b848454614e3a565b825550505050565b600090565b614ef4614ee7565b614eff818484614ec2565b505050565b5b81811015614f2357614f18600082614eec565b600181019050614f05565b5050565b601f821115614f6857614f3981614e08565b614f4284614e1d565b81016020851015614f51578190505b614f65614f5d85614e1d565b830182614f04565b50505b505050565b600082821c905092915050565b6000614f8b60001984600802614f6d565b1980831691505092915050565b6000614fa48383614f7a565b9150826002028217905092915050565b614fbd8261396b565b67ffffffffffffffff811115614fd657614fd5613cf5565b5b614fe0825461493a565b614feb828285614f27565b600060209050601f83116001811461501e576000841561500c578287015190505b6150168582614f98565b86555061507e565b601f19841661502c86614e08565b60005b828110156150545784890151825560018201915060208501945060208101905061502f565b86831015615071578489015161506d601f891682614f7a565b8355505b6001600288020188555050505b505050505050565b7f4e487b7100000000000000000000000000000000000000000000000000000000600052601160045260246000fd5b60006150c082613baa565b91507fffffffffffffffffffffffffffffffffffffffffffffffffffffffffffffffff82036150f2576150f1615086565b5b600182019050919050565b600081905092915050565b60006151138261396b565b61511d81856150fd565b935061512d818560208601613987565b80840191505092915050565b60006151458285615108565b91506151518284615108565b91508190509392505050565b600061517061516b84613d70565b613d55565b90508281526020810184848401111561518c5761518b613cf0565b5b615197848285613987565b509392505050565b600082601f8301126151b4576151b3613ceb565b5b81516151c484826020860161515d565b91505092915050565b6000602082840312156151e3576151e26138d6565b5b600082015167ffffffffffffffff811115615201576152006138db565b5b61520d8482850161519f565b91505092915050565b600060808201905061522b6000830187613c8b565b818103602083015261523d818661460c565b905061524c60408301856148e1565b615259606083018461436c565b95945050505050565b61526b81614832565b811461527657600080fd5b50565b60008151905061528881615262565b92915050565b6000602082840312156152a4576152a36138d6565b5b60006152b284828501615279565b91505092915050565b60006152c682613baa565b9150600082036152d9576152d8615086565b5b600182039050919050565b60008190508160005260206000209050919050565b601f82111561533a5761530b816152e4565b61531484614e1d565b81016020851015615323578190505b61533761532f85614e1d565b830182614f04565b50505b505050565b615348826145f0565b67ffffffffffffffff81111561536157615360613cf5565b5b61536b825461493a565b6153768282856152f9565b600060209050601f8311600181146153a95760008415615397578287015190505b6153a18582614f98565b865550615409565b601f1984166153b7866152e4565b60005b828110156153df578489015182556001820191506020850194506020810190506153ba565b868310156153fc57848901516153f8601f891682614f7a565b8355505b6001600288020188555050505b505050505050565b6000604082019050818103600083015261542b818561460c565b9050818103602083015261543f818461460c565b90509392505050565b7f4552433732313a206d696e7420746f20746865207a65726f2061646472657373600082015250565b600061547e602083613b3e565b915061548982615448565b602082019050919050565b600060208201905081810360008301526154ad81615471565b9050919050565b7f4552433732313a20746f6b656e20616c7265616479206d696e74656400000000600082015250565b60006154ea601c83613b3e565b91506154f5826154b4565b602082019050919050565b60006020820190508181036000830152615519816154dd565b9050919050565b7f7b22696e737469747574655f6e616d65223a0000000000000000000000000000600082015250565b60006155566012836150fd565b915061556182615520565b601282019050919050565b7f22636f6d70616e795f6e616d65223a0000000000000000000000000000000000600082015250565b60006155a2600f836150fd565b91506155ad8261556c565b600f82019050919050565b7f2c2022636172626f6e5f63726564697473223a00000000000000000000000000600082015250565b60006155ee6013836150fd565b91506155f9826155b8565b601382019050919050565b7f2c202269737375655f64617465223a0000000000000000000000000000000000600082015250565b600061563a600f836150fd565b915061564582615604565b600f82019050919050565b7f2c2022696e6475737472795f6964223a00000000000000000000000000000000600082015250565b60006156866010836150fd565b915061569182615650565b601082019050919050565b7f2c20226465736372697074696f6e223a00000000000000000000000000000000600082015250565b60006156d26010836150fd565b91506156dd8261569c565b601082019050919050565b7f7d00000000000000000000000000000000000000000000000000000000000000600082015250565b600061571e6001836150fd565b9150615729826156e8565b600182019050919050565b600061573f82615549565b915061574b8289615108565b915061575682615595565b91506157628288615108565b915061576d826155e1565b91506157798287615108565b91506157848261562d565b91506157908286615108565b915061579b82615679565b91506157a78285615108565b91506157b2826156c5565b91506157be8284615108565b91506157c982615711565b9150819050979650505050505050565b7f45524337323155524953746f726167653a2055524920736574206f66206e6f6e60008201527f6578697374656e7420746f6b656e000000000000000000000000000000000000602082015250565b6000615835602e83613b3e565b9150615840826157d9565b604082019050919050565b6000602082019050818103600083015261586481615828565b9050919050565b7f4f6e6c792063616c6c61626c65206279206f776e657200000000000000000000600082015250565b60006158a1601683613b3e565b91506158ac8261586b565b602082019050919050565b600060208201905081810360008301526158d081615894565b9050919050565b7f4e487b7100000000000000000000000000000000000000000000000000000000600052602160045260246000fd5b600060608201905061591b6000830186613c8b565b818103602083015261592d818561460c565b905061593c60408301846148e1565b949350505050565b60008151905061595381613cbf565b92915050565b60006020828403121561596f5761596e6138d6565b5b600061597d84828501615944565b91505092915050565b60008151905061599581613912565b92915050565b6000602082840312156159b1576159b06138d6565b5b60006159bf84828501615986565b91505092915050565b7f43616e6e6f74207472616e7366657220746f2073656c66000000000000000000600082015250565b60006159fe601783613b3e565b9150615a09826159c8565b602082019050919050565b60006020820190508181036000830152615a2d816159f1565b9050919050565b7f4e487b7100000000000000000000000000000000000000000000000000000000600052601260045260246000fd5b6000615a6e82613baa565b9150615a7983613baa565b925082615a8957615a88615a34565b5b828206905092915050565b6000615a9f82613baa565b9150615aaa83613baa565b9250828203905081811115615ac257615ac1615086565b5b92915050565b6000615ad382613baa565b9150615ade83613baa565b9250828201905080821115615af657615af5615086565b5b92915050565b6000615b0782613baa565b9150615b1283613baa565b9250828202615b2081613baa565b91508282048414831517615b3757615b36615086565b5b5092915050565b60008160011c9050919050565b6000808291508390505b6001851115615b9557808604811115615b7157615b70615086565b5b6001851615615b805780820291505b8081029050615b8e85615b3e565b9450615b55565b94509492505050565b600082615bae5760019050615c6a565b81615bbc5760009050615c6a565b8160018114615bd25760028114615bdc57615c0b565b6001915050615c6a565b60ff841115615bee57615bed615086565b5b8360020a915084821115615c0557615c04615086565b5b50615c6a565b5060208310610133831016604e8410600b8410161715615c405782820a905083811115615c3b57615c3a615086565b5b615c6a565b615c4d8484846001615b4b565b92509050818404811115615c6457615c63615086565b5b81810290505b9392505050565b6000615c7c82613baa565b9150615c8783613baa565b9250615cb47fffffffffffffffffffffffffffffffffffffffffffffffffffffffffffffffff8484615b9e565b90509291505056fea264697066735822122096a2811c016ac23a283f63009d698fdc7dc8e0d555b92aac11a8bfe1abae173864736f6c63430008110033",
  "devdoc": {
    "kind": "dev",
    "methods": {
      "balanceOf(address)": {
        "details": "See {IERC721-balanceOf}."
      },
      "estimateCost((uint8,uint8,uint8,string,bytes,string[]),uint64,uint32,uint256)": {
        "params": {
          "gasLimit": "gas limit for the fulfillment callback",
          "req": "The initialized Functions.Request",
          "subscriptionId": "The subscription ID"
        },
        "returns": {
          "_0": "billedCost Cost in Juels (1e18) of LINK"
        }
      },
      "getDONPublicKey()": {
        "details": "All Oracles nodes have the corresponding private key needed to decrypt the secrets encrypted with the public key",
        "returns": {
          "_0": "publicKey DON's public key"
        }
      },
      "handleOracleFulfillment(bytes32,bytes,bytes)": {
        "params": {
          "err": "Aggregated error either from the user code or from the execution pipeline. Either response or error parameter will be set, but never both.",
          "requestId": "The requestId returned by FunctionsClient.sendRequest().",
          "response": "Aggregated response from the user code."
        }
      },
      "isApprovedForAll(address,address)": {
        "details": "See {IERC721-isApprovedForAll}."
      },
      "name()": {
        "details": "See {IERC721Metadata-name}."
      },
      "ownerOf(uint256)": {
        "details": "See {IERC721-ownerOf}."
      },
      "supportsInterface(bytes4)": {
        "details": "See {IERC165-supportsInterface}"
      },
      "symbol()": {
        "details": "See {IERC721Metadata-symbol}."
      },
      "tokenURI(uint256)": {
        "details": "See {IERC721Metadata-tokenURI}."
      },
      "updateOracleAddress(address)": {
        "params": {
          "oracle": "New oracle address"
        }
      }
    },
    "version": 1
  },
  "userdoc": {
    "kind": "user",
    "methods": {
      "acceptOwnership()": {
        "notice": "Allows an ownership transfer to be completed by the recipient."
      },
      "estimateCost((uint8,uint8,uint8,string,bytes,string[]),uint64,uint32,uint256)": {
        "notice": "Estimate the total cost that will be charged to a subscription to make a request: gas re-imbursement, plus DON fee, plus Registry fee"
      },
      "getDONPublicKey()": {
        "notice": "Returns the DON's secp256k1 public key used to encrypt secrets"
      },
      "handleOracleFulfillment(bytes32,bytes,bytes)": {
        "notice": "Chainlink Functions response handler called by the designated transmitter node in an OCR round."
      },
      "owner()": {
        "notice": "Get the current owner"
      },
      "transferOwnership(address)": {
        "notice": "Allows an owner to begin transferring ownership to a new address, pending."
      },
      "updateOracleAddress(address)": {
        "notice": "Allows the Functions oracle address to be updated"
      }
    },
    "version": 1
  },
  "storageLayout": {
    "storage": [
      {
        "astId": 4571,
        "contract": "contracts/SbtConvertible.sol:SbtConvertible",
        "label": "_name",
        "offset": 0,
        "slot": "0",
        "type": "t_string_storage"
      },
      {
        "astId": 4573,
        "contract": "contracts/SbtConvertible.sol:SbtConvertible",
        "label": "_symbol",
        "offset": 0,
        "slot": "1",
        "type": "t_string_storage"
      },
      {
        "astId": 4577,
        "contract": "contracts/SbtConvertible.sol:SbtConvertible",
        "label": "_owners",
        "offset": 0,
        "slot": "2",
        "type": "t_mapping(t_uint256,t_address)"
      },
      {
        "astId": 4581,
        "contract": "contracts/SbtConvertible.sol:SbtConvertible",
        "label": "_balances",
        "offset": 0,
        "slot": "3",
        "type": "t_mapping(t_address,t_uint256)"
      },
      {
        "astId": 4585,
        "contract": "contracts/SbtConvertible.sol:SbtConvertible",
        "label": "_tokenApprovals",
        "offset": 0,
        "slot": "4",
        "type": "t_mapping(t_uint256,t_address)"
      },
      {
        "astId": 4591,
        "contract": "contracts/SbtConvertible.sol:SbtConvertible",
        "label": "_operatorApprovals",
        "offset": 0,
        "slot": "5",
        "type": "t_mapping(t_address,t_mapping(t_address,t_bool))"
      },
      {
        "astId": 5622,
        "contract": "contracts/SbtConvertible.sol:SbtConvertible",
        "label": "_tokenURIs",
        "offset": 0,
        "slot": "6",
        "type": "t_mapping(t_uint256,t_string_storage)"
      },
      {
        "astId": 11346,
        "contract": "contracts/SbtConvertible.sol:SbtConvertible",
        "label": "owner",
        "offset": 0,
        "slot": "7",
        "type": "t_address"
      },
      {
        "astId": 11348,
        "contract": "contracts/SbtConvertible.sol:SbtConvertible",
        "label": "institutes_count",
        "offset": 0,
        "slot": "8",
        "type": "t_uint256"
      },
      {
        "astId": 11353,
        "contract": "contracts/SbtConvertible.sol:SbtConvertible",
        "label": "institutes",
        "offset": 0,
        "slot": "9",
        "type": "t_mapping(t_address,t_struct(Institute)11344_storage)"
      },
      {
        "astId": 11356,
        "contract": "contracts/SbtConvertible.sol:SbtConvertible",
        "label": "institutes_list",
        "offset": 0,
        "slot": "10",
        "type": "t_array(t_address)dyn_storage"
      },
      {
        "astId": 541,
        "contract": "contracts/SbtConvertible.sol:SbtConvertible",
        "label": "s_oracle",
        "offset": 0,
        "slot": "11",
        "type": "t_contract(FunctionsOracleInterface)970"
      },
      {
        "astId": 545,
        "contract": "contracts/SbtConvertible.sol:SbtConvertible",
        "label": "s_pendingRequests",
        "offset": 0,
        "slot": "12",
        "type": "t_mapping(t_bytes32,t_address)"
      },
      {
        "astId": 27,
        "contract": "contracts/SbtConvertible.sol:SbtConvertible",
        "label": "s_owner",
        "offset": 0,
        "slot": "13",
        "type": "t_address"
      },
      {
        "astId": 29,
        "contract": "contracts/SbtConvertible.sol:SbtConvertible",
        "label": "s_pendingOwner",
        "offset": 0,
        "slot": "14",
        "type": "t_address"
      },
      {
        "astId": 11544,
        "contract": "contracts/SbtConvertible.sol:SbtConvertible",
        "label": "_owner",
        "offset": 0,
        "slot": "15",
        "type": "t_address"
      },
      {
        "astId": 11551,
        "contract": "contracts/SbtConvertible.sol:SbtConvertible",
        "label": "_tokenIds",
        "offset": 0,
        "slot": "16",
        "type": "t_struct(Counter)6194_storage"
      },
      {
        "astId": 11563,
        "contract": "contracts/SbtConvertible.sol:SbtConvertible",
        "label": "latestRequestId",
        "offset": 0,
        "slot": "17",
        "type": "t_bytes32"
      },
      {
        "astId": 11565,
        "contract": "contracts/SbtConvertible.sol:SbtConvertible",
        "label": "latestResponse",
        "offset": 0,
        "slot": "18",
        "type": "t_bytes_storage"
      },
      {
        "astId": 11567,
        "contract": "contracts/SbtConvertible.sol:SbtConvertible",
        "label": "latestError",
        "offset": 0,
        "slot": "19",
        "type": "t_bytes_storage"
      },
      {
        "astId": 11570,
        "contract": "contracts/SbtConvertible.sol:SbtConvertible",
        "label": "gasLimit",
        "offset": 0,
        "slot": "20",
        "type": "t_uint32"
      },
      {
        "astId": 11573,
        "contract": "contracts/SbtConvertible.sol:SbtConvertible",
        "label": "subscriptionId",
        "offset": 4,
        "slot": "20",
        "type": "t_uint64"
      },
      {
        "astId": 11584,
        "contract": "contracts/SbtConvertible.sol:SbtConvertible",
        "label": "source",
        "offset": 0,
        "slot": "21",
        "type": "t_string_storage"
      }
    ],
    "types": {
      "t_address": {
        "encoding": "inplace",
        "label": "address",
        "numberOfBytes": "20"
      },
      "t_array(t_address)dyn_storage": {
        "base": "t_address",
        "encoding": "dynamic_array",
        "label": "address[]",
        "numberOfBytes": "32"
      },
      "t_bool": {
        "encoding": "inplace",
        "label": "bool",
        "numberOfBytes": "1"
      },
      "t_bytes32": {
        "encoding": "inplace",
        "label": "bytes32",
        "numberOfBytes": "32"
      },
      "t_bytes_storage": {
        "encoding": "bytes",
        "label": "bytes",
        "numberOfBytes": "32"
      },
      "t_contract(FunctionsOracleInterface)970": {
        "encoding": "inplace",
        "label": "contract FunctionsOracleInterface",
        "numberOfBytes": "20"
      },
      "t_mapping(t_address,t_bool)": {
        "encoding": "mapping",
        "key": "t_address",
        "label": "mapping(address => bool)",
        "numberOfBytes": "32",
        "value": "t_bool"
      },
      "t_mapping(t_address,t_mapping(t_address,t_bool))": {
        "encoding": "mapping",
        "key": "t_address",
        "label": "mapping(address => mapping(address => bool))",
        "numberOfBytes": "32",
        "value": "t_mapping(t_address,t_bool)"
      },
      "t_mapping(t_address,t_struct(Institute)11344_storage)": {
        "encoding": "mapping",
        "key": "t_address",
        "label": "mapping(address => struct Institutes.Institute)",
        "numberOfBytes": "32",
        "value": "t_struct(Institute)11344_storage"
      },
      "t_mapping(t_address,t_uint256)": {
        "encoding": "mapping",
        "key": "t_address",
        "label": "mapping(address => uint256)",
        "numberOfBytes": "32",
        "value": "t_uint256"
      },
      "t_mapping(t_bytes32,t_address)": {
        "encoding": "mapping",
        "key": "t_bytes32",
        "label": "mapping(bytes32 => address)",
        "numberOfBytes": "32",
        "value": "t_address"
      },
      "t_mapping(t_uint256,t_address)": {
        "encoding": "mapping",
        "key": "t_uint256",
        "label": "mapping(uint256 => address)",
        "numberOfBytes": "32",
        "value": "t_address"
      },
      "t_mapping(t_uint256,t_string_storage)": {
        "encoding": "mapping",
        "key": "t_uint256",
        "label": "mapping(uint256 => string)",
        "numberOfBytes": "32",
        "value": "t_string_storage"
      },
      "t_string_storage": {
        "encoding": "bytes",
        "label": "string",
        "numberOfBytes": "32"
      },
      "t_struct(Counter)6194_storage": {
        "encoding": "inplace",
        "label": "struct Counters.Counter",
        "members": [
          {
            "astId": 6193,
            "contract": "contracts/SbtConvertible.sol:SbtConvertible",
            "label": "_value",
            "offset": 0,
            "slot": "0",
            "type": "t_uint256"
          }
        ],
        "numberOfBytes": "32"
      },
      "t_struct(Institute)11344_storage": {
        "encoding": "inplace",
        "label": "struct Institutes.Institute",
        "members": [
          {
            "astId": 11339,
            "contract": "contracts/SbtConvertible.sol:SbtConvertible",
            "label": "name",
            "offset": 0,
            "slot": "0",
            "type": "t_string_storage"
          },
          {
            "astId": 11341,
            "contract": "contracts/SbtConvertible.sol:SbtConvertible",
            "label": "description",
            "offset": 0,
            "slot": "1",
            "type": "t_string_storage"
          },
          {
            "astId": 11343,
            "contract": "contracts/SbtConvertible.sol:SbtConvertible",
            "label": "active",
            "offset": 0,
            "slot": "2",
            "type": "t_bool"
          }
        ],
        "numberOfBytes": "96"
      },
      "t_uint256": {
        "encoding": "inplace",
        "label": "uint256",
        "numberOfBytes": "32"
      },
      "t_uint32": {
        "encoding": "inplace",
        "label": "uint32",
        "numberOfBytes": "4"
      },
      "t_uint64": {
        "encoding": "inplace",
        "label": "uint64",
        "numberOfBytes": "8"
      }
    }
  }
}