{
  "address": "0x9F55bEDEe22be24695632f94f5e8c45e1BAC639c",
  "abi": [
    {
      "inputs": [
        {
          "internalType": "address",
          "name": "carbonCreditsAddress",
          "type": "address"
        }
      ],
      "stateMutability": "nonpayable",
      "type": "constructor"
    },
    {
      "anonymous": false,
      "inputs": [
        {
          "indexed": true,
          "internalType": "address",
          "name": "owner",
          "type": "address"
        },
        {
          "indexed": true,
          "internalType": "address",
          "name": "approved",
          "type": "address"
        },
        {
          "indexed": true,
          "internalType": "uint256",
          "name": "tokenId",
          "type": "uint256"
        }
      ],
      "name": "Approval",
      "type": "event"
    },
    {
      "anonymous": false,
      "inputs": [
        {
          "indexed": true,
          "internalType": "address",
          "name": "owner",
          "type": "address"
        },
        {
          "indexed": true,
          "internalType": "address",
          "name": "operator",
          "type": "address"
        },
        {
          "indexed": false,
          "internalType": "bool",
          "name": "approved",
          "type": "bool"
        }
      ],
      "name": "ApprovalForAll",
      "type": "event"
    },
    {
      "anonymous": false,
      "inputs": [
        {
          "indexed": false,
          "internalType": "uint256",
          "name": "_fromTokenId",
          "type": "uint256"
        },
        {
          "indexed": false,
          "internalType": "uint256",
          "name": "_toTokenId",
          "type": "uint256"
        }
      ],
      "name": "BatchMetadataUpdate",
      "type": "event"
    },
    {
      "anonymous": false,
      "inputs": [
        {
          "indexed": false,
          "internalType": "uint256",
          "name": "_tokenId",
          "type": "uint256"
        }
      ],
      "name": "MetadataUpdate",
      "type": "event"
    },
    {
      "anonymous": false,
      "inputs": [
        {
          "indexed": true,
          "internalType": "address",
          "name": "from",
          "type": "address"
        },
        {
          "indexed": true,
          "internalType": "address",
          "name": "to",
          "type": "address"
        },
        {
          "indexed": true,
          "internalType": "uint256",
          "name": "tokenId",
          "type": "uint256"
        }
      ],
      "name": "Transfer",
      "type": "event"
    },
    {
      "inputs": [
        {
          "internalType": "string",
          "name": "name",
          "type": "string"
        },
        {
          "internalType": "string",
          "name": "description",
          "type": "string"
        },
        {
          "internalType": "address",
          "name": "company_adress",
          "type": "address"
        }
      ],
      "name": "addCompany",
      "outputs": [],
      "stateMutability": "nonpayable",
      "type": "function"
    },
    {
      "inputs": [
        {
          "internalType": "string",
          "name": "name",
          "type": "string"
        },
        {
          "internalType": "string",
          "name": "description",
          "type": "string"
        },
        {
          "internalType": "address",
          "name": "institute_adress",
          "type": "address"
        }
      ],
      "name": "addInstitute",
      "outputs": [],
      "stateMutability": "nonpayable",
      "type": "function"
    },
    {
      "inputs": [
        {
          "internalType": "address",
          "name": "_to",
          "type": "address"
        },
        {
          "internalType": "uint256",
          "name": "_tokenId",
          "type": "uint256"
        }
      ],
      "name": "approve",
      "outputs": [],
      "stateMutability": "nonpayable",
      "type": "function"
    },
    {
      "inputs": [
        {
          "internalType": "address",
          "name": "owner",
          "type": "address"
        }
      ],
      "name": "balanceOf",
      "outputs": [
        {
          "internalType": "uint256",
          "name": "",
          "type": "uint256"
        }
      ],
      "stateMutability": "view",
      "type": "function"
    },
    {
      "inputs": [],
      "name": "companyCount",
      "outputs": [
        {
          "internalType": "uint256",
          "name": "",
          "type": "uint256"
        }
      ],
      "stateMutability": "view",
      "type": "function"
    },
    {
      "inputs": [
        {
          "internalType": "address",
          "name": "company_adress",
          "type": "address"
        }
      ],
      "name": "companyInfo",
      "outputs": [
        {
          "components": [
            {
              "internalType": "string",
              "name": "name",
              "type": "string"
            },
            {
              "internalType": "string",
              "name": "description",
              "type": "string"
            },
            {
              "internalType": "bool",
              "name": "active",
              "type": "bool"
            }
          ],
          "internalType": "struct Companies.Company",
          "name": "",
          "type": "tuple"
        }
      ],
      "stateMutability": "view",
      "type": "function"
    },
    {
      "inputs": [
        {
          "internalType": "uint256",
          "name": "_tokenId",
          "type": "uint256"
        }
      ],
      "name": "getApproved",
      "outputs": [
        {
          "internalType": "address",
          "name": "",
          "type": "address"
        }
      ],
      "stateMutability": "view",
      "type": "function"
    },
    {
      "inputs": [],
      "name": "instituteCount",
      "outputs": [
        {
          "internalType": "uint256",
          "name": "",
          "type": "uint256"
        }
      ],
      "stateMutability": "view",
      "type": "function"
    },
    {
      "inputs": [
        {
          "internalType": "address",
          "name": "institute_adress",
          "type": "address"
        }
      ],
      "name": "instituteInfo",
      "outputs": [
        {
          "components": [
            {
              "internalType": "string",
              "name": "name",
              "type": "string"
            },
            {
              "internalType": "string",
              "name": "description",
              "type": "string"
            },
            {
              "internalType": "bool",
              "name": "active",
              "type": "bool"
            }
          ],
          "internalType": "struct Institutes.Institute",
          "name": "",
          "type": "tuple"
        }
      ],
      "stateMutability": "view",
      "type": "function"
    },
    {
      "inputs": [],
      "name": "instituteList",
      "outputs": [
        {
          "internalType": "address[]",
          "name": "",
          "type": "address[]"
        }
      ],
      "stateMutability": "view",
      "type": "function"
    },
    {
      "inputs": [
        {
          "internalType": "address",
          "name": "owner",
          "type": "address"
        },
        {
          "internalType": "address",
          "name": "operator",
          "type": "address"
        }
      ],
      "name": "isApprovedForAll",
      "outputs": [
        {
          "internalType": "bool",
          "name": "",
          "type": "bool"
        }
      ],
      "stateMutability": "view",
      "type": "function"
    },
    {
      "inputs": [
        {
          "internalType": "address",
          "name": "_admin",
          "type": "address"
        }
      ],
      "name": "is_admin",
      "outputs": [
        {
          "internalType": "bool",
          "name": "",
          "type": "bool"
        }
      ],
      "stateMutability": "view",
      "type": "function"
    },
    {
      "inputs": [
        {
          "internalType": "address",
          "name": "_company",
          "type": "address"
        }
      ],
      "name": "is_company",
      "outputs": [
        {
          "internalType": "bool",
          "name": "",
          "type": "bool"
        }
      ],
      "stateMutability": "view",
      "type": "function"
    },
    {
      "inputs": [
        {
          "internalType": "address",
          "name": "_institute",
          "type": "address"
        }
      ],
      "name": "is_institute",
      "outputs": [
        {
          "internalType": "bool",
          "name": "",
          "type": "bool"
        }
      ],
      "stateMutability": "view",
      "type": "function"
    },
    {
      "inputs": [
        {
          "internalType": "address",
          "name": "receiver",
          "type": "address"
        },
        {
          "internalType": "string",
          "name": "comp_name",
          "type": "string"
        },
        {
          "internalType": "string",
          "name": "carb_credits",
          "type": "string"
        },
        {
          "internalType": "string",
          "name": "description",
          "type": "string"
        },
        {
          "internalType": "string",
          "name": "issue_date",
          "type": "string"
        },
        {
          "internalType": "string",
          "name": "ind_id",
          "type": "string"
        },
        {
          "internalType": "uint256",
          "name": "institute_id",
          "type": "uint256"
        },
        {
          "internalType": "uint256",
          "name": "carbon_credits",
          "type": "uint256"
        }
      ],
      "name": "mintSBT",
      "outputs": [
        {
          "internalType": "bool",
          "name": "",
          "type": "bool"
        }
      ],
      "stateMutability": "nonpayable",
      "type": "function"
    },
    {
      "inputs": [],
      "name": "name",
      "outputs": [
        {
          "internalType": "string",
          "name": "",
          "type": "string"
        }
      ],
      "stateMutability": "view",
      "type": "function"
    },
    {
      "inputs": [
        {
          "internalType": "uint256",
          "name": "tokenId",
          "type": "uint256"
        }
      ],
      "name": "ownerOf",
      "outputs": [
        {
          "internalType": "address",
          "name": "",
          "type": "address"
        }
      ],
      "stateMutability": "view",
      "type": "function"
    },
    {
      "inputs": [
        {
          "internalType": "address",
          "name": "company_adress",
          "type": "address"
        }
      ],
      "name": "removeCompany",
      "outputs": [],
      "stateMutability": "nonpayable",
      "type": "function"
    },
    {
      "inputs": [
        {
          "internalType": "address",
          "name": "institute_adress",
          "type": "address"
        }
      ],
      "name": "removeInstitute",
      "outputs": [],
      "stateMutability": "nonpayable",
      "type": "function"
    },
    {
      "inputs": [
        {
          "internalType": "address",
          "name": "_from",
          "type": "address"
        },
        {
          "internalType": "address",
          "name": "_to",
          "type": "address"
        },
        {
          "internalType": "uint256",
          "name": "_tokenId",
          "type": "uint256"
        }
      ],
      "name": "safeTransferFrom",
      "outputs": [],
      "stateMutability": "nonpayable",
      "type": "function"
    },
    {
      "inputs": [
        {
          "internalType": "address",
          "name": "_from",
          "type": "address"
        },
        {
          "internalType": "address",
          "name": "_to",
          "type": "address"
        },
        {
          "internalType": "uint256",
          "name": "_tokenId",
          "type": "uint256"
        },
        {
          "internalType": "bytes",
          "name": "_data",
          "type": "bytes"
        }
      ],
      "name": "safeTransferFrom",
      "outputs": [],
      "stateMutability": "nonpayable",
      "type": "function"
    },
    {
      "inputs": [
        {
          "internalType": "address",
          "name": "_operator",
          "type": "address"
        },
        {
          "internalType": "bool",
          "name": "_approved",
          "type": "bool"
        }
      ],
      "name": "setApprovalForAll",
      "outputs": [],
      "stateMutability": "nonpayable",
      "type": "function"
    },
    {
      "inputs": [
        {
          "internalType": "bytes4",
          "name": "interfaceId",
          "type": "bytes4"
        }
      ],
      "name": "supportsInterface",
      "outputs": [
        {
          "internalType": "bool",
          "name": "",
          "type": "bool"
        }
      ],
      "stateMutability": "view",
      "type": "function"
    },
    {
      "inputs": [],
      "name": "symbol",
      "outputs": [
        {
          "internalType": "string",
          "name": "",
          "type": "string"
        }
      ],
      "stateMutability": "view",
      "type": "function"
    },
    {
      "inputs": [
        {
          "internalType": "uint256",
          "name": "tokenId",
          "type": "uint256"
        }
      ],
      "name": "tokenURI",
      "outputs": [
        {
          "internalType": "string",
          "name": "",
          "type": "string"
        }
      ],
      "stateMutability": "view",
      "type": "function"
    },
    {
      "inputs": [
        {
          "internalType": "address",
          "name": "_from",
          "type": "address"
        },
        {
          "internalType": "address",
          "name": "_to",
          "type": "address"
        },
        {
          "internalType": "uint256",
          "name": "_tokenId",
          "type": "uint256"
        }
      ],
      "name": "transferFrom",
      "outputs": [],
      "stateMutability": "nonpayable",
      "type": "function"
    }
  ],
  "transactionHash": "0x7d666c8d309822269947bab13cd592fc73a1300994272a940981c2ed04e6bd0e",
  "args": [
    "0x0cB1AF4d73bDdD26264F58731d4CAaF6bEa9373d"
  ],
  "numDeployments": 3,
  "solcInputHash": "6aefd7d2be27cff8df57372421ef2828",
  "bytecode": "0x60806040523480156200001157600080fd5b5060405162003b0538038062003b058339818101604052810190620000379190620001fd565b6040518060400160405280601c81526020017f5065726d616e656e7420436172626f6e2d4372656469747320534254000000008152506040518060400160405280600681526020017f50434353425400000000000000000000000000000000000000000000000000008152508160009081620000b49190620004a9565b508060019081620000c69190620004a9565b50505033600760006101000a81548173ffffffffffffffffffffffffffffffffffffffff021916908373ffffffffffffffffffffffffffffffffffffffff16021790555033600b60006101000a81548173ffffffffffffffffffffffffffffffffffffffff021916908373ffffffffffffffffffffffffffffffffffffffff16021790555080601060006101000a81548173ffffffffffffffffffffffffffffffffffffffff021916908373ffffffffffffffffffffffffffffffffffffffff1602179055505062000590565b600080fd5b600073ffffffffffffffffffffffffffffffffffffffff82169050919050565b6000620001c58262000198565b9050919050565b620001d781620001b8565b8114620001e357600080fd5b50565b600081519050620001f781620001cc565b92915050565b60006020828403121562000216576200021562000193565b5b60006200022684828501620001e6565b91505092915050565b600081519050919050565b7f4e487b7100000000000000000000000000000000000000000000000000000000600052604160045260246000fd5b7f4e487b7100000000000000000000000000000000000000000000000000000000600052602260045260246000fd5b60006002820490506001821680620002b157607f821691505b602082108103620002c757620002c662000269565b5b50919050565b60008190508160005260206000209050919050565b60006020601f8301049050919050565b600082821b905092915050565b600060088302620003317fffffffffffffffffffffffffffffffffffffffffffffffffffffffffffffffff82620002f2565b6200033d8683620002f2565b95508019841693508086168417925050509392505050565b6000819050919050565b6000819050919050565b60006200038a620003846200037e8462000355565b6200035f565b62000355565b9050919050565b6000819050919050565b620003a68362000369565b620003be620003b58262000391565b848454620002ff565b825550505050565b600090565b620003d5620003c6565b620003e28184846200039b565b505050565b5b818110156200040a57620003fe600082620003cb565b600181019050620003e8565b5050565b601f82111562000459576200042381620002cd565b6200042e84620002e2565b810160208510156200043e578190505b620004566200044d85620002e2565b830182620003e7565b50505b505050565b600082821c905092915050565b60006200047e600019846008026200045e565b1980831691505092915050565b60006200049983836200046b565b9150826002028217905092915050565b620004b4826200022f565b67ffffffffffffffff811115620004d057620004cf6200023a565b5b620004dc825462000298565b620004e98282856200040e565b600060209050601f8311600181146200052157600084156200050c578287015190505b6200051885826200048b565b86555062000588565b601f1984166200053186620002cd565b60005b828110156200055b5784890151825560018201915060208501945060208101905062000534565b868310156200057b578489015162000577601f8916826200046b565b8355505b6001600288020188555050505b505050505050565b61356580620005a06000396000f3fe608060405234801561001057600080fd5b506004361061018d5760003560e01c80638e75dd47116100de578063b88d4fde11610097578063e3e436fb11610071578063e3e436fb146104ca578063e985e9c5146104fa578063f41abb281461052a578063fefb21a4146105465761018d565b8063b88d4fde1461044e578063c87b56dd1461046a578063dd7a75381461049a5761018d565b80638e75dd471461037a5780638f8e94c91461039857806395d89b41146103b4578063a22cb465146103d2578063a673dd4b146103ee578063aac132de1461041e5761018d565b806323b872dd1161014b578063588cbbd211610125578063588cbbd2146102cc5780636352211e146102fc57806370a082311461032c57806380e8d61a1461035c5761018d565b806323b872dd1461027857806342842e0e1461029457806343bfb1b8146102b05761018d565b8062c381631461019257806301ffc9a7146101c257806306fdde03146101f2578063081812fc14610210578063095ea7b31461024057806320ee2dcc1461025c575b600080fd5b6101ac60048036038101906101a79190612015565b610564565b6040516101b99190612144565b60405180910390f35b6101dc60048036038101906101d791906121be565b6106fc565b6040516101e991906121fa565b60405180910390f35b6101fa61075d565b604051610207919061225f565b60405180910390f35b61022a600480360381019061022591906122b7565b6107ef565b60405161023791906122f3565b60405180910390f35b61025a6004803603810190610255919061230e565b6107f6565b005b61027660048036038101906102719190612015565b610831565b005b610292600480360381019061028d919061234e565b610937565b005b6102ae60048036038101906102a9919061234e565b610972565b005b6102ca60048036038101906102c591906124d6565b6109ad565b005b6102e660048036038101906102e19190612561565b610a7c565b6040516102f391906121fa565b60405180910390f35b610316600480360381019061031191906122b7565b610d41565b60405161032391906122f3565b60405180910390f35b61034660048036038101906103419190612015565b610dc7565b60405161035391906126b2565b60405180910390f35b610364610e7e565b604051610371919061278b565b60405180910390f35b610382610f0c565b60405161038f91906126b2565b60405180910390f35b6103b260048036038101906103ad91906124d6565b610f16565b005b6103bc6110d8565b6040516103c9919061225f565b60405180910390f35b6103ec60048036038101906103e791906127d9565b61116a565b005b61040860048036038101906104039190612015565b6111a5565b60405161041591906121fa565b60405180910390f35b61043860048036038101906104339190612015565b61120f565b60405161044591906121fa565b60405180910390f35b610468600480360381019061046391906128ba565b611279565b005b610484600480360381019061047f91906122b7565b6112b4565b604051610491919061225f565b60405180910390f35b6104b460048036038101906104af9190612015565b6113c6565b6040516104c191906121fa565b60405180910390f35b6104e460048036038101906104df9190612015565b611430565b6040516104f19190612994565b60405180910390f35b610514600480360381019061050f91906129b6565b6115c8565b60405161052191906121fa565b60405180910390f35b610544600480360381019061053f9190612015565b61165c565b005b61054e611762565b60405161055b91906126b2565b60405180910390f35b61056c611f5d565b600960008373ffffffffffffffffffffffffffffffffffffffff1673ffffffffffffffffffffffffffffffffffffffff1681526020019081526020016000206040518060600160405290816000820180546105c690612a25565b80601f01602080910402602001604051908101604052809291908181526020018280546105f290612a25565b801561063f5780601f106106145761010080835404028352916020019161063f565b820191906000526020600020905b81548152906001019060200180831161062257829003601f168201915b5050505050815260200160018201805461065890612a25565b80601f016020809104026020016040519081016040528092919081815260200182805461068490612a25565b80156106d15780601f106106a6576101008083540402835291602001916106d1565b820191906000526020600020905b8154815290600101906020018083116106b457829003601f168201915b505050505081526020016002820160009054906101000a900460ff1615151515815250509050919050565b6000634906490660e01b7bffffffffffffffffffffffffffffffffffffffffffffffffffffffff1916827bffffffffffffffffffffffffffffffffffffffffffffffffffffffff1916148061075657506107558261176c565b5b9050919050565b60606000805461076c90612a25565b80601f016020809104026020016040519081016040528092919081815260200182805461079890612a25565b80156107e55780601f106107ba576101008083540402835291602001916107e5565b820191906000526020600020905b8154815290600101906020018083116107c857829003601f168201915b5050505050905090565b6000919050565b6040517f08c379a000000000000000000000000000000000000000000000000000000000815260040161082890612ac8565b60405180910390fd5b3373ffffffffffffffffffffffffffffffffffffffff16600b60009054906101000a900473ffffffffffffffffffffffffffffffffffffffff1673ffffffffffffffffffffffffffffffffffffffff16146108c1576040517f08c379a00000000000000000000000000000000000000000000000000000000081526004016108b890612b34565b60405180910390fd5b6000600d60008373ffffffffffffffffffffffffffffffffffffffff1673ffffffffffffffffffffffffffffffffffffffff16815260200190815260200160002060020160006101000a81548160ff021916908315150217905550600c600081548092919061092f90612b83565b919050555050565b6040517f08c379a000000000000000000000000000000000000000000000000000000000815260040161096990612ac8565b60405180910390fd5b6040517f08c379a00000000000000000000000000000000000000000000000000000000081526004016109a490612ac8565b60405180910390fd5b6000604051806060016040528085815260200184815260200160011515815250905080600d60008473ffffffffffffffffffffffffffffffffffffffff1673ffffffffffffffffffffffffffffffffffffffff1681526020019081526020016000206000820151816000019081610a249190612d58565b506020820151816001019081610a3a9190612d58565b5060408201518160020160006101000a81548160ff021916908315150217905550905050600c6000815480929190610a7190612e2a565b919050555050505050565b600060011515600960003373ffffffffffffffffffffffffffffffffffffffff1673ffffffffffffffffffffffffffffffffffffffff16815260200190815260200160002060020160009054906101000a900460ff16151514610b14576040517f08c379a0000000000000000000000000000000000000000000000000000000008152600401610b0b90612ebe565b60405180910390fd5b60003390506000600960008373ffffffffffffffffffffffffffffffffffffffff1673ffffffffffffffffffffffffffffffffffffffff1681526020019081526020016000206000018054610b6890612a25565b80601f0160208091040260200160405190810160405280929190818152602001828054610b9490612a25565b8015610be15780601f10610bb657610100808354040283529160200191610be1565b820191906000526020600020905b815481529060010190602001808311610bc457829003601f168201915b5050505050905060006040518060c001604052808381526020018c81526020018b81526020018981526020018881526020018a8152509050601060009054906101000a900473ffffffffffffffffffffffffffffffffffffffff1673ffffffffffffffffffffffffffffffffffffffff1663731133e98d8888600067ffffffffffffffff811115610c7557610c746123ab565b5b6040519080825280601f01601f191660200182016040528015610ca75781602001600182028036833780820191505090505b506040518563ffffffff1660e01b8152600401610cc79493929190612f33565b600060405180830381600087803b158015610ce157600080fd5b505af1158015610cf5573d6000803e3d6000fd5b50505050610d03600f61184e565b6000610d0f600f611864565b9050610d1b8d82611872565b610d2d81610d2884611a8f565b611ada565b600194505050505098975050505050505050565b600080610d4d83611b7e565b9050600073ffffffffffffffffffffffffffffffffffffffff168173ffffffffffffffffffffffffffffffffffffffff1603610dbe576040517f08c379a0000000000000000000000000000000000000000000000000000000008152600401610db590612fcb565b60405180910390fd5b80915050919050565b60008073ffffffffffffffffffffffffffffffffffffffff168273ffffffffffffffffffffffffffffffffffffffff1603610e37576040517f08c379a0000000000000000000000000000000000000000000000000000000008152600401610e2e9061305d565b60405180910390fd5b600360008373ffffffffffffffffffffffffffffffffffffffff1673ffffffffffffffffffffffffffffffffffffffff168152602001908152602001600020549050919050565b6060600a805480602002602001604051908101604052809291908181526020018280548015610f0257602002820191906000526020600020905b8160009054906101000a900473ffffffffffffffffffffffffffffffffffffffff1673ffffffffffffffffffffffffffffffffffffffff1681526020019060010190808311610eb8575b5050505050905090565b6000600c54905090565b3373ffffffffffffffffffffffffffffffffffffffff16600760009054906101000a900473ffffffffffffffffffffffffffffffffffffffff1673ffffffffffffffffffffffffffffffffffffffff1614610fa6576040517f08c379a0000000000000000000000000000000000000000000000000000000008152600401610f9d90612b34565b60405180910390fd5b6000604051806060016040528085815260200184815260200160011515815250905080600960008473ffffffffffffffffffffffffffffffffffffffff1673ffffffffffffffffffffffffffffffffffffffff168152602001908152602001600020600082015181600001908161101d9190612d58565b5060208201518160010190816110339190612d58565b5060408201518160020160006101000a81548160ff021916908315150217905550905050600a829080600181540180825580915050600190039060005260206000200160009091909190916101000a81548173ffffffffffffffffffffffffffffffffffffffff021916908373ffffffffffffffffffffffffffffffffffffffff160217905550600860008154809291906110cd90612e2a565b919050555050505050565b6060600180546110e790612a25565b80601f016020809104026020016040519081016040528092919081815260200182805461111390612a25565b80156111605780601f1061113557610100808354040283529160200191611160565b820191906000526020600020905b81548152906001019060200180831161114357829003601f168201915b5050505050905090565b6040517f08c379a000000000000000000000000000000000000000000000000000000000815260040161119c90612ac8565b60405180910390fd5b6000600960008373ffffffffffffffffffffffffffffffffffffffff1673ffffffffffffffffffffffffffffffffffffffff16815260200190815260200160002060020160009054906101000a900460ff1615611205576001905061120a565b600090505b919050565b6000600760009054906101000a900473ffffffffffffffffffffffffffffffffffffffff1673ffffffffffffffffffffffffffffffffffffffff168273ffffffffffffffffffffffffffffffffffffffff160361126f5760019050611274565b600090505b919050565b6040517f08c379a00000000000000000000000000000000000000000000000000000000081526004016112ab90612ac8565b60405180910390fd5b60606112bf82611bbb565b60006006600084815260200190815260200160002080546112df90612a25565b80601f016020809104026020016040519081016040528092919081815260200182805461130b90612a25565b80156113585780601f1061132d57610100808354040283529160200191611358565b820191906000526020600020905b81548152906001019060200180831161133b57829003601f168201915b505050505090506000611369611c06565b9050600081510361137e5781925050506113c1565b6000825111156113b357808260405160200161139b9291906130b9565b604051602081830303815290604052925050506113c1565b6113bc84611c1d565b925050505b919050565b6000600d60008373ffffffffffffffffffffffffffffffffffffffff1673ffffffffffffffffffffffffffffffffffffffff16815260200190815260200160002060020160009054906101000a900460ff1615611426576001905061142b565b600090505b919050565b611438611f80565b600d60008373ffffffffffffffffffffffffffffffffffffffff1673ffffffffffffffffffffffffffffffffffffffff16815260200190815260200160002060405180606001604052908160008201805461149290612a25565b80601f01602080910402602001604051908101604052809291908181526020018280546114be90612a25565b801561150b5780601f106114e05761010080835404028352916020019161150b565b820191906000526020600020905b8154815290600101906020018083116114ee57829003601f168201915b5050505050815260200160018201805461152490612a25565b80601f016020809104026020016040519081016040528092919081815260200182805461155090612a25565b801561159d5780601f106115725761010080835404028352916020019161159d565b820191906000526020600020905b81548152906001019060200180831161158057829003601f168201915b505050505081526020016002820160009054906101000a900460ff1615151515815250509050919050565b6000600560008473ffffffffffffffffffffffffffffffffffffffff1673ffffffffffffffffffffffffffffffffffffffff16815260200190815260200160002060008373ffffffffffffffffffffffffffffffffffffffff1673ffffffffffffffffffffffffffffffffffffffff16815260200190815260200160002060009054906101000a900460ff16905092915050565b3373ffffffffffffffffffffffffffffffffffffffff16600760009054906101000a900473ffffffffffffffffffffffffffffffffffffffff1673ffffffffffffffffffffffffffffffffffffffff16146116ec576040517f08c379a00000000000000000000000000000000000000000000000000000000081526004016116e390612b34565b60405180910390fd5b6000600960008373ffffffffffffffffffffffffffffffffffffffff1673ffffffffffffffffffffffffffffffffffffffff16815260200190815260200160002060020160006101000a81548160ff0219169083151502179055506008600081548092919061175a90612b83565b919050555050565b6000600854905090565b60007f80ac58cd000000000000000000000000000000000000000000000000000000007bffffffffffffffffffffffffffffffffffffffffffffffffffffffff1916827bffffffffffffffffffffffffffffffffffffffffffffffffffffffff1916148061183757507f5b5e139f000000000000000000000000000000000000000000000000000000007bffffffffffffffffffffffffffffffffffffffffffffffffffffffff1916827bffffffffffffffffffffffffffffffffffffffffffffffffffffffff1916145b80611847575061184682611c85565b5b9050919050565b6001816000016000828254019250508190555050565b600081600001549050919050565b600073ffffffffffffffffffffffffffffffffffffffff168273ffffffffffffffffffffffffffffffffffffffff16036118e1576040517f08c379a00000000000000000000000000000000000000000000000000000000081526004016118d890613129565b60405180910390fd5b6118ea81611cef565b1561192a576040517f08c379a000000000000000000000000000000000000000000000000000000000815260040161192190613195565b60405180910390fd5b611938600083836001611d30565b61194181611cef565b15611981576040517f08c379a000000000000000000000000000000000000000000000000000000000815260040161197890613195565b60405180910390fd5b6001600360008473ffffffffffffffffffffffffffffffffffffffff1673ffffffffffffffffffffffffffffffffffffffff16815260200190815260200160002060008282540192505081905550816002600083815260200190815260200160002060006101000a81548173ffffffffffffffffffffffffffffffffffffffff021916908373ffffffffffffffffffffffffffffffffffffffff160217905550808273ffffffffffffffffffffffffffffffffffffffff16600073ffffffffffffffffffffffffffffffffffffffff167fddf252ad1be2c89b69c2b068fc378daa952ba7f163c4a11628f55a4df523b3ef60405160405180910390a4611a8b600083836001611d36565b5050565b6060816000015182602001518360400151846060015185608001518660a00151604051602001611ac4969594939291906133c9565b6040516020818303038152906040529050919050565b611ae382611cef565b611b22576040517f08c379a0000000000000000000000000000000000000000000000000000000008152600401611b19906134e0565b60405180910390fd5b80600660008481526020019081526020016000209081611b429190612d58565b507ff8e1a15aba9398e019f0b49df1a4fde98ee17ae345cb5f6b5e2c27f5033e8ce782604051611b7291906126b2565b60405180910390a15050565b60006002600083815260200190815260200160002060009054906101000a900473ffffffffffffffffffffffffffffffffffffffff169050919050565b611bc481611cef565b611c03576040517f08c379a0000000000000000000000000000000000000000000000000000000008152600401611bfa90612fcb565b60405180910390fd5b50565b606060405180602001604052806000815250905090565b6060611c2882611bbb565b6000611c32611c06565b90506000815111611c525760405180602001604052806000815250611c7d565b80611c5c84611d3c565b604051602001611c6d9291906130b9565b6040516020818303038152906040525b915050919050565b60007f01ffc9a7000000000000000000000000000000000000000000000000000000007bffffffffffffffffffffffffffffffffffffffffffffffffffffffff1916827bffffffffffffffffffffffffffffffffffffffffffffffffffffffff1916149050919050565b60008073ffffffffffffffffffffffffffffffffffffffff16611d1183611b7e565b73ffffffffffffffffffffffffffffffffffffffff1614159050919050565b50505050565b50505050565b606060006001611d4b84611e0a565b01905060008167ffffffffffffffff811115611d6a57611d696123ab565b5b6040519080825280601f01601f191660200182016040528015611d9c5781602001600182028036833780820191505090505b509050600082602001820190505b600115611dff578080600190039150507f3031323334353637383961626364656600000000000000000000000000000000600a86061a8153600a8581611df357611df2613500565b5b04945060008503611daa575b819350505050919050565b600080600090507a184f03e93ff9f4daa797ed6e38ed64bf6a1f0100000000000000008310611e68577a184f03e93ff9f4daa797ed6e38ed64bf6a1f0100000000000000008381611e5e57611e5d613500565b5b0492506040810190505b6d04ee2d6d415b85acef81000000008310611ea5576d04ee2d6d415b85acef81000000008381611e9b57611e9a613500565b5b0492506020810190505b662386f26fc100008310611ed457662386f26fc100008381611eca57611ec9613500565b5b0492506010810190505b6305f5e1008310611efd576305f5e1008381611ef357611ef2613500565b5b0492506008810190505b6127108310611f22576127108381611f1857611f17613500565b5b0492506004810190505b60648310611f455760648381611f3b57611f3a613500565b5b0492506002810190505b600a8310611f54576001810190505b80915050919050565b604051806060016040528060608152602001606081526020016000151581525090565b604051806060016040528060608152602001606081526020016000151581525090565b6000604051905090565b600080fd5b600080fd5b600073ffffffffffffffffffffffffffffffffffffffff82169050919050565b6000611fe282611fb7565b9050919050565b611ff281611fd7565b8114611ffd57600080fd5b50565b60008135905061200f81611fe9565b92915050565b60006020828403121561202b5761202a611fad565b5b600061203984828501612000565b91505092915050565b600081519050919050565b600082825260208201905092915050565b60005b8381101561207c578082015181840152602081019050612061565b60008484015250505050565b6000601f19601f8301169050919050565b60006120a482612042565b6120ae818561204d565b93506120be81856020860161205e565b6120c781612088565b840191505092915050565b60008115159050919050565b6120e7816120d2565b82525050565b6000606083016000830151848203600086015261210a8282612099565b915050602083015184820360208601526121248282612099565b915050604083015161213960408601826120de565b508091505092915050565b6000602082019050818103600083015261215e81846120ed565b905092915050565b60007fffffffff0000000000000000000000000000000000000000000000000000000082169050919050565b61219b81612166565b81146121a657600080fd5b50565b6000813590506121b881612192565b92915050565b6000602082840312156121d4576121d3611fad565b5b60006121e2848285016121a9565b91505092915050565b6121f4816120d2565b82525050565b600060208201905061220f60008301846121eb565b92915050565b600082825260208201905092915050565b600061223182612042565b61223b8185612215565b935061224b81856020860161205e565b61225481612088565b840191505092915050565b600060208201905081810360008301526122798184612226565b905092915050565b6000819050919050565b61229481612281565b811461229f57600080fd5b50565b6000813590506122b18161228b565b92915050565b6000602082840312156122cd576122cc611fad565b5b60006122db848285016122a2565b91505092915050565b6122ed81611fd7565b82525050565b600060208201905061230860008301846122e4565b92915050565b6000806040838503121561232557612324611fad565b5b600061233385828601612000565b9250506020612344858286016122a2565b9150509250929050565b60008060006060848603121561236757612366611fad565b5b600061237586828701612000565b935050602061238686828701612000565b9250506040612397868287016122a2565b9150509250925092565b600080fd5b600080fd5b7f4e487b7100000000000000000000000000000000000000000000000000000000600052604160045260246000fd5b6123e382612088565b810181811067ffffffffffffffff82111715612402576124016123ab565b5b80604052505050565b6000612415611fa3565b905061242182826123da565b919050565b600067ffffffffffffffff821115612441576124406123ab565b5b61244a82612088565b9050602081019050919050565b82818337600083830152505050565b600061247961247484612426565b61240b565b905082815260208101848484011115612495576124946123a6565b5b6124a0848285612457565b509392505050565b600082601f8301126124bd576124bc6123a1565b5b81356124cd848260208601612466565b91505092915050565b6000806000606084860312156124ef576124ee611fad565b5b600084013567ffffffffffffffff81111561250d5761250c611fb2565b5b612519868287016124a8565b935050602084013567ffffffffffffffff81111561253a57612539611fb2565b5b612546868287016124a8565b925050604061255786828701612000565b9150509250925092565b600080600080600080600080610100898b03121561258257612581611fad565b5b60006125908b828c01612000565b985050602089013567ffffffffffffffff8111156125b1576125b0611fb2565b5b6125bd8b828c016124a8565b975050604089013567ffffffffffffffff8111156125de576125dd611fb2565b5b6125ea8b828c016124a8565b965050606089013567ffffffffffffffff81111561260b5761260a611fb2565b5b6126178b828c016124a8565b955050608089013567ffffffffffffffff81111561263857612637611fb2565b5b6126448b828c016124a8565b94505060a089013567ffffffffffffffff81111561266557612664611fb2565b5b6126718b828c016124a8565b93505060c06126828b828c016122a2565b92505060e06126938b828c016122a2565b9150509295985092959890939650565b6126ac81612281565b82525050565b60006020820190506126c760008301846126a3565b92915050565b600081519050919050565b600082825260208201905092915050565b6000819050602082019050919050565b61270281611fd7565b82525050565b600061271483836126f9565b60208301905092915050565b6000602082019050919050565b6000612738826126cd565b61274281856126d8565b935061274d836126e9565b8060005b8381101561277e5781516127658882612708565b975061277083612720565b925050600181019050612751565b5085935050505092915050565b600060208201905081810360008301526127a5818461272d565b905092915050565b6127b6816120d2565b81146127c157600080fd5b50565b6000813590506127d3816127ad565b92915050565b600080604083850312156127f0576127ef611fad565b5b60006127fe85828601612000565b925050602061280f858286016127c4565b9150509250929050565b600067ffffffffffffffff821115612834576128336123ab565b5b61283d82612088565b9050602081019050919050565b600061285d61285884612819565b61240b565b905082815260208101848484011115612879576128786123a6565b5b612884848285612457565b509392505050565b600082601f8301126128a1576128a06123a1565b5b81356128b184826020860161284a565b91505092915050565b600080600080608085870312156128d4576128d3611fad565b5b60006128e287828801612000565b94505060206128f387828801612000565b9350506040612904878288016122a2565b925050606085013567ffffffffffffffff81111561292557612924611fb2565b5b6129318782880161288c565b91505092959194509250565b6000606083016000830151848203600086015261295a8282612099565b915050602083015184820360208601526129748282612099565b915050604083015161298960408601826120de565b508091505092915050565b600060208201905081810360008301526129ae818461293d565b905092915050565b600080604083850312156129cd576129cc611fad565b5b60006129db85828601612000565b92505060206129ec85828601612000565b9150509250929050565b7f4e487b7100000000000000000000000000000000000000000000000000000000600052602260045260246000fd5b60006002820490506001821680612a3d57607f821691505b602082108103612a5057612a4f6129f6565b5b50919050565b7f5472616e73666572206e6f7420737570706f7274656420666f7220736f756c2060008201527f626f756e6420746f6b656e2e0000000000000000000000000000000000000000602082015250565b6000612ab2602c83612215565b9150612abd82612a56565b604082019050919050565b60006020820190508181036000830152612ae181612aa5565b9050919050565b7f4e6f2073756666696369656e7420726967687400000000000000000000000000600082015250565b6000612b1e601383612215565b9150612b2982612ae8565b602082019050919050565b60006020820190508181036000830152612b4d81612b11565b9050919050565b7f4e487b7100000000000000000000000000000000000000000000000000000000600052601160045260246000fd5b6000612b8e82612281565b915060008203612ba157612ba0612b54565b5b600182039050919050565b60008190508160005260206000209050919050565b60006020601f8301049050919050565b600082821b905092915050565b600060088302612c0e7fffffffffffffffffffffffffffffffffffffffffffffffffffffffffffffffff82612bd1565b612c188683612bd1565b95508019841693508086168417925050509392505050565b6000819050919050565b6000612c55612c50612c4b84612281565b612c30565b612281565b9050919050565b6000819050919050565b612c6f83612c3a565b612c83612c7b82612c5c565b848454612bde565b825550505050565b600090565b612c98612c8b565b612ca3818484612c66565b505050565b5b81811015612cc757612cbc600082612c90565b600181019050612ca9565b5050565b601f821115612d0c57612cdd81612bac565b612ce684612bc1565b81016020851015612cf5578190505b612d09612d0185612bc1565b830182612ca8565b50505b505050565b600082821c905092915050565b6000612d2f60001984600802612d11565b1980831691505092915050565b6000612d488383612d1e565b9150826002028217905092915050565b612d6182612042565b67ffffffffffffffff811115612d7a57612d796123ab565b5b612d848254612a25565b612d8f828285612ccb565b600060209050601f831160018114612dc25760008415612db0578287015190505b612dba8582612d3c565b865550612e22565b601f198416612dd086612bac565b60005b82811015612df857848901518255600182019150602085019450602081019050612dd3565b86831015612e155784890151612e11601f891682612d1e565b8355505b6001600288020188555050505b505050505050565b6000612e3582612281565b91507fffffffffffffffffffffffffffffffffffffffffffffffffffffffffffffffff8203612e6757612e66612b54565b5b600182019050919050565b7f4e6565647320746f2062652076616c696420696e737469747574650000000000600082015250565b6000612ea8601b83612215565b9150612eb382612e72565b602082019050919050565b60006020820190508181036000830152612ed781612e9b565b9050919050565b600081519050919050565b600082825260208201905092915050565b6000612f0582612ede565b612f0f8185612ee9565b9350612f1f81856020860161205e565b612f2881612088565b840191505092915050565b6000608082019050612f4860008301876122e4565b612f5560208301866126a3565b612f6260408301856126a3565b8181036060830152612f748184612efa565b905095945050505050565b7f4552433732313a20696e76616c696420746f6b656e2049440000000000000000600082015250565b6000612fb5601883612215565b9150612fc082612f7f565b602082019050919050565b60006020820190508181036000830152612fe481612fa8565b9050919050565b7f4552433732313a2061646472657373207a65726f206973206e6f74206120766160008201527f6c6964206f776e65720000000000000000000000000000000000000000000000602082015250565b6000613047602983612215565b915061305282612feb565b604082019050919050565b600060208201905081810360008301526130768161303a565b9050919050565b600081905092915050565b600061309382612042565b61309d818561307d565b93506130ad81856020860161205e565b80840191505092915050565b60006130c58285613088565b91506130d18284613088565b91508190509392505050565b7f4552433732313a206d696e7420746f20746865207a65726f2061646472657373600082015250565b6000613113602083612215565b915061311e826130dd565b602082019050919050565b6000602082019050818103600083015261314281613106565b9050919050565b7f4552433732313a20746f6b656e20616c7265616479206d696e74656400000000600082015250565b600061317f601c83612215565b915061318a82613149565b602082019050919050565b600060208201905081810360008301526131ae81613172565b9050919050565b7f7b696e737469747574655f6e616d653a00000000000000000000000000000000600082015250565b60006131eb60108361307d565b91506131f6826131b5565b601082019050919050565b7f636f6d70616e795f6e616d653a00000000000000000000000000000000000000600082015250565b6000613237600d8361307d565b915061324282613201565b600d82019050919050565b7f2c20636172626f6e5f637265646974733a000000000000000000000000000000600082015250565b600061328360118361307d565b915061328e8261324d565b601182019050919050565b7f2c2069737375655f646174653a00000000000000000000000000000000000000600082015250565b60006132cf600d8361307d565b91506132da82613299565b600d82019050919050565b7f2c20696e6475737472795f69643a000000000000000000000000000000000000600082015250565b600061331b600e8361307d565b9150613326826132e5565b600e82019050919050565b7f2c206465736372697074696f6e3a000000000000000000000000000000000000600082015250565b6000613367600e8361307d565b915061337282613331565b600e82019050919050565b7f7d00000000000000000000000000000000000000000000000000000000000000600082015250565b60006133b360018361307d565b91506133be8261337d565b600182019050919050565b60006133d4826131de565b91506133e08289613088565b91506133eb8261322a565b91506133f78288613088565b915061340282613276565b915061340e8287613088565b9150613419826132c2565b91506134258286613088565b91506134308261330e565b915061343c8285613088565b91506134478261335a565b91506134538284613088565b915061345e826133a6565b9150819050979650505050505050565b7f45524337323155524953746f726167653a2055524920736574206f66206e6f6e60008201527f6578697374656e7420746f6b656e000000000000000000000000000000000000602082015250565b60006134ca602e83612215565b91506134d58261346e565b604082019050919050565b600060208201905081810360008301526134f9816134bd565b9050919050565b7f4e487b7100000000000000000000000000000000000000000000000000000000600052601260045260246000fdfea26469706673582212208f16ca6779e9fdd8927a33dc768b41c40d00751f21bf98efca4749e0cf5d543e64736f6c63430008110033",
  "devdoc": {
    "kind": "dev",
    "methods": {
      "balanceOf(address)": {
        "details": "See {IERC721-balanceOf}."
      },
      "isApprovedForAll(address,address)": {
        "details": "See {IERC721-isApprovedForAll}."
      },
      "name()": {
        "details": "See {IERC721Metadata-name}."
      },
      "ownerOf(uint256)": {
        "details": "See {IERC721-ownerOf}."
      },
      "supportsInterface(bytes4)": {
        "details": "See {IERC165-supportsInterface}"
      },
      "symbol()": {
        "details": "See {IERC721Metadata-symbol}."
      },
      "tokenURI(uint256)": {
        "details": "See {IERC721Metadata-tokenURI}."
      }
    },
    "version": 1
  },
  "userdoc": {
    "kind": "user",
    "methods": {},
    "version": 1
  },
  "storageLayout": {
    "storage": [
      {
        "astId": 4571,
        "contract": "contracts/SbtPermanent.sol:SbtPermanent",
        "label": "_name",
        "offset": 0,
        "slot": "0",
        "type": "t_string_storage"
      },
      {
        "astId": 4573,
        "contract": "contracts/SbtPermanent.sol:SbtPermanent",
        "label": "_symbol",
        "offset": 0,
        "slot": "1",
        "type": "t_string_storage"
      },
      {
        "astId": 4577,
        "contract": "contracts/SbtPermanent.sol:SbtPermanent",
        "label": "_owners",
        "offset": 0,
        "slot": "2",
        "type": "t_mapping(t_uint256,t_address)"
      },
      {
        "astId": 4581,
        "contract": "contracts/SbtPermanent.sol:SbtPermanent",
        "label": "_balances",
        "offset": 0,
        "slot": "3",
        "type": "t_mapping(t_address,t_uint256)"
      },
      {
        "astId": 4585,
        "contract": "contracts/SbtPermanent.sol:SbtPermanent",
        "label": "_tokenApprovals",
        "offset": 0,
        "slot": "4",
        "type": "t_mapping(t_uint256,t_address)"
      },
      {
        "astId": 4591,
        "contract": "contracts/SbtPermanent.sol:SbtPermanent",
        "label": "_operatorApprovals",
        "offset": 0,
        "slot": "5",
        "type": "t_mapping(t_address,t_mapping(t_address,t_bool))"
      },
      {
        "astId": 5622,
        "contract": "contracts/SbtPermanent.sol:SbtPermanent",
        "label": "_tokenURIs",
        "offset": 0,
        "slot": "6",
        "type": "t_mapping(t_uint256,t_string_storage)"
      },
      {
        "astId": 11346,
        "contract": "contracts/SbtPermanent.sol:SbtPermanent",
        "label": "owner",
        "offset": 0,
        "slot": "7",
        "type": "t_address"
      },
      {
        "astId": 11348,
        "contract": "contracts/SbtPermanent.sol:SbtPermanent",
        "label": "institutes_count",
        "offset": 0,
        "slot": "8",
        "type": "t_uint256"
      },
      {
        "astId": 11353,
        "contract": "contracts/SbtPermanent.sol:SbtPermanent",
        "label": "institutes",
        "offset": 0,
        "slot": "9",
        "type": "t_mapping(t_address,t_struct(Institute)11344_storage)"
      },
      {
        "astId": 11356,
        "contract": "contracts/SbtPermanent.sol:SbtPermanent",
        "label": "institutes_list",
        "offset": 0,
        "slot": "10",
        "type": "t_array(t_address)dyn_storage"
      },
      {
        "astId": 10840,
        "contract": "contracts/SbtPermanent.sol:SbtPermanent",
        "label": "owner",
        "offset": 0,
        "slot": "11",
        "type": "t_address"
      },
      {
        "astId": 10842,
        "contract": "contracts/SbtPermanent.sol:SbtPermanent",
        "label": "companies_count",
        "offset": 0,
        "slot": "12",
        "type": "t_uint256"
      },
      {
        "astId": 10847,
        "contract": "contracts/SbtPermanent.sol:SbtPermanent",
        "label": "companies",
        "offset": 0,
        "slot": "13",
        "type": "t_mapping(t_address,t_struct(Company)10838_storage)"
      },
      {
        "astId": 12363,
        "contract": "contracts/SbtPermanent.sol:SbtPermanent",
        "label": "_owner",
        "offset": 0,
        "slot": "14",
        "type": "t_address"
      },
      {
        "astId": 12370,
        "contract": "contracts/SbtPermanent.sol:SbtPermanent",
        "label": "_tokenIds",
        "offset": 0,
        "slot": "15",
        "type": "t_struct(Counter)6194_storage"
      },
      {
        "astId": 12373,
        "contract": "contracts/SbtPermanent.sol:SbtPermanent",
        "label": "_carbonCredits",
        "offset": 0,
        "slot": "16",
        "type": "t_contract(CarbonCredits)10829"
      }
    ],
    "types": {
      "t_address": {
        "encoding": "inplace",
        "label": "address",
        "numberOfBytes": "20"
      },
      "t_array(t_address)dyn_storage": {
        "base": "t_address",
        "encoding": "dynamic_array",
        "label": "address[]",
        "numberOfBytes": "32"
      },
      "t_bool": {
        "encoding": "inplace",
        "label": "bool",
        "numberOfBytes": "1"
      },
      "t_contract(CarbonCredits)10829": {
        "encoding": "inplace",
        "label": "contract CarbonCredits",
        "numberOfBytes": "20"
      },
      "t_mapping(t_address,t_bool)": {
        "encoding": "mapping",
        "key": "t_address",
        "label": "mapping(address => bool)",
        "numberOfBytes": "32",
        "value": "t_bool"
      },
      "t_mapping(t_address,t_mapping(t_address,t_bool))": {
        "encoding": "mapping",
        "key": "t_address",
        "label": "mapping(address => mapping(address => bool))",
        "numberOfBytes": "32",
        "value": "t_mapping(t_address,t_bool)"
      },
      "t_mapping(t_address,t_struct(Company)10838_storage)": {
        "encoding": "mapping",
        "key": "t_address",
        "label": "mapping(address => struct Companies.Company)",
        "numberOfBytes": "32",
        "value": "t_struct(Company)10838_storage"
      },
      "t_mapping(t_address,t_struct(Institute)11344_storage)": {
        "encoding": "mapping",
        "key": "t_address",
        "label": "mapping(address => struct Institutes.Institute)",
        "numberOfBytes": "32",
        "value": "t_struct(Institute)11344_storage"
      },
      "t_mapping(t_address,t_uint256)": {
        "encoding": "mapping",
        "key": "t_address",
        "label": "mapping(address => uint256)",
        "numberOfBytes": "32",
        "value": "t_uint256"
      },
      "t_mapping(t_uint256,t_address)": {
        "encoding": "mapping",
        "key": "t_uint256",
        "label": "mapping(uint256 => address)",
        "numberOfBytes": "32",
        "value": "t_address"
      },
      "t_mapping(t_uint256,t_string_storage)": {
        "encoding": "mapping",
        "key": "t_uint256",
        "label": "mapping(uint256 => string)",
        "numberOfBytes": "32",
        "value": "t_string_storage"
      },
      "t_string_storage": {
        "encoding": "bytes",
        "label": "string",
        "numberOfBytes": "32"
      },
      "t_struct(Company)10838_storage": {
        "encoding": "inplace",
        "label": "struct Companies.Company",
        "members": [
          {
            "astId": 10833,
            "contract": "contracts/SbtPermanent.sol:SbtPermanent",
            "label": "name",
            "offset": 0,
            "slot": "0",
            "type": "t_string_storage"
          },
          {
            "astId": 10835,
            "contract": "contracts/SbtPermanent.sol:SbtPermanent",
            "label": "description",
            "offset": 0,
            "slot": "1",
            "type": "t_string_storage"
          },
          {
            "astId": 10837,
            "contract": "contracts/SbtPermanent.sol:SbtPermanent",
            "label": "active",
            "offset": 0,
            "slot": "2",
            "type": "t_bool"
          }
        ],
        "numberOfBytes": "96"
      },
      "t_struct(Counter)6194_storage": {
        "encoding": "inplace",
        "label": "struct Counters.Counter",
        "members": [
          {
            "astId": 6193,
            "contract": "contracts/SbtPermanent.sol:SbtPermanent",
            "label": "_value",
            "offset": 0,
            "slot": "0",
            "type": "t_uint256"
          }
        ],
        "numberOfBytes": "32"
      },
      "t_struct(Institute)11344_storage": {
        "encoding": "inplace",
        "label": "struct Institutes.Institute",
        "members": [
          {
            "astId": 11339,
            "contract": "contracts/SbtPermanent.sol:SbtPermanent",
            "label": "name",
            "offset": 0,
            "slot": "0",
            "type": "t_string_storage"
          },
          {
            "astId": 11341,
            "contract": "contracts/SbtPermanent.sol:SbtPermanent",
            "label": "description",
            "offset": 0,
            "slot": "1",
            "type": "t_string_storage"
          },
          {
            "astId": 11343,
            "contract": "contracts/SbtPermanent.sol:SbtPermanent",
            "label": "active",
            "offset": 0,
            "slot": "2",
            "type": "t_bool"
          }
        ],
        "numberOfBytes": "96"
      },
      "t_uint256": {
        "encoding": "inplace",
        "label": "uint256",
        "numberOfBytes": "32"
      }
    }
  }
}